{
	"contracts/contracts/ERC721A.sol": {
		"ERC721A": {
			"abi": [
				{
					"inputs": [
						{
							"internalType": "string",
							"name": "name_",
							"type": "string"
						},
						{
							"internalType": "string",
							"name": "symbol_",
							"type": "string"
						}
					],
					"stateMutability": "nonpayable",
					"type": "constructor"
				},
				{
					"inputs": [],
					"name": "ApprovalCallerNotOwnerNorApproved",
					"type": "error"
				},
				{
					"inputs": [],
					"name": "ApprovalQueryForNonexistentToken",
					"type": "error"
				},
				{
					"inputs": [],
					"name": "BalanceQueryForZeroAddress",
					"type": "error"
				},
				{
					"inputs": [],
					"name": "MintERC2309QuantityExceedsLimit",
					"type": "error"
				},
				{
					"inputs": [],
					"name": "MintToZeroAddress",
					"type": "error"
				},
				{
					"inputs": [],
					"name": "MintZeroQuantity",
					"type": "error"
				},
				{
					"inputs": [],
					"name": "OwnerQueryForNonexistentToken",
					"type": "error"
				},
				{
					"inputs": [],
					"name": "OwnershipNotInitializedForExtraData",
					"type": "error"
				},
				{
					"inputs": [],
					"name": "TransferCallerNotOwnerNorApproved",
					"type": "error"
				},
				{
					"inputs": [],
					"name": "TransferFromIncorrectOwner",
					"type": "error"
				},
				{
					"inputs": [],
					"name": "TransferToNonERC721ReceiverImplementer",
					"type": "error"
				},
				{
					"inputs": [],
					"name": "TransferToZeroAddress",
					"type": "error"
				},
				{
					"inputs": [],
					"name": "URIQueryForNonexistentToken",
					"type": "error"
				},
				{
					"anonymous": false,
					"inputs": [
						{
							"indexed": true,
							"internalType": "address",
							"name": "owner",
							"type": "address"
						},
						{
							"indexed": true,
							"internalType": "address",
							"name": "approved",
							"type": "address"
						},
						{
							"indexed": true,
							"internalType": "uint256",
							"name": "tokenId",
							"type": "uint256"
						}
					],
					"name": "Approval",
					"type": "event"
				},
				{
					"anonymous": false,
					"inputs": [
						{
							"indexed": true,
							"internalType": "address",
							"name": "owner",
							"type": "address"
						},
						{
							"indexed": true,
							"internalType": "address",
							"name": "operator",
							"type": "address"
						},
						{
							"indexed": false,
							"internalType": "bool",
							"name": "approved",
							"type": "bool"
						}
					],
					"name": "ApprovalForAll",
					"type": "event"
				},
				{
					"anonymous": false,
					"inputs": [
						{
							"indexed": true,
							"internalType": "uint256",
							"name": "fromTokenId",
							"type": "uint256"
						},
						{
							"indexed": false,
							"internalType": "uint256",
							"name": "toTokenId",
							"type": "uint256"
						},
						{
							"indexed": true,
							"internalType": "address",
							"name": "from",
							"type": "address"
						},
						{
							"indexed": true,
							"internalType": "address",
							"name": "to",
							"type": "address"
						}
					],
					"name": "ConsecutiveTransfer",
					"type": "event"
				},
				{
					"anonymous": false,
					"inputs": [
						{
							"indexed": true,
							"internalType": "address",
							"name": "from",
							"type": "address"
						},
						{
							"indexed": true,
							"internalType": "address",
							"name": "to",
							"type": "address"
						},
						{
							"indexed": true,
							"internalType": "uint256",
							"name": "tokenId",
							"type": "uint256"
						}
					],
					"name": "Transfer",
					"type": "event"
				},
				{
					"inputs": [
						{
							"internalType": "address",
							"name": "to",
							"type": "address"
						},
						{
							"internalType": "uint256",
							"name": "tokenId",
							"type": "uint256"
						}
					],
					"name": "approve",
					"outputs": [],
					"stateMutability": "payable",
					"type": "function"
				},
				{
					"inputs": [
						{
							"internalType": "address",
							"name": "owner",
							"type": "address"
						}
					],
					"name": "balanceOf",
					"outputs": [
						{
							"internalType": "uint256",
							"name": "",
							"type": "uint256"
						}
					],
					"stateMutability": "view",
					"type": "function"
				},
				{
					"inputs": [
						{
							"internalType": "uint256",
							"name": "tokenId",
							"type": "uint256"
						}
					],
					"name": "getApproved",
					"outputs": [
						{
							"internalType": "address",
							"name": "",
							"type": "address"
						}
					],
					"stateMutability": "view",
					"type": "function"
				},
				{
					"inputs": [
						{
							"internalType": "address",
							"name": "owner",
							"type": "address"
						},
						{
							"internalType": "address",
							"name": "operator",
							"type": "address"
						}
					],
					"name": "isApprovedForAll",
					"outputs": [
						{
							"internalType": "bool",
							"name": "",
							"type": "bool"
						}
					],
					"stateMutability": "view",
					"type": "function"
				},
				{
					"inputs": [],
					"name": "name",
					"outputs": [
						{
							"internalType": "string",
							"name": "",
							"type": "string"
						}
					],
					"stateMutability": "view",
					"type": "function"
				},
				{
					"inputs": [
						{
							"internalType": "uint256",
							"name": "tokenId",
							"type": "uint256"
						}
					],
					"name": "ownerOf",
					"outputs": [
						{
							"internalType": "address",
							"name": "",
							"type": "address"
						}
					],
					"stateMutability": "view",
					"type": "function"
				},
				{
					"inputs": [
						{
							"internalType": "address",
							"name": "from",
							"type": "address"
						},
						{
							"internalType": "address",
							"name": "to",
							"type": "address"
						},
						{
							"internalType": "uint256",
							"name": "tokenId",
							"type": "uint256"
						}
					],
					"name": "safeTransferFrom",
					"outputs": [],
					"stateMutability": "payable",
					"type": "function"
				},
				{
					"inputs": [
						{
							"internalType": "address",
							"name": "from",
							"type": "address"
						},
						{
							"internalType": "address",
							"name": "to",
							"type": "address"
						},
						{
							"internalType": "uint256",
							"name": "tokenId",
							"type": "uint256"
						},
						{
							"internalType": "bytes",
							"name": "_data",
							"type": "bytes"
						}
					],
					"name": "safeTransferFrom",
					"outputs": [],
					"stateMutability": "payable",
					"type": "function"
				},
				{
					"inputs": [
						{
							"internalType": "address",
							"name": "operator",
							"type": "address"
						},
						{
							"internalType": "bool",
							"name": "approved",
							"type": "bool"
						}
					],
					"name": "setApprovalForAll",
					"outputs": [],
					"stateMutability": "nonpayable",
					"type": "function"
				},
				{
					"inputs": [
						{
							"internalType": "bytes4",
							"name": "interfaceId",
							"type": "bytes4"
						}
					],
					"name": "supportsInterface",
					"outputs": [
						{
							"internalType": "bool",
							"name": "",
							"type": "bool"
						}
					],
					"stateMutability": "view",
					"type": "function"
				},
				{
					"inputs": [],
					"name": "symbol",
					"outputs": [
						{
							"internalType": "string",
							"name": "",
							"type": "string"
						}
					],
					"stateMutability": "view",
					"type": "function"
				},
				{
					"inputs": [
						{
							"internalType": "uint256",
							"name": "tokenId",
							"type": "uint256"
						}
					],
					"name": "tokenURI",
					"outputs": [
						{
							"internalType": "string",
							"name": "",
							"type": "string"
						}
					],
					"stateMutability": "view",
					"type": "function"
				},
				{
					"inputs": [],
					"name": "totalSupply",
					"outputs": [
						{
							"internalType": "uint256",
							"name": "",
							"type": "uint256"
						}
					],
					"stateMutability": "view",
					"type": "function"
				},
				{
					"inputs": [
						{
							"internalType": "address",
							"name": "from",
							"type": "address"
						},
						{
							"internalType": "address",
							"name": "to",
							"type": "address"
						},
						{
							"internalType": "uint256",
							"name": "tokenId",
							"type": "uint256"
						}
					],
					"name": "transferFrom",
					"outputs": [],
					"stateMutability": "payable",
					"type": "function"
				}
			],
			"devdoc": {
				"details": "Implementation of the [ERC721](https://eips.ethereum.org/EIPS/eip-721) Non-Fungible Token Standard, including the Metadata extension. Optimized for lower gas during batch mints. Token IDs are minted in sequential order (e.g. 0, 1, 2, 3, ...) starting from `_startTokenId()`. Assumptions: - An owner cannot have more than 2**64 - 1 (max value of uint64) of supply. - The maximum token ID cannot exceed 2**256 - 1 (max value of uint256).",
				"events": {
					"Approval(address,address,uint256)": {
						"details": "Emitted when `owner` enables `approved` to manage the `tokenId` token."
					},
					"ApprovalForAll(address,address,bool)": {
						"details": "Emitted when `owner` enables or disables (`approved`) `operator` to manage all of its assets."
					},
					"ConsecutiveTransfer(uint256,uint256,address,address)": {
						"details": "Emitted when tokens in `fromTokenId` to `toTokenId` (inclusive) is transferred from `from` to `to`, as defined in the [ERC2309](https://eips.ethereum.org/EIPS/eip-2309) standard. See {_mintERC2309} for more details."
					},
					"Transfer(address,address,uint256)": {
						"details": "Emitted when `tokenId` token is transferred from `from` to `to`."
					}
				},
				"kind": "dev",
				"methods": {
					"approve(address,uint256)": {
						"details": "Gives permission to `to` to transfer `tokenId` token to another account. The approval is cleared when the token is transferred. Only a single account can be approved at a time, so approving the zero address clears previous approvals. Requirements: - The caller must own the token or be an approved operator. - `tokenId` must exist. Emits an {Approval} event."
					},
					"balanceOf(address)": {
						"details": "Returns the number of tokens in `owner`'s account."
					},
					"getApproved(uint256)": {
						"details": "Returns the account approved for `tokenId` token. Requirements: - `tokenId` must exist."
					},
					"isApprovedForAll(address,address)": {
						"details": "Returns if the `operator` is allowed to manage all of the assets of `owner`. See {setApprovalForAll}."
					},
					"name()": {
						"details": "Returns the token collection name."
					},
					"ownerOf(uint256)": {
						"details": "Returns the owner of the `tokenId` token. Requirements: - `tokenId` must exist."
					},
					"safeTransferFrom(address,address,uint256)": {
						"details": "Equivalent to `safeTransferFrom(from, to, tokenId, '')`."
					},
					"safeTransferFrom(address,address,uint256,bytes)": {
						"details": "Safely transfers `tokenId` token from `from` to `to`. Requirements: - `from` cannot be the zero address. - `to` cannot be the zero address. - `tokenId` token must exist and be owned by `from`. - If the caller is not `from`, it must be approved to move this token by either {approve} or {setApprovalForAll}. - If `to` refers to a smart contract, it must implement {IERC721Receiver-onERC721Received}, which is called upon a safe transfer. Emits a {Transfer} event."
					},
					"setApprovalForAll(address,bool)": {
						"details": "Approve or remove `operator` as an operator for the caller. Operators can call {transferFrom} or {safeTransferFrom} for any token owned by the caller. Requirements: - The `operator` cannot be the caller. Emits an {ApprovalForAll} event."
					},
					"supportsInterface(bytes4)": {
						"details": "Returns true if this contract implements the interface defined by `interfaceId`. See the corresponding [EIP section](https://eips.ethereum.org/EIPS/eip-165#how-interfaces-are-identified) to learn more about how these ids are created. This function call must use less than 30000 gas."
					},
					"symbol()": {
						"details": "Returns the token collection symbol."
					},
					"tokenURI(uint256)": {
						"details": "Returns the Uniform Resource Identifier (URI) for `tokenId` token."
					},
					"totalSupply()": {
						"details": "Returns the total number of tokens in existence. Burned tokens will reduce the count. To get the total number of tokens minted, please see {_totalMinted}."
					},
					"transferFrom(address,address,uint256)": {
						"details": "Transfers `tokenId` from `from` to `to`. Requirements: - `from` cannot be the zero address. - `to` cannot be the zero address. - `tokenId` token must be owned by `from`. - If the caller is not `from`, it must be approved to move this token by either {approve} or {setApprovalForAll}. Emits a {Transfer} event."
					}
				},
				"title": "ERC721A",
				"version": 1
			},
			"evm": {
				"assembly": "    /* \"contracts/contracts/ERC721A.sol\":941:42448  contract ERC721A is IERC721A {... */\n  mstore(0x40, 0x80)\n    /* \"contracts/contracts/ERC721A.sol\":5096:5254  constructor(string memory name_, string memory symbol_) {... */\n  callvalue\n  dup1\n  iszero\n  tag_1\n  jumpi\n  0x00\n  dup1\n  revert\ntag_1:\n  pop\n  mload(0x40)\n  sub(codesize, bytecodeSize)\n  dup1\n  bytecodeSize\n  dup4\n  codecopy\n  dup2\n  add\n  0x40\n  dup2\n  swap1\n  mstore\n  tag_2\n  swap2\n  tag_3\n  jump\t// in\ntag_2:\n    /* \"contracts/contracts/ERC721A.sol\":5163:5168  _name */\n  0x02\n    /* \"contracts/contracts/ERC721A.sol\":5163:5176  _name = name_ */\n  tag_6\n    /* \"contracts/contracts/ERC721A.sol\":5171:5176  name_ */\n  dup4\n    /* \"contracts/contracts/ERC721A.sol\":5163:5168  _name */\n  dup3\n    /* \"contracts/contracts/ERC721A.sol\":5163:5176  _name = name_ */\n  tag_7\n  jump\t// in\ntag_6:\n  pop\n    /* \"contracts/contracts/ERC721A.sol\":5187:5194  _symbol */\n  0x03\n    /* \"contracts/contracts/ERC721A.sol\":5187:5204  _symbol = symbol_ */\n  tag_8\n    /* \"contracts/contracts/ERC721A.sol\":5197:5204  symbol_ */\n  dup3\n    /* \"contracts/contracts/ERC721A.sol\":5187:5194  _symbol */\n  dup3\n    /* \"contracts/contracts/ERC721A.sol\":5187:5204  _symbol = symbol_ */\n  tag_7\n  jump\t// in\ntag_8:\n  pop\n  pop\n    /* \"contracts/contracts/ERC721A.sol\":5646:5653  uint256 */\n  0x00\n    /* \"contracts/contracts/ERC721A.sol\":5215:5246  _currentIndex = _startTokenId() */\n  dup1\n  sstore\n  pop\n    /* \"contracts/contracts/ERC721A.sol\":941:42448  contract ERC721A is IERC721A {... */\n  jump(tag_19)\n    /* \"#utility.yul\":14:141   */\ntag_13:\n    /* \"#utility.yul\":75:85   */\n  0x4e487b71\n    /* \"#utility.yul\":70:73   */\n  0xe0\n    /* \"#utility.yul\":66:86   */\n  shl\n    /* \"#utility.yul\":63:64   */\n  0x00\n    /* \"#utility.yul\":56:87   */\n  mstore\n    /* \"#utility.yul\":106:110   */\n  0x41\n    /* \"#utility.yul\":103:104   */\n  0x04\n    /* \"#utility.yul\":96:111   */\n  mstore\n    /* \"#utility.yul\":130:134   */\n  0x24\n    /* \"#utility.yul\":127:128   */\n  0x00\n    /* \"#utility.yul\":120:135   */\n  revert\n    /* \"#utility.yul\":146:990   */\ntag_14:\n    /* \"#utility.yul\":200:205   */\n  0x00\n    /* \"#utility.yul\":253:256   */\n  dup3\n    /* \"#utility.yul\":246:250   */\n  0x1f\n    /* \"#utility.yul\":238:244   */\n  dup4\n    /* \"#utility.yul\":234:251   */\n  add\n    /* \"#utility.yul\":230:257   */\n  slt\n    /* \"#utility.yul\":220:275   */\n  tag_22\n  jumpi\n    /* \"#utility.yul\":271:272   */\n  0x00\n    /* \"#utility.yul\":268:269   */\n  dup1\n    /* \"#utility.yul\":261:273   */\n  revert\n    /* \"#utility.yul\":220:275   */\ntag_22:\n    /* \"#utility.yul\":294:307   */\n  dup2\n  mload\n  sub(shl(0x40, 0x01), 0x01)\n    /* \"#utility.yul\":356:366   */\n  dup1\n  dup3\n  gt\n    /* \"#utility.yul\":353:389   */\n  iszero\n  tag_24\n  jumpi\n    /* \"#utility.yul\":369:387   */\n  tag_24\n  tag_13\n  jump\t// in\ntag_24:\n    /* \"#utility.yul\":444:446   */\n  0x40\n    /* \"#utility.yul\":438:447   */\n  mload\n    /* \"#utility.yul\":412:414   */\n  0x1f\n    /* \"#utility.yul\":498:511   */\n  dup4\n  add\n  not(0x1f)\n    /* \"#utility.yul\":494:516   */\n  swap1\n  dup2\n  and\n    /* \"#utility.yul\":518:520   */\n  0x3f\n    /* \"#utility.yul\":490:521   */\n  add\n    /* \"#utility.yul\":486:526   */\n  and\n    /* \"#utility.yul\":474:527   */\n  dup2\n  add\n  swap1\n    /* \"#utility.yul\":542:560   */\n  dup3\n  dup3\n  gt\n    /* \"#utility.yul\":562:584   */\n  dup2\n  dup4\n  lt\n    /* \"#utility.yul\":539:585   */\n  or\n    /* \"#utility.yul\":536:608   */\n  iszero\n  tag_26\n  jumpi\n    /* \"#utility.yul\":588:606   */\n  tag_26\n  tag_13\n  jump\t// in\ntag_26:\n    /* \"#utility.yul\":628:638   */\n  dup2\n    /* \"#utility.yul\":624:626   */\n  0x40\n    /* \"#utility.yul\":617:639   */\n  mstore\n    /* \"#utility.yul\":663:665   */\n  dup4\n    /* \"#utility.yul\":655:661   */\n  dup2\n    /* \"#utility.yul\":648:666   */\n  mstore\n    /* \"#utility.yul\":685:689   */\n  0x20\n    /* \"#utility.yul\":675:689   */\n  swap3\n  pop\n    /* \"#utility.yul\":732:735   */\n  dup7\n    /* \"#utility.yul\":725:729   */\n  0x20\n    /* \"#utility.yul\":720:722   */\n  dup6\n    /* \"#utility.yul\":712:718   */\n  dup9\n    /* \"#utility.yul\":708:723   */\n  add\n    /* \"#utility.yul\":704:730   */\n  add\n    /* \"#utility.yul\":701:736   */\n  gt\n    /* \"#utility.yul\":698:753   */\n  iszero\n  tag_27\n  jumpi\n    /* \"#utility.yul\":749:750   */\n  0x00\n    /* \"#utility.yul\":746:747   */\n  dup1\n    /* \"#utility.yul\":739:751   */\n  revert\n    /* \"#utility.yul\":698:753   */\ntag_27:\n    /* \"#utility.yul\":771:772   */\n  0x00\n    /* \"#utility.yul\":762:772   */\n  swap2\n  pop\n    /* \"#utility.yul\":781:914   */\ntag_28:\n    /* \"#utility.yul\":795:797   */\n  dup4\n    /* \"#utility.yul\":792:793   */\n  dup3\n    /* \"#utility.yul\":789:798   */\n  lt\n    /* \"#utility.yul\":781:914   */\n  iszero\n  tag_30\n  jumpi\n    /* \"#utility.yul\":883:897   */\n  dup6\n  dup3\n  add\n    /* \"#utility.yul\":879:902   */\n  dup4\n  add\n    /* \"#utility.yul\":873:903   */\n  mload\n    /* \"#utility.yul\":852:866   */\n  dup2\n  dup4\n  add\n    /* \"#utility.yul\":848:871   */\n  dup5\n  add\n    /* \"#utility.yul\":841:904   */\n  mstore\n    /* \"#utility.yul\":806:816   */\n  swap1\n  dup3\n  add\n  swap1\n    /* \"#utility.yul\":781:914   */\n  jump(tag_28)\ntag_30:\n    /* \"#utility.yul\":958:959   */\n  0x00\n    /* \"#utility.yul\":951:955   */\n  0x20\n    /* \"#utility.yul\":946:948   */\n  dup6\n    /* \"#utility.yul\":938:944   */\n  dup4\n    /* \"#utility.yul\":934:949   */\n  add\n    /* \"#utility.yul\":930:956   */\n  add\n    /* \"#utility.yul\":923:960   */\n  mstore\n    /* \"#utility.yul\":978:984   */\n  dup1\n    /* \"#utility.yul\":969:984   */\n  swap5\n  pop\n  pop\n  pop\n  pop\n  pop\n    /* \"#utility.yul\":146:990   */\n  swap3\n  swap2\n  pop\n  pop\n  jump\t// out\n    /* \"#utility.yul\":995:1557   */\ntag_3:\n    /* \"#utility.yul\":1094:1100   */\n  0x00\n    /* \"#utility.yul\":1102:1108   */\n  dup1\n    /* \"#utility.yul\":1155:1157   */\n  0x40\n    /* \"#utility.yul\":1143:1152   */\n  dup4\n    /* \"#utility.yul\":1134:1141   */\n  dup6\n    /* \"#utility.yul\":1130:1153   */\n  sub\n    /* \"#utility.yul\":1126:1158   */\n  slt\n    /* \"#utility.yul\":1123:1175   */\n  iszero\n  tag_32\n  jumpi\n    /* \"#utility.yul\":1171:1172   */\n  0x00\n    /* \"#utility.yul\":1168:1169   */\n  dup1\n    /* \"#utility.yul\":1161:1173   */\n  revert\n    /* \"#utility.yul\":1123:1175   */\ntag_32:\n    /* \"#utility.yul\":1198:1214   */\n  dup3\n  mload\n  sub(shl(0x40, 0x01), 0x01)\n    /* \"#utility.yul\":1263:1277   */\n  dup1\n  dup3\n  gt\n    /* \"#utility.yul\":1260:1294   */\n  iszero\n  tag_33\n  jumpi\n    /* \"#utility.yul\":1290:1291   */\n  0x00\n    /* \"#utility.yul\":1287:1288   */\n  dup1\n    /* \"#utility.yul\":1280:1292   */\n  revert\n    /* \"#utility.yul\":1260:1294   */\ntag_33:\n    /* \"#utility.yul\":1313:1374   */\n  tag_34\n    /* \"#utility.yul\":1366:1373   */\n  dup7\n    /* \"#utility.yul\":1357:1363   */\n  dup4\n    /* \"#utility.yul\":1346:1355   */\n  dup8\n    /* \"#utility.yul\":1342:1364   */\n  add\n    /* \"#utility.yul\":1313:1374   */\n  tag_14\n  jump\t// in\ntag_34:\n    /* \"#utility.yul\":1303:1374   */\n  swap4\n  pop\n    /* \"#utility.yul\":1420:1422   */\n  0x20\n    /* \"#utility.yul\":1409:1418   */\n  dup6\n    /* \"#utility.yul\":1405:1423   */\n  add\n    /* \"#utility.yul\":1399:1424   */\n  mload\n    /* \"#utility.yul\":1383:1424   */\n  swap2\n  pop\n    /* \"#utility.yul\":1449:1451   */\n  dup1\n    /* \"#utility.yul\":1439:1447   */\n  dup3\n    /* \"#utility.yul\":1436:1452   */\n  gt\n    /* \"#utility.yul\":1433:1469   */\n  iszero\n  tag_35\n  jumpi\n    /* \"#utility.yul\":1465:1466   */\n  0x00\n    /* \"#utility.yul\":1462:1463   */\n  dup1\n    /* \"#utility.yul\":1455:1467   */\n  revert\n    /* \"#utility.yul\":1433:1469   */\ntag_35:\n  pop\n    /* \"#utility.yul\":1488:1551   */\n  tag_36\n    /* \"#utility.yul\":1543:1550   */\n  dup6\n    /* \"#utility.yul\":1532:1540   */\n  dup3\n    /* \"#utility.yul\":1521:1530   */\n  dup7\n    /* \"#utility.yul\":1517:1541   */\n  add\n    /* \"#utility.yul\":1488:1551   */\n  tag_14\n  jump\t// in\ntag_36:\n    /* \"#utility.yul\":1478:1551   */\n  swap2\n  pop\n  pop\n    /* \"#utility.yul\":995:1557   */\n  swap3\n  pop\n  swap3\n  swap1\n  pop\n  jump\t// out\n    /* \"#utility.yul\":1562:1942   */\ntag_15:\n    /* \"#utility.yul\":1641:1642   */\n  0x01\n    /* \"#utility.yul\":1637:1649   */\n  dup2\n  dup2\n  shr\n  swap1\n    /* \"#utility.yul\":1684:1696   */\n  dup3\n  and\n  dup1\n    /* \"#utility.yul\":1705:1766   */\n  tag_38\n  jumpi\n    /* \"#utility.yul\":1759:1763   */\n  0x7f\n    /* \"#utility.yul\":1751:1757   */\n  dup3\n    /* \"#utility.yul\":1747:1764   */\n  and\n    /* \"#utility.yul\":1737:1764   */\n  swap2\n  pop\n    /* \"#utility.yul\":1705:1766   */\ntag_38:\n    /* \"#utility.yul\":1812:1814   */\n  0x20\n    /* \"#utility.yul\":1804:1810   */\n  dup3\n    /* \"#utility.yul\":1801:1815   */\n  lt\n    /* \"#utility.yul\":1781:1799   */\n  dup2\n    /* \"#utility.yul\":1778:1816   */\n  sub\n    /* \"#utility.yul\":1775:1936   */\n  tag_39\n  jumpi\n    /* \"#utility.yul\":1858:1868   */\n  0x4e487b71\n    /* \"#utility.yul\":1853:1856   */\n  0xe0\n    /* \"#utility.yul\":1849:1869   */\n  shl\n    /* \"#utility.yul\":1846:1847   */\n  0x00\n    /* \"#utility.yul\":1839:1870   */\n  mstore\n    /* \"#utility.yul\":1893:1897   */\n  0x22\n    /* \"#utility.yul\":1890:1891   */\n  0x04\n    /* \"#utility.yul\":1883:1898   */\n  mstore\n    /* \"#utility.yul\":1921:1925   */\n  0x24\n    /* \"#utility.yul\":1918:1919   */\n  0x00\n    /* \"#utility.yul\":1911:1926   */\n  revert\n    /* \"#utility.yul\":1775:1936   */\ntag_39:\n  pop\n    /* \"#utility.yul\":1562:1942   */\n  swap2\n  swap1\n  pop\n  jump\t// out\n    /* \"#utility.yul\":2073:2591   */\ntag_17:\n    /* \"#utility.yul\":2175:2177   */\n  0x1f\n    /* \"#utility.yul\":2170:2173   */\n  dup3\n    /* \"#utility.yul\":2167:2178   */\n  gt\n    /* \"#utility.yul\":2164:2585   */\n  iszero\n  tag_42\n  jumpi\n    /* \"#utility.yul\":2211:2216   */\n  dup1\n    /* \"#utility.yul\":2208:2209   */\n  0x00\n    /* \"#utility.yul\":2201:2217   */\n  mstore\n    /* \"#utility.yul\":2255:2259   */\n  0x20\n    /* \"#utility.yul\":2252:2253   */\n  0x00\n    /* \"#utility.yul\":2242:2260   */\n  keccak256\n    /* \"#utility.yul\":2325:2327   */\n  0x1f\n    /* \"#utility.yul\":2313:2323   */\n  dup5\n    /* \"#utility.yul\":2309:2328   */\n  add\n    /* \"#utility.yul\":2306:2307   */\n  0x05\n    /* \"#utility.yul\":2302:2329   */\n  shr\n    /* \"#utility.yul\":2296:2300   */\n  dup2\n    /* \"#utility.yul\":2292:2330   */\n  add\n    /* \"#utility.yul\":2361:2365   */\n  0x20\n    /* \"#utility.yul\":2349:2359   */\n  dup6\n    /* \"#utility.yul\":2346:2366   */\n  lt\n    /* \"#utility.yul\":2343:2390   */\n  iszero\n  tag_43\n  jumpi\n  pop\n    /* \"#utility.yul\":2384:2388   */\n  dup1\n    /* \"#utility.yul\":2343:2390   */\ntag_43:\n    /* \"#utility.yul\":2439:2441   */\n  0x1f\n    /* \"#utility.yul\":2434:2437   */\n  dup5\n    /* \"#utility.yul\":2430:2442   */\n  add\n    /* \"#utility.yul\":2427:2428   */\n  0x05\n    /* \"#utility.yul\":2423:2443   */\n  shr\n    /* \"#utility.yul\":2417:2421   */\n  dup3\n    /* \"#utility.yul\":2413:2444   */\n  add\n    /* \"#utility.yul\":2403:2444   */\n  swap2\n  pop\n    /* \"#utility.yul\":2494:2575   */\ntag_44:\n    /* \"#utility.yul\":2512:2514   */\n  dup2\n    /* \"#utility.yul\":2505:2510   */\n  dup2\n    /* \"#utility.yul\":2502:2515   */\n  lt\n    /* \"#utility.yul\":2494:2575   */\n  iszero\n  tag_46\n  jumpi\n    /* \"#utility.yul\":2571:2572   */\n  0x00\n    /* \"#utility.yul\":2557:2573   */\n  dup2\n  sstore\n    /* \"#utility.yul\":2538:2539   */\n  0x01\n    /* \"#utility.yul\":2527:2540   */\n  add\n    /* \"#utility.yul\":2494:2575   */\n  jump(tag_44)\ntag_46:\n    /* \"#utility.yul\":2498:2501   */\n  pop\n  pop\n    /* \"#utility.yul\":2164:2585   */\ntag_42:\n    /* \"#utility.yul\":2073:2591   */\n  pop\n  pop\n  pop\n  jump\t// out\n    /* \"#utility.yul\":2767:4112   */\ntag_7:\n    /* \"#utility.yul\":2887:2897   */\n  dup2\n  mload\n  sub(shl(0x40, 0x01), 0x01)\n    /* \"#utility.yul\":2909:2939   */\n  dup2\n  gt\n    /* \"#utility.yul\":2906:2962   */\n  iszero\n  tag_50\n  jumpi\n    /* \"#utility.yul\":2942:2960   */\n  tag_50\n  tag_13\n  jump\t// in\ntag_50:\n    /* \"#utility.yul\":2971:3068   */\n  tag_51\n    /* \"#utility.yul\":3061:3067   */\n  dup2\n    /* \"#utility.yul\":3021:3059   */\n  tag_52\n    /* \"#utility.yul\":3053:3057   */\n  dup5\n    /* \"#utility.yul\":3047:3058   */\n  sload\n    /* \"#utility.yul\":3021:3059   */\n  tag_15\n  jump\t// in\ntag_52:\n    /* \"#utility.yul\":3015:3019   */\n  dup5\n    /* \"#utility.yul\":2971:3068   */\n  tag_17\n  jump\t// in\ntag_51:\n    /* \"#utility.yul\":3123:3127   */\n  0x20\n  dup1\n    /* \"#utility.yul\":3180:3182   */\n  0x1f\n    /* \"#utility.yul\":3169:3183   */\n  dup4\n  gt\n    /* \"#utility.yul\":3197:3198   */\n  0x01\n    /* \"#utility.yul\":3192:3855   */\n  dup2\n  eq\n  tag_54\n  jumpi\n    /* \"#utility.yul\":3899:3900   */\n  0x00\n    /* \"#utility.yul\":3916:3922   */\n  dup5\n    /* \"#utility.yul\":3913:4002   */\n  iszero\n  tag_55\n  jumpi\n  pop\n    /* \"#utility.yul\":3968:3987   */\n  dup6\n  dup4\n  add\n    /* \"#utility.yul\":3962:3988   */\n  mload\n    /* \"#utility.yul\":3913:4002   */\ntag_55:\n  not(0x00)\n    /* \"#utility.yul\":2724:2725   */\n  0x03\n    /* \"#utility.yul\":2720:2731   */\n  dup7\n  swap1\n  shl\n    /* \"#utility.yul\":2716:2740   */\n  shr\n    /* \"#utility.yul\":2712:2741   */\n  not\n    /* \"#utility.yul\":2702:2742   */\n  and\n    /* \"#utility.yul\":2748:2749   */\n  0x01\n    /* \"#utility.yul\":2744:2755   */\n  dup6\n  swap1\n  shl\n    /* \"#utility.yul\":2699:2756   */\n  or\n    /* \"#utility.yul\":4015:4096   */\n  dup6\n  sstore\n    /* \"#utility.yul\":3162:4106   */\n  jump(tag_53)\n    /* \"#utility.yul\":3192:3855   */\ntag_54:\n    /* \"#utility.yul\":2020:2021   */\n  0x00\n    /* \"#utility.yul\":2013:2027   */\n  dup6\n  dup2\n  mstore\n    /* \"#utility.yul\":2057:2061   */\n  0x20\n    /* \"#utility.yul\":2044:2062   */\n  dup2\n  keccak256\n  not(0x1f)\n    /* \"#utility.yul\":3228:3248   */\n  dup7\n  and\n  swap2\n    /* \"#utility.yul\":3346:3582   */\ntag_58:\n    /* \"#utility.yul\":3360:3367   */\n  dup3\n    /* \"#utility.yul\":3357:3358   */\n  dup2\n    /* \"#utility.yul\":3354:3368   */\n  lt\n    /* \"#utility.yul\":3346:3582   */\n  iszero\n  tag_60\n  jumpi\n    /* \"#utility.yul\":3449:3468   */\n  dup9\n  dup7\n  add\n    /* \"#utility.yul\":3443:3469   */\n  mload\n    /* \"#utility.yul\":3428:3470   */\n  dup3\n  sstore\n    /* \"#utility.yul\":3541:3568   */\n  swap5\n  dup5\n  add\n  swap5\n    /* \"#utility.yul\":3509:3510   */\n  0x01\n    /* \"#utility.yul\":3497:3511   */\n  swap1\n  swap2\n  add\n  swap1\n    /* \"#utility.yul\":3376:3395   */\n  dup5\n  add\n    /* \"#utility.yul\":3346:3582   */\n  jump(tag_58)\ntag_60:\n    /* \"#utility.yul\":3350:3353   */\n  pop\n    /* \"#utility.yul\":3610:3616   */\n  dup6\n    /* \"#utility.yul\":3601:3608   */\n  dup3\n    /* \"#utility.yul\":3598:3617   */\n  lt\n    /* \"#utility.yul\":3595:3796   */\n  iszero\n  tag_61\n  jumpi\n    /* \"#utility.yul\":3671:3690   */\n  dup8\n  dup6\n  add\n    /* \"#utility.yul\":3665:3691   */\n  mload\n  not(0x00)\n    /* \"#utility.yul\":3754:3755   */\n  0x03\n    /* \"#utility.yul\":3750:3764   */\n  dup9\n  swap1\n  shl\n    /* \"#utility.yul\":3766:3769   */\n  0xf8\n    /* \"#utility.yul\":3746:3770   */\n  and\n    /* \"#utility.yul\":3742:3779   */\n  shr\n    /* \"#utility.yul\":3738:3780   */\n  not\n    /* \"#utility.yul\":3723:3781   */\n  and\n    /* \"#utility.yul\":3708:3782   */\n  dup2\n  sstore\n    /* \"#utility.yul\":3595:3796   */\ntag_61:\n  pop\n  pop\n    /* \"#utility.yul\":3842:3843   */\n  0x01\n    /* \"#utility.yul\":3833:3839   */\n  dup5\n    /* \"#utility.yul\":3830:3831   */\n  0x01\n    /* \"#utility.yul\":3826:3840   */\n  shl\n    /* \"#utility.yul\":3822:3844   */\n  add\n    /* \"#utility.yul\":3816:3820   */\n  dup6\n    /* \"#utility.yul\":3809:3845   */\n  sstore\n    /* \"#utility.yul\":3162:4106   */\ntag_53:\n  pop\n  pop\n  pop\n  pop\n    /* \"#utility.yul\":2767:4112   */\n  pop\n  pop\n  jump\t// out\ntag_19:\n    /* \"contracts/contracts/ERC721A.sol\":941:42448  contract ERC721A is IERC721A {... */\n  dataSize(sub_0)\n  dup1\n  dataOffset(sub_0)\n  0x00\n  codecopy\n  0x00\n  return\nstop\n\nsub_0: assembly {\n        /* \"contracts/contracts/ERC721A.sol\":941:42448  contract ERC721A is IERC721A {... */\n      mstore(0x40, 0x80)\n      jumpi(tag_1, lt(calldatasize, 0x04))\n      shr(0xe0, calldataload(0x00))\n      dup1\n      0x6352211e\n      gt\n      tag_16\n      jumpi\n      dup1\n      0xa22cb465\n      gt\n      tag_17\n      jumpi\n      dup1\n      0xa22cb465\n      eq\n      tag_12\n      jumpi\n      dup1\n      0xb88d4fde\n      eq\n      tag_13\n      jumpi\n      dup1\n      0xc87b56dd\n      eq\n      tag_14\n      jumpi\n      dup1\n      0xe985e9c5\n      eq\n      tag_15\n      jumpi\n      0x00\n      dup1\n      revert\n    tag_17:\n      dup1\n      0x6352211e\n      eq\n      tag_9\n      jumpi\n      dup1\n      0x70a08231\n      eq\n      tag_10\n      jumpi\n      dup1\n      0x95d89b41\n      eq\n      tag_11\n      jumpi\n      0x00\n      dup1\n      revert\n    tag_16:\n      dup1\n      0x095ea7b3\n      gt\n      tag_18\n      jumpi\n      dup1\n      0x095ea7b3\n      eq\n      tag_5\n      jumpi\n      dup1\n      0x18160ddd\n      eq\n      tag_6\n      jumpi\n      dup1\n      0x23b872dd\n      eq\n      tag_7\n      jumpi\n      dup1\n      0x42842e0e\n      eq\n      tag_8\n      jumpi\n      0x00\n      dup1\n      revert\n    tag_18:\n      dup1\n      0x01ffc9a7\n      eq\n      tag_2\n      jumpi\n      dup1\n      0x06fdde03\n      eq\n      tag_3\n      jumpi\n      dup1\n      0x081812fc\n      eq\n      tag_4\n      jumpi\n    tag_1:\n      0x00\n      dup1\n      revert\n        /* \"contracts/contracts/ERC721A.sol\":9421:10060  function supportsInterface(bytes4 interfaceId) public view virtual override returns (bool) {... */\n    tag_2:\n      callvalue\n      dup1\n      iszero\n      tag_19\n      jumpi\n      0x00\n      dup1\n      revert\n    tag_19:\n      pop\n      tag_20\n      tag_21\n      calldatasize\n      0x04\n      tag_22\n      jump\t// in\n    tag_21:\n      tag_23\n      jump\t// in\n    tag_20:\n      mload(0x40)\n        /* \"#utility.yul\":565:579   */\n      swap1\n      iszero\n        /* \"#utility.yul\":558:580   */\n      iszero\n        /* \"#utility.yul\":540:581   */\n      dup2\n      mstore\n        /* \"#utility.yul\":528:530   */\n      0x20\n        /* \"#utility.yul\":513:531   */\n      add\n        /* \"contracts/contracts/ERC721A.sol\":9421:10060  function supportsInterface(bytes4 interfaceId) public view virtual override returns (bool) {... */\n    tag_24:\n      mload(0x40)\n      dup1\n      swap2\n      sub\n      swap1\n      return\n        /* \"contracts/contracts/ERC721A.sol\":10323:10423  function name() public view virtual override returns (string memory) {... */\n    tag_3:\n      callvalue\n      dup1\n      iszero\n      tag_26\n      jumpi\n      0x00\n      dup1\n      revert\n    tag_26:\n      pop\n      tag_27\n      tag_28\n      jump\t// in\n    tag_27:\n      mload(0x40)\n      tag_24\n      swap2\n      swap1\n      tag_30\n      jump\t// in\n        /* \"contracts/contracts/ERC721A.sol\":16814:17032  function getApproved(uint256 tokenId) public view virtual override returns (address) {... */\n    tag_4:\n      callvalue\n      dup1\n      iszero\n      tag_31\n      jumpi\n      0x00\n      dup1\n      revert\n    tag_31:\n      pop\n      tag_32\n      tag_33\n      calldatasize\n      0x04\n      tag_34\n      jump\t// in\n    tag_33:\n      tag_35\n      jump\t// in\n    tag_32:\n      mload(0x40)\n      sub(shl(0xa0, 0x01), 0x01)\n        /* \"#utility.yul\":1697:1729   */\n      swap1\n      swap2\n      and\n        /* \"#utility.yul\":1679:1730   */\n      dup2\n      mstore\n        /* \"#utility.yul\":1667:1669   */\n      0x20\n        /* \"#utility.yul\":1652:1670   */\n      add\n        /* \"contracts/contracts/ERC721A.sol\":16814:17032  function getApproved(uint256 tokenId) public view virtual override returns (address) {... */\n      tag_24\n        /* \"#utility.yul\":1533:1736   */\n      jump\n        /* \"contracts/contracts/ERC721A.sol\":16247:16655  function approve(address to, uint256 tokenId) public payable virtual override {... */\n    tag_5:\n      tag_38\n      tag_39\n      calldatasize\n      0x04\n      tag_40\n      jump\t// in\n    tag_39:\n      tag_41\n      jump\t// in\n    tag_38:\n      stop\n        /* \"contracts/contracts/ERC721A.sol\":6074:6397  function totalSupply() public view virtual override returns (uint256) {... */\n    tag_6:\n      callvalue\n      dup1\n      iszero\n      tag_42\n      jumpi\n      0x00\n      dup1\n      revert\n    tag_42:\n      pop\n        /* \"contracts/contracts/ERC721A.sol\":6348:6360  _burnCounter */\n      sload(0x01)\n        /* \"contracts/contracts/ERC721A.sol\":6135:6142  uint256 */\n      0x00\n        /* \"contracts/contracts/ERC721A.sol\":6332:6345  _currentIndex */\n      sload\n        /* \"contracts/contracts/ERC721A.sol\":6332:6360  _currentIndex - _burnCounter */\n      sub\n        /* \"contracts/contracts/ERC721A.sol\":6074:6397  function totalSupply() public view virtual override returns (uint256) {... */\n    tag_43:\n      mload(0x40)\n        /* \"#utility.yul\":2324:2349   */\n      swap1\n      dup2\n      mstore\n        /* \"#utility.yul\":2312:2314   */\n      0x20\n        /* \"#utility.yul\":2297:2315   */\n      add\n        /* \"contracts/contracts/ERC721A.sol\":6074:6397  function totalSupply() public view virtual override returns (uint256) {... */\n      tag_24\n        /* \"#utility.yul\":2178:2355   */\n      jump\n        /* \"contracts/contracts/ERC721A.sol\":20453:23278  function transferFrom(... */\n    tag_7:\n      tag_38\n      tag_48\n      calldatasize\n      0x04\n      tag_49\n      jump\t// in\n    tag_48:\n      tag_50\n      jump\t// in\n        /* \"contracts/contracts/ERC721A.sol\":23374:23567  function safeTransferFrom(... */\n    tag_8:\n      tag_38\n      tag_52\n      calldatasize\n      0x04\n      tag_49\n      jump\t// in\n    tag_52:\n      tag_53\n      jump\t// in\n        /* \"contracts/contracts/ERC721A.sol\":11716:11868  function ownerOf(uint256 tokenId) public view virtual override returns (address) {... */\n    tag_9:\n      callvalue\n      dup1\n      iszero\n      tag_54\n      jumpi\n      0x00\n      dup1\n      revert\n    tag_54:\n      pop\n      tag_32\n      tag_56\n      calldatasize\n      0x04\n      tag_34\n      jump\t// in\n    tag_56:\n      tag_57\n      jump\t// in\n        /* \"contracts/contracts/ERC721A.sol\":7258:7491  function balanceOf(address owner) public view virtual override returns (uint256) {... */\n    tag_10:\n      callvalue\n      dup1\n      iszero\n      tag_59\n      jumpi\n      0x00\n      dup1\n      revert\n    tag_59:\n      pop\n      tag_43\n      tag_61\n      calldatasize\n      0x04\n      tag_62\n      jump\t// in\n    tag_61:\n      tag_63\n      jump\t// in\n        /* \"contracts/contracts/ERC721A.sol\":10499:10603  function symbol() public view virtual override returns (string memory) {... */\n    tag_11:\n      callvalue\n      dup1\n      iszero\n      tag_65\n      jumpi\n      0x00\n      dup1\n      revert\n    tag_65:\n      pop\n      tag_27\n      tag_67\n      jump\t// in\n        /* \"contracts/contracts/ERC721A.sol\":17372:17606  function setApprovalForAll(address operator, bool approved) public virtual override {... */\n    tag_12:\n      callvalue\n      dup1\n      iszero\n      tag_69\n      jumpi\n      0x00\n      dup1\n      revert\n    tag_69:\n      pop\n      tag_38\n      tag_71\n      calldatasize\n      0x04\n      tag_72\n      jump\t// in\n    tag_71:\n      tag_73\n      jump\t// in\n        /* \"contracts/contracts/ERC721A.sol\":24165:24572  function safeTransferFrom(... */\n    tag_13:\n      tag_38\n      tag_75\n      calldatasize\n      0x04\n      tag_76\n      jump\t// in\n    tag_75:\n      tag_77\n      jump\t// in\n        /* \"contracts/contracts/ERC721A.sol\":10709:11027  function tokenURI(uint256 tokenId) public view virtual override returns (string memory) {... */\n    tag_14:\n      callvalue\n      dup1\n      iszero\n      tag_78\n      jumpi\n      0x00\n      dup1\n      revert\n    tag_78:\n      pop\n      tag_27\n      tag_80\n      calldatasize\n      0x04\n      tag_34\n      jump\t// in\n    tag_80:\n      tag_81\n      jump\t// in\n        /* \"contracts/contracts/ERC721A.sol\":17763:17927  function isApprovedForAll(address owner, address operator) public view virtual override returns (bool) {... */\n    tag_15:\n      callvalue\n      dup1\n      iszero\n      tag_83\n      jumpi\n      0x00\n      dup1\n      revert\n    tag_83:\n      pop\n      tag_20\n      tag_85\n      calldatasize\n      0x04\n      tag_86\n      jump\t// in\n    tag_85:\n      sub(shl(0xa0, 0x01), 0x01)\n        /* \"contracts/contracts/ERC721A.sol\":17884:17909  _operatorApprovals[owner] */\n      swap2\n      dup3\n      and\n        /* \"contracts/contracts/ERC721A.sol\":17860:17864  bool */\n      0x00\n        /* \"contracts/contracts/ERC721A.sol\":17884:17909  _operatorApprovals[owner] */\n      swap1\n      dup2\n      mstore\n        /* \"contracts/contracts/ERC721A.sol\":17884:17902  _operatorApprovals */\n      0x07\n        /* \"contracts/contracts/ERC721A.sol\":17884:17909  _operatorApprovals[owner] */\n      0x20\n      swap1\n      dup2\n      mstore\n      0x40\n      dup1\n      dup4\n      keccak256\n        /* \"contracts/contracts/ERC721A.sol\":17884:17919  _operatorApprovals[owner][operator] */\n      swap4\n      swap1\n      swap5\n      and\n      dup3\n      mstore\n      swap2\n      swap1\n      swap2\n      mstore\n      keccak256\n      sload\n      0xff\n      and\n      swap1\n        /* \"contracts/contracts/ERC721A.sol\":17763:17927  function isApprovedForAll(address owner, address operator) public view virtual override returns (bool) {... */\n      jump\n        /* \"contracts/contracts/ERC721A.sol\":9421:10060  function supportsInterface(bytes4 interfaceId) public view virtual override returns (bool) {... */\n    tag_23:\n        /* \"contracts/contracts/ERC721A.sol\":9506:9510  bool */\n      0x00\n      shl(0xe0, 0x01ffc9a7)\n      not(sub(shl(0xe0, 0x01), 0x01))\n        /* \"contracts/contracts/ERC721A.sol\":9830:9855  interfaceId == 0x01ffc9a7 */\n      dup4\n      and\n      eq\n      dup1\n        /* \"contracts/contracts/ERC721A.sol\":9830:9932  interfaceId == 0x01ffc9a7 || // ERC165 interface ID for ERC165.... */\n      tag_90\n      jumpi\n      pop\n      shl(0xe0, 0x80ac58cd)\n      not(sub(shl(0xe0, 0x01), 0x01))\n        /* \"contracts/contracts/ERC721A.sol\":9907:9932  interfaceId == 0x80ac58cd */\n      dup4\n      and\n      eq\n        /* \"contracts/contracts/ERC721A.sol\":9830:9932  interfaceId == 0x01ffc9a7 || // ERC165 interface ID for ERC165.... */\n    tag_90:\n        /* \"contracts/contracts/ERC721A.sol\":9830:10009  interfaceId == 0x01ffc9a7 || // ERC165 interface ID for ERC165.... */\n      dup1\n      tag_91\n      jumpi\n      pop\n      shl(0xe0, 0x5b5e139f)\n      not(sub(shl(0xe0, 0x01), 0x01))\n        /* \"contracts/contracts/ERC721A.sol\":9984:10009  interfaceId == 0x5b5e139f */\n      dup4\n      and\n      eq\n        /* \"contracts/contracts/ERC721A.sol\":9830:10009  interfaceId == 0x01ffc9a7 || // ERC165 interface ID for ERC165.... */\n    tag_91:\n        /* \"contracts/contracts/ERC721A.sol\":9810:10009  return... */\n      swap3\n        /* \"contracts/contracts/ERC721A.sol\":9421:10060  function supportsInterface(bytes4 interfaceId) public view virtual override returns (bool) {... */\n      swap2\n      pop\n      pop\n      jump\t// out\n        /* \"contracts/contracts/ERC721A.sol\":10323:10423  function name() public view virtual override returns (string memory) {... */\n    tag_28:\n        /* \"contracts/contracts/ERC721A.sol\":10377:10390  string memory */\n      0x60\n        /* \"contracts/contracts/ERC721A.sol\":10410:10415  _name */\n      0x02\n        /* \"contracts/contracts/ERC721A.sol\":10403:10415  return _name */\n      dup1\n      sload\n      tag_93\n      swap1\n      tag_94\n      jump\t// in\n    tag_93:\n      dup1\n      0x1f\n      add\n      0x20\n      dup1\n      swap2\n      div\n      mul\n      0x20\n      add\n      mload(0x40)\n      swap1\n      dup2\n      add\n      0x40\n      mstore\n      dup1\n      swap3\n      swap2\n      swap1\n      dup2\n      dup2\n      mstore\n      0x20\n      add\n      dup3\n      dup1\n      sload\n      tag_95\n      swap1\n      tag_94\n      jump\t// in\n    tag_95:\n      dup1\n      iszero\n      tag_96\n      jumpi\n      dup1\n      0x1f\n      lt\n      tag_97\n      jumpi\n      0x0100\n      dup1\n      dup4\n      sload\n      div\n      mul\n      dup4\n      mstore\n      swap2\n      0x20\n      add\n      swap2\n      jump(tag_96)\n    tag_97:\n      dup3\n      add\n      swap2\n      swap1\n      0x00\n      mstore\n      keccak256(0x00, 0x20)\n      swap1\n    tag_98:\n      dup2\n      sload\n      dup2\n      mstore\n      swap1\n      0x01\n      add\n      swap1\n      0x20\n      add\n      dup1\n      dup4\n      gt\n      tag_98\n      jumpi\n      dup3\n      swap1\n      sub\n      0x1f\n      and\n      dup3\n      add\n      swap2\n    tag_96:\n      pop\n      pop\n      pop\n      pop\n      pop\n      swap1\n      pop\n        /* \"contracts/contracts/ERC721A.sol\":10323:10423  function name() public view virtual override returns (string memory) {... */\n      swap1\n      jump\t// out\n        /* \"contracts/contracts/ERC721A.sol\":16814:17032  function getApproved(uint256 tokenId) public view virtual override returns (address) {... */\n    tag_35:\n        /* \"contracts/contracts/ERC721A.sol\":16890:16897  address */\n      0x00\n        /* \"contracts/contracts/ERC721A.sol\":16915:16931  _exists(tokenId) */\n      tag_100\n        /* \"contracts/contracts/ERC721A.sol\":16923:16930  tokenId */\n      dup3\n        /* \"contracts/contracts/ERC721A.sol\":16915:16922  _exists */\n      tag_101\n        /* \"contracts/contracts/ERC721A.sol\":16915:16931  _exists(tokenId) */\n      jump\t// in\n    tag_100:\n        /* \"contracts/contracts/ERC721A.sol\":16910:16974  if (!_exists(tokenId)) revert ApprovalQueryForNonexistentToken() */\n      tag_102\n      jumpi\n        /* \"contracts/contracts/ERC721A.sol\":16940:16974  ApprovalQueryForNonexistentToken() */\n      mload(0x40)\n      shl(0xe2, 0x33d1c039)\n      dup2\n      mstore\n      0x04\n      add\n      mload(0x40)\n      dup1\n      swap2\n      sub\n      swap1\n      revert\n        /* \"contracts/contracts/ERC721A.sol\":16910:16974  if (!_exists(tokenId)) revert ApprovalQueryForNonexistentToken() */\n    tag_102:\n      pop\n        /* \"contracts/contracts/ERC721A.sol\":16994:17018  _tokenApprovals[tokenId] */\n      0x00\n      swap1\n      dup2\n      mstore\n        /* \"contracts/contracts/ERC721A.sol\":16994:17009  _tokenApprovals */\n      0x06\n        /* \"contracts/contracts/ERC721A.sol\":16994:17018  _tokenApprovals[tokenId] */\n      0x20\n      mstore\n      0x40\n      swap1\n      keccak256\n        /* \"contracts/contracts/ERC721A.sol\":16994:17024  _tokenApprovals[tokenId].value */\n      sload\n      sub(shl(0xa0, 0x01), 0x01)\n      and\n      swap1\n        /* \"contracts/contracts/ERC721A.sol\":16814:17032  function getApproved(uint256 tokenId) public view virtual override returns (address) {... */\n      jump\t// out\n        /* \"contracts/contracts/ERC721A.sol\":16247:16655  function approve(address to, uint256 tokenId) public payable virtual override {... */\n    tag_41:\n        /* \"contracts/contracts/ERC721A.sol\":16336:16349  address owner */\n      0x00\n        /* \"contracts/contracts/ERC721A.sol\":16352:16368  ownerOf(tokenId) */\n      tag_104\n        /* \"contracts/contracts/ERC721A.sol\":16360:16367  tokenId */\n      dup3\n        /* \"contracts/contracts/ERC721A.sol\":16352:16359  ownerOf */\n      tag_57\n        /* \"contracts/contracts/ERC721A.sol\":16352:16368  ownerOf(tokenId) */\n      jump\t// in\n    tag_104:\n        /* \"contracts/contracts/ERC721A.sol\":16336:16368  address owner = ownerOf(tokenId) */\n      swap1\n      pop\n        /* \"contracts/contracts/ERC721A.sol\":40580:40590  msg.sender */\n      caller\n      sub(shl(0xa0, 0x01), 0x01)\n        /* \"contracts/contracts/ERC721A.sol\":16385:16413  _msgSenderERC721A() != owner */\n      dup3\n      and\n      eq\n        /* \"contracts/contracts/ERC721A.sol\":16381:16556  if (_msgSenderERC721A() != owner)... */\n      tag_110\n      jumpi\n        /* \"contracts/contracts/ERC721A.sol\":16433:16477  isApprovedForAll(owner, _msgSenderERC721A()) */\n      tag_108\n        /* \"contracts/contracts/ERC721A.sol\":16450:16455  owner */\n      dup2\n        /* \"contracts/contracts/ERC721A.sol\":40580:40590  msg.sender */\n      caller\n        /* \"contracts/contracts/ERC721A.sol\":17763:17927  function isApprovedForAll(address owner, address operator) public view virtual override returns (bool) {... */\n      tag_85\n      jump\t// in\n        /* \"contracts/contracts/ERC721A.sol\":16433:16477  isApprovedForAll(owner, _msgSenderERC721A()) */\n    tag_108:\n        /* \"contracts/contracts/ERC721A.sol\":16428:16556  if (!isApprovedForAll(owner, _msgSenderERC721A())) {... */\n      tag_110\n      jumpi\n        /* \"contracts/contracts/ERC721A.sol\":16505:16540  ApprovalCallerNotOwnerNorApproved() */\n      mload(0x40)\n      shl(0xe1, 0x67d9dca1)\n      dup2\n      mstore\n      0x04\n      add\n      mload(0x40)\n      dup1\n      swap2\n      sub\n      swap1\n      revert\n        /* \"contracts/contracts/ERC721A.sol\":16428:16556  if (!isApprovedForAll(owner, _msgSenderERC721A())) {... */\n    tag_110:\n        /* \"contracts/contracts/ERC721A.sol\":16568:16592  _tokenApprovals[tokenId] */\n      0x00\n      dup3\n      dup2\n      mstore\n        /* \"contracts/contracts/ERC721A.sol\":16568:16583  _tokenApprovals */\n      0x06\n        /* \"contracts/contracts/ERC721A.sol\":16568:16592  _tokenApprovals[tokenId] */\n      0x20\n      mstore\n      0x40\n      dup1\n      dup3\n      keccak256\n        /* \"contracts/contracts/ERC721A.sol\":16568:16603  _tokenApprovals[tokenId].value = to */\n      dup1\n      sload\n      not(sub(shl(0xa0, 0x01), 0x01))\n      and\n      sub(shl(0xa0, 0x01), 0x01)\n      dup8\n      dup2\n      and\n      swap2\n      dup3\n      or\n      swap1\n      swap3\n      sstore\n        /* \"contracts/contracts/ERC721A.sol\":16619:16647  Approval(owner, to, tokenId) */\n      swap2\n      mload\n        /* \"contracts/contracts/ERC721A.sol\":16568:16592  _tokenApprovals[tokenId] */\n      dup6\n      swap4\n        /* \"contracts/contracts/ERC721A.sol\":16619:16647  Approval(owner, to, tokenId) */\n      swap2\n      dup6\n      and\n      swap2\n      0x8c5be1e5ebec7d5bd14f71427d1e84f3dd0314c0f7b2291e5b200ac8c7c3b925\n      swap2\n      log4\n        /* \"contracts/contracts/ERC721A.sol\":16325:16655  {... */\n      pop\n        /* \"contracts/contracts/ERC721A.sol\":16247:16655  function approve(address to, uint256 tokenId) public payable virtual override {... */\n      pop\n      pop\n      jump\t// out\n        /* \"contracts/contracts/ERC721A.sol\":20453:23278  function transferFrom(... */\n    tag_50:\n        /* \"contracts/contracts/ERC721A.sol\":20595:20622  uint256 prevOwnershipPacked */\n      0x00\n        /* \"contracts/contracts/ERC721A.sol\":20625:20652  _packedOwnershipOf(tokenId) */\n      tag_115\n        /* \"contracts/contracts/ERC721A.sol\":20644:20651  tokenId */\n      dup3\n        /* \"contracts/contracts/ERC721A.sol\":20625:20643  _packedOwnershipOf */\n      tag_116\n        /* \"contracts/contracts/ERC721A.sol\":20625:20652  _packedOwnershipOf(tokenId) */\n      jump\t// in\n    tag_115:\n        /* \"contracts/contracts/ERC721A.sol\":20595:20652  uint256 prevOwnershipPacked = _packedOwnershipOf(tokenId) */\n      swap1\n      pop\n        /* \"contracts/contracts/ERC721A.sol\":20710:20714  from */\n      dup4\n      sub(shl(0xa0, 0x01), 0x01)\n        /* \"contracts/contracts/ERC721A.sol\":20669:20714  address(uint160(prevOwnershipPacked)) != from */\n      and\n        /* \"contracts/contracts/ERC721A.sol\":20685:20704  prevOwnershipPacked */\n      dup2\n      sub(shl(0xa0, 0x01), 0x01)\n        /* \"contracts/contracts/ERC721A.sol\":20669:20714  address(uint160(prevOwnershipPacked)) != from */\n      and\n      eq\n        /* \"contracts/contracts/ERC721A.sol\":20665:20751  if (address(uint160(prevOwnershipPacked)) != from) revert TransferFromIncorrectOwner() */\n      tag_117\n      jumpi\n        /* \"contracts/contracts/ERC721A.sol\":20723:20751  TransferFromIncorrectOwner() */\n      mload(0x40)\n      shl(0xe8, 0xa11481)\n      dup2\n      mstore\n      0x04\n      add\n      mload(0x40)\n      dup1\n      swap2\n      sub\n      swap1\n      revert\n        /* \"contracts/contracts/ERC721A.sol\":20665:20751  if (address(uint160(prevOwnershipPacked)) != from) revert TransferFromIncorrectOwner() */\n    tag_117:\n        /* \"contracts/contracts/ERC721A.sol\":20765:20792  uint256 approvedAddressSlot */\n      0x00\n        /* \"contracts/contracts/ERC721A.sol\":19561:19585  _tokenApprovals[tokenId] */\n      dup3\n      dup2\n      mstore\n        /* \"contracts/contracts/ERC721A.sol\":19561:19576  _tokenApprovals */\n      0x06\n        /* \"contracts/contracts/ERC721A.sol\":19561:19585  _tokenApprovals[tokenId] */\n      0x20\n      mstore\n      0x40\n      swap1\n      keccak256\n        /* \"contracts/contracts/ERC721A.sol\":19789:19815  sload(approvedAddressSlot) */\n      dup1\n      sload\n        /* \"contracts/contracts/ERC721A.sol\":40580:40590  msg.sender */\n      caller\n        /* \"contracts/contracts/ERC721A.sol\":19186:19216  eq(msgSender, approvedAddress) */\n      dup1\n      dup3\n      eq\n      sub(shl(0xa0, 0x01), 0x01)\n        /* \"contracts/contracts/ERC721A.sol\":18879:18907  and(owner, _BITMASK_ADDRESS) */\n      dup9\n      and\n        /* \"contracts/contracts/ERC721A.sol\":19164:19184  eq(msgSender, owner) */\n      swap1\n      swap2\n      eq\n        /* \"contracts/contracts/ERC721A.sol\":19161:19217  or(eq(msgSender, owner), eq(msgSender, approvedAddress)) */\n      or\n        /* \"contracts/contracts/ERC721A.sol\":20951:21131  if (!_isSenderApprovedOrOwner(approvedAddress, from, _msgSenderERC721A()))... */\n      tag_126\n      jumpi\n        /* \"contracts/contracts/ERC721A.sol\":21044:21087  isApprovedForAll(from, _msgSenderERC721A()) */\n      tag_124\n        /* \"contracts/contracts/ERC721A.sol\":21061:21065  from */\n      dup7\n        /* \"contracts/contracts/ERC721A.sol\":40580:40590  msg.sender */\n      caller\n        /* \"contracts/contracts/ERC721A.sol\":17763:17927  function isApprovedForAll(address owner, address operator) public view virtual override returns (bool) {... */\n      tag_85\n      jump\t// in\n        /* \"contracts/contracts/ERC721A.sol\":21044:21087  isApprovedForAll(from, _msgSenderERC721A()) */\n    tag_124:\n        /* \"contracts/contracts/ERC721A.sol\":21039:21131  if (!isApprovedForAll(from, _msgSenderERC721A())) revert TransferCallerNotOwnerNorApproved() */\n      tag_126\n      jumpi\n        /* \"contracts/contracts/ERC721A.sol\":21096:21131  TransferCallerNotOwnerNorApproved() */\n      mload(0x40)\n      shl(0xe1, 0x2ce44b5f)\n      dup2\n      mstore\n      0x04\n      add\n      mload(0x40)\n      dup1\n      swap2\n      sub\n      swap1\n      revert\n        /* \"contracts/contracts/ERC721A.sol\":21039:21131  if (!isApprovedForAll(from, _msgSenderERC721A())) revert TransferCallerNotOwnerNorApproved() */\n    tag_126:\n      sub(shl(0xa0, 0x01), 0x01)\n        /* \"contracts/contracts/ERC721A.sol\":21148:21164  to == address(0) */\n      dup6\n      and\n        /* \"contracts/contracts/ERC721A.sol\":21144:21196  if (to == address(0)) revert TransferToZeroAddress() */\n      tag_127\n      jumpi\n        /* \"contracts/contracts/ERC721A.sol\":21173:21196  TransferToZeroAddress() */\n      mload(0x40)\n      shl(0xe2, 0x3a954ecd)\n      dup2\n      mstore\n      0x04\n      add\n      mload(0x40)\n      dup1\n      swap2\n      sub\n      swap1\n      revert\n        /* \"contracts/contracts/ERC721A.sol\":21144:21196  if (to == address(0)) revert TransferToZeroAddress() */\n    tag_127:\n        /* \"contracts/contracts/ERC721A.sol\":21345:21360  approvedAddress */\n      dup1\n        /* \"contracts/contracts/ERC721A.sol\":21342:21502  if approvedAddress {... */\n      iszero\n      tag_130\n      jumpi\n        /* \"contracts/contracts/ERC721A.sol\":21485:21486  0 */\n      0x00\n        /* \"contracts/contracts/ERC721A.sol\":21464:21483  approvedAddressSlot */\n      dup3\n        /* \"contracts/contracts/ERC721A.sol\":21457:21487  sstore(approvedAddressSlot, 0) */\n      sstore\n        /* \"contracts/contracts/ERC721A.sol\":21342:21502  if approvedAddress {... */\n    tag_130:\n      sub(shl(0xa0, 0x01), 0x01)\n        /* \"contracts/contracts/ERC721A.sol\":21882:21906  _packedAddressData[from] */\n      dup7\n      dup2\n      and\n      0x00\n      swap1\n      dup2\n      mstore\n        /* \"contracts/contracts/ERC721A.sol\":21882:21900  _packedAddressData */\n      0x05\n        /* \"contracts/contracts/ERC721A.sol\":21882:21906  _packedAddressData[from] */\n      0x20\n      mstore\n      0x40\n      dup1\n      dup3\n      keccak256\n        /* \"contracts/contracts/ERC721A.sol\":21880:21906  --_packedAddressData[from] */\n      dup1\n      sload\n      not(0x00)\n      add\n      swap1\n      sstore\n        /* \"contracts/contracts/ERC721A.sol\":21951:21973  _packedAddressData[to] */\n      swap2\n      dup8\n      and\n      dup1\n      dup3\n      mstore\n      swap2\n      swap1\n      keccak256\n        /* \"contracts/contracts/ERC721A.sol\":21949:21973  ++_packedAddressData[to] */\n      dup1\n      sload\n      0x01\n      add\n      swap1\n      sstore\n        /* \"contracts/contracts/ERC721A.sol\":15105:15116  timestamp() */\n      timestamp\n        /* \"contracts/contracts/ERC721A.sol\":15080:15103  _BITPOS_START_TIMESTAMP */\n      0xa0\n        /* \"contracts/contracts/ERC721A.sol\":15076:15117  shl(_BITPOS_START_TIMESTAMP, timestamp()) */\n      shl\n        /* \"contracts/contracts/ERC721A.sol\":15063:15126  or(owner, or(shl(_BITPOS_START_TIMESTAMP, timestamp()), flags)) */\n      or\n      shl(0xe1, 0x01)\n      or\n        /* \"contracts/contracts/ERC721A.sol\":22244:22270  _packedOwnerships[tokenId] */\n      0x00\n      dup6\n      dup2\n      mstore\n        /* \"contracts/contracts/ERC721A.sol\":22244:22261  _packedOwnerships */\n      0x04\n        /* \"contracts/contracts/ERC721A.sol\":22244:22270  _packedOwnerships[tokenId] */\n      0x20\n      mstore\n      0x40\n      dup2\n      keccak256\n        /* \"contracts/contracts/ERC721A.sol\":22244:22419  _packedOwnerships[tokenId] = _packOwnershipData(... */\n      swap2\n      swap1\n      swap2\n      sstore\n      shl(0xe1, 0x01)\n        /* \"contracts/contracts/ERC721A.sol\":22539:22586  prevOwnershipPacked & _BITMASK_NEXT_INITIALIZED */\n      dup5\n      and\n        /* \"contracts/contracts/ERC721A.sol\":22539:22591  prevOwnershipPacked & _BITMASK_NEXT_INITIALIZED == 0 */\n      swap1\n      sub\n        /* \"contracts/contracts/ERC721A.sol\":22535:23162  if (prevOwnershipPacked & _BITMASK_NEXT_INITIALIZED == 0) {... */\n      tag_135\n      jumpi\n        /* \"contracts/contracts/ERC721A.sol\":22644:22645  1 */\n      0x01\n        /* \"contracts/contracts/ERC721A.sol\":22634:22645  tokenId + 1 */\n      dup5\n      add\n        /* \"contracts/contracts/ERC721A.sol\":22612:22631  uint256 nextTokenId */\n      0x00\n        /* \"contracts/contracts/ERC721A.sol\":22767:22797  _packedOwnerships[nextTokenId] */\n      dup2\n      dup2\n      mstore\n        /* \"contracts/contracts/ERC721A.sol\":22767:22784  _packedOwnerships */\n      0x04\n        /* \"contracts/contracts/ERC721A.sol\":22767:22797  _packedOwnerships[nextTokenId] */\n      0x20\n      mstore\n      0x40\n      dup2\n      keccak256\n      sload\n        /* \"contracts/contracts/ERC721A.sol\":22767:22802  _packedOwnerships[nextTokenId] == 0 */\n      swap1\n      sub\n        /* \"contracts/contracts/ERC721A.sol\":22763:23147  if (_packedOwnerships[nextTokenId] == 0) {... */\n      tag_137\n      jumpi\n        /* \"contracts/contracts/ERC721A.sol\":22905:22918  _currentIndex */\n      sload(0x00)\n        /* \"contracts/contracts/ERC721A.sol\":22890:22901  nextTokenId */\n      dup2\n        /* \"contracts/contracts/ERC721A.sol\":22890:22918  nextTokenId != _currentIndex */\n      eq\n        /* \"contracts/contracts/ERC721A.sol\":22886:23128  if (nextTokenId != _currentIndex) {... */\n      tag_137\n      jumpi\n        /* \"contracts/contracts/ERC721A.sol\":23052:23082  _packedOwnerships[nextTokenId] */\n      0x00\n      dup2\n      dup2\n      mstore\n        /* \"contracts/contracts/ERC721A.sol\":23052:23069  _packedOwnerships */\n      0x04\n        /* \"contracts/contracts/ERC721A.sol\":23052:23082  _packedOwnerships[nextTokenId] */\n      0x20\n      mstore\n      0x40\n      swap1\n      keccak256\n        /* \"contracts/contracts/ERC721A.sol\":23052:23104  _packedOwnerships[nextTokenId] = prevOwnershipPacked */\n      dup5\n      swap1\n      sstore\n        /* \"contracts/contracts/ERC721A.sol\":22886:23128  if (nextTokenId != _currentIndex) {... */\n    tag_137:\n        /* \"contracts/contracts/ERC721A.sol\":22593:23162  {... */\n      pop\n        /* \"contracts/contracts/ERC721A.sol\":22535:23162  if (prevOwnershipPacked & _BITMASK_NEXT_INITIALIZED == 0) {... */\n    tag_135:\n        /* \"contracts/contracts/ERC721A.sol\":23209:23216  tokenId */\n      dup4\n        /* \"contracts/contracts/ERC721A.sol\":23205:23207  to */\n      dup6\n      sub(shl(0xa0, 0x01), 0x01)\n        /* \"contracts/contracts/ERC721A.sol\":23190:23217  Transfer(from, to, tokenId) */\n      and\n        /* \"contracts/contracts/ERC721A.sol\":23199:23203  from */\n      dup8\n      sub(shl(0xa0, 0x01), 0x01)\n        /* \"contracts/contracts/ERC721A.sol\":23190:23217  Transfer(from, to, tokenId) */\n      and\n      0xddf252ad1be2c89b69c2b068fc378daa952ba7f163c4a11628f55a4df523b3ef\n      mload(0x40)\n      mload(0x40)\n      dup1\n      swap2\n      sub\n      swap1\n      log4\n        /* \"contracts/contracts/ERC721A.sol\":20584:23278  {... */\n      pop\n      pop\n      pop\n        /* \"contracts/contracts/ERC721A.sol\":20453:23278  function transferFrom(... */\n      pop\n      pop\n      pop\n      jump\t// out\n        /* \"contracts/contracts/ERC721A.sol\":23374:23567  function safeTransferFrom(... */\n    tag_53:\n        /* \"contracts/contracts/ERC721A.sol\":23520:23559  safeTransferFrom(from, to, tokenId, '') */\n      tag_141\n        /* \"contracts/contracts/ERC721A.sol\":23537:23541  from */\n      dup4\n        /* \"contracts/contracts/ERC721A.sol\":23543:23545  to */\n      dup4\n        /* \"contracts/contracts/ERC721A.sol\":23547:23554  tokenId */\n      dup4\n        /* \"contracts/contracts/ERC721A.sol\":23520:23559  safeTransferFrom(from, to, tokenId, '') */\n      mload(0x40)\n      dup1\n      0x20\n      add\n      0x40\n      mstore\n      dup1\n      0x00\n      dup2\n      mstore\n      pop\n        /* \"contracts/contracts/ERC721A.sol\":23520:23536  safeTransferFrom */\n      tag_77\n        /* \"contracts/contracts/ERC721A.sol\":23520:23559  safeTransferFrom(from, to, tokenId, '') */\n      jump\t// in\n    tag_141:\n        /* \"contracts/contracts/ERC721A.sol\":23374:23567  function safeTransferFrom(... */\n      pop\n      pop\n      pop\n      jump\t// out\n        /* \"contracts/contracts/ERC721A.sol\":11716:11868  function ownerOf(uint256 tokenId) public view virtual override returns (address) {... */\n    tag_57:\n        /* \"contracts/contracts/ERC721A.sol\":11788:11795  address */\n      0x00\n        /* \"contracts/contracts/ERC721A.sol\":11831:11858  _packedOwnershipOf(tokenId) */\n      tag_91\n        /* \"contracts/contracts/ERC721A.sol\":11850:11857  tokenId */\n      dup3\n        /* \"contracts/contracts/ERC721A.sol\":11831:11849  _packedOwnershipOf */\n      tag_116\n        /* \"contracts/contracts/ERC721A.sol\":11831:11858  _packedOwnershipOf(tokenId) */\n      jump\t// in\n        /* \"contracts/contracts/ERC721A.sol\":7258:7491  function balanceOf(address owner) public view virtual override returns (uint256) {... */\n    tag_63:\n        /* \"contracts/contracts/ERC721A.sol\":7330:7337  uint256 */\n      0x00\n      sub(shl(0xa0, 0x01), 0x01)\n        /* \"contracts/contracts/ERC721A.sol\":7354:7373  owner == address(0) */\n      dup3\n      and\n        /* \"contracts/contracts/ERC721A.sol\":7350:7410  if (owner == address(0)) revert BalanceQueryForZeroAddress() */\n      tag_145\n      jumpi\n        /* \"contracts/contracts/ERC721A.sol\":7382:7410  BalanceQueryForZeroAddress() */\n      mload(0x40)\n      shl(0xe2, 0x23d3ad81)\n      dup2\n      mstore\n      0x04\n      add\n      mload(0x40)\n      dup1\n      swap2\n      sub\n      swap1\n      revert\n        /* \"contracts/contracts/ERC721A.sol\":7350:7410  if (owner == address(0)) revert BalanceQueryForZeroAddress() */\n    tag_145:\n      pop\n      sub(shl(0xa0, 0x01), 0x01)\n        /* \"contracts/contracts/ERC721A.sol\":7428:7453  _packedAddressData[owner] */\n      and\n      0x00\n      swap1\n      dup2\n      mstore\n        /* \"contracts/contracts/ERC721A.sol\":7428:7446  _packedAddressData */\n      0x05\n        /* \"contracts/contracts/ERC721A.sol\":7428:7453  _packedAddressData[owner] */\n      0x20\n      mstore\n      0x40\n      swap1\n      keccak256\n      sload\n        /* \"contracts/contracts/ERC721A.sol\":1417:1430  (1 << 64) - 1 */\n      0xffffffffffffffff\n        /* \"contracts/contracts/ERC721A.sol\":7428:7483  _packedAddressData[owner] & _BITMASK_ADDRESS_DATA_ENTRY */\n      and\n      swap1\n        /* \"contracts/contracts/ERC721A.sol\":7258:7491  function balanceOf(address owner) public view virtual override returns (uint256) {... */\n      jump\t// out\n        /* \"contracts/contracts/ERC721A.sol\":10499:10603  function symbol() public view virtual override returns (string memory) {... */\n    tag_67:\n        /* \"contracts/contracts/ERC721A.sol\":10555:10568  string memory */\n      0x60\n        /* \"contracts/contracts/ERC721A.sol\":10588:10595  _symbol */\n      0x03\n        /* \"contracts/contracts/ERC721A.sol\":10581:10595  return _symbol */\n      dup1\n      sload\n      tag_93\n      swap1\n      tag_94\n      jump\t// in\n        /* \"contracts/contracts/ERC721A.sol\":17372:17606  function setApprovalForAll(address operator, bool approved) public virtual override {... */\n    tag_73:\n        /* \"contracts/contracts/ERC721A.sol\":40580:40590  msg.sender */\n      caller\n        /* \"contracts/contracts/ERC721A.sol\":17467:17506  _operatorApprovals[_msgSenderERC721A()] */\n      0x00\n      dup2\n      dup2\n      mstore\n        /* \"contracts/contracts/ERC721A.sol\":17467:17485  _operatorApprovals */\n      0x07\n        /* \"contracts/contracts/ERC721A.sol\":17467:17506  _operatorApprovals[_msgSenderERC721A()] */\n      0x20\n      swap1\n      dup2\n      mstore\n      0x40\n      dup1\n      dup4\n      keccak256\n      sub(shl(0xa0, 0x01), 0x01)\n        /* \"contracts/contracts/ERC721A.sol\":17467:17516  _operatorApprovals[_msgSenderERC721A()][operator] */\n      dup8\n      and\n      dup1\n      dup6\n      mstore\n      swap1\n      dup4\n      mstore\n      swap3\n      dup2\n      swap1\n      keccak256\n        /* \"contracts/contracts/ERC721A.sol\":17467:17527  _operatorApprovals[_msgSenderERC721A()][operator] = approved */\n      dup1\n      sload\n      not(0xff)\n      and\n      dup7\n      iszero\n      iszero\n      swap1\n      dup2\n      or\n      swap1\n      swap2\n      sstore\n        /* \"contracts/contracts/ERC721A.sol\":17543:17598  ApprovalForAll(_msgSenderERC721A(), operator, approved) */\n      swap1\n      mload\n        /* \"#utility.yul\":540:581   */\n      swap1\n      dup2\n      mstore\n        /* \"contracts/contracts/ERC721A.sol\":17467:17516  _operatorApprovals[_msgSenderERC721A()][operator] */\n      swap2\n      swap3\n        /* \"contracts/contracts/ERC721A.sol\":40580:40590  msg.sender */\n      swap2\n        /* \"contracts/contracts/ERC721A.sol\":17543:17598  ApprovalForAll(_msgSenderERC721A(), operator, approved) */\n      0x17307eab39ab6107e8899845ad3d59bd9653f200f220920489ca2b5937696c31\n      swap2\n        /* \"#utility.yul\":513:531   */\n      add\n        /* \"contracts/contracts/ERC721A.sol\":17543:17598  ApprovalForAll(_msgSenderERC721A(), operator, approved) */\n      mload(0x40)\n      dup1\n      swap2\n      sub\n      swap1\n      log3\n        /* \"contracts/contracts/ERC721A.sol\":17372:17606  function setApprovalForAll(address operator, bool approved) public virtual override {... */\n      pop\n      pop\n      jump\t// out\n        /* \"contracts/contracts/ERC721A.sol\":24165:24572  function safeTransferFrom(... */\n    tag_77:\n        /* \"contracts/contracts/ERC721A.sol\":24340:24371  transferFrom(from, to, tokenId) */\n      tag_157\n        /* \"contracts/contracts/ERC721A.sol\":24353:24357  from */\n      dup5\n        /* \"contracts/contracts/ERC721A.sol\":24359:24361  to */\n      dup5\n        /* \"contracts/contracts/ERC721A.sol\":24363:24370  tokenId */\n      dup5\n        /* \"contracts/contracts/ERC721A.sol\":24340:24352  transferFrom */\n      tag_50\n        /* \"contracts/contracts/ERC721A.sol\":24340:24371  transferFrom(from, to, tokenId) */\n      jump\t// in\n    tag_157:\n      sub(shl(0xa0, 0x01), 0x01)\n        /* \"contracts/contracts/ERC721A.sol\":24386:24400  to.code.length */\n      dup4\n      and\n      extcodesize\n        /* \"contracts/contracts/ERC721A.sol\":24386:24405  to.code.length != 0 */\n      iszero\n        /* \"contracts/contracts/ERC721A.sol\":24382:24565  if (to.code.length != 0)... */\n      tag_161\n      jumpi\n        /* \"contracts/contracts/ERC721A.sol\":24425:24481  _checkContractOnERC721Received(from, to, tokenId, _data) */\n      tag_159\n        /* \"contracts/contracts/ERC721A.sol\":24456:24460  from */\n      dup5\n        /* \"contracts/contracts/ERC721A.sol\":24462:24464  to */\n      dup5\n        /* \"contracts/contracts/ERC721A.sol\":24466:24473  tokenId */\n      dup5\n        /* \"contracts/contracts/ERC721A.sol\":24475:24480  _data */\n      dup5\n        /* \"contracts/contracts/ERC721A.sol\":24425:24455  _checkContractOnERC721Received */\n      tag_160\n        /* \"contracts/contracts/ERC721A.sol\":24425:24481  _checkContractOnERC721Received(from, to, tokenId, _data) */\n      jump\t// in\n    tag_159:\n        /* \"contracts/contracts/ERC721A.sol\":24420:24565  if (!_checkContractOnERC721Received(from, to, tokenId, _data)) {... */\n      tag_161\n      jumpi\n        /* \"contracts/contracts/ERC721A.sol\":24509:24549  TransferToNonERC721ReceiverImplementer() */\n      mload(0x40)\n      shl(0xe1, 0x68d2bf6b)\n      dup2\n      mstore\n      0x04\n      add\n      mload(0x40)\n      dup1\n      swap2\n      sub\n      swap1\n      revert\n        /* \"contracts/contracts/ERC721A.sol\":24420:24565  if (!_checkContractOnERC721Received(from, to, tokenId, _data)) {... */\n    tag_161:\n        /* \"contracts/contracts/ERC721A.sol\":24165:24572  function safeTransferFrom(... */\n      pop\n      pop\n      pop\n      pop\n      jump\t// out\n        /* \"contracts/contracts/ERC721A.sol\":10709:11027  function tokenURI(uint256 tokenId) public view virtual override returns (string memory) {... */\n    tag_81:\n        /* \"contracts/contracts/ERC721A.sol\":10782:10795  string memory */\n      0x60\n        /* \"contracts/contracts/ERC721A.sol\":10813:10829  _exists(tokenId) */\n      tag_163\n        /* \"contracts/contracts/ERC721A.sol\":10821:10828  tokenId */\n      dup3\n        /* \"contracts/contracts/ERC721A.sol\":10813:10820  _exists */\n      tag_101\n        /* \"contracts/contracts/ERC721A.sol\":10813:10829  _exists(tokenId) */\n      jump\t// in\n    tag_163:\n        /* \"contracts/contracts/ERC721A.sol\":10808:10867  if (!_exists(tokenId)) revert URIQueryForNonexistentToken() */\n      tag_164\n      jumpi\n        /* \"contracts/contracts/ERC721A.sol\":10838:10867  URIQueryForNonexistentToken() */\n      mload(0x40)\n      shl(0xe4, 0x0a14c4b5)\n      dup2\n      mstore\n      0x04\n      add\n      mload(0x40)\n      dup1\n      swap2\n      sub\n      swap1\n      revert\n        /* \"contracts/contracts/ERC721A.sol\":10808:10867  if (!_exists(tokenId)) revert URIQueryForNonexistentToken() */\n    tag_164:\n        /* \"contracts/contracts/ERC721A.sol\":10880:10901  string memory baseURI */\n      0x00\n        /* \"contracts/contracts/ERC721A.sol\":10904:10914  _baseURI() */\n      tag_165\n        /* \"contracts/contracts/ERC721A.sol\":11356:11365  return '' */\n      0x40\n      dup1\n      mload\n      0x20\n      dup2\n      add\n      swap1\n      swap2\n      mstore\n      0x00\n      dup2\n      mstore\n      swap1\n        /* \"contracts/contracts/ERC721A.sol\":11279:11373  function _baseURI() internal view virtual returns (string memory) {... */\n      jump\n        /* \"contracts/contracts/ERC721A.sol\":10904:10914  _baseURI() */\n    tag_165:\n        /* \"contracts/contracts/ERC721A.sol\":10880:10914  string memory baseURI = _baseURI() */\n      swap1\n      pop\n        /* \"contracts/contracts/ERC721A.sol\":10938:10945  baseURI */\n      dup1\n        /* \"contracts/contracts/ERC721A.sol\":10932:10953  bytes(baseURI).length */\n      mload\n        /* \"contracts/contracts/ERC721A.sol\":10957:10958  0 */\n      0x00\n        /* \"contracts/contracts/ERC721A.sol\":10932:10958  bytes(baseURI).length != 0 */\n      sub\n        /* \"contracts/contracts/ERC721A.sol\":10932:11019  bytes(baseURI).length != 0 ? string(abi.encodePacked(baseURI, _toString(tokenId))) : '' */\n      tag_167\n      jumpi\n      mload(0x40)\n      dup1\n      0x20\n      add\n      0x40\n      mstore\n      dup1\n      0x00\n      dup2\n      mstore\n      pop\n      jump(tag_168)\n    tag_167:\n        /* \"contracts/contracts/ERC721A.sol\":10985:10992  baseURI */\n      dup1\n        /* \"contracts/contracts/ERC721A.sol\":10994:11012  _toString(tokenId) */\n      tag_169\n        /* \"contracts/contracts/ERC721A.sol\":11004:11011  tokenId */\n      dup5\n        /* \"contracts/contracts/ERC721A.sol\":10994:11003  _toString */\n      tag_170\n        /* \"contracts/contracts/ERC721A.sol\":10994:11012  _toString(tokenId) */\n      jump\t// in\n    tag_169:\n        /* \"contracts/contracts/ERC721A.sol\":10968:11013  abi.encodePacked(baseURI, _toString(tokenId)) */\n      add(0x20, mload(0x40))\n      tag_171\n      swap3\n      swap2\n      swap1\n      tag_172\n      jump\t// in\n    tag_171:\n      mload(0x40)\n      0x20\n      dup2\n      dup4\n      sub\n      sub\n      dup2\n      mstore\n      swap1\n      0x40\n      mstore\n        /* \"contracts/contracts/ERC721A.sol\":10932:11019  bytes(baseURI).length != 0 ? string(abi.encodePacked(baseURI, _toString(tokenId))) : '' */\n    tag_168:\n        /* \"contracts/contracts/ERC721A.sol\":10925:11019  return bytes(baseURI).length != 0 ? string(abi.encodePacked(baseURI, _toString(tokenId))) : '' */\n      swap4\n        /* \"contracts/contracts/ERC721A.sol\":10709:11027  function tokenURI(uint256 tokenId) public view virtual override returns (string memory) {... */\n      swap3\n      pop\n      pop\n      pop\n      jump\t// out\n        /* \"contracts/contracts/ERC721A.sol\":18185:18467  function _exists(uint256 tokenId) internal view virtual returns (bool) {... */\n    tag_101:\n        /* \"contracts/contracts/ERC721A.sol\":18250:18254  bool */\n      0x00\n        /* \"contracts/contracts/ERC721A.sol\":18340:18353  _currentIndex */\n      dup1\n      sload\n        /* \"contracts/contracts/ERC721A.sol\":18330:18337  tokenId */\n      dup3\n        /* \"contracts/contracts/ERC721A.sol\":18330:18353  tokenId < _currentIndex */\n      lt\n        /* \"contracts/contracts/ERC721A.sol\":18287:18440  _startTokenId() <= tokenId &&... */\n      dup1\n      iszero\n      tag_91\n      jumpi\n      pop\n      pop\n        /* \"contracts/contracts/ERC721A.sol\":18391:18417  _packedOwnerships[tokenId] */\n      0x00\n      swap1\n      dup2\n      mstore\n        /* \"contracts/contracts/ERC721A.sol\":18391:18408  _packedOwnerships */\n      0x04\n        /* \"contracts/contracts/ERC721A.sol\":18391:18417  _packedOwnerships[tokenId] */\n      0x20\n      mstore\n      0x40\n      swap1\n      keccak256\n      sload\n      shl(0xe0, 0x01)\n        /* \"contracts/contracts/ERC721A.sol\":18391:18435  _packedOwnerships[tokenId] & _BITMASK_BURNED */\n      and\n        /* \"contracts/contracts/ERC721A.sol\":18391:18440  _packedOwnerships[tokenId] & _BITMASK_BURNED == 0 */\n      iszero\n      swap1\n        /* \"contracts/contracts/ERC721A.sol\":18185:18467  function _exists(uint256 tokenId) internal view virtual returns (bool) {... */\n      jump\t// out\n        /* \"contracts/contracts/ERC721A.sol\":12871:14146  function _packedOwnershipOf(uint256 tokenId) private view returns (uint256) {... */\n    tag_116:\n        /* \"contracts/contracts/ERC721A.sol\":12938:12945  uint256 */\n      0x00\n        /* \"contracts/contracts/ERC721A.sol\":12973:12980  tokenId */\n      dup2\n        /* \"contracts/contracts/ERC721A.sol\":13075:13088  _currentIndex */\n      sload(0x00)\n        /* \"contracts/contracts/ERC721A.sol\":13068:13072  curr */\n      dup2\n        /* \"contracts/contracts/ERC721A.sol\":13068:13088  curr < _currentIndex */\n      lt\n        /* \"contracts/contracts/ERC721A.sol\":13064:14079  if (curr < _currentIndex) {... */\n      iszero\n      tag_183\n      jumpi\n        /* \"contracts/contracts/ERC721A.sol\":13113:13127  uint256 packed */\n      0x00\n        /* \"contracts/contracts/ERC721A.sol\":13130:13153  _packedOwnerships[curr] */\n      dup2\n      dup2\n      mstore\n        /* \"contracts/contracts/ERC721A.sol\":13130:13147  _packedOwnerships */\n      0x04\n        /* \"contracts/contracts/ERC721A.sol\":13130:13153  _packedOwnerships[curr] */\n      0x20\n      mstore\n      0x40\n      dup2\n      keccak256\n      sload\n      swap1\n      shl(0xe0, 0x01)\n        /* \"contracts/contracts/ERC721A.sol\":13219:13243  packed & _BITMASK_BURNED */\n      dup3\n      and\n        /* \"contracts/contracts/ERC721A.sol\":13219:13248  packed & _BITMASK_BURNED == 0 */\n      swap1\n      sub\n        /* \"contracts/contracts/ERC721A.sol\":13215:14060  if (packed & _BITMASK_BURNED == 0) {... */\n      tag_184\n      jumpi\n        /* \"contracts/contracts/ERC721A.sol\":13884:13997  while (packed == 0) {... */\n    tag_185:\n        /* \"contracts/contracts/ERC721A.sol\":13891:13897  packed */\n      dup1\n        /* \"contracts/contracts/ERC721A.sol\":13901:13902  0 */\n      0x00\n        /* \"contracts/contracts/ERC721A.sol\":13891:13902  packed == 0 */\n      sub\n        /* \"contracts/contracts/ERC721A.sol\":13884:13997  while (packed == 0) {... */\n      tag_168\n      jumpi\n      pop\n      not(0x00)\n        /* \"contracts/contracts/ERC721A.sol\":13962:13968  --curr */\n      add\n        /* \"contracts/contracts/ERC721A.sol\":13944:13969  _packedOwnerships[--curr] */\n      0x00\n      dup2\n      dup2\n      mstore\n        /* \"contracts/contracts/ERC721A.sol\":13944:13961  _packedOwnerships */\n      0x04\n        /* \"contracts/contracts/ERC721A.sol\":13944:13969  _packedOwnerships[--curr] */\n      0x20\n      mstore\n      0x40\n      swap1\n      keccak256\n      sload\n        /* \"contracts/contracts/ERC721A.sol\":13884:13997  while (packed == 0) {... */\n      jump(tag_185)\n        /* \"contracts/contracts/ERC721A.sol\":13215:14060  if (packed & _BITMASK_BURNED == 0) {... */\n    tag_184:\n        /* \"contracts/contracts/ERC721A.sol\":13090:14079  {... */\n      pop\n        /* \"contracts/contracts/ERC721A.sol\":13064:14079  if (curr < _currentIndex) {... */\n    tag_183:\n        /* \"contracts/contracts/ERC721A.sol\":14107:14138  OwnerQueryForNonexistentToken() */\n      mload(0x40)\n      shl(0xe1, 0x6f96cda1)\n      dup2\n      mstore\n      0x04\n      add\n      mload(0x40)\n      dup1\n      swap2\n      sub\n      swap1\n      revert\n        /* \"contracts/contracts/ERC721A.sol\":26656:27372  function _checkContractOnERC721Received(... */\n    tag_160:\n        /* \"contracts/contracts/ERC721A.sol\":26840:26928  ERC721A__IERC721Receiver(to).onERC721Received(_msgSenderERC721A(), from, tokenId, _data) */\n      mload(0x40)\n      shl(0xe1, 0x0a85bd01)\n      dup2\n      mstore\n        /* \"contracts/contracts/ERC721A.sol\":26819:26823  bool */\n      0x00\n      swap1\n      sub(shl(0xa0, 0x01), 0x01)\n        /* \"contracts/contracts/ERC721A.sol\":26840:26885  ERC721A__IERC721Receiver(to).onERC721Received */\n      dup6\n      and\n      swap1\n      0x150b7a02\n      swap1\n        /* \"contracts/contracts/ERC721A.sol\":26840:26928  ERC721A__IERC721Receiver(to).onERC721Received(_msgSenderERC721A(), from, tokenId, _data) */\n      tag_197\n      swap1\n        /* \"contracts/contracts/ERC721A.sol\":40580:40590  msg.sender */\n      caller\n      swap1\n        /* \"contracts/contracts/ERC721A.sol\":26907:26911  from */\n      dup10\n      swap1\n        /* \"contracts/contracts/ERC721A.sol\":26913:26920  tokenId */\n      dup9\n      swap1\n        /* \"contracts/contracts/ERC721A.sol\":26922:26927  _data */\n      dup9\n      swap1\n        /* \"contracts/contracts/ERC721A.sol\":26840:26928  ERC721A__IERC721Receiver(to).onERC721Received(_msgSenderERC721A(), from, tokenId, _data) */\n      0x04\n      add\n      tag_198\n      jump\t// in\n    tag_197:\n      0x20\n      mload(0x40)\n      dup1\n      dup4\n      sub\n      dup2\n      0x00\n      dup8\n      gas\n      call\n      swap3\n      pop\n      pop\n      pop\n      dup1\n      iszero\n      tag_199\n      jumpi\n      pop\n      0x40\n      dup1\n      mload\n      0x1f\n      returndatasize\n      swap1\n      dup2\n      add\n      not(0x1f)\n      and\n      dup3\n      add\n      swap1\n      swap3\n      mstore\n      tag_200\n      swap2\n      dup2\n      add\n      swap1\n      tag_201\n      jump\t// in\n    tag_200:\n      0x01\n    tag_199:\n        /* \"contracts/contracts/ERC721A.sol\":26836:27365  try ERC721A__IERC721Receiver(to).onERC721Received(_msgSenderERC721A(), from, tokenId, _data) returns (... */\n      tag_202\n      jumpi\n      returndatasize\n      dup1\n      dup1\n      iszero\n      tag_207\n      jumpi\n      mload(0x40)\n      swap2\n      pop\n      and(add(returndatasize, 0x3f), not(0x1f))\n      dup3\n      add\n      0x40\n      mstore\n      returndatasize\n      dup3\n      mstore\n      returndatasize\n      0x00\n      0x20\n      dup5\n      add\n      returndatacopy\n      jump(tag_206)\n    tag_207:\n      0x60\n      swap2\n      pop\n    tag_206:\n      pop\n        /* \"contracts/contracts/ERC721A.sol\":27123:27129  reason */\n      dup1\n        /* \"contracts/contracts/ERC721A.sol\":27123:27136  reason.length */\n      mload\n        /* \"contracts/contracts/ERC721A.sol\":27140:27141  0 */\n      0x00\n        /* \"contracts/contracts/ERC721A.sol\":27123:27141  reason.length == 0 */\n      sub\n        /* \"contracts/contracts/ERC721A.sol\":27119:27354  if (reason.length == 0) {... */\n      tag_208\n      jumpi\n        /* \"contracts/contracts/ERC721A.sol\":27169:27209  TransferToNonERC721ReceiverImplementer() */\n      mload(0x40)\n      shl(0xe1, 0x68d2bf6b)\n      dup2\n      mstore\n      0x04\n      add\n      mload(0x40)\n      dup1\n      swap2\n      sub\n      swap1\n      revert\n        /* \"contracts/contracts/ERC721A.sol\":27119:27354  if (reason.length == 0) {... */\n    tag_208:\n        /* \"contracts/contracts/ERC721A.sol\":27312:27318  reason */\n      dup1\n        /* \"contracts/contracts/ERC721A.sol\":27306:27319  mload(reason) */\n      mload\n        /* \"contracts/contracts/ERC721A.sol\":27297:27303  reason */\n      dup2\n        /* \"contracts/contracts/ERC721A.sol\":27293:27295  32 */\n      0x20\n        /* \"contracts/contracts/ERC721A.sol\":27289:27304  add(32, reason) */\n      add\n        /* \"contracts/contracts/ERC721A.sol\":27282:27320  revert(add(32, reason), mload(reason)) */\n      revert\n        /* \"contracts/contracts/ERC721A.sol\":26836:27365  try ERC721A__IERC721Receiver(to).onERC721Received(_msgSenderERC721A(), from, tokenId, _data) returns (... */\n    tag_202:\n      not(sub(shl(0xe0, 0x01), 0x01))\n        /* \"contracts/contracts/ERC721A.sol\":26999:27063  retval == ERC721A__IERC721Receiver(to).onERC721Received.selector */\n      and\n      shl(0xe1, 0x0a85bd01)\n      eq\n      swap1\n      pop\n        /* \"contracts/contracts/ERC721A.sol\":26656:27372  function _checkContractOnERC721Received(... */\n      swap5\n      swap4\n      pop\n      pop\n      pop\n      pop\n      jump\t// out\n        /* \"contracts/contracts/ERC721A.sol\":40700:42445  function _toString(uint256 value) internal pure virtual returns (string memory str) {... */\n    tag_170:\n        /* \"contracts/contracts/ERC721A.sol\":40765:40782  string memory str */\n      0x60\n        /* \"contracts/contracts/ERC721A.sol\":41199:41203  0xa0 */\n      0xa0\n        /* \"contracts/contracts/ERC721A.sol\":41192:41196  0x40 */\n      0x40\n        /* \"contracts/contracts/ERC721A.sol\":41186:41197  mload(0x40) */\n      mload\n        /* \"contracts/contracts/ERC721A.sol\":41182:41204  add(mload(0x40), 0xa0) */\n      add\n        /* \"contracts/contracts/ERC721A.sol\":41291:41292  m */\n      dup1\n        /* \"contracts/contracts/ERC721A.sol\":41285:41289  0x40 */\n      0x40\n        /* \"contracts/contracts/ERC721A.sol\":41278:41293  mstore(0x40, m) */\n      mstore\n        /* \"contracts/contracts/ERC721A.sol\":41366:41370  0x20 */\n      0x20\n        /* \"contracts/contracts/ERC721A.sol\":41363:41364  m */\n      dup2\n        /* \"contracts/contracts/ERC721A.sol\":41359:41371  sub(m, 0x20) */\n      sub\n        /* \"contracts/contracts/ERC721A.sol\":41352:41371  str := sub(m, 0x20) */\n      swap2\n      pop\n      pop\n        /* \"contracts/contracts/ERC721A.sol\":41448:41449  0 */\n      0x00\n        /* \"contracts/contracts/ERC721A.sol\":41443:41446  str */\n      dup2\n        /* \"contracts/contracts/ERC721A.sol\":41436:41450  mstore(str, 0) */\n      mstore\n        /* \"contracts/contracts/ERC721A.sol\":41552:41555  str */\n      dup1\n        /* \"contracts/contracts/ERC721A.sol\":41791:41796  value */\n      dup3\n        /* \"contracts/contracts/ERC721A.sol\":41773:42201  for { let temp := value } 1 {} {... */\n    tag_213:\n        /* \"contracts/contracts/ERC721A.sol\":41839:41840  1 */\n      0x01\n        /* \"contracts/contracts/ERC721A.sol\":41834:41837  str */\n      dup4\n        /* \"contracts/contracts/ERC721A.sol\":41830:41841  sub(str, 1) */\n      sub\n        /* \"contracts/contracts/ERC721A.sol\":41823:41841  str := sub(str, 1) */\n      swap3\n      pop\n        /* \"contracts/contracts/ERC721A.sol\":42010:42012  10 */\n      0x0a\n        /* \"contracts/contracts/ERC721A.sol\":42004:42008  temp */\n      dup2\n        /* \"contracts/contracts/ERC721A.sol\":42000:42013  mod(temp, 10) */\n      mod\n        /* \"contracts/contracts/ERC721A.sol\":41996:41998  48 */\n      0x30\n        /* \"contracts/contracts/ERC721A.sol\":41992:42014  add(48, mod(temp, 10)) */\n      add\n        /* \"contracts/contracts/ERC721A.sol\":41987:41990  str */\n      dup4\n        /* \"contracts/contracts/ERC721A.sol\":41979:42015  mstore8(str, add(48, mod(temp, 10))) */\n      mstore8\n        /* \"contracts/contracts/ERC721A.sol\":42104:42106  10 */\n      0x0a\n        /* \"contracts/contracts/ERC721A.sol\":42094:42107  div(temp, 10) */\n      swap1\n      div\n        /* \"contracts/contracts/ERC721A.sol\":42161:42186  if iszero(temp) { break } */\n      dup1\n        /* \"contracts/contracts/ERC721A.sol\":41773:42201  for { let temp := value } 1 {} {... */\n      tag_213\n        /* \"contracts/contracts/ERC721A.sol\":42161:42186  if iszero(temp) { break } */\n      jumpi\n      pop\n        /* \"contracts/contracts/ERC721A.sol\":42231:42244  sub(end, str) */\n      dup2\n      swap1\n      sub\n      not(0x1f)\n        /* \"contracts/contracts/ERC721A.sol\":42346:42360  sub(str, 0x20) */\n      swap1\n      swap2\n      add\n        /* \"contracts/contracts/ERC721A.sol\":42408:42427  mstore(str, length) */\n      swap1\n      dup2\n      mstore\n        /* \"contracts/contracts/ERC721A.sol\":42346:42360  sub(str, 0x20) */\n      swap2\n        /* \"contracts/contracts/ERC721A.sol\":40700:42445  function _toString(uint256 value) internal pure virtual returns (string memory str) {... */\n      swap1\n      pop\n      jump\t// out\n        /* \"#utility.yul\":14:145   */\n    tag_218:\n      not(sub(shl(0xe0, 0x01), 0x01))\n        /* \"#utility.yul\":88:120   */\n      dup2\n      and\n        /* \"#utility.yul\":78:121   */\n      dup2\n      eq\n        /* \"#utility.yul\":68:139   */\n      tag_225\n      jumpi\n        /* \"#utility.yul\":135:136   */\n      0x00\n        /* \"#utility.yul\":132:133   */\n      dup1\n        /* \"#utility.yul\":125:137   */\n      revert\n        /* \"#utility.yul\":68:139   */\n    tag_225:\n        /* \"#utility.yul\":14:145   */\n      pop\n      jump\t// out\n        /* \"#utility.yul\":150:395   */\n    tag_22:\n        /* \"#utility.yul\":208:214   */\n      0x00\n        /* \"#utility.yul\":261:263   */\n      0x20\n        /* \"#utility.yul\":249:258   */\n      dup3\n        /* \"#utility.yul\":240:247   */\n      dup5\n        /* \"#utility.yul\":236:259   */\n      sub\n        /* \"#utility.yul\":232:264   */\n      slt\n        /* \"#utility.yul\":229:281   */\n      iszero\n      tag_227\n      jumpi\n        /* \"#utility.yul\":277:278   */\n      0x00\n        /* \"#utility.yul\":274:275   */\n      dup1\n        /* \"#utility.yul\":267:279   */\n      revert\n        /* \"#utility.yul\":229:281   */\n    tag_227:\n        /* \"#utility.yul\":316:325   */\n      dup2\n        /* \"#utility.yul\":303:326   */\n      calldataload\n        /* \"#utility.yul\":335:365   */\n      tag_168\n        /* \"#utility.yul\":359:364   */\n      dup2\n        /* \"#utility.yul\":335:365   */\n      tag_218\n      jump\t// in\n        /* \"#utility.yul\":592:842   */\n    tag_219:\n        /* \"#utility.yul\":677:678   */\n      0x00\n        /* \"#utility.yul\":687:800   */\n    tag_231:\n        /* \"#utility.yul\":701:707   */\n      dup4\n        /* \"#utility.yul\":698:699   */\n      dup2\n        /* \"#utility.yul\":695:708   */\n      lt\n        /* \"#utility.yul\":687:800   */\n      iszero\n      tag_233\n      jumpi\n        /* \"#utility.yul\":777:788   */\n      dup2\n      dup2\n      add\n        /* \"#utility.yul\":771:789   */\n      mload\n        /* \"#utility.yul\":758:769   */\n      dup4\n      dup3\n      add\n        /* \"#utility.yul\":751:790   */\n      mstore\n        /* \"#utility.yul\":723:725   */\n      0x20\n        /* \"#utility.yul\":716:726   */\n      add\n        /* \"#utility.yul\":687:800   */\n      jump(tag_231)\n    tag_233:\n      pop\n      pop\n        /* \"#utility.yul\":834:835   */\n      0x00\n        /* \"#utility.yul\":816:832   */\n      swap2\n      add\n        /* \"#utility.yul\":809:836   */\n      mstore\n        /* \"#utility.yul\":592:842   */\n      jump\t// out\n        /* \"#utility.yul\":847:1118   */\n    tag_220:\n        /* \"#utility.yul\":889:892   */\n      0x00\n        /* \"#utility.yul\":927:932   */\n      dup2\n        /* \"#utility.yul\":921:933   */\n      mload\n        /* \"#utility.yul\":954:960   */\n      dup1\n        /* \"#utility.yul\":949:952   */\n      dup5\n        /* \"#utility.yul\":942:961   */\n      mstore\n        /* \"#utility.yul\":970:1046   */\n      tag_235\n        /* \"#utility.yul\":1039:1045   */\n      dup2\n        /* \"#utility.yul\":1032:1036   */\n      0x20\n        /* \"#utility.yul\":1027:1030   */\n      dup7\n        /* \"#utility.yul\":1023:1037   */\n      add\n        /* \"#utility.yul\":1016:1020   */\n      0x20\n        /* \"#utility.yul\":1009:1014   */\n      dup7\n        /* \"#utility.yul\":1005:1021   */\n      add\n        /* \"#utility.yul\":970:1046   */\n      tag_219\n      jump\t// in\n    tag_235:\n        /* \"#utility.yul\":1100:1102   */\n      0x1f\n        /* \"#utility.yul\":1079:1094   */\n      add\n      not(0x1f)\n        /* \"#utility.yul\":1075:1104   */\n      and\n        /* \"#utility.yul\":1066:1105   */\n      swap3\n      swap1\n      swap3\n      add\n        /* \"#utility.yul\":1107:1111   */\n      0x20\n        /* \"#utility.yul\":1062:1112   */\n      add\n      swap3\n        /* \"#utility.yul\":847:1118   */\n      swap2\n      pop\n      pop\n      jump\t// out\n        /* \"#utility.yul\":1123:1343   */\n    tag_30:\n        /* \"#utility.yul\":1272:1274   */\n      0x20\n        /* \"#utility.yul\":1261:1270   */\n      dup2\n        /* \"#utility.yul\":1254:1275   */\n      mstore\n        /* \"#utility.yul\":1235:1239   */\n      0x00\n        /* \"#utility.yul\":1292:1337   */\n      tag_168\n        /* \"#utility.yul\":1333:1335   */\n      0x20\n        /* \"#utility.yul\":1322:1331   */\n      dup4\n        /* \"#utility.yul\":1318:1336   */\n      add\n        /* \"#utility.yul\":1310:1316   */\n      dup5\n        /* \"#utility.yul\":1292:1337   */\n      tag_220\n      jump\t// in\n        /* \"#utility.yul\":1348:1528   */\n    tag_34:\n        /* \"#utility.yul\":1407:1413   */\n      0x00\n        /* \"#utility.yul\":1460:1462   */\n      0x20\n        /* \"#utility.yul\":1448:1457   */\n      dup3\n        /* \"#utility.yul\":1439:1446   */\n      dup5\n        /* \"#utility.yul\":1435:1458   */\n      sub\n        /* \"#utility.yul\":1431:1463   */\n      slt\n        /* \"#utility.yul\":1428:1480   */\n      iszero\n      tag_239\n      jumpi\n        /* \"#utility.yul\":1476:1477   */\n      0x00\n        /* \"#utility.yul\":1473:1474   */\n      dup1\n        /* \"#utility.yul\":1466:1478   */\n      revert\n        /* \"#utility.yul\":1428:1480   */\n    tag_239:\n      pop\n        /* \"#utility.yul\":1499:1522   */\n      calldataload\n      swap2\n        /* \"#utility.yul\":1348:1528   */\n      swap1\n      pop\n      jump\t// out\n        /* \"#utility.yul\":1741:1914   */\n    tag_221:\n        /* \"#utility.yul\":1809:1829   */\n      dup1\n      calldataload\n      sub(shl(0xa0, 0x01), 0x01)\n        /* \"#utility.yul\":1858:1889   */\n      dup2\n      and\n        /* \"#utility.yul\":1848:1890   */\n      dup2\n      eq\n        /* \"#utility.yul\":1838:1908   */\n      tag_242\n      jumpi\n        /* \"#utility.yul\":1904:1905   */\n      0x00\n        /* \"#utility.yul\":1901:1902   */\n      dup1\n        /* \"#utility.yul\":1894:1906   */\n      revert\n        /* \"#utility.yul\":1838:1908   */\n    tag_242:\n        /* \"#utility.yul\":1741:1914   */\n      swap2\n      swap1\n      pop\n      jump\t// out\n        /* \"#utility.yul\":1919:2173   */\n    tag_40:\n        /* \"#utility.yul\":1987:1993   */\n      0x00\n        /* \"#utility.yul\":1995:2001   */\n      dup1\n        /* \"#utility.yul\":2048:2050   */\n      0x40\n        /* \"#utility.yul\":2036:2045   */\n      dup4\n        /* \"#utility.yul\":2027:2034   */\n      dup6\n        /* \"#utility.yul\":2023:2046   */\n      sub\n        /* \"#utility.yul\":2019:2051   */\n      slt\n        /* \"#utility.yul\":2016:2068   */\n      iszero\n      tag_244\n      jumpi\n        /* \"#utility.yul\":2064:2065   */\n      0x00\n        /* \"#utility.yul\":2061:2062   */\n      dup1\n        /* \"#utility.yul\":2054:2066   */\n      revert\n        /* \"#utility.yul\":2016:2068   */\n    tag_244:\n        /* \"#utility.yul\":2087:2116   */\n      tag_245\n        /* \"#utility.yul\":2106:2115   */\n      dup4\n        /* \"#utility.yul\":2087:2116   */\n      tag_221\n      jump\t// in\n    tag_245:\n        /* \"#utility.yul\":2077:2116   */\n      swap5\n        /* \"#utility.yul\":2163:2165   */\n      0x20\n        /* \"#utility.yul\":2148:2166   */\n      swap4\n      swap1\n      swap4\n      add\n        /* \"#utility.yul\":2135:2167   */\n      calldataload\n      swap4\n      pop\n      pop\n      pop\n        /* \"#utility.yul\":1919:2173   */\n      jump\t// out\n        /* \"#utility.yul\":2360:2688   */\n    tag_49:\n        /* \"#utility.yul\":2437:2443   */\n      0x00\n        /* \"#utility.yul\":2445:2451   */\n      dup1\n        /* \"#utility.yul\":2453:2459   */\n      0x00\n        /* \"#utility.yul\":2506:2508   */\n      0x60\n        /* \"#utility.yul\":2494:2503   */\n      dup5\n        /* \"#utility.yul\":2485:2492   */\n      dup7\n        /* \"#utility.yul\":2481:2504   */\n      sub\n        /* \"#utility.yul\":2477:2509   */\n      slt\n        /* \"#utility.yul\":2474:2526   */\n      iszero\n      tag_248\n      jumpi\n        /* \"#utility.yul\":2522:2523   */\n      0x00\n        /* \"#utility.yul\":2519:2520   */\n      dup1\n        /* \"#utility.yul\":2512:2524   */\n      revert\n        /* \"#utility.yul\":2474:2526   */\n    tag_248:\n        /* \"#utility.yul\":2545:2574   */\n      tag_249\n        /* \"#utility.yul\":2564:2573   */\n      dup5\n        /* \"#utility.yul\":2545:2574   */\n      tag_221\n      jump\t// in\n    tag_249:\n        /* \"#utility.yul\":2535:2574   */\n      swap3\n      pop\n        /* \"#utility.yul\":2593:2631   */\n      tag_250\n        /* \"#utility.yul\":2627:2629   */\n      0x20\n        /* \"#utility.yul\":2616:2625   */\n      dup6\n        /* \"#utility.yul\":2612:2630   */\n      add\n        /* \"#utility.yul\":2593:2631   */\n      tag_221\n      jump\t// in\n    tag_250:\n        /* \"#utility.yul\":2583:2631   */\n      swap2\n      pop\n        /* \"#utility.yul\":2678:2680   */\n      0x40\n        /* \"#utility.yul\":2667:2676   */\n      dup5\n        /* \"#utility.yul\":2663:2681   */\n      add\n        /* \"#utility.yul\":2650:2682   */\n      calldataload\n        /* \"#utility.yul\":2640:2682   */\n      swap1\n      pop\n        /* \"#utility.yul\":2360:2688   */\n      swap3\n      pop\n      swap3\n      pop\n      swap3\n      jump\t// out\n        /* \"#utility.yul\":2693:2879   */\n    tag_62:\n        /* \"#utility.yul\":2752:2758   */\n      0x00\n        /* \"#utility.yul\":2805:2807   */\n      0x20\n        /* \"#utility.yul\":2793:2802   */\n      dup3\n        /* \"#utility.yul\":2784:2791   */\n      dup5\n        /* \"#utility.yul\":2780:2803   */\n      sub\n        /* \"#utility.yul\":2776:2808   */\n      slt\n        /* \"#utility.yul\":2773:2825   */\n      iszero\n      tag_252\n      jumpi\n        /* \"#utility.yul\":2821:2822   */\n      0x00\n        /* \"#utility.yul\":2818:2819   */\n      dup1\n        /* \"#utility.yul\":2811:2823   */\n      revert\n        /* \"#utility.yul\":2773:2825   */\n    tag_252:\n        /* \"#utility.yul\":2844:2873   */\n      tag_168\n        /* \"#utility.yul\":2863:2872   */\n      dup3\n        /* \"#utility.yul\":2844:2873   */\n      tag_221\n      jump\t// in\n        /* \"#utility.yul\":2884:3231   */\n    tag_72:\n        /* \"#utility.yul\":2949:2955   */\n      0x00\n        /* \"#utility.yul\":2957:2963   */\n      dup1\n        /* \"#utility.yul\":3010:3012   */\n      0x40\n        /* \"#utility.yul\":2998:3007   */\n      dup4\n        /* \"#utility.yul\":2989:2996   */\n      dup6\n        /* \"#utility.yul\":2985:3008   */\n      sub\n        /* \"#utility.yul\":2981:3013   */\n      slt\n        /* \"#utility.yul\":2978:3030   */\n      iszero\n      tag_255\n      jumpi\n        /* \"#utility.yul\":3026:3027   */\n      0x00\n        /* \"#utility.yul\":3023:3024   */\n      dup1\n        /* \"#utility.yul\":3016:3028   */\n      revert\n        /* \"#utility.yul\":2978:3030   */\n    tag_255:\n        /* \"#utility.yul\":3049:3078   */\n      tag_256\n        /* \"#utility.yul\":3068:3077   */\n      dup4\n        /* \"#utility.yul\":3049:3078   */\n      tag_221\n      jump\t// in\n    tag_256:\n        /* \"#utility.yul\":3039:3078   */\n      swap2\n      pop\n        /* \"#utility.yul\":3128:3130   */\n      0x20\n        /* \"#utility.yul\":3117:3126   */\n      dup4\n        /* \"#utility.yul\":3113:3131   */\n      add\n        /* \"#utility.yul\":3100:3132   */\n      calldataload\n        /* \"#utility.yul\":3175:3180   */\n      dup1\n        /* \"#utility.yul\":3168:3181   */\n      iszero\n        /* \"#utility.yul\":3161:3182   */\n      iszero\n        /* \"#utility.yul\":3154:3159   */\n      dup2\n        /* \"#utility.yul\":3151:3183   */\n      eq\n        /* \"#utility.yul\":3141:3201   */\n      tag_257\n      jumpi\n        /* \"#utility.yul\":3197:3198   */\n      0x00\n        /* \"#utility.yul\":3194:3195   */\n      dup1\n        /* \"#utility.yul\":3187:3199   */\n      revert\n        /* \"#utility.yul\":3141:3201   */\n    tag_257:\n        /* \"#utility.yul\":3220:3225   */\n      dup1\n        /* \"#utility.yul\":3210:3225   */\n      swap2\n      pop\n      pop\n        /* \"#utility.yul\":2884:3231   */\n      swap3\n      pop\n      swap3\n      swap1\n      pop\n      jump\t// out\n        /* \"#utility.yul\":3236:3363   */\n    tag_222:\n        /* \"#utility.yul\":3297:3307   */\n      0x4e487b71\n        /* \"#utility.yul\":3292:3295   */\n      0xe0\n        /* \"#utility.yul\":3288:3308   */\n      shl\n        /* \"#utility.yul\":3285:3286   */\n      0x00\n        /* \"#utility.yul\":3278:3309   */\n      mstore\n        /* \"#utility.yul\":3328:3332   */\n      0x41\n        /* \"#utility.yul\":3325:3326   */\n      0x04\n        /* \"#utility.yul\":3318:3333   */\n      mstore\n        /* \"#utility.yul\":3352:3356   */\n      0x24\n        /* \"#utility.yul\":3349:3350   */\n      0x00\n        /* \"#utility.yul\":3342:3357   */\n      revert\n        /* \"#utility.yul\":3368:4506   */\n    tag_76:\n        /* \"#utility.yul\":3463:3469   */\n      0x00\n        /* \"#utility.yul\":3471:3477   */\n      dup1\n        /* \"#utility.yul\":3479:3485   */\n      0x00\n        /* \"#utility.yul\":3487:3493   */\n      dup1\n        /* \"#utility.yul\":3540:3543   */\n      0x80\n        /* \"#utility.yul\":3528:3537   */\n      dup6\n        /* \"#utility.yul\":3519:3526   */\n      dup8\n        /* \"#utility.yul\":3515:3538   */\n      sub\n        /* \"#utility.yul\":3511:3544   */\n      slt\n        /* \"#utility.yul\":3508:3561   */\n      iszero\n      tag_260\n      jumpi\n        /* \"#utility.yul\":3557:3558   */\n      0x00\n        /* \"#utility.yul\":3554:3555   */\n      dup1\n        /* \"#utility.yul\":3547:3559   */\n      revert\n        /* \"#utility.yul\":3508:3561   */\n    tag_260:\n        /* \"#utility.yul\":3580:3609   */\n      tag_261\n        /* \"#utility.yul\":3599:3608   */\n      dup6\n        /* \"#utility.yul\":3580:3609   */\n      tag_221\n      jump\t// in\n    tag_261:\n        /* \"#utility.yul\":3570:3609   */\n      swap4\n      pop\n        /* \"#utility.yul\":3628:3666   */\n      tag_262\n        /* \"#utility.yul\":3662:3664   */\n      0x20\n        /* \"#utility.yul\":3651:3660   */\n      dup7\n        /* \"#utility.yul\":3647:3665   */\n      add\n        /* \"#utility.yul\":3628:3666   */\n      tag_221\n      jump\t// in\n    tag_262:\n        /* \"#utility.yul\":3618:3666   */\n      swap3\n      pop\n        /* \"#utility.yul\":3713:3715   */\n      0x40\n        /* \"#utility.yul\":3702:3711   */\n      dup6\n        /* \"#utility.yul\":3698:3716   */\n      add\n        /* \"#utility.yul\":3685:3717   */\n      calldataload\n        /* \"#utility.yul\":3675:3717   */\n      swap2\n      pop\n        /* \"#utility.yul\":3768:3770   */\n      0x60\n        /* \"#utility.yul\":3757:3766   */\n      dup6\n        /* \"#utility.yul\":3753:3771   */\n      add\n        /* \"#utility.yul\":3740:3772   */\n      calldataload\n        /* \"#utility.yul\":3791:3809   */\n      0xffffffffffffffff\n        /* \"#utility.yul\":3832:3834   */\n      dup1\n        /* \"#utility.yul\":3824:3830   */\n      dup3\n        /* \"#utility.yul\":3821:3835   */\n      gt\n        /* \"#utility.yul\":3818:3852   */\n      iszero\n      tag_263\n      jumpi\n        /* \"#utility.yul\":3848:3849   */\n      0x00\n        /* \"#utility.yul\":3845:3846   */\n      dup1\n        /* \"#utility.yul\":3838:3850   */\n      revert\n        /* \"#utility.yul\":3818:3852   */\n    tag_263:\n        /* \"#utility.yul\":3886:3892   */\n      dup2\n        /* \"#utility.yul\":3875:3884   */\n      dup8\n        /* \"#utility.yul\":3871:3893   */\n      add\n        /* \"#utility.yul\":3861:3893   */\n      swap2\n      pop\n        /* \"#utility.yul\":3931:3938   */\n      dup8\n        /* \"#utility.yul\":3924:3928   */\n      0x1f\n        /* \"#utility.yul\":3920:3922   */\n      dup4\n        /* \"#utility.yul\":3916:3929   */\n      add\n        /* \"#utility.yul\":3912:3939   */\n      slt\n        /* \"#utility.yul\":3902:3957   */\n      tag_264\n      jumpi\n        /* \"#utility.yul\":3953:3954   */\n      0x00\n        /* \"#utility.yul\":3950:3951   */\n      dup1\n        /* \"#utility.yul\":3943:3955   */\n      revert\n        /* \"#utility.yul\":3902:3957   */\n    tag_264:\n        /* \"#utility.yul\":3989:3991   */\n      dup2\n        /* \"#utility.yul\":3976:3992   */\n      calldataload\n        /* \"#utility.yul\":4011:4013   */\n      dup2\n        /* \"#utility.yul\":4007:4009   */\n      dup2\n        /* \"#utility.yul\":4004:4014   */\n      gt\n        /* \"#utility.yul\":4001:4037   */\n      iszero\n      tag_266\n      jumpi\n        /* \"#utility.yul\":4017:4035   */\n      tag_266\n      tag_222\n      jump\t// in\n    tag_266:\n        /* \"#utility.yul\":4092:4094   */\n      0x40\n        /* \"#utility.yul\":4086:4095   */\n      mload\n        /* \"#utility.yul\":4060:4062   */\n      0x1f\n        /* \"#utility.yul\":4146:4159   */\n      dup3\n      add\n      not(0x1f)\n        /* \"#utility.yul\":4142:4164   */\n      swap1\n      dup2\n      and\n        /* \"#utility.yul\":4166:4168   */\n      0x3f\n        /* \"#utility.yul\":4138:4169   */\n      add\n        /* \"#utility.yul\":4134:4174   */\n      and\n        /* \"#utility.yul\":4122:4175   */\n      dup2\n      add\n      swap1\n        /* \"#utility.yul\":4190:4208   */\n      dup4\n      dup3\n      gt\n        /* \"#utility.yul\":4210:4232   */\n      dup2\n      dup4\n      lt\n        /* \"#utility.yul\":4187:4233   */\n      or\n        /* \"#utility.yul\":4184:4256   */\n      iszero\n      tag_268\n      jumpi\n        /* \"#utility.yul\":4236:4254   */\n      tag_268\n      tag_222\n      jump\t// in\n    tag_268:\n        /* \"#utility.yul\":4276:4286   */\n      dup2\n        /* \"#utility.yul\":4272:4274   */\n      0x40\n        /* \"#utility.yul\":4265:4287   */\n      mstore\n        /* \"#utility.yul\":4311:4313   */\n      dup3\n        /* \"#utility.yul\":4303:4309   */\n      dup2\n        /* \"#utility.yul\":4296:4314   */\n      mstore\n        /* \"#utility.yul\":4351:4358   */\n      dup11\n        /* \"#utility.yul\":4346:4348   */\n      0x20\n        /* \"#utility.yul\":4341:4343   */\n      dup5\n        /* \"#utility.yul\":4337:4339   */\n      dup8\n        /* \"#utility.yul\":4333:4344   */\n      add\n        /* \"#utility.yul\":4329:4349   */\n      add\n        /* \"#utility.yul\":4326:4359   */\n      gt\n        /* \"#utility.yul\":4323:4376   */\n      iszero\n      tag_269\n      jumpi\n        /* \"#utility.yul\":4372:4373   */\n      0x00\n        /* \"#utility.yul\":4369:4370   */\n      dup1\n        /* \"#utility.yul\":4362:4374   */\n      revert\n        /* \"#utility.yul\":4323:4376   */\n    tag_269:\n        /* \"#utility.yul\":4428:4430   */\n      dup3\n        /* \"#utility.yul\":4423:4425   */\n      0x20\n        /* \"#utility.yul\":4419:4421   */\n      dup7\n        /* \"#utility.yul\":4415:4426   */\n      add\n        /* \"#utility.yul\":4410:4412   */\n      0x20\n        /* \"#utility.yul\":4402:4408   */\n      dup4\n        /* \"#utility.yul\":4398:4413   */\n      add\n        /* \"#utility.yul\":4385:4431   */\n      calldatacopy\n        /* \"#utility.yul\":4473:4474   */\n      0x00\n        /* \"#utility.yul\":4468:4470   */\n      0x20\n        /* \"#utility.yul\":4463:4465   */\n      dup5\n        /* \"#utility.yul\":4455:4461   */\n      dup4\n        /* \"#utility.yul\":4451:4466   */\n      add\n        /* \"#utility.yul\":4447:4471   */\n      add\n        /* \"#utility.yul\":4440:4475   */\n      mstore\n        /* \"#utility.yul\":4494:4500   */\n      dup1\n        /* \"#utility.yul\":4484:4500   */\n      swap6\n      pop\n      pop\n      pop\n      pop\n      pop\n      pop\n        /* \"#utility.yul\":3368:4506   */\n      swap3\n      swap6\n      swap2\n      swap5\n      pop\n      swap3\n      pop\n      jump\t// out\n        /* \"#utility.yul\":4511:4771   */\n    tag_86:\n        /* \"#utility.yul\":4579:4585   */\n      0x00\n        /* \"#utility.yul\":4587:4593   */\n      dup1\n        /* \"#utility.yul\":4640:4642   */\n      0x40\n        /* \"#utility.yul\":4628:4637   */\n      dup4\n        /* \"#utility.yul\":4619:4626   */\n      dup6\n        /* \"#utility.yul\":4615:4638   */\n      sub\n        /* \"#utility.yul\":4611:4643   */\n      slt\n        /* \"#utility.yul\":4608:4660   */\n      iszero\n      tag_271\n      jumpi\n        /* \"#utility.yul\":4656:4657   */\n      0x00\n        /* \"#utility.yul\":4653:4654   */\n      dup1\n        /* \"#utility.yul\":4646:4658   */\n      revert\n        /* \"#utility.yul\":4608:4660   */\n    tag_271:\n        /* \"#utility.yul\":4679:4708   */\n      tag_272\n        /* \"#utility.yul\":4698:4707   */\n      dup4\n        /* \"#utility.yul\":4679:4708   */\n      tag_221\n      jump\t// in\n    tag_272:\n        /* \"#utility.yul\":4669:4708   */\n      swap2\n      pop\n        /* \"#utility.yul\":4727:4765   */\n      tag_273\n        /* \"#utility.yul\":4761:4763   */\n      0x20\n        /* \"#utility.yul\":4750:4759   */\n      dup5\n        /* \"#utility.yul\":4746:4764   */\n      add\n        /* \"#utility.yul\":4727:4765   */\n      tag_221\n      jump\t// in\n    tag_273:\n        /* \"#utility.yul\":4717:4765   */\n      swap1\n      pop\n        /* \"#utility.yul\":4511:4771   */\n      swap3\n      pop\n      swap3\n      swap1\n      pop\n      jump\t// out\n        /* \"#utility.yul\":4776:5156   */\n    tag_94:\n        /* \"#utility.yul\":4855:4856   */\n      0x01\n        /* \"#utility.yul\":4851:4863   */\n      dup2\n      dup2\n      shr\n      swap1\n        /* \"#utility.yul\":4898:4910   */\n      dup3\n      and\n      dup1\n        /* \"#utility.yul\":4919:4980   */\n      tag_275\n      jumpi\n        /* \"#utility.yul\":4973:4977   */\n      0x7f\n        /* \"#utility.yul\":4965:4971   */\n      dup3\n        /* \"#utility.yul\":4961:4978   */\n      and\n        /* \"#utility.yul\":4951:4978   */\n      swap2\n      pop\n        /* \"#utility.yul\":4919:4980   */\n    tag_275:\n        /* \"#utility.yul\":5026:5028   */\n      0x20\n        /* \"#utility.yul\":5018:5024   */\n      dup3\n        /* \"#utility.yul\":5015:5029   */\n      lt\n        /* \"#utility.yul\":4995:5013   */\n      dup2\n        /* \"#utility.yul\":4992:5030   */\n      sub\n        /* \"#utility.yul\":4989:5150   */\n      tag_276\n      jumpi\n        /* \"#utility.yul\":5072:5082   */\n      0x4e487b71\n        /* \"#utility.yul\":5067:5070   */\n      0xe0\n        /* \"#utility.yul\":5063:5083   */\n      shl\n        /* \"#utility.yul\":5060:5061   */\n      0x00\n        /* \"#utility.yul\":5053:5084   */\n      mstore\n        /* \"#utility.yul\":5107:5111   */\n      0x22\n        /* \"#utility.yul\":5104:5105   */\n      0x04\n        /* \"#utility.yul\":5097:5112   */\n      mstore\n        /* \"#utility.yul\":5135:5139   */\n      0x24\n        /* \"#utility.yul\":5132:5133   */\n      0x00\n        /* \"#utility.yul\":5125:5140   */\n      revert\n        /* \"#utility.yul\":4989:5150   */\n    tag_276:\n      pop\n        /* \"#utility.yul\":4776:5156   */\n      swap2\n      swap1\n      pop\n      jump\t// out\n        /* \"#utility.yul\":5161:5657   */\n    tag_172:\n        /* \"#utility.yul\":5340:5343   */\n      0x00\n        /* \"#utility.yul\":5378:5384   */\n      dup4\n        /* \"#utility.yul\":5372:5385   */\n      mload\n        /* \"#utility.yul\":5394:5460   */\n      tag_278\n        /* \"#utility.yul\":5453:5459   */\n      dup2\n        /* \"#utility.yul\":5448:5451   */\n      dup5\n        /* \"#utility.yul\":5441:5445   */\n      0x20\n        /* \"#utility.yul\":5433:5439   */\n      dup9\n        /* \"#utility.yul\":5429:5446   */\n      add\n        /* \"#utility.yul\":5394:5460   */\n      tag_219\n      jump\t// in\n    tag_278:\n        /* \"#utility.yul\":5523:5536   */\n      dup4\n      mload\n        /* \"#utility.yul\":5482:5498   */\n      swap1\n      dup4\n      add\n      swap1\n        /* \"#utility.yul\":5545:5615   */\n      tag_279\n        /* \"#utility.yul\":5523:5536   */\n      dup2\n        /* \"#utility.yul\":5482:5498   */\n      dup4\n        /* \"#utility.yul\":5592:5596   */\n      0x20\n        /* \"#utility.yul\":5580:5597   */\n      dup9\n      add\n        /* \"#utility.yul\":5545:5615   */\n      tag_219\n      jump\t// in\n    tag_279:\n        /* \"#utility.yul\":5631:5651   */\n      add\n      swap5\n        /* \"#utility.yul\":5161:5657   */\n      swap4\n      pop\n      pop\n      pop\n      pop\n      jump\t// out\n        /* \"#utility.yul\":5662:6151   */\n    tag_198:\n      sub(shl(0xa0, 0x01), 0x01)\n        /* \"#utility.yul\":5931:5946   */\n      dup6\n      dup2\n      and\n        /* \"#utility.yul\":5913:5947   */\n      dup3\n      mstore\n        /* \"#utility.yul\":5983:5998   */\n      dup5\n      and\n        /* \"#utility.yul\":5978:5980   */\n      0x20\n        /* \"#utility.yul\":5963:5981   */\n      dup3\n      add\n        /* \"#utility.yul\":5956:5999   */\n      mstore\n        /* \"#utility.yul\":6030:6032   */\n      0x40\n        /* \"#utility.yul\":6015:6033   */\n      dup2\n      add\n        /* \"#utility.yul\":6008:6042   */\n      dup4\n      swap1\n      mstore\n        /* \"#utility.yul\":6078:6081   */\n      0x80\n        /* \"#utility.yul\":6073:6075   */\n      0x60\n        /* \"#utility.yul\":6058:6076   */\n      dup3\n      add\n        /* \"#utility.yul\":6051:6082   */\n      dup2\n      swap1\n      mstore\n        /* \"#utility.yul\":5856:5860   */\n      0x00\n      swap1\n        /* \"#utility.yul\":6099:6145   */\n      tag_281\n      swap1\n        /* \"#utility.yul\":6125:6144   */\n      dup4\n      add\n        /* \"#utility.yul\":6117:6123   */\n      dup5\n        /* \"#utility.yul\":6099:6145   */\n      tag_220\n      jump\t// in\n    tag_281:\n        /* \"#utility.yul\":6091:6145   */\n      swap7\n        /* \"#utility.yul\":5662:6151   */\n      swap6\n      pop\n      pop\n      pop\n      pop\n      pop\n      pop\n      jump\t// out\n        /* \"#utility.yul\":6156:6405   */\n    tag_201:\n        /* \"#utility.yul\":6225:6231   */\n      0x00\n        /* \"#utility.yul\":6278:6280   */\n      0x20\n        /* \"#utility.yul\":6266:6275   */\n      dup3\n        /* \"#utility.yul\":6257:6264   */\n      dup5\n        /* \"#utility.yul\":6253:6276   */\n      sub\n        /* \"#utility.yul\":6249:6281   */\n      slt\n        /* \"#utility.yul\":6246:6298   */\n      iszero\n      tag_283\n      jumpi\n        /* \"#utility.yul\":6294:6295   */\n      0x00\n        /* \"#utility.yul\":6291:6292   */\n      dup1\n        /* \"#utility.yul\":6284:6296   */\n      revert\n        /* \"#utility.yul\":6246:6298   */\n    tag_283:\n        /* \"#utility.yul\":6326:6335   */\n      dup2\n        /* \"#utility.yul\":6320:6336   */\n      mload\n        /* \"#utility.yul\":6345:6375   */\n      tag_168\n        /* \"#utility.yul\":6369:6374   */\n      dup2\n        /* \"#utility.yul\":6345:6375   */\n      tag_218\n      jump\t// in\n\n    auxdata: 0xa264697066735822122034bfa0ad76c54fc9d0cd15467f79b1c046339b5ef6210f08b98787193cce626964736f6c63430008160033\n}\n",
				"bytecode": {
					"linkReferences": {},
					"object": "608060405234801562000010575f80fd5b5060405162000fe138038062000fe183398101604081905262000033916200011d565b60026200004183826200020d565b5060036200005082826200020d565b50505f805550620002d9565b634e487b7160e01b5f52604160045260245ffd5b5f82601f83011262000080575f80fd5b81516001600160401b03808211156200009d576200009d6200005c565b604051601f8301601f19908116603f01168101908282118183101715620000c857620000c86200005c565b8160405283815260209250866020858801011115620000e5575f80fd5b5f91505b83821015620001085785820183015181830184015290820190620000e9565b5f602085830101528094505050505092915050565b5f80604083850312156200012f575f80fd5b82516001600160401b038082111562000146575f80fd5b620001548683870162000070565b935060208501519150808211156200016a575f80fd5b50620001798582860162000070565b9150509250929050565b600181811c908216806200019857607f821691505b602082108103620001b757634e487b7160e01b5f52602260045260245ffd5b50919050565b601f8211156200020857805f5260205f20601f840160051c81016020851015620001e45750805b601f840160051c820191505b8181101562000205575f8155600101620001f0565b50505b505050565b81516001600160401b038111156200022957620002296200005c565b62000241816200023a845462000183565b84620001bd565b602080601f83116001811462000277575f84156200025f5750858301515b5f19600386901b1c1916600185901b178555620002d1565b5f85815260208120601f198616915b82811015620002a75788860151825594840194600190910190840162000286565b5085821015620002c557878501515f19600388901b60f8161c191681555b505060018460011b0185555b505050505050565b610cfa80620002e75f395ff3fe6080604052600436106100d9575f3560e01c80636352211e1161007c578063a22cb46511610057578063a22cb46514610217578063b88d4fde14610236578063c87b56dd14610249578063e985e9c514610268575f80fd5b80636352211e146101c557806370a08231146101e457806395d89b4114610203575f80fd5b8063095ea7b3116100b7578063095ea7b31461016957806318160ddd1461017e57806323b872dd1461019f57806342842e0e146101b2575f80fd5b806301ffc9a7146100dd57806306fdde0314610111578063081812fc14610132575b5f80fd5b3480156100e8575f80fd5b506100fc6100f736600461098e565b6102af565b60405190151581526020015b60405180910390f35b34801561011c575f80fd5b50610125610300565b60405161010891906109f6565b34801561013d575f80fd5b5061015161014c366004610a08565b610390565b6040516001600160a01b039091168152602001610108565b61017c610177366004610a3a565b6103d2565b005b348015610189575f80fd5b506001545f54035b604051908152602001610108565b61017c6101ad366004610a62565b610470565b61017c6101c0366004610a62565b6105ff565b3480156101d0575f80fd5b506101516101df366004610a08565b61061e565b3480156101ef575f80fd5b506101916101fe366004610a9b565b610628565b34801561020e575f80fd5b50610125610675565b348015610222575f80fd5b5061017c610231366004610ab4565b610684565b61017c610244366004610b01565b6106ef565b348015610254575f80fd5b50610125610263366004610a08565b610739565b348015610273575f80fd5b506100fc610282366004610bd6565b6001600160a01b039182165f90815260076020908152604080832093909416825291909152205460ff1690565b5f6301ffc9a760e01b6001600160e01b0319831614806102df57506380ac58cd60e01b6001600160e01b03198316145b806102fa5750635b5e139f60e01b6001600160e01b03198316145b92915050565b60606002805461030f90610c07565b80601f016020809104026020016040519081016040528092919081815260200182805461033b90610c07565b80156103865780601f1061035d57610100808354040283529160200191610386565b820191905f5260205f20905b81548152906001019060200180831161036957829003601f168201915b5050505050905090565b5f61039a826107c6565b6103b7576040516333d1c03960e21b815260040160405180910390fd5b505f908152600660205260409020546001600160a01b031690565b5f6103dc8261061e565b9050336001600160a01b03821614610415576103f88133610282565b610415576040516367d9dca160e11b815260040160405180910390fd5b5f8281526006602052604080822080546001600160a01b0319166001600160a01b0387811691821790925591518593918516917f8c5be1e5ebec7d5bd14f71427d1e84f3dd0314c0f7b2291e5b200ac8c7c3b92591a4505050565b5f61047a826107eb565b9050836001600160a01b0316816001600160a01b0316146104ad5760405162a1148160e81b815260040160405180910390fd5b5f8281526006602052604090208054338082146001600160a01b038816909114176104f9576104dc8633610282565b6104f957604051632ce44b5f60e11b815260040160405180910390fd5b6001600160a01b03851661052057604051633a954ecd60e21b815260040160405180910390fd5b801561052a575f82555b6001600160a01b038681165f9081526005602052604080822080545f19019055918716808252919020805460010190554260a01b17600160e11b175f85815260046020526040812091909155600160e11b841690036105b657600184015f8181526004602052604081205490036105b4575f5481146105b4575f8181526004602052604090208490555b505b83856001600160a01b0316876001600160a01b03167fddf252ad1be2c89b69c2b068fc378daa952ba7f163c4a11628f55a4df523b3ef60405160405180910390a4505050505050565b61061983838360405180602001604052805f8152506106ef565b505050565b5f6102fa826107eb565b5f6001600160a01b038216610650576040516323d3ad8160e21b815260040160405180910390fd5b506001600160a01b03165f9081526005602052604090205467ffffffffffffffff1690565b60606003805461030f90610c07565b335f8181526007602090815260408083206001600160a01b03871680855290835292819020805460ff191686151590811790915590519081529192917f17307eab39ab6107e8899845ad3d59bd9653f200f220920489ca2b5937696c31910160405180910390a35050565b6106fa848484610470565b6001600160a01b0383163b15610733576107168484848461084c565b610733576040516368d2bf6b60e11b815260040160405180910390fd5b50505050565b6060610744826107c6565b61076157604051630a14c4b560e41b815260040160405180910390fd5b5f61077660408051602081019091525f815290565b905080515f036107945760405180602001604052805f8152506107bf565b8061079e84610933565b6040516020016107af929190610c3f565b6040516020818303038152906040525b9392505050565b5f8054821080156102fa5750505f90815260046020526040902054600160e01b161590565b5f815f54811015610833575f8181526004602052604081205490600160e01b82169003610831575b805f036107bf57505f19015f81815260046020526040902054610813565b505b604051636f96cda160e11b815260040160405180910390fd5b604051630a85bd0160e11b81525f906001600160a01b0385169063150b7a0290610880903390899088908890600401610c6d565b6020604051808303815f875af19250505080156108ba575060408051601f3d908101601f191682019092526108b791810190610ca9565b60015b610916573d8080156108e7576040519150601f19603f3d011682016040523d82523d5f602084013e6108ec565b606091505b5080515f0361090e576040516368d2bf6b60e11b815260040160405180910390fd5b805181602001fd5b6001600160e01b031916630a85bd0160e11b149050949350505050565b606060a06040510180604052602081039150505f815280825b600183039250600a81066030018353600a90048061094c5750819003601f19909101908152919050565b6001600160e01b03198116811461098b575f80fd5b50565b5f6020828403121561099e575f80fd5b81356107bf81610976565b5f5b838110156109c35781810151838201526020016109ab565b50505f910152565b5f81518084526109e28160208601602086016109a9565b601f01601f19169290920160200192915050565b602081525f6107bf60208301846109cb565b5f60208284031215610a18575f80fd5b5035919050565b80356001600160a01b0381168114610a35575f80fd5b919050565b5f8060408385031215610a4b575f80fd5b610a5483610a1f565b946020939093013593505050565b5f805f60608486031215610a74575f80fd5b610a7d84610a1f565b9250610a8b60208501610a1f565b9150604084013590509250925092565b5f60208284031215610aab575f80fd5b6107bf82610a1f565b5f8060408385031215610ac5575f80fd5b610ace83610a1f565b915060208301358015158114610ae2575f80fd5b809150509250929050565b634e487b7160e01b5f52604160045260245ffd5b5f805f8060808587031215610b14575f80fd5b610b1d85610a1f565b9350610b2b60208601610a1f565b925060408501359150606085013567ffffffffffffffff80821115610b4e575f80fd5b818701915087601f830112610b61575f80fd5b813581811115610b7357610b73610aed565b604051601f8201601f19908116603f01168101908382118183101715610b9b57610b9b610aed565b816040528281528a6020848701011115610bb3575f80fd5b826020860160208301375f60208483010152809550505050505092959194509250565b5f8060408385031215610be7575f80fd5b610bf083610a1f565b9150610bfe60208401610a1f565b90509250929050565b600181811c90821680610c1b57607f821691505b602082108103610c3957634e487b7160e01b5f52602260045260245ffd5b50919050565b5f8351610c508184602088016109a9565b835190830190610c648183602088016109a9565b01949350505050565b6001600160a01b03858116825284166020820152604081018390526080606082018190525f90610c9f908301846109cb565b9695505050505050565b5f60208284031215610cb9575f80fd5b81516107bf8161097656fea264697066735822122034bfa0ad76c54fc9d0cd15467f79b1c046339b5ef6210f08b98787193cce626964736f6c63430008160033",
					"opcodes": "PUSH1 0x80 PUSH1 0x40 MSTORE CALLVALUE DUP1 ISZERO PUSH3 0x10 JUMPI PUSH0 DUP1 REVERT JUMPDEST POP PUSH1 0x40 MLOAD PUSH3 0xFE1 CODESIZE SUB DUP1 PUSH3 0xFE1 DUP4 CODECOPY DUP2 ADD PUSH1 0x40 DUP2 SWAP1 MSTORE PUSH3 0x33 SWAP2 PUSH3 0x11D JUMP JUMPDEST PUSH1 0x2 PUSH3 0x41 DUP4 DUP3 PUSH3 0x20D JUMP JUMPDEST POP PUSH1 0x3 PUSH3 0x50 DUP3 DUP3 PUSH3 0x20D JUMP JUMPDEST POP POP PUSH0 DUP1 SSTORE POP PUSH3 0x2D9 JUMP JUMPDEST PUSH4 0x4E487B71 PUSH1 0xE0 SHL PUSH0 MSTORE PUSH1 0x41 PUSH1 0x4 MSTORE PUSH1 0x24 PUSH0 REVERT JUMPDEST PUSH0 DUP3 PUSH1 0x1F DUP4 ADD SLT PUSH3 0x80 JUMPI PUSH0 DUP1 REVERT JUMPDEST DUP2 MLOAD PUSH1 0x1 PUSH1 0x1 PUSH1 0x40 SHL SUB DUP1 DUP3 GT ISZERO PUSH3 0x9D JUMPI PUSH3 0x9D PUSH3 0x5C JUMP JUMPDEST PUSH1 0x40 MLOAD PUSH1 0x1F DUP4 ADD PUSH1 0x1F NOT SWAP1 DUP2 AND PUSH1 0x3F ADD AND DUP2 ADD SWAP1 DUP3 DUP3 GT DUP2 DUP4 LT OR ISZERO PUSH3 0xC8 JUMPI PUSH3 0xC8 PUSH3 0x5C JUMP JUMPDEST DUP2 PUSH1 0x40 MSTORE DUP4 DUP2 MSTORE PUSH1 0x20 SWAP3 POP DUP7 PUSH1 0x20 DUP6 DUP9 ADD ADD GT ISZERO PUSH3 0xE5 JUMPI PUSH0 DUP1 REVERT JUMPDEST PUSH0 SWAP2 POP JUMPDEST DUP4 DUP3 LT ISZERO PUSH3 0x108 JUMPI DUP6 DUP3 ADD DUP4 ADD MLOAD DUP2 DUP4 ADD DUP5 ADD MSTORE SWAP1 DUP3 ADD SWAP1 PUSH3 0xE9 JUMP JUMPDEST PUSH0 PUSH1 0x20 DUP6 DUP4 ADD ADD MSTORE DUP1 SWAP5 POP POP POP POP POP SWAP3 SWAP2 POP POP JUMP JUMPDEST PUSH0 DUP1 PUSH1 0x40 DUP4 DUP6 SUB SLT ISZERO PUSH3 0x12F JUMPI PUSH0 DUP1 REVERT JUMPDEST DUP3 MLOAD PUSH1 0x1 PUSH1 0x1 PUSH1 0x40 SHL SUB DUP1 DUP3 GT ISZERO PUSH3 0x146 JUMPI PUSH0 DUP1 REVERT JUMPDEST PUSH3 0x154 DUP7 DUP4 DUP8 ADD PUSH3 0x70 JUMP JUMPDEST SWAP4 POP PUSH1 0x20 DUP6 ADD MLOAD SWAP2 POP DUP1 DUP3 GT ISZERO PUSH3 0x16A JUMPI PUSH0 DUP1 REVERT JUMPDEST POP PUSH3 0x179 DUP6 DUP3 DUP7 ADD PUSH3 0x70 JUMP JUMPDEST SWAP2 POP POP SWAP3 POP SWAP3 SWAP1 POP JUMP JUMPDEST PUSH1 0x1 DUP2 DUP2 SHR SWAP1 DUP3 AND DUP1 PUSH3 0x198 JUMPI PUSH1 0x7F DUP3 AND SWAP2 POP JUMPDEST PUSH1 0x20 DUP3 LT DUP2 SUB PUSH3 0x1B7 JUMPI PUSH4 0x4E487B71 PUSH1 0xE0 SHL PUSH0 MSTORE PUSH1 0x22 PUSH1 0x4 MSTORE PUSH1 0x24 PUSH0 REVERT JUMPDEST POP SWAP2 SWAP1 POP JUMP JUMPDEST PUSH1 0x1F DUP3 GT ISZERO PUSH3 0x208 JUMPI DUP1 PUSH0 MSTORE PUSH1 0x20 PUSH0 KECCAK256 PUSH1 0x1F DUP5 ADD PUSH1 0x5 SHR DUP2 ADD PUSH1 0x20 DUP6 LT ISZERO PUSH3 0x1E4 JUMPI POP DUP1 JUMPDEST PUSH1 0x1F DUP5 ADD PUSH1 0x5 SHR DUP3 ADD SWAP2 POP JUMPDEST DUP2 DUP2 LT ISZERO PUSH3 0x205 JUMPI PUSH0 DUP2 SSTORE PUSH1 0x1 ADD PUSH3 0x1F0 JUMP JUMPDEST POP POP JUMPDEST POP POP POP JUMP JUMPDEST DUP2 MLOAD PUSH1 0x1 PUSH1 0x1 PUSH1 0x40 SHL SUB DUP2 GT ISZERO PUSH3 0x229 JUMPI PUSH3 0x229 PUSH3 0x5C JUMP JUMPDEST PUSH3 0x241 DUP2 PUSH3 0x23A DUP5 SLOAD PUSH3 0x183 JUMP JUMPDEST DUP5 PUSH3 0x1BD JUMP JUMPDEST PUSH1 0x20 DUP1 PUSH1 0x1F DUP4 GT PUSH1 0x1 DUP2 EQ PUSH3 0x277 JUMPI PUSH0 DUP5 ISZERO PUSH3 0x25F JUMPI POP DUP6 DUP4 ADD MLOAD JUMPDEST PUSH0 NOT PUSH1 0x3 DUP7 SWAP1 SHL SHR NOT AND PUSH1 0x1 DUP6 SWAP1 SHL OR DUP6 SSTORE PUSH3 0x2D1 JUMP JUMPDEST PUSH0 DUP6 DUP2 MSTORE PUSH1 0x20 DUP2 KECCAK256 PUSH1 0x1F NOT DUP7 AND SWAP2 JUMPDEST DUP3 DUP2 LT ISZERO PUSH3 0x2A7 JUMPI DUP9 DUP7 ADD MLOAD DUP3 SSTORE SWAP5 DUP5 ADD SWAP5 PUSH1 0x1 SWAP1 SWAP2 ADD SWAP1 DUP5 ADD PUSH3 0x286 JUMP JUMPDEST POP DUP6 DUP3 LT ISZERO PUSH3 0x2C5 JUMPI DUP8 DUP6 ADD MLOAD PUSH0 NOT PUSH1 0x3 DUP9 SWAP1 SHL PUSH1 0xF8 AND SHR NOT AND DUP2 SSTORE JUMPDEST POP POP PUSH1 0x1 DUP5 PUSH1 0x1 SHL ADD DUP6 SSTORE JUMPDEST POP POP POP POP POP POP JUMP JUMPDEST PUSH2 0xCFA DUP1 PUSH3 0x2E7 PUSH0 CODECOPY PUSH0 RETURN INVALID PUSH1 0x80 PUSH1 0x40 MSTORE PUSH1 0x4 CALLDATASIZE LT PUSH2 0xD9 JUMPI PUSH0 CALLDATALOAD PUSH1 0xE0 SHR DUP1 PUSH4 0x6352211E GT PUSH2 0x7C JUMPI DUP1 PUSH4 0xA22CB465 GT PUSH2 0x57 JUMPI DUP1 PUSH4 0xA22CB465 EQ PUSH2 0x217 JUMPI DUP1 PUSH4 0xB88D4FDE EQ PUSH2 0x236 JUMPI DUP1 PUSH4 0xC87B56DD EQ PUSH2 0x249 JUMPI DUP1 PUSH4 0xE985E9C5 EQ PUSH2 0x268 JUMPI PUSH0 DUP1 REVERT JUMPDEST DUP1 PUSH4 0x6352211E EQ PUSH2 0x1C5 JUMPI DUP1 PUSH4 0x70A08231 EQ PUSH2 0x1E4 JUMPI DUP1 PUSH4 0x95D89B41 EQ PUSH2 0x203 JUMPI PUSH0 DUP1 REVERT JUMPDEST DUP1 PUSH4 0x95EA7B3 GT PUSH2 0xB7 JUMPI DUP1 PUSH4 0x95EA7B3 EQ PUSH2 0x169 JUMPI DUP1 PUSH4 0x18160DDD EQ PUSH2 0x17E JUMPI DUP1 PUSH4 0x23B872DD EQ PUSH2 0x19F JUMPI DUP1 PUSH4 0x42842E0E EQ PUSH2 0x1B2 JUMPI PUSH0 DUP1 REVERT JUMPDEST DUP1 PUSH4 0x1FFC9A7 EQ PUSH2 0xDD JUMPI DUP1 PUSH4 0x6FDDE03 EQ PUSH2 0x111 JUMPI DUP1 PUSH4 0x81812FC EQ PUSH2 0x132 JUMPI JUMPDEST PUSH0 DUP1 REVERT JUMPDEST CALLVALUE DUP1 ISZERO PUSH2 0xE8 JUMPI PUSH0 DUP1 REVERT JUMPDEST POP PUSH2 0xFC PUSH2 0xF7 CALLDATASIZE PUSH1 0x4 PUSH2 0x98E JUMP JUMPDEST PUSH2 0x2AF JUMP JUMPDEST PUSH1 0x40 MLOAD SWAP1 ISZERO ISZERO DUP2 MSTORE PUSH1 0x20 ADD JUMPDEST PUSH1 0x40 MLOAD DUP1 SWAP2 SUB SWAP1 RETURN JUMPDEST CALLVALUE DUP1 ISZERO PUSH2 0x11C JUMPI PUSH0 DUP1 REVERT JUMPDEST POP PUSH2 0x125 PUSH2 0x300 JUMP JUMPDEST PUSH1 0x40 MLOAD PUSH2 0x108 SWAP2 SWAP1 PUSH2 0x9F6 JUMP JUMPDEST CALLVALUE DUP1 ISZERO PUSH2 0x13D JUMPI PUSH0 DUP1 REVERT JUMPDEST POP PUSH2 0x151 PUSH2 0x14C CALLDATASIZE PUSH1 0x4 PUSH2 0xA08 JUMP JUMPDEST PUSH2 0x390 JUMP JUMPDEST PUSH1 0x40 MLOAD PUSH1 0x1 PUSH1 0x1 PUSH1 0xA0 SHL SUB SWAP1 SWAP2 AND DUP2 MSTORE PUSH1 0x20 ADD PUSH2 0x108 JUMP JUMPDEST PUSH2 0x17C PUSH2 0x177 CALLDATASIZE PUSH1 0x4 PUSH2 0xA3A JUMP JUMPDEST PUSH2 0x3D2 JUMP JUMPDEST STOP JUMPDEST CALLVALUE DUP1 ISZERO PUSH2 0x189 JUMPI PUSH0 DUP1 REVERT JUMPDEST POP PUSH1 0x1 SLOAD PUSH0 SLOAD SUB JUMPDEST PUSH1 0x40 MLOAD SWAP1 DUP2 MSTORE PUSH1 0x20 ADD PUSH2 0x108 JUMP JUMPDEST PUSH2 0x17C PUSH2 0x1AD CALLDATASIZE PUSH1 0x4 PUSH2 0xA62 JUMP JUMPDEST PUSH2 0x470 JUMP JUMPDEST PUSH2 0x17C PUSH2 0x1C0 CALLDATASIZE PUSH1 0x4 PUSH2 0xA62 JUMP JUMPDEST PUSH2 0x5FF JUMP JUMPDEST CALLVALUE DUP1 ISZERO PUSH2 0x1D0 JUMPI PUSH0 DUP1 REVERT JUMPDEST POP PUSH2 0x151 PUSH2 0x1DF CALLDATASIZE PUSH1 0x4 PUSH2 0xA08 JUMP JUMPDEST PUSH2 0x61E JUMP JUMPDEST CALLVALUE DUP1 ISZERO PUSH2 0x1EF JUMPI PUSH0 DUP1 REVERT JUMPDEST POP PUSH2 0x191 PUSH2 0x1FE CALLDATASIZE PUSH1 0x4 PUSH2 0xA9B JUMP JUMPDEST PUSH2 0x628 JUMP JUMPDEST CALLVALUE DUP1 ISZERO PUSH2 0x20E JUMPI PUSH0 DUP1 REVERT JUMPDEST POP PUSH2 0x125 PUSH2 0x675 JUMP JUMPDEST CALLVALUE DUP1 ISZERO PUSH2 0x222 JUMPI PUSH0 DUP1 REVERT JUMPDEST POP PUSH2 0x17C PUSH2 0x231 CALLDATASIZE PUSH1 0x4 PUSH2 0xAB4 JUMP JUMPDEST PUSH2 0x684 JUMP JUMPDEST PUSH2 0x17C PUSH2 0x244 CALLDATASIZE PUSH1 0x4 PUSH2 0xB01 JUMP JUMPDEST PUSH2 0x6EF JUMP JUMPDEST CALLVALUE DUP1 ISZERO PUSH2 0x254 JUMPI PUSH0 DUP1 REVERT JUMPDEST POP PUSH2 0x125 PUSH2 0x263 CALLDATASIZE PUSH1 0x4 PUSH2 0xA08 JUMP JUMPDEST PUSH2 0x739 JUMP JUMPDEST CALLVALUE DUP1 ISZERO PUSH2 0x273 JUMPI PUSH0 DUP1 REVERT JUMPDEST POP PUSH2 0xFC PUSH2 0x282 CALLDATASIZE PUSH1 0x4 PUSH2 0xBD6 JUMP JUMPDEST PUSH1 0x1 PUSH1 0x1 PUSH1 0xA0 SHL SUB SWAP2 DUP3 AND PUSH0 SWAP1 DUP2 MSTORE PUSH1 0x7 PUSH1 0x20 SWAP1 DUP2 MSTORE PUSH1 0x40 DUP1 DUP4 KECCAK256 SWAP4 SWAP1 SWAP5 AND DUP3 MSTORE SWAP2 SWAP1 SWAP2 MSTORE KECCAK256 SLOAD PUSH1 0xFF AND SWAP1 JUMP JUMPDEST PUSH0 PUSH4 0x1FFC9A7 PUSH1 0xE0 SHL PUSH1 0x1 PUSH1 0x1 PUSH1 0xE0 SHL SUB NOT DUP4 AND EQ DUP1 PUSH2 0x2DF JUMPI POP PUSH4 0x80AC58CD PUSH1 0xE0 SHL PUSH1 0x1 PUSH1 0x1 PUSH1 0xE0 SHL SUB NOT DUP4 AND EQ JUMPDEST DUP1 PUSH2 0x2FA JUMPI POP PUSH4 0x5B5E139F PUSH1 0xE0 SHL PUSH1 0x1 PUSH1 0x1 PUSH1 0xE0 SHL SUB NOT DUP4 AND EQ JUMPDEST SWAP3 SWAP2 POP POP JUMP JUMPDEST PUSH1 0x60 PUSH1 0x2 DUP1 SLOAD PUSH2 0x30F SWAP1 PUSH2 0xC07 JUMP JUMPDEST DUP1 PUSH1 0x1F ADD PUSH1 0x20 DUP1 SWAP2 DIV MUL PUSH1 0x20 ADD PUSH1 0x40 MLOAD SWAP1 DUP2 ADD PUSH1 0x40 MSTORE DUP1 SWAP3 SWAP2 SWAP1 DUP2 DUP2 MSTORE PUSH1 0x20 ADD DUP3 DUP1 SLOAD PUSH2 0x33B SWAP1 PUSH2 0xC07 JUMP JUMPDEST DUP1 ISZERO PUSH2 0x386 JUMPI DUP1 PUSH1 0x1F LT PUSH2 0x35D JUMPI PUSH2 0x100 DUP1 DUP4 SLOAD DIV MUL DUP4 MSTORE SWAP2 PUSH1 0x20 ADD SWAP2 PUSH2 0x386 JUMP JUMPDEST DUP3 ADD SWAP2 SWAP1 PUSH0 MSTORE PUSH1 0x20 PUSH0 KECCAK256 SWAP1 JUMPDEST DUP2 SLOAD DUP2 MSTORE SWAP1 PUSH1 0x1 ADD SWAP1 PUSH1 0x20 ADD DUP1 DUP4 GT PUSH2 0x369 JUMPI DUP3 SWAP1 SUB PUSH1 0x1F AND DUP3 ADD SWAP2 JUMPDEST POP POP POP POP POP SWAP1 POP SWAP1 JUMP JUMPDEST PUSH0 PUSH2 0x39A DUP3 PUSH2 0x7C6 JUMP JUMPDEST PUSH2 0x3B7 JUMPI PUSH1 0x40 MLOAD PUSH4 0x33D1C039 PUSH1 0xE2 SHL DUP2 MSTORE PUSH1 0x4 ADD PUSH1 0x40 MLOAD DUP1 SWAP2 SUB SWAP1 REVERT JUMPDEST POP PUSH0 SWAP1 DUP2 MSTORE PUSH1 0x6 PUSH1 0x20 MSTORE PUSH1 0x40 SWAP1 KECCAK256 SLOAD PUSH1 0x1 PUSH1 0x1 PUSH1 0xA0 SHL SUB AND SWAP1 JUMP JUMPDEST PUSH0 PUSH2 0x3DC DUP3 PUSH2 0x61E JUMP JUMPDEST SWAP1 POP CALLER PUSH1 0x1 PUSH1 0x1 PUSH1 0xA0 SHL SUB DUP3 AND EQ PUSH2 0x415 JUMPI PUSH2 0x3F8 DUP2 CALLER PUSH2 0x282 JUMP JUMPDEST PUSH2 0x415 JUMPI PUSH1 0x40 MLOAD PUSH4 0x67D9DCA1 PUSH1 0xE1 SHL DUP2 MSTORE PUSH1 0x4 ADD PUSH1 0x40 MLOAD DUP1 SWAP2 SUB SWAP1 REVERT JUMPDEST PUSH0 DUP3 DUP2 MSTORE PUSH1 0x6 PUSH1 0x20 MSTORE PUSH1 0x40 DUP1 DUP3 KECCAK256 DUP1 SLOAD PUSH1 0x1 PUSH1 0x1 PUSH1 0xA0 SHL SUB NOT AND PUSH1 0x1 PUSH1 0x1 PUSH1 0xA0 SHL SUB DUP8 DUP2 AND SWAP2 DUP3 OR SWAP1 SWAP3 SSTORE SWAP2 MLOAD DUP6 SWAP4 SWAP2 DUP6 AND SWAP2 PUSH32 0x8C5BE1E5EBEC7D5BD14F71427D1E84F3DD0314C0F7B2291E5B200AC8C7C3B925 SWAP2 LOG4 POP POP POP JUMP JUMPDEST PUSH0 PUSH2 0x47A DUP3 PUSH2 0x7EB JUMP JUMPDEST SWAP1 POP DUP4 PUSH1 0x1 PUSH1 0x1 PUSH1 0xA0 SHL SUB AND DUP2 PUSH1 0x1 PUSH1 0x1 PUSH1 0xA0 SHL SUB AND EQ PUSH2 0x4AD JUMPI PUSH1 0x40 MLOAD PUSH3 0xA11481 PUSH1 0xE8 SHL DUP2 MSTORE PUSH1 0x4 ADD PUSH1 0x40 MLOAD DUP1 SWAP2 SUB SWAP1 REVERT JUMPDEST PUSH0 DUP3 DUP2 MSTORE PUSH1 0x6 PUSH1 0x20 MSTORE PUSH1 0x40 SWAP1 KECCAK256 DUP1 SLOAD CALLER DUP1 DUP3 EQ PUSH1 0x1 PUSH1 0x1 PUSH1 0xA0 SHL SUB DUP9 AND SWAP1 SWAP2 EQ OR PUSH2 0x4F9 JUMPI PUSH2 0x4DC DUP7 CALLER PUSH2 0x282 JUMP JUMPDEST PUSH2 0x4F9 JUMPI PUSH1 0x40 MLOAD PUSH4 0x2CE44B5F PUSH1 0xE1 SHL DUP2 MSTORE PUSH1 0x4 ADD PUSH1 0x40 MLOAD DUP1 SWAP2 SUB SWAP1 REVERT JUMPDEST PUSH1 0x1 PUSH1 0x1 PUSH1 0xA0 SHL SUB DUP6 AND PUSH2 0x520 JUMPI PUSH1 0x40 MLOAD PUSH4 0x3A954ECD PUSH1 0xE2 SHL DUP2 MSTORE PUSH1 0x4 ADD PUSH1 0x40 MLOAD DUP1 SWAP2 SUB SWAP1 REVERT JUMPDEST DUP1 ISZERO PUSH2 0x52A JUMPI PUSH0 DUP3 SSTORE JUMPDEST PUSH1 0x1 PUSH1 0x1 PUSH1 0xA0 SHL SUB DUP7 DUP2 AND PUSH0 SWAP1 DUP2 MSTORE PUSH1 0x5 PUSH1 0x20 MSTORE PUSH1 0x40 DUP1 DUP3 KECCAK256 DUP1 SLOAD PUSH0 NOT ADD SWAP1 SSTORE SWAP2 DUP8 AND DUP1 DUP3 MSTORE SWAP2 SWAP1 KECCAK256 DUP1 SLOAD PUSH1 0x1 ADD SWAP1 SSTORE TIMESTAMP PUSH1 0xA0 SHL OR PUSH1 0x1 PUSH1 0xE1 SHL OR PUSH0 DUP6 DUP2 MSTORE PUSH1 0x4 PUSH1 0x20 MSTORE PUSH1 0x40 DUP2 KECCAK256 SWAP2 SWAP1 SWAP2 SSTORE PUSH1 0x1 PUSH1 0xE1 SHL DUP5 AND SWAP1 SUB PUSH2 0x5B6 JUMPI PUSH1 0x1 DUP5 ADD PUSH0 DUP2 DUP2 MSTORE PUSH1 0x4 PUSH1 0x20 MSTORE PUSH1 0x40 DUP2 KECCAK256 SLOAD SWAP1 SUB PUSH2 0x5B4 JUMPI PUSH0 SLOAD DUP2 EQ PUSH2 0x5B4 JUMPI PUSH0 DUP2 DUP2 MSTORE PUSH1 0x4 PUSH1 0x20 MSTORE PUSH1 0x40 SWAP1 KECCAK256 DUP5 SWAP1 SSTORE JUMPDEST POP JUMPDEST DUP4 DUP6 PUSH1 0x1 PUSH1 0x1 PUSH1 0xA0 SHL SUB AND DUP8 PUSH1 0x1 PUSH1 0x1 PUSH1 0xA0 SHL SUB AND PUSH32 0xDDF252AD1BE2C89B69C2B068FC378DAA952BA7F163C4A11628F55A4DF523B3EF PUSH1 0x40 MLOAD PUSH1 0x40 MLOAD DUP1 SWAP2 SUB SWAP1 LOG4 POP POP POP POP POP POP JUMP JUMPDEST PUSH2 0x619 DUP4 DUP4 DUP4 PUSH1 0x40 MLOAD DUP1 PUSH1 0x20 ADD PUSH1 0x40 MSTORE DUP1 PUSH0 DUP2 MSTORE POP PUSH2 0x6EF JUMP JUMPDEST POP POP POP JUMP JUMPDEST PUSH0 PUSH2 0x2FA DUP3 PUSH2 0x7EB JUMP JUMPDEST PUSH0 PUSH1 0x1 PUSH1 0x1 PUSH1 0xA0 SHL SUB DUP3 AND PUSH2 0x650 JUMPI PUSH1 0x40 MLOAD PUSH4 0x23D3AD81 PUSH1 0xE2 SHL DUP2 MSTORE PUSH1 0x4 ADD PUSH1 0x40 MLOAD DUP1 SWAP2 SUB SWAP1 REVERT JUMPDEST POP PUSH1 0x1 PUSH1 0x1 PUSH1 0xA0 SHL SUB AND PUSH0 SWAP1 DUP2 MSTORE PUSH1 0x5 PUSH1 0x20 MSTORE PUSH1 0x40 SWAP1 KECCAK256 SLOAD PUSH8 0xFFFFFFFFFFFFFFFF AND SWAP1 JUMP JUMPDEST PUSH1 0x60 PUSH1 0x3 DUP1 SLOAD PUSH2 0x30F SWAP1 PUSH2 0xC07 JUMP JUMPDEST CALLER PUSH0 DUP2 DUP2 MSTORE PUSH1 0x7 PUSH1 0x20 SWAP1 DUP2 MSTORE PUSH1 0x40 DUP1 DUP4 KECCAK256 PUSH1 0x1 PUSH1 0x1 PUSH1 0xA0 SHL SUB DUP8 AND DUP1 DUP6 MSTORE SWAP1 DUP4 MSTORE SWAP3 DUP2 SWAP1 KECCAK256 DUP1 SLOAD PUSH1 0xFF NOT AND DUP7 ISZERO ISZERO SWAP1 DUP2 OR SWAP1 SWAP2 SSTORE SWAP1 MLOAD SWAP1 DUP2 MSTORE SWAP2 SWAP3 SWAP2 PUSH32 0x17307EAB39AB6107E8899845AD3D59BD9653F200F220920489CA2B5937696C31 SWAP2 ADD PUSH1 0x40 MLOAD DUP1 SWAP2 SUB SWAP1 LOG3 POP POP JUMP JUMPDEST PUSH2 0x6FA DUP5 DUP5 DUP5 PUSH2 0x470 JUMP JUMPDEST PUSH1 0x1 PUSH1 0x1 PUSH1 0xA0 SHL SUB DUP4 AND EXTCODESIZE ISZERO PUSH2 0x733 JUMPI PUSH2 0x716 DUP5 DUP5 DUP5 DUP5 PUSH2 0x84C JUMP JUMPDEST PUSH2 0x733 JUMPI PUSH1 0x40 MLOAD PUSH4 0x68D2BF6B PUSH1 0xE1 SHL DUP2 MSTORE PUSH1 0x4 ADD PUSH1 0x40 MLOAD DUP1 SWAP2 SUB SWAP1 REVERT JUMPDEST POP POP POP POP JUMP JUMPDEST PUSH1 0x60 PUSH2 0x744 DUP3 PUSH2 0x7C6 JUMP JUMPDEST PUSH2 0x761 JUMPI PUSH1 0x40 MLOAD PUSH4 0xA14C4B5 PUSH1 0xE4 SHL DUP2 MSTORE PUSH1 0x4 ADD PUSH1 0x40 MLOAD DUP1 SWAP2 SUB SWAP1 REVERT JUMPDEST PUSH0 PUSH2 0x776 PUSH1 0x40 DUP1 MLOAD PUSH1 0x20 DUP2 ADD SWAP1 SWAP2 MSTORE PUSH0 DUP2 MSTORE SWAP1 JUMP JUMPDEST SWAP1 POP DUP1 MLOAD PUSH0 SUB PUSH2 0x794 JUMPI PUSH1 0x40 MLOAD DUP1 PUSH1 0x20 ADD PUSH1 0x40 MSTORE DUP1 PUSH0 DUP2 MSTORE POP PUSH2 0x7BF JUMP JUMPDEST DUP1 PUSH2 0x79E DUP5 PUSH2 0x933 JUMP JUMPDEST PUSH1 0x40 MLOAD PUSH1 0x20 ADD PUSH2 0x7AF SWAP3 SWAP2 SWAP1 PUSH2 0xC3F JUMP JUMPDEST PUSH1 0x40 MLOAD PUSH1 0x20 DUP2 DUP4 SUB SUB DUP2 MSTORE SWAP1 PUSH1 0x40 MSTORE JUMPDEST SWAP4 SWAP3 POP POP POP JUMP JUMPDEST PUSH0 DUP1 SLOAD DUP3 LT DUP1 ISZERO PUSH2 0x2FA JUMPI POP POP PUSH0 SWAP1 DUP2 MSTORE PUSH1 0x4 PUSH1 0x20 MSTORE PUSH1 0x40 SWAP1 KECCAK256 SLOAD PUSH1 0x1 PUSH1 0xE0 SHL AND ISZERO SWAP1 JUMP JUMPDEST PUSH0 DUP2 PUSH0 SLOAD DUP2 LT ISZERO PUSH2 0x833 JUMPI PUSH0 DUP2 DUP2 MSTORE PUSH1 0x4 PUSH1 0x20 MSTORE PUSH1 0x40 DUP2 KECCAK256 SLOAD SWAP1 PUSH1 0x1 PUSH1 0xE0 SHL DUP3 AND SWAP1 SUB PUSH2 0x831 JUMPI JUMPDEST DUP1 PUSH0 SUB PUSH2 0x7BF JUMPI POP PUSH0 NOT ADD PUSH0 DUP2 DUP2 MSTORE PUSH1 0x4 PUSH1 0x20 MSTORE PUSH1 0x40 SWAP1 KECCAK256 SLOAD PUSH2 0x813 JUMP JUMPDEST POP JUMPDEST PUSH1 0x40 MLOAD PUSH4 0x6F96CDA1 PUSH1 0xE1 SHL DUP2 MSTORE PUSH1 0x4 ADD PUSH1 0x40 MLOAD DUP1 SWAP2 SUB SWAP1 REVERT JUMPDEST PUSH1 0x40 MLOAD PUSH4 0xA85BD01 PUSH1 0xE1 SHL DUP2 MSTORE PUSH0 SWAP1 PUSH1 0x1 PUSH1 0x1 PUSH1 0xA0 SHL SUB DUP6 AND SWAP1 PUSH4 0x150B7A02 SWAP1 PUSH2 0x880 SWAP1 CALLER SWAP1 DUP10 SWAP1 DUP9 SWAP1 DUP9 SWAP1 PUSH1 0x4 ADD PUSH2 0xC6D JUMP JUMPDEST PUSH1 0x20 PUSH1 0x40 MLOAD DUP1 DUP4 SUB DUP2 PUSH0 DUP8 GAS CALL SWAP3 POP POP POP DUP1 ISZERO PUSH2 0x8BA JUMPI POP PUSH1 0x40 DUP1 MLOAD PUSH1 0x1F RETURNDATASIZE SWAP1 DUP2 ADD PUSH1 0x1F NOT AND DUP3 ADD SWAP1 SWAP3 MSTORE PUSH2 0x8B7 SWAP2 DUP2 ADD SWAP1 PUSH2 0xCA9 JUMP JUMPDEST PUSH1 0x1 JUMPDEST PUSH2 0x916 JUMPI RETURNDATASIZE DUP1 DUP1 ISZERO PUSH2 0x8E7 JUMPI PUSH1 0x40 MLOAD SWAP2 POP PUSH1 0x1F NOT PUSH1 0x3F RETURNDATASIZE ADD AND DUP3 ADD PUSH1 0x40 MSTORE RETURNDATASIZE DUP3 MSTORE RETURNDATASIZE PUSH0 PUSH1 0x20 DUP5 ADD RETURNDATACOPY PUSH2 0x8EC JUMP JUMPDEST PUSH1 0x60 SWAP2 POP JUMPDEST POP DUP1 MLOAD PUSH0 SUB PUSH2 0x90E JUMPI PUSH1 0x40 MLOAD PUSH4 0x68D2BF6B PUSH1 0xE1 SHL DUP2 MSTORE PUSH1 0x4 ADD PUSH1 0x40 MLOAD DUP1 SWAP2 SUB SWAP1 REVERT JUMPDEST DUP1 MLOAD DUP2 PUSH1 0x20 ADD REVERT JUMPDEST PUSH1 0x1 PUSH1 0x1 PUSH1 0xE0 SHL SUB NOT AND PUSH4 0xA85BD01 PUSH1 0xE1 SHL EQ SWAP1 POP SWAP5 SWAP4 POP POP POP POP JUMP JUMPDEST PUSH1 0x60 PUSH1 0xA0 PUSH1 0x40 MLOAD ADD DUP1 PUSH1 0x40 MSTORE PUSH1 0x20 DUP2 SUB SWAP2 POP POP PUSH0 DUP2 MSTORE DUP1 DUP3 JUMPDEST PUSH1 0x1 DUP4 SUB SWAP3 POP PUSH1 0xA DUP2 MOD PUSH1 0x30 ADD DUP4 MSTORE8 PUSH1 0xA SWAP1 DIV DUP1 PUSH2 0x94C JUMPI POP DUP2 SWAP1 SUB PUSH1 0x1F NOT SWAP1 SWAP2 ADD SWAP1 DUP2 MSTORE SWAP2 SWAP1 POP JUMP JUMPDEST PUSH1 0x1 PUSH1 0x1 PUSH1 0xE0 SHL SUB NOT DUP2 AND DUP2 EQ PUSH2 0x98B JUMPI PUSH0 DUP1 REVERT JUMPDEST POP JUMP JUMPDEST PUSH0 PUSH1 0x20 DUP3 DUP5 SUB SLT ISZERO PUSH2 0x99E JUMPI PUSH0 DUP1 REVERT JUMPDEST DUP2 CALLDATALOAD PUSH2 0x7BF DUP2 PUSH2 0x976 JUMP JUMPDEST PUSH0 JUMPDEST DUP4 DUP2 LT ISZERO PUSH2 0x9C3 JUMPI DUP2 DUP2 ADD MLOAD DUP4 DUP3 ADD MSTORE PUSH1 0x20 ADD PUSH2 0x9AB JUMP JUMPDEST POP POP PUSH0 SWAP2 ADD MSTORE JUMP JUMPDEST PUSH0 DUP2 MLOAD DUP1 DUP5 MSTORE PUSH2 0x9E2 DUP2 PUSH1 0x20 DUP7 ADD PUSH1 0x20 DUP7 ADD PUSH2 0x9A9 JUMP JUMPDEST PUSH1 0x1F ADD PUSH1 0x1F NOT AND SWAP3 SWAP1 SWAP3 ADD PUSH1 0x20 ADD SWAP3 SWAP2 POP POP JUMP JUMPDEST PUSH1 0x20 DUP2 MSTORE PUSH0 PUSH2 0x7BF PUSH1 0x20 DUP4 ADD DUP5 PUSH2 0x9CB JUMP JUMPDEST PUSH0 PUSH1 0x20 DUP3 DUP5 SUB SLT ISZERO PUSH2 0xA18 JUMPI PUSH0 DUP1 REVERT JUMPDEST POP CALLDATALOAD SWAP2 SWAP1 POP JUMP JUMPDEST DUP1 CALLDATALOAD PUSH1 0x1 PUSH1 0x1 PUSH1 0xA0 SHL SUB DUP2 AND DUP2 EQ PUSH2 0xA35 JUMPI PUSH0 DUP1 REVERT JUMPDEST SWAP2 SWAP1 POP JUMP JUMPDEST PUSH0 DUP1 PUSH1 0x40 DUP4 DUP6 SUB SLT ISZERO PUSH2 0xA4B JUMPI PUSH0 DUP1 REVERT JUMPDEST PUSH2 0xA54 DUP4 PUSH2 0xA1F JUMP JUMPDEST SWAP5 PUSH1 0x20 SWAP4 SWAP1 SWAP4 ADD CALLDATALOAD SWAP4 POP POP POP JUMP JUMPDEST PUSH0 DUP1 PUSH0 PUSH1 0x60 DUP5 DUP7 SUB SLT ISZERO PUSH2 0xA74 JUMPI PUSH0 DUP1 REVERT JUMPDEST PUSH2 0xA7D DUP5 PUSH2 0xA1F JUMP JUMPDEST SWAP3 POP PUSH2 0xA8B PUSH1 0x20 DUP6 ADD PUSH2 0xA1F JUMP JUMPDEST SWAP2 POP PUSH1 0x40 DUP5 ADD CALLDATALOAD SWAP1 POP SWAP3 POP SWAP3 POP SWAP3 JUMP JUMPDEST PUSH0 PUSH1 0x20 DUP3 DUP5 SUB SLT ISZERO PUSH2 0xAAB JUMPI PUSH0 DUP1 REVERT JUMPDEST PUSH2 0x7BF DUP3 PUSH2 0xA1F JUMP JUMPDEST PUSH0 DUP1 PUSH1 0x40 DUP4 DUP6 SUB SLT ISZERO PUSH2 0xAC5 JUMPI PUSH0 DUP1 REVERT JUMPDEST PUSH2 0xACE DUP4 PUSH2 0xA1F JUMP JUMPDEST SWAP2 POP PUSH1 0x20 DUP4 ADD CALLDATALOAD DUP1 ISZERO ISZERO DUP2 EQ PUSH2 0xAE2 JUMPI PUSH0 DUP1 REVERT JUMPDEST DUP1 SWAP2 POP POP SWAP3 POP SWAP3 SWAP1 POP JUMP JUMPDEST PUSH4 0x4E487B71 PUSH1 0xE0 SHL PUSH0 MSTORE PUSH1 0x41 PUSH1 0x4 MSTORE PUSH1 0x24 PUSH0 REVERT JUMPDEST PUSH0 DUP1 PUSH0 DUP1 PUSH1 0x80 DUP6 DUP8 SUB SLT ISZERO PUSH2 0xB14 JUMPI PUSH0 DUP1 REVERT JUMPDEST PUSH2 0xB1D DUP6 PUSH2 0xA1F JUMP JUMPDEST SWAP4 POP PUSH2 0xB2B PUSH1 0x20 DUP7 ADD PUSH2 0xA1F JUMP JUMPDEST SWAP3 POP PUSH1 0x40 DUP6 ADD CALLDATALOAD SWAP2 POP PUSH1 0x60 DUP6 ADD CALLDATALOAD PUSH8 0xFFFFFFFFFFFFFFFF DUP1 DUP3 GT ISZERO PUSH2 0xB4E JUMPI PUSH0 DUP1 REVERT JUMPDEST DUP2 DUP8 ADD SWAP2 POP DUP8 PUSH1 0x1F DUP4 ADD SLT PUSH2 0xB61 JUMPI PUSH0 DUP1 REVERT JUMPDEST DUP2 CALLDATALOAD DUP2 DUP2 GT ISZERO PUSH2 0xB73 JUMPI PUSH2 0xB73 PUSH2 0xAED JUMP JUMPDEST PUSH1 0x40 MLOAD PUSH1 0x1F DUP3 ADD PUSH1 0x1F NOT SWAP1 DUP2 AND PUSH1 0x3F ADD AND DUP2 ADD SWAP1 DUP4 DUP3 GT DUP2 DUP4 LT OR ISZERO PUSH2 0xB9B JUMPI PUSH2 0xB9B PUSH2 0xAED JUMP JUMPDEST DUP2 PUSH1 0x40 MSTORE DUP3 DUP2 MSTORE DUP11 PUSH1 0x20 DUP5 DUP8 ADD ADD GT ISZERO PUSH2 0xBB3 JUMPI PUSH0 DUP1 REVERT JUMPDEST DUP3 PUSH1 0x20 DUP7 ADD PUSH1 0x20 DUP4 ADD CALLDATACOPY PUSH0 PUSH1 0x20 DUP5 DUP4 ADD ADD MSTORE DUP1 SWAP6 POP POP POP POP POP POP SWAP3 SWAP6 SWAP2 SWAP5 POP SWAP3 POP JUMP JUMPDEST PUSH0 DUP1 PUSH1 0x40 DUP4 DUP6 SUB SLT ISZERO PUSH2 0xBE7 JUMPI PUSH0 DUP1 REVERT JUMPDEST PUSH2 0xBF0 DUP4 PUSH2 0xA1F JUMP JUMPDEST SWAP2 POP PUSH2 0xBFE PUSH1 0x20 DUP5 ADD PUSH2 0xA1F JUMP JUMPDEST SWAP1 POP SWAP3 POP SWAP3 SWAP1 POP JUMP JUMPDEST PUSH1 0x1 DUP2 DUP2 SHR SWAP1 DUP3 AND DUP1 PUSH2 0xC1B JUMPI PUSH1 0x7F DUP3 AND SWAP2 POP JUMPDEST PUSH1 0x20 DUP3 LT DUP2 SUB PUSH2 0xC39 JUMPI PUSH4 0x4E487B71 PUSH1 0xE0 SHL PUSH0 MSTORE PUSH1 0x22 PUSH1 0x4 MSTORE PUSH1 0x24 PUSH0 REVERT JUMPDEST POP SWAP2 SWAP1 POP JUMP JUMPDEST PUSH0 DUP4 MLOAD PUSH2 0xC50 DUP2 DUP5 PUSH1 0x20 DUP9 ADD PUSH2 0x9A9 JUMP JUMPDEST DUP4 MLOAD SWAP1 DUP4 ADD SWAP1 PUSH2 0xC64 DUP2 DUP4 PUSH1 0x20 DUP9 ADD PUSH2 0x9A9 JUMP JUMPDEST ADD SWAP5 SWAP4 POP POP POP POP JUMP JUMPDEST PUSH1 0x1 PUSH1 0x1 PUSH1 0xA0 SHL SUB DUP6 DUP2 AND DUP3 MSTORE DUP5 AND PUSH1 0x20 DUP3 ADD MSTORE PUSH1 0x40 DUP2 ADD DUP4 SWAP1 MSTORE PUSH1 0x80 PUSH1 0x60 DUP3 ADD DUP2 SWAP1 MSTORE PUSH0 SWAP1 PUSH2 0xC9F SWAP1 DUP4 ADD DUP5 PUSH2 0x9CB JUMP JUMPDEST SWAP7 SWAP6 POP POP POP POP POP POP JUMP JUMPDEST PUSH0 PUSH1 0x20 DUP3 DUP5 SUB SLT ISZERO PUSH2 0xCB9 JUMPI PUSH0 DUP1 REVERT JUMPDEST DUP2 MLOAD PUSH2 0x7BF DUP2 PUSH2 0x976 JUMP INVALID LOG2 PUSH5 0x6970667358 0x22 SLT KECCAK256 CALLVALUE 0xBF LOG0 0xAD PUSH23 0xC54FC9D0CD15467F79B1C046339B5EF6210F08B9878719 EXTCODECOPY 0xCE PUSH3 0x696473 PUSH16 0x6C634300081600330000000000000000 "
				},
				"gasEstimates": {
					"creation": {
						"codeDepositCost": "664400",
						"executionCost": "infinite",
						"totalCost": "infinite"
					},
					"external": {
						"approve(address,uint256)": "infinite",
						"balanceOf(address)": "2636",
						"getApproved(uint256)": "6919",
						"isApprovedForAll(address,address)": "infinite",
						"name()": "infinite",
						"ownerOf(uint256)": "infinite",
						"safeTransferFrom(address,address,uint256)": "infinite",
						"safeTransferFrom(address,address,uint256,bytes)": "infinite",
						"setApprovalForAll(address,bool)": "26604",
						"supportsInterface(bytes4)": "531",
						"symbol()": "infinite",
						"tokenURI(uint256)": "infinite",
						"totalSupply()": "4430",
						"transferFrom(address,address,uint256)": "infinite"
					},
					"internal": {
						"_afterTokenTransfers(address,address,uint256,uint256)": "infinite",
						"_baseURI()": "infinite",
						"_beforeTokenTransfers(address,address,uint256,uint256)": "infinite",
						"_burn(uint256)": "infinite",
						"_burn(uint256,bool)": "infinite",
						"_checkContractOnERC721Received(address,address,uint256,bytes memory)": "infinite",
						"_exists(uint256)": "4335",
						"_extraData(address,address,uint24)": "infinite",
						"_getApprovedSlotAndAddress(uint256)": "infinite",
						"_getAux(address)": "infinite",
						"_initializeOwnershipAt(uint256)": "infinite",
						"_isSenderApprovedOrOwner(address,address,address)": "infinite",
						"_mint(address,uint256)": "infinite",
						"_mintERC2309(address,uint256)": "infinite",
						"_msgSenderERC721A()": "infinite",
						"_nextExtraData(address,address,uint256)": "infinite",
						"_nextInitializedFlag(uint256)": "infinite",
						"_nextTokenId()": "infinite",
						"_numberBurned(address)": "infinite",
						"_numberMinted(address)": "infinite",
						"_ownershipAt(uint256)": "infinite",
						"_ownershipOf(uint256)": "infinite",
						"_packOwnershipData(address,uint256)": "infinite",
						"_packedOwnershipOf(uint256)": "infinite",
						"_safeMint(address,uint256)": "infinite",
						"_safeMint(address,uint256,bytes memory)": "infinite",
						"_setAux(address,uint64)": "infinite",
						"_setExtraDataAt(uint256,uint24)": "infinite",
						"_startTokenId()": "infinite",
						"_toString(uint256)": "infinite",
						"_totalBurned()": "infinite",
						"_totalMinted()": "infinite",
						"_unpackedOwnership(uint256)": "infinite"
					}
				},
				"methodIdentifiers": {
					"approve(address,uint256)": "095ea7b3",
					"balanceOf(address)": "70a08231",
					"getApproved(uint256)": "081812fc",
					"isApprovedForAll(address,address)": "e985e9c5",
					"name()": "06fdde03",
					"ownerOf(uint256)": "6352211e",
					"safeTransferFrom(address,address,uint256)": "42842e0e",
					"safeTransferFrom(address,address,uint256,bytes)": "b88d4fde",
					"setApprovalForAll(address,bool)": "a22cb465",
					"supportsInterface(bytes4)": "01ffc9a7",
					"symbol()": "95d89b41",
					"tokenURI(uint256)": "c87b56dd",
					"totalSupply()": "18160ddd",
					"transferFrom(address,address,uint256)": "23b872dd"
				}
			},
			"storageLayout": {
				"storage": [
					{
						"astId": 252,
						"contract": "contracts/contracts/ERC721A.sol:ERC721A",
						"label": "_currentIndex",
						"offset": 0,
						"slot": "0",
						"type": "t_uint256"
					},
					{
						"astId": 254,
						"contract": "contracts/contracts/ERC721A.sol:ERC721A",
						"label": "_burnCounter",
						"offset": 0,
						"slot": "1",
						"type": "t_uint256"
					},
					{
						"astId": 256,
						"contract": "contracts/contracts/ERC721A.sol:ERC721A",
						"label": "_name",
						"offset": 0,
						"slot": "2",
						"type": "t_string_storage"
					},
					{
						"astId": 258,
						"contract": "contracts/contracts/ERC721A.sol:ERC721A",
						"label": "_symbol",
						"offset": 0,
						"slot": "3",
						"type": "t_string_storage"
					},
					{
						"astId": 262,
						"contract": "contracts/contracts/ERC721A.sol:ERC721A",
						"label": "_packedOwnerships",
						"offset": 0,
						"slot": "4",
						"type": "t_mapping(t_uint256,t_uint256)"
					},
					{
						"astId": 266,
						"contract": "contracts/contracts/ERC721A.sol:ERC721A",
						"label": "_packedAddressData",
						"offset": 0,
						"slot": "5",
						"type": "t_mapping(t_address,t_uint256)"
					},
					{
						"astId": 271,
						"contract": "contracts/contracts/ERC721A.sol:ERC721A",
						"label": "_tokenApprovals",
						"offset": 0,
						"slot": "6",
						"type": "t_mapping(t_uint256,t_struct(TokenApprovalRef)184_storage)"
					},
					{
						"astId": 277,
						"contract": "contracts/contracts/ERC721A.sol:ERC721A",
						"label": "_operatorApprovals",
						"offset": 0,
						"slot": "7",
						"type": "t_mapping(t_address,t_mapping(t_address,t_bool))"
					}
				],
				"types": {
					"t_address": {
						"encoding": "inplace",
						"label": "address",
						"numberOfBytes": "20"
					},
					"t_bool": {
						"encoding": "inplace",
						"label": "bool",
						"numberOfBytes": "1"
					},
					"t_mapping(t_address,t_bool)": {
						"encoding": "mapping",
						"key": "t_address",
						"label": "mapping(address => bool)",
						"numberOfBytes": "32",
						"value": "t_bool"
					},
					"t_mapping(t_address,t_mapping(t_address,t_bool))": {
						"encoding": "mapping",
						"key": "t_address",
						"label": "mapping(address => mapping(address => bool))",
						"numberOfBytes": "32",
						"value": "t_mapping(t_address,t_bool)"
					},
					"t_mapping(t_address,t_uint256)": {
						"encoding": "mapping",
						"key": "t_address",
						"label": "mapping(address => uint256)",
						"numberOfBytes": "32",
						"value": "t_uint256"
					},
					"t_mapping(t_uint256,t_struct(TokenApprovalRef)184_storage)": {
						"encoding": "mapping",
						"key": "t_uint256",
						"label": "mapping(uint256 => struct ERC721A.TokenApprovalRef)",
						"numberOfBytes": "32",
						"value": "t_struct(TokenApprovalRef)184_storage"
					},
					"t_mapping(t_uint256,t_uint256)": {
						"encoding": "mapping",
						"key": "t_uint256",
						"label": "mapping(uint256 => uint256)",
						"numberOfBytes": "32",
						"value": "t_uint256"
					},
					"t_string_storage": {
						"encoding": "bytes",
						"label": "string",
						"numberOfBytes": "32"
					},
					"t_struct(TokenApprovalRef)184_storage": {
						"encoding": "inplace",
						"label": "struct ERC721A.TokenApprovalRef",
						"members": [
							{
								"astId": 183,
								"contract": "contracts/contracts/ERC721A.sol:ERC721A",
								"label": "value",
								"offset": 0,
								"slot": "0",
								"type": "t_address"
							}
						],
						"numberOfBytes": "32"
					},
					"t_uint256": {
						"encoding": "inplace",
						"label": "uint256",
						"numberOfBytes": "32"
					}
				}
			},
			"userdoc": {
				"errors": {
					"ApprovalCallerNotOwnerNorApproved()": [
						{
							"notice": "The caller must own the token or be an approved operator."
						}
					],
					"ApprovalQueryForNonexistentToken()": [
						{
							"notice": "The token does not exist."
						}
					],
					"BalanceQueryForZeroAddress()": [
						{
							"notice": "Cannot query the balance for the zero address."
						}
					],
					"MintERC2309QuantityExceedsLimit()": [
						{
							"notice": "The `quantity` minted with ERC2309 exceeds the safety limit."
						}
					],
					"MintToZeroAddress()": [
						{
							"notice": "Cannot mint to the zero address."
						}
					],
					"MintZeroQuantity()": [
						{
							"notice": "The quantity of tokens minted must be more than zero."
						}
					],
					"OwnerQueryForNonexistentToken()": [
						{
							"notice": "The token does not exist."
						}
					],
					"OwnershipNotInitializedForExtraData()": [
						{
							"notice": "The `extraData` cannot be set on an unintialized ownership slot."
						}
					],
					"TransferCallerNotOwnerNorApproved()": [
						{
							"notice": "The caller must own the token or be an approved operator."
						}
					],
					"TransferFromIncorrectOwner()": [
						{
							"notice": "The token must be owned by `from`."
						}
					],
					"TransferToNonERC721ReceiverImplementer()": [
						{
							"notice": "Cannot safely transfer to a contract that does not implement the ERC721Receiver interface."
						}
					],
					"TransferToZeroAddress()": [
						{
							"notice": "Cannot transfer to the zero address."
						}
					],
					"URIQueryForNonexistentToken()": [
						{
							"notice": "The token does not exist."
						}
					]
				},
				"kind": "user",
				"methods": {},
				"version": 1
			}
		}
	}
}