{
	"contracts/contracts/BatchNFTs.sol": {
		"BatchNFTs": {
			"abi": [
				{
					"inputs": [],
					"stateMutability": "nonpayable",
					"type": "constructor"
				},
				{
					"inputs": [],
					"name": "ApprovalCallerNotOwnerNorApproved",
					"type": "error"
				},
				{
					"inputs": [],
					"name": "ApprovalQueryForNonexistentToken",
					"type": "error"
				},
				{
					"inputs": [],
					"name": "BalanceQueryForZeroAddress",
					"type": "error"
				},
				{
					"inputs": [],
					"name": "MintERC2309QuantityExceedsLimit",
					"type": "error"
				},
				{
					"inputs": [],
					"name": "MintToZeroAddress",
					"type": "error"
				},
				{
					"inputs": [],
					"name": "MintZeroQuantity",
					"type": "error"
				},
				{
					"inputs": [],
					"name": "OwnerQueryForNonexistentToken",
					"type": "error"
				},
				{
					"inputs": [],
					"name": "OwnershipNotInitializedForExtraData",
					"type": "error"
				},
				{
					"inputs": [],
					"name": "TransferCallerNotOwnerNorApproved",
					"type": "error"
				},
				{
					"inputs": [],
					"name": "TransferFromIncorrectOwner",
					"type": "error"
				},
				{
					"inputs": [],
					"name": "TransferToNonERC721ReceiverImplementer",
					"type": "error"
				},
				{
					"inputs": [],
					"name": "TransferToZeroAddress",
					"type": "error"
				},
				{
					"inputs": [],
					"name": "URIQueryForNonexistentToken",
					"type": "error"
				},
				{
					"anonymous": false,
					"inputs": [
						{
							"indexed": true,
							"internalType": "address",
							"name": "owner",
							"type": "address"
						},
						{
							"indexed": true,
							"internalType": "address",
							"name": "approved",
							"type": "address"
						},
						{
							"indexed": true,
							"internalType": "uint256",
							"name": "tokenId",
							"type": "uint256"
						}
					],
					"name": "Approval",
					"type": "event"
				},
				{
					"anonymous": false,
					"inputs": [
						{
							"indexed": true,
							"internalType": "address",
							"name": "owner",
							"type": "address"
						},
						{
							"indexed": true,
							"internalType": "address",
							"name": "operator",
							"type": "address"
						},
						{
							"indexed": false,
							"internalType": "bool",
							"name": "approved",
							"type": "bool"
						}
					],
					"name": "ApprovalForAll",
					"type": "event"
				},
				{
					"anonymous": false,
					"inputs": [
						{
							"indexed": true,
							"internalType": "uint256",
							"name": "fromTokenId",
							"type": "uint256"
						},
						{
							"indexed": false,
							"internalType": "uint256",
							"name": "toTokenId",
							"type": "uint256"
						},
						{
							"indexed": true,
							"internalType": "address",
							"name": "from",
							"type": "address"
						},
						{
							"indexed": true,
							"internalType": "address",
							"name": "to",
							"type": "address"
						}
					],
					"name": "ConsecutiveTransfer",
					"type": "event"
				},
				{
					"anonymous": false,
					"inputs": [
						{
							"indexed": true,
							"internalType": "address",
							"name": "previousOwner",
							"type": "address"
						},
						{
							"indexed": true,
							"internalType": "address",
							"name": "newOwner",
							"type": "address"
						}
					],
					"name": "OwnershipTransferred",
					"type": "event"
				},
				{
					"anonymous": false,
					"inputs": [
						{
							"indexed": true,
							"internalType": "address",
							"name": "from",
							"type": "address"
						},
						{
							"indexed": true,
							"internalType": "address",
							"name": "to",
							"type": "address"
						},
						{
							"indexed": true,
							"internalType": "uint256",
							"name": "tokenId",
							"type": "uint256"
						}
					],
					"name": "Transfer",
					"type": "event"
				},
				{
					"inputs": [],
					"name": "MAX_SUPPLY",
					"outputs": [
						{
							"internalType": "uint256",
							"name": "",
							"type": "uint256"
						}
					],
					"stateMutability": "view",
					"type": "function"
				},
				{
					"inputs": [],
					"name": "MAX_SUPPLY_PER_USER",
					"outputs": [
						{
							"internalType": "uint256",
							"name": "",
							"type": "uint256"
						}
					],
					"stateMutability": "view",
					"type": "function"
				},
				{
					"inputs": [],
					"name": "PRICE_PER_TOKEN",
					"outputs": [
						{
							"internalType": "uint256",
							"name": "",
							"type": "uint256"
						}
					],
					"stateMutability": "view",
					"type": "function"
				},
				{
					"inputs": [],
					"name": "START_TIME",
					"outputs": [
						{
							"internalType": "uint256",
							"name": "",
							"type": "uint256"
						}
					],
					"stateMutability": "view",
					"type": "function"
				},
				{
					"inputs": [
						{
							"internalType": "address",
							"name": "to",
							"type": "address"
						},
						{
							"internalType": "uint256",
							"name": "tokenId",
							"type": "uint256"
						}
					],
					"name": "approve",
					"outputs": [],
					"stateMutability": "payable",
					"type": "function"
				},
				{
					"inputs": [
						{
							"internalType": "address",
							"name": "owner",
							"type": "address"
						}
					],
					"name": "balanceOf",
					"outputs": [
						{
							"internalType": "uint256",
							"name": "",
							"type": "uint256"
						}
					],
					"stateMutability": "view",
					"type": "function"
				},
				{
					"inputs": [
						{
							"internalType": "uint256",
							"name": "tokenId",
							"type": "uint256"
						}
					],
					"name": "getApproved",
					"outputs": [
						{
							"internalType": "address",
							"name": "",
							"type": "address"
						}
					],
					"stateMutability": "view",
					"type": "function"
				},
				{
					"inputs": [
						{
							"internalType": "address",
							"name": "owner",
							"type": "address"
						},
						{
							"internalType": "address",
							"name": "operator",
							"type": "address"
						}
					],
					"name": "isApprovedForAll",
					"outputs": [
						{
							"internalType": "bool",
							"name": "",
							"type": "bool"
						}
					],
					"stateMutability": "view",
					"type": "function"
				},
				{
					"inputs": [
						{
							"internalType": "uint256",
							"name": "quantity",
							"type": "uint256"
						}
					],
					"name": "mint",
					"outputs": [],
					"stateMutability": "payable",
					"type": "function"
				},
				{
					"inputs": [],
					"name": "mintPaused",
					"outputs": [
						{
							"internalType": "bool",
							"name": "",
							"type": "bool"
						}
					],
					"stateMutability": "view",
					"type": "function"
				},
				{
					"inputs": [],
					"name": "name",
					"outputs": [
						{
							"internalType": "string",
							"name": "",
							"type": "string"
						}
					],
					"stateMutability": "view",
					"type": "function"
				},
				{
					"inputs": [],
					"name": "owner",
					"outputs": [
						{
							"internalType": "address",
							"name": "",
							"type": "address"
						}
					],
					"stateMutability": "view",
					"type": "function"
				},
				{
					"inputs": [
						{
							"internalType": "uint256",
							"name": "tokenId",
							"type": "uint256"
						}
					],
					"name": "ownerOf",
					"outputs": [
						{
							"internalType": "address",
							"name": "",
							"type": "address"
						}
					],
					"stateMutability": "view",
					"type": "function"
				},
				{
					"inputs": [
						{
							"internalType": "bool",
							"name": "_paused",
							"type": "bool"
						}
					],
					"name": "pauseMint",
					"outputs": [],
					"stateMutability": "nonpayable",
					"type": "function"
				},
				{
					"inputs": [],
					"name": "renounceOwnership",
					"outputs": [],
					"stateMutability": "nonpayable",
					"type": "function"
				},
				{
					"inputs": [
						{
							"internalType": "address",
							"name": "from",
							"type": "address"
						},
						{
							"internalType": "address",
							"name": "to",
							"type": "address"
						},
						{
							"internalType": "uint256",
							"name": "tokenId",
							"type": "uint256"
						}
					],
					"name": "safeTransferFrom",
					"outputs": [],
					"stateMutability": "payable",
					"type": "function"
				},
				{
					"inputs": [
						{
							"internalType": "address",
							"name": "from",
							"type": "address"
						},
						{
							"internalType": "address",
							"name": "to",
							"type": "address"
						},
						{
							"internalType": "uint256",
							"name": "tokenId",
							"type": "uint256"
						},
						{
							"internalType": "bytes",
							"name": "_data",
							"type": "bytes"
						}
					],
					"name": "safeTransferFrom",
					"outputs": [],
					"stateMutability": "payable",
					"type": "function"
				},
				{
					"inputs": [
						{
							"internalType": "address",
							"name": "operator",
							"type": "address"
						},
						{
							"internalType": "bool",
							"name": "approved",
							"type": "bool"
						}
					],
					"name": "setApprovalForAll",
					"outputs": [],
					"stateMutability": "nonpayable",
					"type": "function"
				},
				{
					"inputs": [
						{
							"internalType": "string",
							"name": "baseURI",
							"type": "string"
						}
					],
					"name": "setBaseURI",
					"outputs": [],
					"stateMutability": "nonpayable",
					"type": "function"
				},
				{
					"inputs": [
						{
							"internalType": "bytes4",
							"name": "interfaceId",
							"type": "bytes4"
						}
					],
					"name": "supportsInterface",
					"outputs": [
						{
							"internalType": "bool",
							"name": "",
							"type": "bool"
						}
					],
					"stateMutability": "view",
					"type": "function"
				},
				{
					"inputs": [],
					"name": "symbol",
					"outputs": [
						{
							"internalType": "string",
							"name": "",
							"type": "string"
						}
					],
					"stateMutability": "view",
					"type": "function"
				},
				{
					"inputs": [
						{
							"internalType": "uint256",
							"name": "tokenId",
							"type": "uint256"
						}
					],
					"name": "tokenURI",
					"outputs": [
						{
							"internalType": "string",
							"name": "",
							"type": "string"
						}
					],
					"stateMutability": "view",
					"type": "function"
				},
				{
					"inputs": [],
					"name": "totalSupply",
					"outputs": [
						{
							"internalType": "uint256",
							"name": "",
							"type": "uint256"
						}
					],
					"stateMutability": "view",
					"type": "function"
				},
				{
					"inputs": [
						{
							"internalType": "address",
							"name": "from",
							"type": "address"
						},
						{
							"internalType": "address",
							"name": "to",
							"type": "address"
						},
						{
							"internalType": "uint256",
							"name": "tokenId",
							"type": "uint256"
						}
					],
					"name": "transferFrom",
					"outputs": [],
					"stateMutability": "payable",
					"type": "function"
				},
				{
					"inputs": [
						{
							"internalType": "address",
							"name": "newOwner",
							"type": "address"
						}
					],
					"name": "transferOwnership",
					"outputs": [],
					"stateMutability": "nonpayable",
					"type": "function"
				},
				{
					"inputs": [],
					"name": "withdraw",
					"outputs": [],
					"stateMutability": "nonpayable",
					"type": "function"
				}
			],
			"devdoc": {
				"events": {
					"Approval(address,address,uint256)": {
						"details": "Emitted when `owner` enables `approved` to manage the `tokenId` token."
					},
					"ApprovalForAll(address,address,bool)": {
						"details": "Emitted when `owner` enables or disables (`approved`) `operator` to manage all of its assets."
					},
					"ConsecutiveTransfer(uint256,uint256,address,address)": {
						"details": "Emitted when tokens in `fromTokenId` to `toTokenId` (inclusive) is transferred from `from` to `to`, as defined in the [ERC2309](https://eips.ethereum.org/EIPS/eip-2309) standard. See {_mintERC2309} for more details."
					},
					"Transfer(address,address,uint256)": {
						"details": "Emitted when `tokenId` token is transferred from `from` to `to`."
					}
				},
				"kind": "dev",
				"methods": {
					"approve(address,uint256)": {
						"details": "Gives permission to `to` to transfer `tokenId` token to another account. The approval is cleared when the token is transferred. Only a single account can be approved at a time, so approving the zero address clears previous approvals. Requirements: - The caller must own the token or be an approved operator. - `tokenId` must exist. Emits an {Approval} event."
					},
					"balanceOf(address)": {
						"details": "Returns the number of tokens in `owner`'s account."
					},
					"getApproved(uint256)": {
						"details": "Returns the account approved for `tokenId` token. Requirements: - `tokenId` must exist."
					},
					"isApprovedForAll(address,address)": {
						"details": "Returns if the `operator` is allowed to manage all of the assets of `owner`. See {setApprovalForAll}."
					},
					"name()": {
						"details": "Returns the token collection name."
					},
					"owner()": {
						"details": "Returns the address of the current owner."
					},
					"ownerOf(uint256)": {
						"details": "Returns the owner of the `tokenId` token. Requirements: - `tokenId` must exist."
					},
					"renounceOwnership()": {
						"details": "Leaves the contract without owner. It will not be possible to call `onlyOwner` functions anymore. Can only be called by the current owner. NOTE: Renouncing ownership will leave the contract without an owner, thereby removing any functionality that is only available to the owner."
					},
					"safeTransferFrom(address,address,uint256)": {
						"details": "Equivalent to `safeTransferFrom(from, to, tokenId, '')`."
					},
					"safeTransferFrom(address,address,uint256,bytes)": {
						"details": "Safely transfers `tokenId` token from `from` to `to`. Requirements: - `from` cannot be the zero address. - `to` cannot be the zero address. - `tokenId` token must exist and be owned by `from`. - If the caller is not `from`, it must be approved to move this token by either {approve} or {setApprovalForAll}. - If `to` refers to a smart contract, it must implement {IERC721Receiver-onERC721Received}, which is called upon a safe transfer. Emits a {Transfer} event."
					},
					"setApprovalForAll(address,bool)": {
						"details": "Approve or remove `operator` as an operator for the caller. Operators can call {transferFrom} or {safeTransferFrom} for any token owned by the caller. Requirements: - The `operator` cannot be the caller. Emits an {ApprovalForAll} event."
					},
					"supportsInterface(bytes4)": {
						"details": "Returns true if this contract implements the interface defined by `interfaceId`. See the corresponding [EIP section](https://eips.ethereum.org/EIPS/eip-165#how-interfaces-are-identified) to learn more about how these ids are created. This function call must use less than 30000 gas."
					},
					"symbol()": {
						"details": "Returns the token collection symbol."
					},
					"tokenURI(uint256)": {
						"details": "Returns the Uniform Resource Identifier (URI) for `tokenId` token."
					},
					"totalSupply()": {
						"details": "Returns the total number of tokens in existence. Burned tokens will reduce the count. To get the total number of tokens minted, please see {_totalMinted}."
					},
					"transferFrom(address,address,uint256)": {
						"details": "Transfers `tokenId` from `from` to `to`. Requirements: - `from` cannot be the zero address. - `to` cannot be the zero address. - `tokenId` token must be owned by `from`. - If the caller is not `from`, it must be approved to move this token by either {approve} or {setApprovalForAll}. Emits a {Transfer} event."
					},
					"transferOwnership(address)": {
						"details": "Transfers ownership of the contract to a new account (`newOwner`). Can only be called by the current owner."
					}
				},
				"version": 1
			},
			"evm": {
				"assembly": "    /* \"contracts/contracts/BatchNFTs.sol\":113:1829  contract BatchNFTs is Ownable, ERC721A {... */\n  mstore(0x40, 0xa0)\n    /* \"contracts/contracts/BatchNFTs.sol\":427:552  constructor() ERC721A(\"ERC721A Token\", \"721AT\") {... */\n  callvalue\n  dup1\n  iszero\n  tag_1\n  jumpi\n  0x00\n  dup1\n  revert\ntag_1:\n  pop\n    /* \"contracts/contracts/ERC721A.sol\":5096:5254  constructor(string memory name_, string memory symbol_) {... */\n  mload(0x40)\n  dup1\n  0x40\n  add\n  0x40\n  mstore\n  dup1\n  0x0d\n  dup2\n  mstore\n  0x20\n  add\n  shl(0x99, 0x22a9219b9918a0902a37b5b2b7)\n  dup2\n  mstore\n  pop\n  mload(0x40)\n  dup1\n  0x40\n  add\n  0x40\n  mstore\n  dup1\n  0x05\n  dup2\n  mstore\n  0x20\n  add\n  shl(0xda, 0x0dcc8c5055)\n  dup2\n  mstore\n  pop\n    /* \"contracts/contracts/Ownable.sol\":963:995  _transferOwnership(_msgSender()) */\n  tag_6\n    /* \"contracts/contracts/Ownable.sol\":982:994  _msgSender() */\n  tag_7\n    /* \"contracts/contracts/Ownable.sol\":982:992  _msgSender */\n  shl(0x20, tag_8)\n    /* \"contracts/contracts/Ownable.sol\":982:994  _msgSender() */\n  0x20\n  shr\n  jump\t// in\ntag_7:\n    /* \"contracts/contracts/Ownable.sol\":963:981  _transferOwnership */\n  tag_9\n    /* \"contracts/contracts/Ownable.sol\":963:995  _transferOwnership(_msgSender()) */\n  jump\t// in\ntag_6:\n    /* \"contracts/contracts/ERC721A.sol\":5163:5168  _name */\n  0x03\n    /* \"contracts/contracts/ERC721A.sol\":5163:5176  _name = name_ */\n  tag_11\n    /* \"contracts/contracts/ERC721A.sol\":5171:5176  name_ */\n  dup4\n    /* \"contracts/contracts/ERC721A.sol\":5163:5168  _name */\n  dup3\n    /* \"contracts/contracts/ERC721A.sol\":5163:5176  _name = name_ */\n  tag_12\n  jump\t// in\ntag_11:\n  pop\n    /* \"contracts/contracts/ERC721A.sol\":5187:5194  _symbol */\n  0x04\n    /* \"contracts/contracts/ERC721A.sol\":5187:5204  _symbol = symbol_ */\n  tag_13\n    /* \"contracts/contracts/ERC721A.sol\":5197:5204  symbol_ */\n  dup3\n    /* \"contracts/contracts/ERC721A.sol\":5187:5194  _symbol */\n  dup3\n    /* \"contracts/contracts/ERC721A.sol\":5187:5204  _symbol = symbol_ */\n  tag_12\n  jump\t// in\ntag_13:\n  pop\n    /* \"contracts/contracts/ERC721A.sol\":5646:5653  uint256 */\n  0x00\n    /* \"contracts/contracts/ERC721A.sol\":5215:5228  _currentIndex */\n  0x01\n    /* \"contracts/contracts/ERC721A.sol\":5215:5246  _currentIndex = _startTokenId() */\n  sstore\n  pop\n  pop\n    /* \"contracts/contracts/BatchNFTs.sol\":499:514  block.timestamp */\n  timestamp\n    /* \"contracts/contracts/BatchNFTs.sol\":486:514  START_TIME = block.timestamp */\n  0x80\n  mstore\n    /* \"contracts/contracts/BatchNFTs.sol\":525:535  mintPaused */\n  0x09\n    /* \"contracts/contracts/BatchNFTs.sol\":525:544  mintPaused =  false */\n  dup1\n  sload\n  not(0xff)\n  and\n  swap1\n  sstore\n    /* \"contracts/contracts/BatchNFTs.sol\":113:1829  contract BatchNFTs is Ownable, ERC721A {... */\n  jump(tag_26)\n    /* \"contracts/contracts/utils/Context.sol\":656:754  function _msgSender() internal view virtual returns (address) {... */\ntag_8:\n    /* \"contracts/contracts/utils/Context.sol\":736:746  msg.sender */\n  caller\n  swap1\n    /* \"contracts/contracts/utils/Context.sol\":656:754  function _msgSender() internal view virtual returns (address) {... */\n  jump\t// out\n    /* \"contracts/contracts/Ownable.sol\":2509:2700  function _transferOwnership(address newOwner) internal virtual {... */\ntag_9:\n    /* \"contracts/contracts/Ownable.sol\":2583:2599  address oldOwner */\n  0x00\n    /* \"contracts/contracts/Ownable.sol\":2602:2608  _owner */\n  dup1\n  sload\n  sub(shl(0xa0, 0x01), 0x01)\n    /* \"contracts/contracts/Ownable.sol\":2619:2636  _owner = newOwner */\n  dup4\n  dup2\n  and\n  not(sub(shl(0xa0, 0x01), 0x01))\n  dup4\n  and\n  dup2\n  or\n  dup5\n  sstore\n    /* \"contracts/contracts/Ownable.sol\":2652:2692  OwnershipTransferred(oldOwner, newOwner) */\n  mload(0x40)\n    /* \"contracts/contracts/Ownable.sol\":2602:2608  _owner */\n  swap2\n  swap1\n  swap3\n  and\n  swap3\n  dup4\n  swap2\n    /* \"contracts/contracts/Ownable.sol\":2652:2692  OwnershipTransferred(oldOwner, newOwner) */\n  0x8be0079c531659141344cd1fd0a4f28419497f9722a3daafe3b4186f6b6457e0\n  swap2\n    /* \"contracts/contracts/Ownable.sol\":2583:2599  address oldOwner */\n  swap1\n    /* \"contracts/contracts/Ownable.sol\":2652:2692  OwnershipTransferred(oldOwner, newOwner) */\n  log3\n    /* \"contracts/contracts/Ownable.sol\":2572:2700  {... */\n  pop\n    /* \"contracts/contracts/Ownable.sol\":2509:2700  function _transferOwnership(address newOwner) internal virtual {... */\n  pop\n  jump\t// out\n    /* \"#utility.yul\":14:141   */\ntag_21:\n    /* \"#utility.yul\":75:85   */\n  0x4e487b71\n    /* \"#utility.yul\":70:73   */\n  0xe0\n    /* \"#utility.yul\":66:86   */\n  shl\n    /* \"#utility.yul\":63:64   */\n  0x00\n    /* \"#utility.yul\":56:87   */\n  mstore\n    /* \"#utility.yul\":106:110   */\n  0x41\n    /* \"#utility.yul\":103:104   */\n  0x04\n    /* \"#utility.yul\":96:111   */\n  mstore\n    /* \"#utility.yul\":130:134   */\n  0x24\n    /* \"#utility.yul\":127:128   */\n  0x00\n    /* \"#utility.yul\":120:135   */\n  revert\n    /* \"#utility.yul\":146:526   */\ntag_22:\n    /* \"#utility.yul\":225:226   */\n  0x01\n    /* \"#utility.yul\":221:233   */\n  dup2\n  dup2\n  shr\n  swap1\n    /* \"#utility.yul\":268:280   */\n  dup3\n  and\n  dup1\n    /* \"#utility.yul\":289:350   */\n  tag_29\n  jumpi\n    /* \"#utility.yul\":343:347   */\n  0x7f\n    /* \"#utility.yul\":335:341   */\n  dup3\n    /* \"#utility.yul\":331:348   */\n  and\n    /* \"#utility.yul\":321:348   */\n  swap2\n  pop\n    /* \"#utility.yul\":289:350   */\ntag_29:\n    /* \"#utility.yul\":396:398   */\n  0x20\n    /* \"#utility.yul\":388:394   */\n  dup3\n    /* \"#utility.yul\":385:399   */\n  lt\n    /* \"#utility.yul\":365:383   */\n  dup2\n    /* \"#utility.yul\":362:400   */\n  sub\n    /* \"#utility.yul\":359:520   */\n  tag_30\n  jumpi\n    /* \"#utility.yul\":442:452   */\n  0x4e487b71\n    /* \"#utility.yul\":437:440   */\n  0xe0\n    /* \"#utility.yul\":433:453   */\n  shl\n    /* \"#utility.yul\":430:431   */\n  0x00\n    /* \"#utility.yul\":423:454   */\n  mstore\n    /* \"#utility.yul\":477:481   */\n  0x22\n    /* \"#utility.yul\":474:475   */\n  0x04\n    /* \"#utility.yul\":467:482   */\n  mstore\n    /* \"#utility.yul\":505:509   */\n  0x24\n    /* \"#utility.yul\":502:503   */\n  0x00\n    /* \"#utility.yul\":495:510   */\n  revert\n    /* \"#utility.yul\":359:520   */\ntag_30:\n  pop\n    /* \"#utility.yul\":146:526   */\n  swap2\n  swap1\n  pop\n  jump\t// out\n    /* \"#utility.yul\":657:1175   */\ntag_24:\n    /* \"#utility.yul\":759:761   */\n  0x1f\n    /* \"#utility.yul\":754:757   */\n  dup3\n    /* \"#utility.yul\":751:762   */\n  gt\n    /* \"#utility.yul\":748:1169   */\n  iszero\n  tag_33\n  jumpi\n    /* \"#utility.yul\":795:800   */\n  dup1\n    /* \"#utility.yul\":792:793   */\n  0x00\n    /* \"#utility.yul\":785:801   */\n  mstore\n    /* \"#utility.yul\":839:843   */\n  0x20\n    /* \"#utility.yul\":836:837   */\n  0x00\n    /* \"#utility.yul\":826:844   */\n  keccak256\n    /* \"#utility.yul\":909:911   */\n  0x1f\n    /* \"#utility.yul\":897:907   */\n  dup5\n    /* \"#utility.yul\":893:912   */\n  add\n    /* \"#utility.yul\":890:891   */\n  0x05\n    /* \"#utility.yul\":886:913   */\n  shr\n    /* \"#utility.yul\":880:884   */\n  dup2\n    /* \"#utility.yul\":876:914   */\n  add\n    /* \"#utility.yul\":945:949   */\n  0x20\n    /* \"#utility.yul\":933:943   */\n  dup6\n    /* \"#utility.yul\":930:950   */\n  lt\n    /* \"#utility.yul\":927:974   */\n  iszero\n  tag_34\n  jumpi\n  pop\n    /* \"#utility.yul\":968:972   */\n  dup1\n    /* \"#utility.yul\":927:974   */\ntag_34:\n    /* \"#utility.yul\":1023:1025   */\n  0x1f\n    /* \"#utility.yul\":1018:1021   */\n  dup5\n    /* \"#utility.yul\":1014:1026   */\n  add\n    /* \"#utility.yul\":1011:1012   */\n  0x05\n    /* \"#utility.yul\":1007:1027   */\n  shr\n    /* \"#utility.yul\":1001:1005   */\n  dup3\n    /* \"#utility.yul\":997:1028   */\n  add\n    /* \"#utility.yul\":987:1028   */\n  swap2\n  pop\n    /* \"#utility.yul\":1078:1159   */\ntag_35:\n    /* \"#utility.yul\":1096:1098   */\n  dup2\n    /* \"#utility.yul\":1089:1094   */\n  dup2\n    /* \"#utility.yul\":1086:1099   */\n  lt\n    /* \"#utility.yul\":1078:1159   */\n  iszero\n  tag_37\n  jumpi\n    /* \"#utility.yul\":1155:1156   */\n  0x00\n    /* \"#utility.yul\":1141:1157   */\n  dup2\n  sstore\n    /* \"#utility.yul\":1122:1123   */\n  0x01\n    /* \"#utility.yul\":1111:1124   */\n  add\n    /* \"#utility.yul\":1078:1159   */\n  jump(tag_35)\ntag_37:\n    /* \"#utility.yul\":1082:1085   */\n  pop\n  pop\n    /* \"#utility.yul\":748:1169   */\ntag_33:\n    /* \"#utility.yul\":657:1175   */\n  pop\n  pop\n  pop\n  jump\t// out\n    /* \"#utility.yul\":1351:2696   */\ntag_12:\n    /* \"#utility.yul\":1471:1481   */\n  dup2\n  mload\n  sub(shl(0x40, 0x01), 0x01)\n    /* \"#utility.yul\":1493:1523   */\n  dup2\n  gt\n    /* \"#utility.yul\":1490:1546   */\n  iszero\n  tag_41\n  jumpi\n    /* \"#utility.yul\":1526:1544   */\n  tag_41\n  tag_21\n  jump\t// in\ntag_41:\n    /* \"#utility.yul\":1555:1652   */\n  tag_42\n    /* \"#utility.yul\":1645:1651   */\n  dup2\n    /* \"#utility.yul\":1605:1643   */\n  tag_43\n    /* \"#utility.yul\":1637:1641   */\n  dup5\n    /* \"#utility.yul\":1631:1642   */\n  sload\n    /* \"#utility.yul\":1605:1643   */\n  tag_22\n  jump\t// in\ntag_43:\n    /* \"#utility.yul\":1599:1603   */\n  dup5\n    /* \"#utility.yul\":1555:1652   */\n  tag_24\n  jump\t// in\ntag_42:\n    /* \"#utility.yul\":1707:1711   */\n  0x20\n  dup1\n    /* \"#utility.yul\":1764:1766   */\n  0x1f\n    /* \"#utility.yul\":1753:1767   */\n  dup4\n  gt\n    /* \"#utility.yul\":1781:1782   */\n  0x01\n    /* \"#utility.yul\":1776:2439   */\n  dup2\n  eq\n  tag_45\n  jumpi\n    /* \"#utility.yul\":2483:2484   */\n  0x00\n    /* \"#utility.yul\":2500:2506   */\n  dup5\n    /* \"#utility.yul\":2497:2586   */\n  iszero\n  tag_46\n  jumpi\n  pop\n    /* \"#utility.yul\":2552:2571   */\n  dup6\n  dup4\n  add\n    /* \"#utility.yul\":2546:2572   */\n  mload\n    /* \"#utility.yul\":2497:2586   */\ntag_46:\n  not(0x00)\n    /* \"#utility.yul\":1308:1309   */\n  0x03\n    /* \"#utility.yul\":1304:1315   */\n  dup7\n  swap1\n  shl\n    /* \"#utility.yul\":1300:1324   */\n  shr\n    /* \"#utility.yul\":1296:1325   */\n  not\n    /* \"#utility.yul\":1286:1326   */\n  and\n    /* \"#utility.yul\":1332:1333   */\n  0x01\n    /* \"#utility.yul\":1328:1339   */\n  dup6\n  swap1\n  shl\n    /* \"#utility.yul\":1283:1340   */\n  or\n    /* \"#utility.yul\":2599:2680   */\n  dup6\n  sstore\n    /* \"#utility.yul\":1746:2690   */\n  jump(tag_44)\n    /* \"#utility.yul\":1776:2439   */\ntag_45:\n    /* \"#utility.yul\":604:605   */\n  0x00\n    /* \"#utility.yul\":597:611   */\n  dup6\n  dup2\n  mstore\n    /* \"#utility.yul\":641:645   */\n  0x20\n    /* \"#utility.yul\":628:646   */\n  dup2\n  keccak256\n  not(0x1f)\n    /* \"#utility.yul\":1812:1832   */\n  dup7\n  and\n  swap2\n    /* \"#utility.yul\":1930:2166   */\ntag_49:\n    /* \"#utility.yul\":1944:1951   */\n  dup3\n    /* \"#utility.yul\":1941:1942   */\n  dup2\n    /* \"#utility.yul\":1938:1952   */\n  lt\n    /* \"#utility.yul\":1930:2166   */\n  iszero\n  tag_51\n  jumpi\n    /* \"#utility.yul\":2033:2052   */\n  dup9\n  dup7\n  add\n    /* \"#utility.yul\":2027:2053   */\n  mload\n    /* \"#utility.yul\":2012:2054   */\n  dup3\n  sstore\n    /* \"#utility.yul\":2125:2152   */\n  swap5\n  dup5\n  add\n  swap5\n    /* \"#utility.yul\":2093:2094   */\n  0x01\n    /* \"#utility.yul\":2081:2095   */\n  swap1\n  swap2\n  add\n  swap1\n    /* \"#utility.yul\":1960:1979   */\n  dup5\n  add\n    /* \"#utility.yul\":1930:2166   */\n  jump(tag_49)\ntag_51:\n    /* \"#utility.yul\":1934:1937   */\n  pop\n    /* \"#utility.yul\":2194:2200   */\n  dup6\n    /* \"#utility.yul\":2185:2192   */\n  dup3\n    /* \"#utility.yul\":2182:2201   */\n  lt\n    /* \"#utility.yul\":2179:2380   */\n  iszero\n  tag_52\n  jumpi\n    /* \"#utility.yul\":2255:2274   */\n  dup8\n  dup6\n  add\n    /* \"#utility.yul\":2249:2275   */\n  mload\n  not(0x00)\n    /* \"#utility.yul\":2338:2339   */\n  0x03\n    /* \"#utility.yul\":2334:2348   */\n  dup9\n  swap1\n  shl\n    /* \"#utility.yul\":2350:2353   */\n  0xf8\n    /* \"#utility.yul\":2330:2354   */\n  and\n    /* \"#utility.yul\":2326:2363   */\n  shr\n    /* \"#utility.yul\":2322:2364   */\n  not\n    /* \"#utility.yul\":2307:2365   */\n  and\n    /* \"#utility.yul\":2292:2366   */\n  dup2\n  sstore\n    /* \"#utility.yul\":2179:2380   */\ntag_52:\n  pop\n  pop\n    /* \"#utility.yul\":2426:2427   */\n  0x01\n    /* \"#utility.yul\":2417:2423   */\n  dup5\n    /* \"#utility.yul\":2414:2415   */\n  0x01\n    /* \"#utility.yul\":2410:2424   */\n  shl\n    /* \"#utility.yul\":2406:2428   */\n  add\n    /* \"#utility.yul\":2400:2404   */\n  dup6\n    /* \"#utility.yul\":2393:2429   */\n  sstore\n    /* \"#utility.yul\":1746:2690   */\ntag_44:\n  pop\n  pop\n  pop\n  pop\n    /* \"#utility.yul\":1351:2696   */\n  pop\n  pop\n  jump\t// out\ntag_26:\n    /* \"contracts/contracts/BatchNFTs.sol\":113:1829  contract BatchNFTs is Ownable, ERC721A {... */\n  mload(0x80)\n  codecopy(0x00, dataOffset(sub_0), dataSize(sub_0))\n  0x00\n  assignImmutable(\"0x8fef2229291b68be841adf029e58b87f39ba144b2d3b0af1760243d0a9bc6a1c\")\n  return(0x00, dataSize(sub_0))\nstop\n\nsub_0: assembly {\n        /* \"contracts/contracts/BatchNFTs.sol\":113:1829  contract BatchNFTs is Ownable, ERC721A {... */\n      mstore(0x40, 0x80)\n      jumpi(tag_1, lt(calldatasize, 0x04))\n      shr(0xe0, calldataload(0x00))\n      dup1\n      0x715018a6\n      gt\n      tag_28\n      jumpi\n      dup1\n      0xa22cb465\n      gt\n      tag_29\n      jumpi\n      dup1\n      0xddaa26ad\n      gt\n      tag_30\n      jumpi\n      dup1\n      0xddaa26ad\n      eq\n      tag_24\n      jumpi\n      dup1\n      0xe985e9c5\n      eq\n      tag_25\n      jumpi\n      dup1\n      0xf2fde38b\n      eq\n      tag_26\n      jumpi\n      dup1\n      0xf30e6e77\n      eq\n      tag_27\n      jumpi\n      0x00\n      dup1\n      revert\n    tag_30:\n      dup1\n      0xa22cb465\n      eq\n      tag_21\n      jumpi\n      dup1\n      0xb88d4fde\n      eq\n      tag_22\n      jumpi\n      dup1\n      0xc87b56dd\n      eq\n      tag_23\n      jumpi\n      0x00\n      dup1\n      revert\n    tag_29:\n      dup1\n      0x715018a6\n      eq\n      tag_15\n      jumpi\n      dup1\n      0x7e4831d3\n      eq\n      tag_16\n      jumpi\n      dup1\n      0x833b9499\n      eq\n      tag_17\n      jumpi\n      dup1\n      0x8da5cb5b\n      eq\n      tag_18\n      jumpi\n      dup1\n      0x95d89b41\n      eq\n      tag_19\n      jumpi\n      dup1\n      0xa0712d68\n      eq\n      tag_20\n      jumpi\n      0x00\n      dup1\n      revert\n    tag_28:\n      dup1\n      0x32cb6b0c\n      gt\n      tag_31\n      jumpi\n      dup1\n      0x55f804b3\n      gt\n      tag_32\n      jumpi\n      dup1\n      0x55f804b3\n      eq\n      tag_11\n      jumpi\n      dup1\n      0x60f1f878\n      eq\n      tag_12\n      jumpi\n      dup1\n      0x6352211e\n      eq\n      tag_13\n      jumpi\n      dup1\n      0x70a08231\n      eq\n      tag_14\n      jumpi\n      0x00\n      dup1\n      revert\n    tag_32:\n      dup1\n      0x32cb6b0c\n      eq\n      tag_8\n      jumpi\n      dup1\n      0x3ccfd60b\n      eq\n      tag_9\n      jumpi\n      dup1\n      0x42842e0e\n      eq\n      tag_10\n      jumpi\n      0x00\n      dup1\n      revert\n    tag_31:\n      dup1\n      0x01ffc9a7\n      eq\n      tag_2\n      jumpi\n      dup1\n      0x06fdde03\n      eq\n      tag_3\n      jumpi\n      dup1\n      0x081812fc\n      eq\n      tag_4\n      jumpi\n      dup1\n      0x095ea7b3\n      eq\n      tag_5\n      jumpi\n      dup1\n      0x18160ddd\n      eq\n      tag_6\n      jumpi\n      dup1\n      0x23b872dd\n      eq\n      tag_7\n      jumpi\n    tag_1:\n      0x00\n      dup1\n      revert\n        /* \"contracts/contracts/ERC721A.sol\":9421:10060  function supportsInterface(bytes4 interfaceId) public view virtual override returns (bool) {... */\n    tag_2:\n      callvalue\n      dup1\n      iszero\n      tag_33\n      jumpi\n      0x00\n      dup1\n      revert\n    tag_33:\n      pop\n      tag_34\n      tag_35\n      calldatasize\n      0x04\n      tag_36\n      jump\t// in\n    tag_35:\n      tag_37\n      jump\t// in\n    tag_34:\n      mload(0x40)\n        /* \"#utility.yul\":565:579   */\n      swap1\n      iszero\n        /* \"#utility.yul\":558:580   */\n      iszero\n        /* \"#utility.yul\":540:581   */\n      dup2\n      mstore\n        /* \"#utility.yul\":528:530   */\n      0x20\n        /* \"#utility.yul\":513:531   */\n      add\n        /* \"contracts/contracts/ERC721A.sol\":9421:10060  function supportsInterface(bytes4 interfaceId) public view virtual override returns (bool) {... */\n    tag_38:\n      mload(0x40)\n      dup1\n      swap2\n      sub\n      swap1\n      return\n        /* \"contracts/contracts/ERC721A.sol\":10323:10423  function name() public view virtual override returns (string memory) {... */\n    tag_3:\n      callvalue\n      dup1\n      iszero\n      tag_40\n      jumpi\n      0x00\n      dup1\n      revert\n    tag_40:\n      pop\n      tag_41\n      tag_42\n      jump\t// in\n    tag_41:\n      mload(0x40)\n      tag_38\n      swap2\n      swap1\n      tag_44\n      jump\t// in\n        /* \"contracts/contracts/ERC721A.sol\":16814:17032  function getApproved(uint256 tokenId) public view virtual override returns (address) {... */\n    tag_4:\n      callvalue\n      dup1\n      iszero\n      tag_45\n      jumpi\n      0x00\n      dup1\n      revert\n    tag_45:\n      pop\n      tag_46\n      tag_47\n      calldatasize\n      0x04\n      tag_48\n      jump\t// in\n    tag_47:\n      tag_49\n      jump\t// in\n    tag_46:\n      mload(0x40)\n      sub(shl(0xa0, 0x01), 0x01)\n        /* \"#utility.yul\":1697:1729   */\n      swap1\n      swap2\n      and\n        /* \"#utility.yul\":1679:1730   */\n      dup2\n      mstore\n        /* \"#utility.yul\":1667:1669   */\n      0x20\n        /* \"#utility.yul\":1652:1670   */\n      add\n        /* \"contracts/contracts/ERC721A.sol\":16814:17032  function getApproved(uint256 tokenId) public view virtual override returns (address) {... */\n      tag_38\n        /* \"#utility.yul\":1533:1736   */\n      jump\n        /* \"contracts/contracts/ERC721A.sol\":16247:16655  function approve(address to, uint256 tokenId) public payable virtual override {... */\n    tag_5:\n      tag_52\n      tag_53\n      calldatasize\n      0x04\n      tag_54\n      jump\t// in\n    tag_53:\n      tag_55\n      jump\t// in\n    tag_52:\n      stop\n        /* \"contracts/contracts/ERC721A.sol\":6074:6397  function totalSupply() public view virtual override returns (uint256) {... */\n    tag_6:\n      callvalue\n      dup1\n      iszero\n      tag_56\n      jumpi\n      0x00\n      dup1\n      revert\n    tag_56:\n      pop\n        /* \"contracts/contracts/ERC721A.sol\":6348:6360  _burnCounter */\n      sload(0x02)\n        /* \"contracts/contracts/ERC721A.sol\":6332:6345  _currentIndex */\n      sload(0x01)\n        /* \"contracts/contracts/ERC721A.sol\":6332:6360  _currentIndex - _burnCounter */\n      sub\n        /* \"contracts/contracts/ERC721A.sol\":6074:6397  function totalSupply() public view virtual override returns (uint256) {... */\n    tag_57:\n      mload(0x40)\n        /* \"#utility.yul\":2324:2349   */\n      swap1\n      dup2\n      mstore\n        /* \"#utility.yul\":2312:2314   */\n      0x20\n        /* \"#utility.yul\":2297:2315   */\n      add\n        /* \"contracts/contracts/ERC721A.sol\":6074:6397  function totalSupply() public view virtual override returns (uint256) {... */\n      tag_38\n        /* \"#utility.yul\":2178:2355   */\n      jump\n        /* \"contracts/contracts/ERC721A.sol\":20453:23278  function transferFrom(... */\n    tag_7:\n      tag_52\n      tag_62\n      calldatasize\n      0x04\n      tag_63\n      jump\t// in\n    tag_62:\n      tag_64\n      jump\t// in\n        /* \"contracts/contracts/BatchNFTs.sol\":161:201  uint256 public constant MAX_SUPPLY = 100 */\n    tag_8:\n      callvalue\n      dup1\n      iszero\n      tag_65\n      jumpi\n      0x00\n      dup1\n      revert\n    tag_65:\n      pop\n      tag_57\n        /* \"contracts/contracts/BatchNFTs.sol\":198:201  100 */\n      0x64\n        /* \"contracts/contracts/BatchNFTs.sol\":161:201  uint256 public constant MAX_SUPPLY = 100 */\n      dup2\n      jump\n        /* \"contracts/contracts/BatchNFTs.sol\":1051:1391  function withdraw() external onlyOwner {... */\n    tag_9:\n      callvalue\n      dup1\n      iszero\n      tag_69\n      jumpi\n      0x00\n      dup1\n      revert\n    tag_69:\n      pop\n      tag_52\n      tag_71\n      jump\t// in\n        /* \"contracts/contracts/ERC721A.sol\":23374:23567  function safeTransferFrom(... */\n    tag_10:\n      tag_52\n      tag_73\n      calldatasize\n      0x04\n      tag_63\n      jump\t// in\n    tag_73:\n      tag_74\n      jump\t// in\n        /* \"contracts/contracts/BatchNFTs.sol\":1399:1505  function setBaseURI(string calldata baseURI) external onlyOwner {... */\n    tag_11:\n      callvalue\n      dup1\n      iszero\n      tag_75\n      jumpi\n      0x00\n      dup1\n      revert\n    tag_75:\n      pop\n      tag_52\n      tag_77\n      calldatasize\n      0x04\n      tag_78\n      jump\t// in\n    tag_77:\n      tag_79\n      jump\t// in\n        /* \"contracts/contracts/BatchNFTs.sol\":208:255  uint256 public constant MAX_SUPPLY_PER_USER = 5 */\n    tag_12:\n      callvalue\n      dup1\n      iszero\n      tag_80\n      jumpi\n      0x00\n      dup1\n      revert\n    tag_80:\n      pop\n      tag_57\n        /* \"contracts/contracts/BatchNFTs.sol\":254:255  5 */\n      0x05\n        /* \"contracts/contracts/BatchNFTs.sol\":208:255  uint256 public constant MAX_SUPPLY_PER_USER = 5 */\n      dup2\n      jump\n        /* \"contracts/contracts/ERC721A.sol\":11716:11868  function ownerOf(uint256 tokenId) public view virtual override returns (address) {... */\n    tag_13:\n      callvalue\n      dup1\n      iszero\n      tag_84\n      jumpi\n      0x00\n      dup1\n      revert\n    tag_84:\n      pop\n      tag_46\n      tag_86\n      calldatasize\n      0x04\n      tag_48\n      jump\t// in\n    tag_86:\n      tag_87\n      jump\t// in\n        /* \"contracts/contracts/ERC721A.sol\":7258:7491  function balanceOf(address owner) public view virtual override returns (uint256) {... */\n    tag_14:\n      callvalue\n      dup1\n      iszero\n      tag_89\n      jumpi\n      0x00\n      dup1\n      revert\n    tag_89:\n      pop\n      tag_57\n      tag_91\n      calldatasize\n      0x04\n      tag_92\n      jump\t// in\n    tag_91:\n      tag_93\n      jump\t// in\n        /* \"contracts/contracts/Ownable.sol\":1890:1993  function renounceOwnership() public virtual onlyOwner {... */\n    tag_15:\n      callvalue\n      dup1\n      iszero\n      tag_95\n      jumpi\n      0x00\n      dup1\n      revert\n    tag_95:\n      pop\n      tag_52\n      tag_97\n      jump\t// in\n        /* \"contracts/contracts/BatchNFTs.sol\":360:382  bool public mintPaused */\n    tag_16:\n      callvalue\n      dup1\n      iszero\n      tag_98\n      jumpi\n      0x00\n      dup1\n      revert\n    tag_98:\n      pop\n      sload(0x09)\n      tag_34\n      swap1\n      0xff\n      and\n      dup2\n      jump\n        /* \"contracts/contracts/BatchNFTs.sol\":262:311  uint256 public constant PRICE_PER_TOKEN = 1 ether */\n    tag_17:\n      callvalue\n      dup1\n      iszero\n      tag_102\n      jumpi\n      0x00\n      dup1\n      revert\n    tag_102:\n      pop\n      tag_57\n        /* \"contracts/contracts/BatchNFTs.sol\":304:311  1 ether */\n      0x0de0b6b3a7640000\n        /* \"contracts/contracts/BatchNFTs.sol\":262:311  uint256 public constant PRICE_PER_TOKEN = 1 ether */\n      dup2\n      jump\n        /* \"contracts/contracts/Ownable.sol\":1242:1329  function owner() public view virtual returns (address) {... */\n    tag_18:\n      callvalue\n      dup1\n      iszero\n      tag_106\n      jumpi\n      0x00\n      dup1\n      revert\n    tag_106:\n      pop\n        /* \"contracts/contracts/Ownable.sol\":1288:1295  address */\n      0x00\n        /* \"contracts/contracts/Ownable.sol\":1315:1321  _owner */\n      sload\n      sub(shl(0xa0, 0x01), 0x01)\n      and\n        /* \"contracts/contracts/Ownable.sol\":1242:1329  function owner() public view virtual returns (address) {... */\n      jump(tag_46)\n        /* \"contracts/contracts/ERC721A.sol\":10499:10603  function symbol() public view virtual override returns (string memory) {... */\n    tag_19:\n      callvalue\n      dup1\n      iszero\n      tag_110\n      jumpi\n      0x00\n      dup1\n      revert\n    tag_110:\n      pop\n      tag_41\n      tag_112\n      jump\t// in\n        /* \"contracts/contracts/BatchNFTs.sol\":560:1043  function mint(uint256 quantity) external payable {... */\n    tag_20:\n      tag_52\n      tag_115\n      calldatasize\n      0x04\n      tag_48\n      jump\t// in\n    tag_115:\n      tag_116\n      jump\t// in\n        /* \"contracts/contracts/ERC721A.sol\":17372:17606  function setApprovalForAll(address operator, bool approved) public virtual override {... */\n    tag_21:\n      callvalue\n      dup1\n      iszero\n      tag_117\n      jumpi\n      0x00\n      dup1\n      revert\n    tag_117:\n      pop\n      tag_52\n      tag_119\n      calldatasize\n      0x04\n      tag_120\n      jump\t// in\n    tag_119:\n      tag_121\n      jump\t// in\n        /* \"contracts/contracts/ERC721A.sol\":24165:24572  function safeTransferFrom(... */\n    tag_22:\n      tag_52\n      tag_123\n      calldatasize\n      0x04\n      tag_124\n      jump\t// in\n    tag_123:\n      tag_125\n      jump\t// in\n        /* \"contracts/contracts/ERC721A.sol\":10709:11027  function tokenURI(uint256 tokenId) public view virtual override returns (string memory) {... */\n    tag_23:\n      callvalue\n      dup1\n      iszero\n      tag_126\n      jumpi\n      0x00\n      dup1\n      revert\n    tag_126:\n      pop\n      tag_41\n      tag_128\n      calldatasize\n      0x04\n      tag_48\n      jump\t// in\n    tag_128:\n      tag_129\n      jump\t// in\n        /* \"contracts/contracts/BatchNFTs.sol\":318:353  uint256 public immutable START_TIME */\n    tag_24:\n      callvalue\n      dup1\n      iszero\n      tag_131\n      jumpi\n      0x00\n      dup1\n      revert\n    tag_131:\n      pop\n      tag_57\n      immutable(\"0x8fef2229291b68be841adf029e58b87f39ba144b2d3b0af1760243d0a9bc6a1c\")\n      dup2\n      jump\n        /* \"contracts/contracts/ERC721A.sol\":17763:17927  function isApprovedForAll(address owner, address operator) public view virtual override returns (bool) {... */\n    tag_25:\n      callvalue\n      dup1\n      iszero\n      tag_135\n      jumpi\n      0x00\n      dup1\n      revert\n    tag_135:\n      pop\n      tag_34\n      tag_137\n      calldatasize\n      0x04\n      tag_138\n      jump\t// in\n    tag_137:\n      tag_139\n      jump\t// in\n        /* \"contracts/contracts/Ownable.sol\":2148:2349  function transferOwnership(address newOwner) public virtual onlyOwner {... */\n    tag_26:\n      callvalue\n      dup1\n      iszero\n      tag_141\n      jumpi\n      0x00\n      dup1\n      revert\n    tag_141:\n      pop\n      tag_52\n      tag_143\n      calldatasize\n      0x04\n      tag_92\n      jump\t// in\n    tag_143:\n      tag_144\n      jump\t// in\n        /* \"contracts/contracts/BatchNFTs.sol\":1684:1826  function pauseMint(bool _paused) external onlyOwner {... */\n    tag_27:\n      callvalue\n      dup1\n      iszero\n      tag_145\n      jumpi\n      0x00\n      dup1\n      revert\n    tag_145:\n      pop\n      tag_52\n      tag_147\n      calldatasize\n      0x04\n      tag_148\n      jump\t// in\n    tag_147:\n      tag_149\n      jump\t// in\n        /* \"contracts/contracts/ERC721A.sol\":9421:10060  function supportsInterface(bytes4 interfaceId) public view virtual override returns (bool) {... */\n    tag_37:\n        /* \"contracts/contracts/ERC721A.sol\":9506:9510  bool */\n      0x00\n      shl(0xe0, 0x01ffc9a7)\n      not(sub(shl(0xe0, 0x01), 0x01))\n        /* \"contracts/contracts/ERC721A.sol\":9830:9855  interfaceId == 0x01ffc9a7 */\n      dup4\n      and\n      eq\n      dup1\n        /* \"contracts/contracts/ERC721A.sol\":9830:9932  interfaceId == 0x01ffc9a7 || // ERC165 interface ID for ERC165.... */\n      tag_151\n      jumpi\n      pop\n      shl(0xe0, 0x80ac58cd)\n      not(sub(shl(0xe0, 0x01), 0x01))\n        /* \"contracts/contracts/ERC721A.sol\":9907:9932  interfaceId == 0x80ac58cd */\n      dup4\n      and\n      eq\n        /* \"contracts/contracts/ERC721A.sol\":9830:9932  interfaceId == 0x01ffc9a7 || // ERC165 interface ID for ERC165.... */\n    tag_151:\n        /* \"contracts/contracts/ERC721A.sol\":9830:10009  interfaceId == 0x01ffc9a7 || // ERC165 interface ID for ERC165.... */\n      dup1\n      tag_152\n      jumpi\n      pop\n      shl(0xe0, 0x5b5e139f)\n      not(sub(shl(0xe0, 0x01), 0x01))\n        /* \"contracts/contracts/ERC721A.sol\":9984:10009  interfaceId == 0x5b5e139f */\n      dup4\n      and\n      eq\n        /* \"contracts/contracts/ERC721A.sol\":9830:10009  interfaceId == 0x01ffc9a7 || // ERC165 interface ID for ERC165.... */\n    tag_152:\n        /* \"contracts/contracts/ERC721A.sol\":9810:10009  return... */\n      swap3\n        /* \"contracts/contracts/ERC721A.sol\":9421:10060  function supportsInterface(bytes4 interfaceId) public view virtual override returns (bool) {... */\n      swap2\n      pop\n      pop\n      jump\t// out\n        /* \"contracts/contracts/ERC721A.sol\":10323:10423  function name() public view virtual override returns (string memory) {... */\n    tag_42:\n        /* \"contracts/contracts/ERC721A.sol\":10377:10390  string memory */\n      0x60\n        /* \"contracts/contracts/ERC721A.sol\":10410:10415  _name */\n      0x03\n        /* \"contracts/contracts/ERC721A.sol\":10403:10415  return _name */\n      dup1\n      sload\n      tag_154\n      swap1\n      tag_155\n      jump\t// in\n    tag_154:\n      dup1\n      0x1f\n      add\n      0x20\n      dup1\n      swap2\n      div\n      mul\n      0x20\n      add\n      mload(0x40)\n      swap1\n      dup2\n      add\n      0x40\n      mstore\n      dup1\n      swap3\n      swap2\n      swap1\n      dup2\n      dup2\n      mstore\n      0x20\n      add\n      dup3\n      dup1\n      sload\n      tag_156\n      swap1\n      tag_155\n      jump\t// in\n    tag_156:\n      dup1\n      iszero\n      tag_157\n      jumpi\n      dup1\n      0x1f\n      lt\n      tag_158\n      jumpi\n      0x0100\n      dup1\n      dup4\n      sload\n      div\n      mul\n      dup4\n      mstore\n      swap2\n      0x20\n      add\n      swap2\n      jump(tag_157)\n    tag_158:\n      dup3\n      add\n      swap2\n      swap1\n      0x00\n      mstore\n      keccak256(0x00, 0x20)\n      swap1\n    tag_159:\n      dup2\n      sload\n      dup2\n      mstore\n      swap1\n      0x01\n      add\n      swap1\n      0x20\n      add\n      dup1\n      dup4\n      gt\n      tag_159\n      jumpi\n      dup3\n      swap1\n      sub\n      0x1f\n      and\n      dup3\n      add\n      swap2\n    tag_157:\n      pop\n      pop\n      pop\n      pop\n      pop\n      swap1\n      pop\n        /* \"contracts/contracts/ERC721A.sol\":10323:10423  function name() public view virtual override returns (string memory) {... */\n      swap1\n      jump\t// out\n        /* \"contracts/contracts/ERC721A.sol\":16814:17032  function getApproved(uint256 tokenId) public view virtual override returns (address) {... */\n    tag_49:\n        /* \"contracts/contracts/ERC721A.sol\":16890:16897  address */\n      0x00\n        /* \"contracts/contracts/ERC721A.sol\":16915:16931  _exists(tokenId) */\n      tag_161\n        /* \"contracts/contracts/ERC721A.sol\":16923:16930  tokenId */\n      dup3\n        /* \"contracts/contracts/ERC721A.sol\":16915:16922  _exists */\n      tag_162\n        /* \"contracts/contracts/ERC721A.sol\":16915:16931  _exists(tokenId) */\n      jump\t// in\n    tag_161:\n        /* \"contracts/contracts/ERC721A.sol\":16910:16974  if (!_exists(tokenId)) revert ApprovalQueryForNonexistentToken() */\n      tag_163\n      jumpi\n        /* \"contracts/contracts/ERC721A.sol\":16940:16974  ApprovalQueryForNonexistentToken() */\n      mload(0x40)\n      shl(0xe2, 0x33d1c039)\n      dup2\n      mstore\n      0x04\n      add\n      mload(0x40)\n      dup1\n      swap2\n      sub\n      swap1\n      revert\n        /* \"contracts/contracts/ERC721A.sol\":16910:16974  if (!_exists(tokenId)) revert ApprovalQueryForNonexistentToken() */\n    tag_163:\n      pop\n        /* \"contracts/contracts/ERC721A.sol\":16994:17018  _tokenApprovals[tokenId] */\n      0x00\n      swap1\n      dup2\n      mstore\n        /* \"contracts/contracts/ERC721A.sol\":16994:17009  _tokenApprovals */\n      0x07\n        /* \"contracts/contracts/ERC721A.sol\":16994:17018  _tokenApprovals[tokenId] */\n      0x20\n      mstore\n      0x40\n      swap1\n      keccak256\n        /* \"contracts/contracts/ERC721A.sol\":16994:17024  _tokenApprovals[tokenId].value */\n      sload\n      sub(shl(0xa0, 0x01), 0x01)\n      and\n      swap1\n        /* \"contracts/contracts/ERC721A.sol\":16814:17032  function getApproved(uint256 tokenId) public view virtual override returns (address) {... */\n      jump\t// out\n        /* \"contracts/contracts/ERC721A.sol\":16247:16655  function approve(address to, uint256 tokenId) public payable virtual override {... */\n    tag_55:\n        /* \"contracts/contracts/ERC721A.sol\":16336:16349  address owner */\n      0x00\n        /* \"contracts/contracts/ERC721A.sol\":16352:16368  ownerOf(tokenId) */\n      tag_165\n        /* \"contracts/contracts/ERC721A.sol\":16360:16367  tokenId */\n      dup3\n        /* \"contracts/contracts/ERC721A.sol\":16352:16359  ownerOf */\n      tag_87\n        /* \"contracts/contracts/ERC721A.sol\":16352:16368  ownerOf(tokenId) */\n      jump\t// in\n    tag_165:\n        /* \"contracts/contracts/ERC721A.sol\":16336:16368  address owner = ownerOf(tokenId) */\n      swap1\n      pop\n        /* \"contracts/contracts/ERC721A.sol\":40580:40590  msg.sender */\n      caller\n      sub(shl(0xa0, 0x01), 0x01)\n        /* \"contracts/contracts/ERC721A.sol\":16385:16413  _msgSenderERC721A() != owner */\n      dup3\n      and\n      eq\n        /* \"contracts/contracts/ERC721A.sol\":16381:16556  if (_msgSenderERC721A() != owner)... */\n      tag_171\n      jumpi\n        /* \"contracts/contracts/ERC721A.sol\":16433:16477  isApprovedForAll(owner, _msgSenderERC721A()) */\n      tag_169\n        /* \"contracts/contracts/ERC721A.sol\":16450:16455  owner */\n      dup2\n        /* \"contracts/contracts/ERC721A.sol\":40580:40590  msg.sender */\n      caller\n        /* \"contracts/contracts/ERC721A.sol\":17763:17927  function isApprovedForAll(address owner, address operator) public view virtual override returns (bool) {... */\n      tag_139\n      jump\t// in\n        /* \"contracts/contracts/ERC721A.sol\":16433:16477  isApprovedForAll(owner, _msgSenderERC721A()) */\n    tag_169:\n        /* \"contracts/contracts/ERC721A.sol\":16428:16556  if (!isApprovedForAll(owner, _msgSenderERC721A())) {... */\n      tag_171\n      jumpi\n        /* \"contracts/contracts/ERC721A.sol\":16505:16540  ApprovalCallerNotOwnerNorApproved() */\n      mload(0x40)\n      shl(0xe1, 0x67d9dca1)\n      dup2\n      mstore\n      0x04\n      add\n      mload(0x40)\n      dup1\n      swap2\n      sub\n      swap1\n      revert\n        /* \"contracts/contracts/ERC721A.sol\":16428:16556  if (!isApprovedForAll(owner, _msgSenderERC721A())) {... */\n    tag_171:\n        /* \"contracts/contracts/ERC721A.sol\":16568:16592  _tokenApprovals[tokenId] */\n      0x00\n      dup3\n      dup2\n      mstore\n        /* \"contracts/contracts/ERC721A.sol\":16568:16583  _tokenApprovals */\n      0x07\n        /* \"contracts/contracts/ERC721A.sol\":16568:16592  _tokenApprovals[tokenId] */\n      0x20\n      mstore\n      0x40\n      dup1\n      dup3\n      keccak256\n        /* \"contracts/contracts/ERC721A.sol\":16568:16603  _tokenApprovals[tokenId].value = to */\n      dup1\n      sload\n      not(sub(shl(0xa0, 0x01), 0x01))\n      and\n      sub(shl(0xa0, 0x01), 0x01)\n      dup8\n      dup2\n      and\n      swap2\n      dup3\n      or\n      swap1\n      swap3\n      sstore\n        /* \"contracts/contracts/ERC721A.sol\":16619:16647  Approval(owner, to, tokenId) */\n      swap2\n      mload\n        /* \"contracts/contracts/ERC721A.sol\":16568:16592  _tokenApprovals[tokenId] */\n      dup6\n      swap4\n        /* \"contracts/contracts/ERC721A.sol\":16619:16647  Approval(owner, to, tokenId) */\n      swap2\n      dup6\n      and\n      swap2\n      0x8c5be1e5ebec7d5bd14f71427d1e84f3dd0314c0f7b2291e5b200ac8c7c3b925\n      swap2\n      log4\n        /* \"contracts/contracts/ERC721A.sol\":16325:16655  {... */\n      pop\n        /* \"contracts/contracts/ERC721A.sol\":16247:16655  function approve(address to, uint256 tokenId) public payable virtual override {... */\n      pop\n      pop\n      jump\t// out\n        /* \"contracts/contracts/ERC721A.sol\":20453:23278  function transferFrom(... */\n    tag_64:\n        /* \"contracts/contracts/ERC721A.sol\":20595:20622  uint256 prevOwnershipPacked */\n      0x00\n        /* \"contracts/contracts/ERC721A.sol\":20625:20652  _packedOwnershipOf(tokenId) */\n      tag_176\n        /* \"contracts/contracts/ERC721A.sol\":20644:20651  tokenId */\n      dup3\n        /* \"contracts/contracts/ERC721A.sol\":20625:20643  _packedOwnershipOf */\n      tag_177\n        /* \"contracts/contracts/ERC721A.sol\":20625:20652  _packedOwnershipOf(tokenId) */\n      jump\t// in\n    tag_176:\n        /* \"contracts/contracts/ERC721A.sol\":20595:20652  uint256 prevOwnershipPacked = _packedOwnershipOf(tokenId) */\n      swap1\n      pop\n        /* \"contracts/contracts/ERC721A.sol\":20710:20714  from */\n      dup4\n      sub(shl(0xa0, 0x01), 0x01)\n        /* \"contracts/contracts/ERC721A.sol\":20669:20714  address(uint160(prevOwnershipPacked)) != from */\n      and\n        /* \"contracts/contracts/ERC721A.sol\":20685:20704  prevOwnershipPacked */\n      dup2\n      sub(shl(0xa0, 0x01), 0x01)\n        /* \"contracts/contracts/ERC721A.sol\":20669:20714  address(uint160(prevOwnershipPacked)) != from */\n      and\n      eq\n        /* \"contracts/contracts/ERC721A.sol\":20665:20751  if (address(uint160(prevOwnershipPacked)) != from) revert TransferFromIncorrectOwner() */\n      tag_178\n      jumpi\n        /* \"contracts/contracts/ERC721A.sol\":20723:20751  TransferFromIncorrectOwner() */\n      mload(0x40)\n      shl(0xe8, 0xa11481)\n      dup2\n      mstore\n      0x04\n      add\n      mload(0x40)\n      dup1\n      swap2\n      sub\n      swap1\n      revert\n        /* \"contracts/contracts/ERC721A.sol\":20665:20751  if (address(uint160(prevOwnershipPacked)) != from) revert TransferFromIncorrectOwner() */\n    tag_178:\n        /* \"contracts/contracts/ERC721A.sol\":20765:20792  uint256 approvedAddressSlot */\n      0x00\n        /* \"contracts/contracts/ERC721A.sol\":19561:19585  _tokenApprovals[tokenId] */\n      dup3\n      dup2\n      mstore\n        /* \"contracts/contracts/ERC721A.sol\":19561:19576  _tokenApprovals */\n      0x07\n        /* \"contracts/contracts/ERC721A.sol\":19561:19585  _tokenApprovals[tokenId] */\n      0x20\n      mstore\n      0x40\n      swap1\n      keccak256\n        /* \"contracts/contracts/ERC721A.sol\":19789:19815  sload(approvedAddressSlot) */\n      dup1\n      sload\n        /* \"contracts/contracts/ERC721A.sol\":40580:40590  msg.sender */\n      caller\n        /* \"contracts/contracts/ERC721A.sol\":19186:19216  eq(msgSender, approvedAddress) */\n      dup1\n      dup3\n      eq\n      sub(shl(0xa0, 0x01), 0x01)\n        /* \"contracts/contracts/ERC721A.sol\":18879:18907  and(owner, _BITMASK_ADDRESS) */\n      dup9\n      and\n        /* \"contracts/contracts/ERC721A.sol\":19164:19184  eq(msgSender, owner) */\n      swap1\n      swap2\n      eq\n        /* \"contracts/contracts/ERC721A.sol\":19161:19217  or(eq(msgSender, owner), eq(msgSender, approvedAddress)) */\n      or\n        /* \"contracts/contracts/ERC721A.sol\":20951:21131  if (!_isSenderApprovedOrOwner(approvedAddress, from, _msgSenderERC721A()))... */\n      tag_187\n      jumpi\n        /* \"contracts/contracts/ERC721A.sol\":21044:21087  isApprovedForAll(from, _msgSenderERC721A()) */\n      tag_185\n        /* \"contracts/contracts/ERC721A.sol\":21061:21065  from */\n      dup7\n        /* \"contracts/contracts/ERC721A.sol\":40580:40590  msg.sender */\n      caller\n        /* \"contracts/contracts/ERC721A.sol\":17763:17927  function isApprovedForAll(address owner, address operator) public view virtual override returns (bool) {... */\n      tag_139\n      jump\t// in\n        /* \"contracts/contracts/ERC721A.sol\":21044:21087  isApprovedForAll(from, _msgSenderERC721A()) */\n    tag_185:\n        /* \"contracts/contracts/ERC721A.sol\":21039:21131  if (!isApprovedForAll(from, _msgSenderERC721A())) revert TransferCallerNotOwnerNorApproved() */\n      tag_187\n      jumpi\n        /* \"contracts/contracts/ERC721A.sol\":21096:21131  TransferCallerNotOwnerNorApproved() */\n      mload(0x40)\n      shl(0xe1, 0x2ce44b5f)\n      dup2\n      mstore\n      0x04\n      add\n      mload(0x40)\n      dup1\n      swap2\n      sub\n      swap1\n      revert\n        /* \"contracts/contracts/ERC721A.sol\":21039:21131  if (!isApprovedForAll(from, _msgSenderERC721A())) revert TransferCallerNotOwnerNorApproved() */\n    tag_187:\n      sub(shl(0xa0, 0x01), 0x01)\n        /* \"contracts/contracts/ERC721A.sol\":21148:21164  to == address(0) */\n      dup6\n      and\n        /* \"contracts/contracts/ERC721A.sol\":21144:21196  if (to == address(0)) revert TransferToZeroAddress() */\n      tag_188\n      jumpi\n        /* \"contracts/contracts/ERC721A.sol\":21173:21196  TransferToZeroAddress() */\n      mload(0x40)\n      shl(0xe2, 0x3a954ecd)\n      dup2\n      mstore\n      0x04\n      add\n      mload(0x40)\n      dup1\n      swap2\n      sub\n      swap1\n      revert\n        /* \"contracts/contracts/ERC721A.sol\":21144:21196  if (to == address(0)) revert TransferToZeroAddress() */\n    tag_188:\n        /* \"contracts/contracts/ERC721A.sol\":21345:21360  approvedAddress */\n      dup1\n        /* \"contracts/contracts/ERC721A.sol\":21342:21502  if approvedAddress {... */\n      iszero\n      tag_191\n      jumpi\n        /* \"contracts/contracts/ERC721A.sol\":21485:21486  0 */\n      0x00\n        /* \"contracts/contracts/ERC721A.sol\":21464:21483  approvedAddressSlot */\n      dup3\n        /* \"contracts/contracts/ERC721A.sol\":21457:21487  sstore(approvedAddressSlot, 0) */\n      sstore\n        /* \"contracts/contracts/ERC721A.sol\":21342:21502  if approvedAddress {... */\n    tag_191:\n      sub(shl(0xa0, 0x01), 0x01)\n        /* \"contracts/contracts/ERC721A.sol\":21882:21906  _packedAddressData[from] */\n      dup7\n      dup2\n      and\n      0x00\n      swap1\n      dup2\n      mstore\n        /* \"contracts/contracts/ERC721A.sol\":21882:21900  _packedAddressData */\n      0x06\n        /* \"contracts/contracts/ERC721A.sol\":21882:21906  _packedAddressData[from] */\n      0x20\n      mstore\n      0x40\n      dup1\n      dup3\n      keccak256\n        /* \"contracts/contracts/ERC721A.sol\":21880:21906  --_packedAddressData[from] */\n      dup1\n      sload\n      not(0x00)\n      add\n      swap1\n      sstore\n        /* \"contracts/contracts/ERC721A.sol\":21951:21973  _packedAddressData[to] */\n      swap2\n      dup8\n      and\n      dup1\n      dup3\n      mstore\n      swap2\n      swap1\n      keccak256\n        /* \"contracts/contracts/ERC721A.sol\":21949:21973  ++_packedAddressData[to] */\n      dup1\n      sload\n      0x01\n      add\n      swap1\n      sstore\n        /* \"contracts/contracts/ERC721A.sol\":15105:15116  timestamp() */\n      timestamp\n        /* \"contracts/contracts/ERC721A.sol\":15080:15103  _BITPOS_START_TIMESTAMP */\n      0xa0\n        /* \"contracts/contracts/ERC721A.sol\":15076:15117  shl(_BITPOS_START_TIMESTAMP, timestamp()) */\n      shl\n        /* \"contracts/contracts/ERC721A.sol\":15063:15126  or(owner, or(shl(_BITPOS_START_TIMESTAMP, timestamp()), flags)) */\n      or\n      shl(0xe1, 0x01)\n      or\n        /* \"contracts/contracts/ERC721A.sol\":22244:22270  _packedOwnerships[tokenId] */\n      0x00\n      dup6\n      dup2\n      mstore\n        /* \"contracts/contracts/ERC721A.sol\":22244:22261  _packedOwnerships */\n      0x05\n        /* \"contracts/contracts/ERC721A.sol\":22244:22270  _packedOwnerships[tokenId] */\n      0x20\n      mstore\n      0x40\n      dup2\n      keccak256\n        /* \"contracts/contracts/ERC721A.sol\":22244:22419  _packedOwnerships[tokenId] = _packOwnershipData(... */\n      swap2\n      swap1\n      swap2\n      sstore\n      shl(0xe1, 0x01)\n        /* \"contracts/contracts/ERC721A.sol\":22539:22586  prevOwnershipPacked & _BITMASK_NEXT_INITIALIZED */\n      dup5\n      and\n        /* \"contracts/contracts/ERC721A.sol\":22539:22591  prevOwnershipPacked & _BITMASK_NEXT_INITIALIZED == 0 */\n      swap1\n      sub\n        /* \"contracts/contracts/ERC721A.sol\":22535:23162  if (prevOwnershipPacked & _BITMASK_NEXT_INITIALIZED == 0) {... */\n      tag_196\n      jumpi\n        /* \"contracts/contracts/ERC721A.sol\":22644:22645  1 */\n      0x01\n        /* \"contracts/contracts/ERC721A.sol\":22634:22645  tokenId + 1 */\n      dup5\n      add\n        /* \"contracts/contracts/ERC721A.sol\":22612:22631  uint256 nextTokenId */\n      0x00\n        /* \"contracts/contracts/ERC721A.sol\":22767:22797  _packedOwnerships[nextTokenId] */\n      dup2\n      dup2\n      mstore\n        /* \"contracts/contracts/ERC721A.sol\":22767:22784  _packedOwnerships */\n      0x05\n        /* \"contracts/contracts/ERC721A.sol\":22767:22797  _packedOwnerships[nextTokenId] */\n      0x20\n      mstore\n      0x40\n      dup2\n      keccak256\n      sload\n        /* \"contracts/contracts/ERC721A.sol\":22767:22802  _packedOwnerships[nextTokenId] == 0 */\n      swap1\n      sub\n        /* \"contracts/contracts/ERC721A.sol\":22763:23147  if (_packedOwnerships[nextTokenId] == 0) {... */\n      tag_198\n      jumpi\n        /* \"contracts/contracts/ERC721A.sol\":22905:22918  _currentIndex */\n      sload(0x01)\n        /* \"contracts/contracts/ERC721A.sol\":22890:22901  nextTokenId */\n      dup2\n        /* \"contracts/contracts/ERC721A.sol\":22890:22918  nextTokenId != _currentIndex */\n      eq\n        /* \"contracts/contracts/ERC721A.sol\":22886:23128  if (nextTokenId != _currentIndex) {... */\n      tag_198\n      jumpi\n        /* \"contracts/contracts/ERC721A.sol\":23052:23082  _packedOwnerships[nextTokenId] */\n      0x00\n      dup2\n      dup2\n      mstore\n        /* \"contracts/contracts/ERC721A.sol\":23052:23069  _packedOwnerships */\n      0x05\n        /* \"contracts/contracts/ERC721A.sol\":23052:23082  _packedOwnerships[nextTokenId] */\n      0x20\n      mstore\n      0x40\n      swap1\n      keccak256\n        /* \"contracts/contracts/ERC721A.sol\":23052:23104  _packedOwnerships[nextTokenId] = prevOwnershipPacked */\n      dup5\n      swap1\n      sstore\n        /* \"contracts/contracts/ERC721A.sol\":22886:23128  if (nextTokenId != _currentIndex) {... */\n    tag_198:\n        /* \"contracts/contracts/ERC721A.sol\":22593:23162  {... */\n      pop\n        /* \"contracts/contracts/ERC721A.sol\":22535:23162  if (prevOwnershipPacked & _BITMASK_NEXT_INITIALIZED == 0) {... */\n    tag_196:\n        /* \"contracts/contracts/ERC721A.sol\":23209:23216  tokenId */\n      dup4\n        /* \"contracts/contracts/ERC721A.sol\":23205:23207  to */\n      dup6\n      sub(shl(0xa0, 0x01), 0x01)\n        /* \"contracts/contracts/ERC721A.sol\":23190:23217  Transfer(from, to, tokenId) */\n      and\n        /* \"contracts/contracts/ERC721A.sol\":23199:23203  from */\n      dup8\n      sub(shl(0xa0, 0x01), 0x01)\n        /* \"contracts/contracts/ERC721A.sol\":23190:23217  Transfer(from, to, tokenId) */\n      and\n      0xddf252ad1be2c89b69c2b068fc378daa952ba7f163c4a11628f55a4df523b3ef\n      mload(0x40)\n      mload(0x40)\n      dup1\n      swap2\n      sub\n      swap1\n      log4\n        /* \"contracts/contracts/ERC721A.sol\":20584:23278  {... */\n      pop\n      pop\n      pop\n        /* \"contracts/contracts/ERC721A.sol\":20453:23278  function transferFrom(... */\n      pop\n      pop\n      pop\n      jump\t// out\n        /* \"contracts/contracts/BatchNFTs.sol\":1051:1391  function withdraw() external onlyOwner {... */\n    tag_71:\n        /* \"contracts/contracts/Ownable.sol\":1128:1141  _checkOwner() */\n      tag_202\n        /* \"contracts/contracts/Ownable.sol\":1128:1139  _checkOwner */\n      tag_203\n        /* \"contracts/contracts/Ownable.sol\":1128:1141  _checkOwner() */\n      jump\t// in\n    tag_202:\n        /* \"contracts/contracts/BatchNFTs.sol\":1213:1250  payable(msg.sender).transfer(balance) */\n      mload(0x40)\n        /* \"contracts/contracts/BatchNFTs.sol\":1119:1140  address(this).balance */\n      selfbalance\n      swap1\n        /* \"contracts/contracts/BatchNFTs.sol\":1221:1231  msg.sender */\n      caller\n      swap1\n        /* \"contracts/contracts/BatchNFTs.sol\":1213:1250  payable(msg.sender).transfer(balance) */\n      dup3\n      iszero\n      0x08fc\n      mul\n      swap1\n        /* \"contracts/contracts/BatchNFTs.sol\":1119:1140  address(this).balance */\n      dup4\n      swap1\n        /* \"contracts/contracts/BatchNFTs.sol\":1101:1116  uint256 balance */\n      0x00\n        /* \"contracts/contracts/BatchNFTs.sol\":1213:1250  payable(msg.sender).transfer(balance) */\n      dup2\n        /* \"contracts/contracts/BatchNFTs.sol\":1101:1116  uint256 balance */\n      dup2\n        /* \"contracts/contracts/BatchNFTs.sol\":1213:1250  payable(msg.sender).transfer(balance) */\n      dup2\n        /* \"contracts/contracts/BatchNFTs.sol\":1119:1140  address(this).balance */\n      dup6\n        /* \"contracts/contracts/BatchNFTs.sol\":1221:1231  msg.sender */\n      dup9\n        /* \"contracts/contracts/BatchNFTs.sol\":1213:1250  payable(msg.sender).transfer(balance) */\n      dup9\n      call\n      swap4\n      pop\n      pop\n      pop\n      pop\n      iszero\n      dup1\n      iszero\n      tag_206\n      jumpi\n      returndatasize\n      0x00\n      dup1\n      returndatacopy\n      revert(0x00, returndatasize)\n    tag_206:\n      pop\n        /* \"contracts/contracts/BatchNFTs.sol\":1090:1391  {... */\n      pop\n        /* \"contracts/contracts/BatchNFTs.sol\":1051:1391  function withdraw() external onlyOwner {... */\n      jump\t// out\n        /* \"contracts/contracts/ERC721A.sol\":23374:23567  function safeTransferFrom(... */\n    tag_74:\n        /* \"contracts/contracts/ERC721A.sol\":23520:23559  safeTransferFrom(from, to, tokenId, '') */\n      tag_208\n        /* \"contracts/contracts/ERC721A.sol\":23537:23541  from */\n      dup4\n        /* \"contracts/contracts/ERC721A.sol\":23543:23545  to */\n      dup4\n        /* \"contracts/contracts/ERC721A.sol\":23547:23554  tokenId */\n      dup4\n        /* \"contracts/contracts/ERC721A.sol\":23520:23559  safeTransferFrom(from, to, tokenId, '') */\n      mload(0x40)\n      dup1\n      0x20\n      add\n      0x40\n      mstore\n      dup1\n      0x00\n      dup2\n      mstore\n      pop\n        /* \"contracts/contracts/ERC721A.sol\":23520:23536  safeTransferFrom */\n      tag_125\n        /* \"contracts/contracts/ERC721A.sol\":23520:23559  safeTransferFrom(from, to, tokenId, '') */\n      jump\t// in\n    tag_208:\n        /* \"contracts/contracts/ERC721A.sol\":23374:23567  function safeTransferFrom(... */\n      pop\n      pop\n      pop\n      jump\t// out\n        /* \"contracts/contracts/BatchNFTs.sol\":1399:1505  function setBaseURI(string calldata baseURI) external onlyOwner {... */\n    tag_79:\n        /* \"contracts/contracts/Ownable.sol\":1128:1141  _checkOwner() */\n      tag_210\n        /* \"contracts/contracts/Ownable.sol\":1128:1139  _checkOwner */\n      tag_203\n        /* \"contracts/contracts/Ownable.sol\":1128:1141  _checkOwner() */\n      jump\t// in\n    tag_210:\n        /* \"contracts/contracts/BatchNFTs.sol\":1474:1487  _baseTokenURI */\n      0x0a\n        /* \"contracts/contracts/BatchNFTs.sol\":1474:1497  _baseTokenURI = baseURI */\n      tag_208\n        /* \"contracts/contracts/BatchNFTs.sol\":1490:1497  baseURI */\n      dup3\n      dup5\n        /* \"contracts/contracts/BatchNFTs.sol\":1474:1487  _baseTokenURI */\n      dup4\n        /* \"contracts/contracts/BatchNFTs.sol\":1474:1497  _baseTokenURI = baseURI */\n      tag_213\n      jump\t// in\n        /* \"contracts/contracts/ERC721A.sol\":11716:11868  function ownerOf(uint256 tokenId) public view virtual override returns (address) {... */\n    tag_87:\n        /* \"contracts/contracts/ERC721A.sol\":11788:11795  address */\n      0x00\n        /* \"contracts/contracts/ERC721A.sol\":11831:11858  _packedOwnershipOf(tokenId) */\n      tag_152\n        /* \"contracts/contracts/ERC721A.sol\":11850:11857  tokenId */\n      dup3\n        /* \"contracts/contracts/ERC721A.sol\":11831:11849  _packedOwnershipOf */\n      tag_177\n        /* \"contracts/contracts/ERC721A.sol\":11831:11858  _packedOwnershipOf(tokenId) */\n      jump\t// in\n        /* \"contracts/contracts/ERC721A.sol\":7258:7491  function balanceOf(address owner) public view virtual override returns (uint256) {... */\n    tag_93:\n        /* \"contracts/contracts/ERC721A.sol\":7330:7337  uint256 */\n      0x00\n      sub(shl(0xa0, 0x01), 0x01)\n        /* \"contracts/contracts/ERC721A.sol\":7354:7373  owner == address(0) */\n      dup3\n      and\n        /* \"contracts/contracts/ERC721A.sol\":7350:7410  if (owner == address(0)) revert BalanceQueryForZeroAddress() */\n      tag_217\n      jumpi\n        /* \"contracts/contracts/ERC721A.sol\":7382:7410  BalanceQueryForZeroAddress() */\n      mload(0x40)\n      shl(0xe2, 0x23d3ad81)\n      dup2\n      mstore\n      0x04\n      add\n      mload(0x40)\n      dup1\n      swap2\n      sub\n      swap1\n      revert\n        /* \"contracts/contracts/ERC721A.sol\":7350:7410  if (owner == address(0)) revert BalanceQueryForZeroAddress() */\n    tag_217:\n      pop\n      sub(shl(0xa0, 0x01), 0x01)\n        /* \"contracts/contracts/ERC721A.sol\":7428:7453  _packedAddressData[owner] */\n      and\n      0x00\n      swap1\n      dup2\n      mstore\n        /* \"contracts/contracts/ERC721A.sol\":7428:7446  _packedAddressData */\n      0x06\n        /* \"contracts/contracts/ERC721A.sol\":7428:7453  _packedAddressData[owner] */\n      0x20\n      mstore\n      0x40\n      swap1\n      keccak256\n      sload\n        /* \"contracts/contracts/ERC721A.sol\":1417:1430  (1 << 64) - 1 */\n      0xffffffffffffffff\n        /* \"contracts/contracts/ERC721A.sol\":7428:7483  _packedAddressData[owner] & _BITMASK_ADDRESS_DATA_ENTRY */\n      and\n      swap1\n        /* \"contracts/contracts/ERC721A.sol\":7258:7491  function balanceOf(address owner) public view virtual override returns (uint256) {... */\n      jump\t// out\n        /* \"contracts/contracts/Ownable.sol\":1890:1993  function renounceOwnership() public virtual onlyOwner {... */\n    tag_97:\n        /* \"contracts/contracts/Ownable.sol\":1128:1141  _checkOwner() */\n      tag_219\n        /* \"contracts/contracts/Ownable.sol\":1128:1139  _checkOwner */\n      tag_203\n        /* \"contracts/contracts/Ownable.sol\":1128:1141  _checkOwner() */\n      jump\t// in\n    tag_219:\n        /* \"contracts/contracts/Ownable.sol\":1955:1985  _transferOwnership(address(0)) */\n      tag_221\n        /* \"contracts/contracts/Ownable.sol\":1982:1983  0 */\n      0x00\n        /* \"contracts/contracts/Ownable.sol\":1955:1973  _transferOwnership */\n      tag_222\n        /* \"contracts/contracts/Ownable.sol\":1955:1985  _transferOwnership(address(0)) */\n      jump\t// in\n    tag_221:\n        /* \"contracts/contracts/Ownable.sol\":1890:1993  function renounceOwnership() public virtual onlyOwner {... */\n      jump\t// out\n        /* \"contracts/contracts/ERC721A.sol\":10499:10603  function symbol() public view virtual override returns (string memory) {... */\n    tag_112:\n        /* \"contracts/contracts/ERC721A.sol\":10555:10568  string memory */\n      0x60\n        /* \"contracts/contracts/ERC721A.sol\":10588:10595  _symbol */\n      0x04\n        /* \"contracts/contracts/ERC721A.sol\":10581:10595  return _symbol */\n      dup1\n      sload\n      tag_154\n      swap1\n      tag_155\n      jump\t// in\n        /* \"contracts/contracts/BatchNFTs.sol\":560:1043  function mint(uint256 quantity) external payable {... */\n    tag_116:\n        /* \"contracts/contracts/BatchNFTs.sol\":629:639  mintPaused */\n      and(0xff, sload(0x09))\n        /* \"contracts/contracts/BatchNFTs.sol\":628:639  !mintPaused */\n      iszero\n        /* \"contracts/contracts/BatchNFTs.sol\":620:658  require(!mintPaused, \"Mint is paused\") */\n      tag_231\n      jumpi\n      mload(0x40)\n      shl(0xe5, 0x461bcd)\n      dup2\n      mstore\n        /* \"#utility.yul\":8240:8242   */\n      0x20\n        /* \"contracts/contracts/BatchNFTs.sol\":620:658  require(!mintPaused, \"Mint is paused\") */\n      0x04\n      dup3\n      add\n        /* \"#utility.yul\":8222:8243   */\n      mstore\n        /* \"#utility.yul\":8279:8281   */\n      0x0e\n        /* \"#utility.yul\":8259:8277   */\n      0x24\n      dup3\n      add\n        /* \"#utility.yul\":8252:8282   */\n      mstore\n      shl(0x92, 0x135a5b9d081a5cc81c185d5cd959)\n        /* \"#utility.yul\":8298:8316   */\n      0x44\n      dup3\n      add\n        /* \"#utility.yul\":8291:8335   */\n      mstore\n        /* \"#utility.yul\":8352:8370   */\n      0x64\n      add\n        /* \"contracts/contracts/BatchNFTs.sol\":620:658  require(!mintPaused, \"Mint is paused\") */\n    tag_232:\n      mload(0x40)\n      dup1\n      swap2\n      sub\n      swap1\n      revert\n    tag_231:\n        /* \"contracts/contracts/BatchNFTs.sol\":696:706  START_TIME */\n      immutable(\"0x8fef2229291b68be841adf029e58b87f39ba144b2d3b0af1760243d0a9bc6a1c\")\n        /* \"contracts/contracts/BatchNFTs.sol\":677:692  block.timestamp */\n      timestamp\n        /* \"contracts/contracts/BatchNFTs.sol\":677:706  block.timestamp >= START_TIME */\n      lt\n      iszero\n        /* \"contracts/contracts/BatchNFTs.sol\":669:727  require(block.timestamp >= START_TIME, \"Sale not started\") */\n      tag_234\n      jumpi\n      mload(0x40)\n      shl(0xe5, 0x461bcd)\n      dup2\n      mstore\n        /* \"#utility.yul\":8583:8585   */\n      0x20\n        /* \"contracts/contracts/BatchNFTs.sol\":669:727  require(block.timestamp >= START_TIME, \"Sale not started\") */\n      0x04\n      dup3\n      add\n        /* \"#utility.yul\":8565:8586   */\n      mstore\n        /* \"#utility.yul\":8622:8624   */\n      0x10\n        /* \"#utility.yul\":8602:8620   */\n      0x24\n      dup3\n      add\n        /* \"#utility.yul\":8595:8625   */\n      mstore\n      shl(0x82, 0x14d85b19481b9bdd081cdd185c9d1959)\n        /* \"#utility.yul\":8641:8659   */\n      0x44\n      dup3\n      add\n        /* \"#utility.yul\":8634:8680   */\n      mstore\n        /* \"#utility.yul\":8697:8715   */\n      0x64\n      add\n        /* \"contracts/contracts/BatchNFTs.sol\":669:727  require(block.timestamp >= START_TIME, \"Sale not started\") */\n      tag_232\n        /* \"#utility.yul\":8381:8721   */\n      jump\n        /* \"contracts/contracts/BatchNFTs.sol\":669:727  require(block.timestamp >= START_TIME, \"Sale not started\") */\n    tag_234:\n        /* \"contracts/contracts/BatchNFTs.sol\":198:201  100 */\n      0x64\n        /* \"contracts/contracts/BatchNFTs.sol\":763:771  quantity */\n      dup2\n        /* \"contracts/contracts/BatchNFTs.sol\":746:760  _totalMinted() */\n      tag_237\n        /* \"contracts/contracts/ERC721A.sol\":6741:6754  _currentIndex */\n      sload(0x01)\n      swap1\n        /* \"contracts/contracts/ERC721A.sol\":6495:6791  function _totalMinted() internal view virtual returns (uint256) {... */\n      jump\n        /* \"contracts/contracts/BatchNFTs.sol\":746:760  _totalMinted() */\n    tag_237:\n        /* \"contracts/contracts/BatchNFTs.sol\":746:771  _totalMinted() + quantity */\n      tag_239\n      swap2\n      swap1\n      tag_240\n      jump\t// in\n    tag_239:\n        /* \"contracts/contracts/BatchNFTs.sol\":746:785  _totalMinted() + quantity <= MAX_SUPPLY */\n      gt\n      iszero\n        /* \"contracts/contracts/BatchNFTs.sol\":738:804  require(_totalMinted() + quantity <= MAX_SUPPLY, \"Max Supply Hit\") */\n      tag_241\n      jumpi\n      mload(0x40)\n      shl(0xe5, 0x461bcd)\n      dup2\n      mstore\n        /* \"#utility.yul\":9190:9192   */\n      0x20\n        /* \"contracts/contracts/BatchNFTs.sol\":738:804  require(_totalMinted() + quantity <= MAX_SUPPLY, \"Max Supply Hit\") */\n      0x04\n      dup3\n      add\n        /* \"#utility.yul\":9172:9193   */\n      mstore\n        /* \"#utility.yul\":9229:9231   */\n      0x0e\n        /* \"#utility.yul\":9209:9227   */\n      0x24\n      dup3\n      add\n        /* \"#utility.yul\":9202:9232   */\n      mstore\n      shl(0x92, 0x13585e0814dd5c1c1b1e48121a5d)\n        /* \"#utility.yul\":9248:9266   */\n      0x44\n      dup3\n      add\n        /* \"#utility.yul\":9241:9285   */\n      mstore\n        /* \"#utility.yul\":9302:9320   */\n      0x64\n      add\n        /* \"contracts/contracts/BatchNFTs.sol\":738:804  require(_totalMinted() + quantity <= MAX_SUPPLY, \"Max Supply Hit\") */\n      tag_232\n        /* \"#utility.yul\":8988:9326   */\n      jump\n        /* \"contracts/contracts/BatchNFTs.sol\":738:804  require(_totalMinted() + quantity <= MAX_SUPPLY, \"Max Supply Hit\") */\n    tag_241:\n        /* \"contracts/contracts/BatchNFTs.sol\":837:847  msg.sender */\n      caller\n        /* \"contracts/contracts/ERC721A.sol\":7634:7641  uint256 */\n      0x00\n        /* \"contracts/contracts/ERC721A.sol\":7662:7687  _packedAddressData[owner] */\n      swap1\n      dup2\n      mstore\n        /* \"contracts/contracts/ERC721A.sol\":7662:7680  _packedAddressData */\n      0x06\n        /* \"contracts/contracts/ERC721A.sol\":7662:7687  _packedAddressData[owner] */\n      0x20\n      mstore\n        /* \"contracts/contracts/ERC721A.sol\":1555:1557  64 */\n      0x40\n        /* \"contracts/contracts/ERC721A.sol\":7662:7687  _packedAddressData[owner] */\n      swap1\n      dup2\n      swap1\n      keccak256\n      sload\n        /* \"contracts/contracts/BatchNFTs.sol\":254:255  5 */\n      0x05\n      swap2\n        /* \"contracts/contracts/BatchNFTs.sol\":823:859  _numberMinted(msg.sender) + quantity */\n      tag_246\n      swap2\n        /* \"contracts/contracts/BatchNFTs.sol\":851:859  quantity */\n      dup5\n      swap2\n        /* \"contracts/contracts/ERC721A.sol\":7662:7712  _packedAddressData[owner] >> _BITPOS_NUMBER_MINTED */\n      shr\n        /* \"contracts/contracts/ERC721A.sol\":1417:1430  (1 << 64) - 1 */\n      0xffffffffffffffff\n        /* \"contracts/contracts/ERC721A.sol\":7661:7743  (_packedAddressData[owner] >> _BITPOS_NUMBER_MINTED) & _BITMASK_ADDRESS_DATA_ENTRY */\n      and\n        /* \"contracts/contracts/BatchNFTs.sol\":823:859  _numberMinted(msg.sender) + quantity */\n      tag_240\n      jump\t// in\n    tag_246:\n        /* \"contracts/contracts/BatchNFTs.sol\":823:882  _numberMinted(msg.sender) + quantity <= MAX_SUPPLY_PER_USER */\n      gt\n      iszero\n        /* \"contracts/contracts/BatchNFTs.sol\":815:912  require(_numberMinted(msg.sender) + quantity <= MAX_SUPPLY_PER_USER, \"Max Mint per user Reached\") */\n      tag_247\n      jumpi\n      mload(0x40)\n      shl(0xe5, 0x461bcd)\n      dup2\n      mstore\n        /* \"#utility.yul\":9533:9535   */\n      0x20\n        /* \"contracts/contracts/BatchNFTs.sol\":815:912  require(_numberMinted(msg.sender) + quantity <= MAX_SUPPLY_PER_USER, \"Max Mint per user Reached\") */\n      0x04\n      dup3\n      add\n        /* \"#utility.yul\":9515:9536   */\n      mstore\n        /* \"#utility.yul\":9572:9574   */\n      0x19\n        /* \"#utility.yul\":9552:9570   */\n      0x24\n      dup3\n      add\n        /* \"#utility.yul\":9545:9575   */\n      mstore\n        /* \"#utility.yul\":9611:9638   */\n      0x4d6178204d696e74207065722075736572205265616368656400000000000000\n        /* \"#utility.yul\":9591:9609   */\n      0x44\n      dup3\n      add\n        /* \"#utility.yul\":9584:9639   */\n      mstore\n        /* \"#utility.yul\":9656:9674   */\n      0x64\n      add\n        /* \"contracts/contracts/BatchNFTs.sol\":815:912  require(_numberMinted(msg.sender) + quantity <= MAX_SUPPLY_PER_USER, \"Max Mint per user Reached\") */\n      tag_232\n        /* \"#utility.yul\":9331:9680   */\n      jump\n        /* \"contracts/contracts/BatchNFTs.sol\":815:912  require(_numberMinted(msg.sender) + quantity <= MAX_SUPPLY_PER_USER, \"Max Mint per user Reached\") */\n    tag_247:\n        /* \"contracts/contracts/BatchNFTs.sol\":944:970  quantity * PRICE_PER_TOKEN */\n      tag_250\n        /* \"contracts/contracts/BatchNFTs.sol\":304:311  1 ether */\n      0x0de0b6b3a7640000\n        /* \"contracts/contracts/BatchNFTs.sol\":944:952  quantity */\n      dup3\n        /* \"contracts/contracts/BatchNFTs.sol\":944:970  quantity * PRICE_PER_TOKEN */\n      tag_251\n      jump\t// in\n    tag_250:\n        /* \"contracts/contracts/BatchNFTs.sol\":931:940  msg.value */\n      callvalue\n        /* \"contracts/contracts/BatchNFTs.sol\":931:970  msg.value >= quantity * PRICE_PER_TOKEN */\n      lt\n      iszero\n        /* \"contracts/contracts/BatchNFTs.sol\":923:993  require(msg.value >= quantity * PRICE_PER_TOKEN, \"Insufficient Funds\") */\n      tag_252\n      jumpi\n      mload(0x40)\n      shl(0xe5, 0x461bcd)\n      dup2\n      mstore\n        /* \"#utility.yul\":10060:10062   */\n      0x20\n        /* \"contracts/contracts/BatchNFTs.sol\":923:993  require(msg.value >= quantity * PRICE_PER_TOKEN, \"Insufficient Funds\") */\n      0x04\n      dup3\n      add\n        /* \"#utility.yul\":10042:10063   */\n      mstore\n        /* \"#utility.yul\":10099:10101   */\n      0x12\n        /* \"#utility.yul\":10079:10097   */\n      0x24\n      dup3\n      add\n        /* \"#utility.yul\":10072:10102   */\n      mstore\n      shl(0x70, 0x496e73756666696369656e742046756e6473)\n        /* \"#utility.yul\":10118:10136   */\n      0x44\n      dup3\n      add\n        /* \"#utility.yul\":10111:10159   */\n      mstore\n        /* \"#utility.yul\":10176:10194   */\n      0x64\n      add\n        /* \"contracts/contracts/BatchNFTs.sol\":923:993  require(msg.value >= quantity * PRICE_PER_TOKEN, \"Insufficient Funds\") */\n      tag_232\n        /* \"#utility.yul\":9858:10200   */\n      jump\n        /* \"contracts/contracts/BatchNFTs.sol\":923:993  require(msg.value >= quantity * PRICE_PER_TOKEN, \"Insufficient Funds\") */\n    tag_252:\n        /* \"contracts/contracts/BatchNFTs.sol\":1004:1035  _safeMint(msg.sender, quantity) */\n      tag_255\n        /* \"contracts/contracts/BatchNFTs.sol\":1014:1024  msg.sender */\n      caller\n        /* \"contracts/contracts/BatchNFTs.sol\":1026:1034  quantity */\n      dup3\n        /* \"contracts/contracts/BatchNFTs.sol\":1004:1013  _safeMint */\n      tag_256\n        /* \"contracts/contracts/BatchNFTs.sol\":1004:1035  _safeMint(msg.sender, quantity) */\n      jump\t// in\n    tag_255:\n        /* \"contracts/contracts/BatchNFTs.sol\":560:1043  function mint(uint256 quantity) external payable {... */\n      pop\n      jump\t// out\n        /* \"contracts/contracts/ERC721A.sol\":17372:17606  function setApprovalForAll(address operator, bool approved) public virtual override {... */\n    tag_121:\n        /* \"contracts/contracts/ERC721A.sol\":40580:40590  msg.sender */\n      caller\n        /* \"contracts/contracts/ERC721A.sol\":17467:17506  _operatorApprovals[_msgSenderERC721A()] */\n      0x00\n      dup2\n      dup2\n      mstore\n        /* \"contracts/contracts/ERC721A.sol\":17467:17485  _operatorApprovals */\n      0x08\n        /* \"contracts/contracts/ERC721A.sol\":17467:17506  _operatorApprovals[_msgSenderERC721A()] */\n      0x20\n      swap1\n      dup2\n      mstore\n      0x40\n      dup1\n      dup4\n      keccak256\n      sub(shl(0xa0, 0x01), 0x01)\n        /* \"contracts/contracts/ERC721A.sol\":17467:17516  _operatorApprovals[_msgSenderERC721A()][operator] */\n      dup8\n      and\n      dup1\n      dup6\n      mstore\n      swap1\n      dup4\n      mstore\n      swap3\n      dup2\n      swap1\n      keccak256\n        /* \"contracts/contracts/ERC721A.sol\":17467:17527  _operatorApprovals[_msgSenderERC721A()][operator] = approved */\n      dup1\n      sload\n      not(0xff)\n      and\n      dup7\n      iszero\n      iszero\n      swap1\n      dup2\n      or\n      swap1\n      swap2\n      sstore\n        /* \"contracts/contracts/ERC721A.sol\":17543:17598  ApprovalForAll(_msgSenderERC721A(), operator, approved) */\n      swap1\n      mload\n        /* \"#utility.yul\":540:581   */\n      swap1\n      dup2\n      mstore\n        /* \"contracts/contracts/ERC721A.sol\":17467:17516  _operatorApprovals[_msgSenderERC721A()][operator] */\n      swap2\n      swap3\n        /* \"contracts/contracts/ERC721A.sol\":40580:40590  msg.sender */\n      swap2\n        /* \"contracts/contracts/ERC721A.sol\":17543:17598  ApprovalForAll(_msgSenderERC721A(), operator, approved) */\n      0x17307eab39ab6107e8899845ad3d59bd9653f200f220920489ca2b5937696c31\n      swap2\n        /* \"#utility.yul\":513:531   */\n      add\n        /* \"contracts/contracts/ERC721A.sol\":17543:17598  ApprovalForAll(_msgSenderERC721A(), operator, approved) */\n      mload(0x40)\n      dup1\n      swap2\n      sub\n      swap1\n      log3\n        /* \"contracts/contracts/ERC721A.sol\":17372:17606  function setApprovalForAll(address operator, bool approved) public virtual override {... */\n      pop\n      pop\n      jump\t// out\n        /* \"contracts/contracts/ERC721A.sol\":24165:24572  function safeTransferFrom(... */\n    tag_125:\n        /* \"contracts/contracts/ERC721A.sol\":24340:24371  transferFrom(from, to, tokenId) */\n      tag_262\n        /* \"contracts/contracts/ERC721A.sol\":24353:24357  from */\n      dup5\n        /* \"contracts/contracts/ERC721A.sol\":24359:24361  to */\n      dup5\n        /* \"contracts/contracts/ERC721A.sol\":24363:24370  tokenId */\n      dup5\n        /* \"contracts/contracts/ERC721A.sol\":24340:24352  transferFrom */\n      tag_64\n        /* \"contracts/contracts/ERC721A.sol\":24340:24371  transferFrom(from, to, tokenId) */\n      jump\t// in\n    tag_262:\n      sub(shl(0xa0, 0x01), 0x01)\n        /* \"contracts/contracts/ERC721A.sol\":24386:24400  to.code.length */\n      dup4\n      and\n      extcodesize\n        /* \"contracts/contracts/ERC721A.sol\":24386:24405  to.code.length != 0 */\n      iszero\n        /* \"contracts/contracts/ERC721A.sol\":24382:24565  if (to.code.length != 0)... */\n      tag_266\n      jumpi\n        /* \"contracts/contracts/ERC721A.sol\":24425:24481  _checkContractOnERC721Received(from, to, tokenId, _data) */\n      tag_264\n        /* \"contracts/contracts/ERC721A.sol\":24456:24460  from */\n      dup5\n        /* \"contracts/contracts/ERC721A.sol\":24462:24464  to */\n      dup5\n        /* \"contracts/contracts/ERC721A.sol\":24466:24473  tokenId */\n      dup5\n        /* \"contracts/contracts/ERC721A.sol\":24475:24480  _data */\n      dup5\n        /* \"contracts/contracts/ERC721A.sol\":24425:24455  _checkContractOnERC721Received */\n      tag_265\n        /* \"contracts/contracts/ERC721A.sol\":24425:24481  _checkContractOnERC721Received(from, to, tokenId, _data) */\n      jump\t// in\n    tag_264:\n        /* \"contracts/contracts/ERC721A.sol\":24420:24565  if (!_checkContractOnERC721Received(from, to, tokenId, _data)) {... */\n      tag_266\n      jumpi\n        /* \"contracts/contracts/ERC721A.sol\":24509:24549  TransferToNonERC721ReceiverImplementer() */\n      mload(0x40)\n      shl(0xe1, 0x68d2bf6b)\n      dup2\n      mstore\n      0x04\n      add\n      mload(0x40)\n      dup1\n      swap2\n      sub\n      swap1\n      revert\n        /* \"contracts/contracts/ERC721A.sol\":24420:24565  if (!_checkContractOnERC721Received(from, to, tokenId, _data)) {... */\n    tag_266:\n        /* \"contracts/contracts/ERC721A.sol\":24165:24572  function safeTransferFrom(... */\n      pop\n      pop\n      pop\n      pop\n      jump\t// out\n        /* \"contracts/contracts/ERC721A.sol\":10709:11027  function tokenURI(uint256 tokenId) public view virtual override returns (string memory) {... */\n    tag_129:\n        /* \"contracts/contracts/ERC721A.sol\":10782:10795  string memory */\n      0x60\n        /* \"contracts/contracts/ERC721A.sol\":10813:10829  _exists(tokenId) */\n      tag_268\n        /* \"contracts/contracts/ERC721A.sol\":10821:10828  tokenId */\n      dup3\n        /* \"contracts/contracts/ERC721A.sol\":10813:10820  _exists */\n      tag_162\n        /* \"contracts/contracts/ERC721A.sol\":10813:10829  _exists(tokenId) */\n      jump\t// in\n    tag_268:\n        /* \"contracts/contracts/ERC721A.sol\":10808:10867  if (!_exists(tokenId)) revert URIQueryForNonexistentToken() */\n      tag_269\n      jumpi\n        /* \"contracts/contracts/ERC721A.sol\":10838:10867  URIQueryForNonexistentToken() */\n      mload(0x40)\n      shl(0xe4, 0x0a14c4b5)\n      dup2\n      mstore\n      0x04\n      add\n      mload(0x40)\n      dup1\n      swap2\n      sub\n      swap1\n      revert\n        /* \"contracts/contracts/ERC721A.sol\":10808:10867  if (!_exists(tokenId)) revert URIQueryForNonexistentToken() */\n    tag_269:\n        /* \"contracts/contracts/ERC721A.sol\":10880:10901  string memory baseURI */\n      0x00\n        /* \"contracts/contracts/ERC721A.sol\":10904:10914  _baseURI() */\n      tag_270\n        /* \"contracts/contracts/ERC721A.sol\":10904:10912  _baseURI */\n      tag_271\n        /* \"contracts/contracts/ERC721A.sol\":10904:10914  _baseURI() */\n      jump\t// in\n    tag_270:\n        /* \"contracts/contracts/ERC721A.sol\":10880:10914  string memory baseURI = _baseURI() */\n      swap1\n      pop\n        /* \"contracts/contracts/ERC721A.sol\":10938:10945  baseURI */\n      dup1\n        /* \"contracts/contracts/ERC721A.sol\":10932:10953  bytes(baseURI).length */\n      mload\n        /* \"contracts/contracts/ERC721A.sol\":10957:10958  0 */\n      0x00\n        /* \"contracts/contracts/ERC721A.sol\":10932:10958  bytes(baseURI).length != 0 */\n      sub\n        /* \"contracts/contracts/ERC721A.sol\":10932:11019  bytes(baseURI).length != 0 ? string(abi.encodePacked(baseURI, _toString(tokenId))) : '' */\n      tag_272\n      jumpi\n      mload(0x40)\n      dup1\n      0x20\n      add\n      0x40\n      mstore\n      dup1\n      0x00\n      dup2\n      mstore\n      pop\n      jump(tag_273)\n    tag_272:\n        /* \"contracts/contracts/ERC721A.sol\":10985:10992  baseURI */\n      dup1\n        /* \"contracts/contracts/ERC721A.sol\":10994:11012  _toString(tokenId) */\n      tag_274\n        /* \"contracts/contracts/ERC721A.sol\":11004:11011  tokenId */\n      dup5\n        /* \"contracts/contracts/ERC721A.sol\":10994:11003  _toString */\n      tag_275\n        /* \"contracts/contracts/ERC721A.sol\":10994:11012  _toString(tokenId) */\n      jump\t// in\n    tag_274:\n        /* \"contracts/contracts/ERC721A.sol\":10968:11013  abi.encodePacked(baseURI, _toString(tokenId)) */\n      add(0x20, mload(0x40))\n      tag_276\n      swap3\n      swap2\n      swap1\n      tag_277\n      jump\t// in\n    tag_276:\n      mload(0x40)\n      0x20\n      dup2\n      dup4\n      sub\n      sub\n      dup2\n      mstore\n      swap1\n      0x40\n      mstore\n        /* \"contracts/contracts/ERC721A.sol\":10932:11019  bytes(baseURI).length != 0 ? string(abi.encodePacked(baseURI, _toString(tokenId))) : '' */\n    tag_273:\n        /* \"contracts/contracts/ERC721A.sol\":10925:11019  return bytes(baseURI).length != 0 ? string(abi.encodePacked(baseURI, _toString(tokenId))) : '' */\n      swap4\n        /* \"contracts/contracts/ERC721A.sol\":10709:11027  function tokenURI(uint256 tokenId) public view virtual override returns (string memory) {... */\n      swap3\n      pop\n      pop\n      pop\n      jump\t// out\n        /* \"contracts/contracts/ERC721A.sol\":17763:17927  function isApprovedForAll(address owner, address operator) public view virtual override returns (bool) {... */\n    tag_139:\n      sub(shl(0xa0, 0x01), 0x01)\n        /* \"contracts/contracts/ERC721A.sol\":17884:17909  _operatorApprovals[owner] */\n      swap2\n      dup3\n      and\n        /* \"contracts/contracts/ERC721A.sol\":17860:17864  bool */\n      0x00\n        /* \"contracts/contracts/ERC721A.sol\":17884:17909  _operatorApprovals[owner] */\n      swap1\n      dup2\n      mstore\n        /* \"contracts/contracts/ERC721A.sol\":17884:17902  _operatorApprovals */\n      0x08\n        /* \"contracts/contracts/ERC721A.sol\":17884:17909  _operatorApprovals[owner] */\n      0x20\n      swap1\n      dup2\n      mstore\n      0x40\n      dup1\n      dup4\n      keccak256\n        /* \"contracts/contracts/ERC721A.sol\":17884:17919  _operatorApprovals[owner][operator] */\n      swap4\n      swap1\n      swap5\n      and\n      dup3\n      mstore\n      swap2\n      swap1\n      swap2\n      mstore\n      keccak256\n      sload\n      0xff\n      and\n      swap1\n        /* \"contracts/contracts/ERC721A.sol\":17763:17927  function isApprovedForAll(address owner, address operator) public view virtual override returns (bool) {... */\n      jump\t// out\n        /* \"contracts/contracts/Ownable.sol\":2148:2349  function transferOwnership(address newOwner) public virtual onlyOwner {... */\n    tag_144:\n        /* \"contracts/contracts/Ownable.sol\":1128:1141  _checkOwner() */\n      tag_280\n        /* \"contracts/contracts/Ownable.sol\":1128:1139  _checkOwner */\n      tag_203\n        /* \"contracts/contracts/Ownable.sol\":1128:1141  _checkOwner() */\n      jump\t// in\n    tag_280:\n      sub(shl(0xa0, 0x01), 0x01)\n        /* \"contracts/contracts/Ownable.sol\":2237:2259  newOwner != address(0) */\n      dup2\n      and\n        /* \"contracts/contracts/Ownable.sol\":2229:2302  require(newOwner != address(0), \"Ownable: new owner is the zero address\") */\n      tag_282\n      jumpi\n      mload(0x40)\n      shl(0xe5, 0x461bcd)\n      dup2\n      mstore\n        /* \"#utility.yul\":10908:10910   */\n      0x20\n        /* \"contracts/contracts/Ownable.sol\":2229:2302  require(newOwner != address(0), \"Ownable: new owner is the zero address\") */\n      0x04\n      dup3\n      add\n        /* \"#utility.yul\":10890:10911   */\n      mstore\n        /* \"#utility.yul\":10947:10949   */\n      0x26\n        /* \"#utility.yul\":10927:10945   */\n      0x24\n      dup3\n      add\n        /* \"#utility.yul\":10920:10950   */\n      mstore\n        /* \"#utility.yul\":10986:11020   */\n      0x4f776e61626c653a206e6577206f776e657220697320746865207a65726f2061\n        /* \"#utility.yul\":10966:10984   */\n      0x44\n      dup3\n      add\n        /* \"#utility.yul\":10959:11021   */\n      mstore\n      shl(0xd0, 0x646472657373)\n        /* \"#utility.yul\":11037:11055   */\n      0x64\n      dup3\n      add\n        /* \"#utility.yul\":11030:11066   */\n      mstore\n        /* \"#utility.yul\":11083:11102   */\n      0x84\n      add\n        /* \"contracts/contracts/Ownable.sol\":2229:2302  require(newOwner != address(0), \"Ownable: new owner is the zero address\") */\n      tag_232\n        /* \"#utility.yul\":10706:11108   */\n      jump\n        /* \"contracts/contracts/Ownable.sol\":2229:2302  require(newOwner != address(0), \"Ownable: new owner is the zero address\") */\n    tag_282:\n        /* \"contracts/contracts/Ownable.sol\":2313:2341  _transferOwnership(newOwner) */\n      tag_255\n        /* \"contracts/contracts/Ownable.sol\":2332:2340  newOwner */\n      dup2\n        /* \"contracts/contracts/Ownable.sol\":2313:2331  _transferOwnership */\n      tag_222\n        /* \"contracts/contracts/Ownable.sol\":2313:2341  _transferOwnership(newOwner) */\n      jump\t// in\n        /* \"contracts/contracts/BatchNFTs.sol\":1684:1826  function pauseMint(bool _paused) external onlyOwner {... */\n    tag_149:\n        /* \"contracts/contracts/Ownable.sol\":1128:1141  _checkOwner() */\n      tag_287\n        /* \"contracts/contracts/Ownable.sol\":1128:1139  _checkOwner */\n      tag_203\n        /* \"contracts/contracts/Ownable.sol\":1128:1141  _checkOwner() */\n      jump\t// in\n    tag_287:\n        /* \"contracts/contracts/BatchNFTs.sol\":1756:1766  mintPaused */\n      and(0xff, sload(0x09))\n        /* \"contracts/contracts/BatchNFTs.sol\":1755:1766  !mintPaused */\n      iszero\n        /* \"contracts/contracts/BatchNFTs.sol\":1747:1787  require(!mintPaused, \"Contract paused.\") */\n      tag_289\n      jumpi\n      mload(0x40)\n      shl(0xe5, 0x461bcd)\n      dup2\n      mstore\n        /* \"#utility.yul\":11315:11317   */\n      0x20\n        /* \"contracts/contracts/BatchNFTs.sol\":1747:1787  require(!mintPaused, \"Contract paused.\") */\n      0x04\n      dup3\n      add\n        /* \"#utility.yul\":11297:11318   */\n      mstore\n        /* \"#utility.yul\":11354:11356   */\n      0x10\n        /* \"#utility.yul\":11334:11352   */\n      0x24\n      dup3\n      add\n        /* \"#utility.yul\":11327:11357   */\n      mstore\n      shl(0x81, 0x21b7b73a3930b1ba103830bab9b2b217)\n        /* \"#utility.yul\":11373:11391   */\n      0x44\n      dup3\n      add\n        /* \"#utility.yul\":11366:11412   */\n      mstore\n        /* \"#utility.yul\":11429:11447   */\n      0x64\n      add\n        /* \"contracts/contracts/BatchNFTs.sol\":1747:1787  require(!mintPaused, \"Contract paused.\") */\n      tag_232\n        /* \"#utility.yul\":11113:11453   */\n      jump\n        /* \"contracts/contracts/BatchNFTs.sol\":1747:1787  require(!mintPaused, \"Contract paused.\") */\n    tag_289:\n        /* \"contracts/contracts/BatchNFTs.sol\":1798:1808  mintPaused */\n      0x09\n        /* \"contracts/contracts/BatchNFTs.sol\":1798:1818  mintPaused = _paused */\n      dup1\n      sload\n      not(0xff)\n      and\n      swap2\n      iszero\n      iszero\n      swap2\n      swap1\n      swap2\n      or\n      swap1\n      sstore\n        /* \"contracts/contracts/BatchNFTs.sol\":1684:1826  function pauseMint(bool _paused) external onlyOwner {... */\n      jump\t// out\n        /* \"contracts/contracts/ERC721A.sol\":18185:18467  function _exists(uint256 tokenId) internal view virtual returns (bool) {... */\n    tag_162:\n        /* \"contracts/contracts/ERC721A.sol\":18250:18254  bool */\n      0x00\n        /* \"contracts/contracts/ERC721A.sol\":18340:18353  _currentIndex */\n      sload(0x01)\n        /* \"contracts/contracts/ERC721A.sol\":18330:18337  tokenId */\n      dup3\n        /* \"contracts/contracts/ERC721A.sol\":18330:18353  tokenId < _currentIndex */\n      lt\n        /* \"contracts/contracts/ERC721A.sol\":18287:18440  _startTokenId() <= tokenId &&... */\n      dup1\n      iszero\n      tag_152\n      jumpi\n      pop\n      pop\n        /* \"contracts/contracts/ERC721A.sol\":18391:18417  _packedOwnerships[tokenId] */\n      0x00\n      swap1\n      dup2\n      mstore\n        /* \"contracts/contracts/ERC721A.sol\":18391:18408  _packedOwnerships */\n      0x05\n        /* \"contracts/contracts/ERC721A.sol\":18391:18417  _packedOwnerships[tokenId] */\n      0x20\n      mstore\n      0x40\n      swap1\n      keccak256\n      sload\n      shl(0xe0, 0x01)\n        /* \"contracts/contracts/ERC721A.sol\":18391:18435  _packedOwnerships[tokenId] & _BITMASK_BURNED */\n      and\n        /* \"contracts/contracts/ERC721A.sol\":18391:18440  _packedOwnerships[tokenId] & _BITMASK_BURNED == 0 */\n      iszero\n      swap1\n        /* \"contracts/contracts/ERC721A.sol\":18185:18467  function _exists(uint256 tokenId) internal view virtual returns (bool) {... */\n      jump\t// out\n        /* \"contracts/contracts/ERC721A.sol\":12871:14146  function _packedOwnershipOf(uint256 tokenId) private view returns (uint256) {... */\n    tag_177:\n        /* \"contracts/contracts/ERC721A.sol\":12938:12945  uint256 */\n      0x00\n        /* \"contracts/contracts/ERC721A.sol\":12973:12980  tokenId */\n      dup2\n        /* \"contracts/contracts/ERC721A.sol\":13075:13088  _currentIndex */\n      sload(0x01)\n        /* \"contracts/contracts/ERC721A.sol\":13068:13072  curr */\n      dup2\n        /* \"contracts/contracts/ERC721A.sol\":13068:13088  curr < _currentIndex */\n      lt\n        /* \"contracts/contracts/ERC721A.sol\":13064:14079  if (curr < _currentIndex) {... */\n      iszero\n      tag_301\n      jumpi\n        /* \"contracts/contracts/ERC721A.sol\":13113:13127  uint256 packed */\n      0x00\n        /* \"contracts/contracts/ERC721A.sol\":13130:13153  _packedOwnerships[curr] */\n      dup2\n      dup2\n      mstore\n        /* \"contracts/contracts/ERC721A.sol\":13130:13147  _packedOwnerships */\n      0x05\n        /* \"contracts/contracts/ERC721A.sol\":13130:13153  _packedOwnerships[curr] */\n      0x20\n      mstore\n      0x40\n      dup2\n      keccak256\n      sload\n      swap1\n      shl(0xe0, 0x01)\n        /* \"contracts/contracts/ERC721A.sol\":13219:13243  packed & _BITMASK_BURNED */\n      dup3\n      and\n        /* \"contracts/contracts/ERC721A.sol\":13219:13248  packed & _BITMASK_BURNED == 0 */\n      swap1\n      sub\n        /* \"contracts/contracts/ERC721A.sol\":13215:14060  if (packed & _BITMASK_BURNED == 0) {... */\n      tag_302\n      jumpi\n        /* \"contracts/contracts/ERC721A.sol\":13884:13997  while (packed == 0) {... */\n    tag_303:\n        /* \"contracts/contracts/ERC721A.sol\":13891:13897  packed */\n      dup1\n        /* \"contracts/contracts/ERC721A.sol\":13901:13902  0 */\n      0x00\n        /* \"contracts/contracts/ERC721A.sol\":13891:13902  packed == 0 */\n      sub\n        /* \"contracts/contracts/ERC721A.sol\":13884:13997  while (packed == 0) {... */\n      tag_273\n      jumpi\n      pop\n      not(0x00)\n        /* \"contracts/contracts/ERC721A.sol\":13962:13968  --curr */\n      add\n        /* \"contracts/contracts/ERC721A.sol\":13944:13969  _packedOwnerships[--curr] */\n      0x00\n      dup2\n      dup2\n      mstore\n        /* \"contracts/contracts/ERC721A.sol\":13944:13961  _packedOwnerships */\n      0x05\n        /* \"contracts/contracts/ERC721A.sol\":13944:13969  _packedOwnerships[--curr] */\n      0x20\n      mstore\n      0x40\n      swap1\n      keccak256\n      sload\n        /* \"contracts/contracts/ERC721A.sol\":13884:13997  while (packed == 0) {... */\n      jump(tag_303)\n        /* \"contracts/contracts/ERC721A.sol\":13215:14060  if (packed & _BITMASK_BURNED == 0) {... */\n    tag_302:\n        /* \"contracts/contracts/ERC721A.sol\":13090:14079  {... */\n      pop\n        /* \"contracts/contracts/ERC721A.sol\":13064:14079  if (curr < _currentIndex) {... */\n    tag_301:\n        /* \"contracts/contracts/ERC721A.sol\":14107:14138  OwnerQueryForNonexistentToken() */\n      mload(0x40)\n      shl(0xe1, 0x6f96cda1)\n      dup2\n      mstore\n      0x04\n      add\n      mload(0x40)\n      dup1\n      swap2\n      sub\n      swap1\n      revert\n        /* \"contracts/contracts/Ownable.sol\":1407:1539  function _checkOwner() internal view virtual {... */\n    tag_203:\n        /* \"contracts/contracts/Ownable.sol\":1288:1295  address */\n      0x00\n        /* \"contracts/contracts/Ownable.sol\":1315:1321  _owner */\n      sload\n      sub(shl(0xa0, 0x01), 0x01)\n      and\n        /* \"contracts/contracts/ERC721A.sol\":40580:40590  msg.sender */\n      caller\n        /* \"contracts/contracts/Ownable.sol\":1471:1494  owner() == _msgSender() */\n      eq\n        /* \"contracts/contracts/Ownable.sol\":1463:1531  require(owner() == _msgSender(), \"Ownable: caller is not the owner\") */\n      tag_221\n      jumpi\n      mload(0x40)\n      shl(0xe5, 0x461bcd)\n      dup2\n      mstore\n        /* \"#utility.yul\":11660:11662   */\n      0x20\n        /* \"contracts/contracts/Ownable.sol\":1463:1531  require(owner() == _msgSender(), \"Ownable: caller is not the owner\") */\n      0x04\n      dup3\n      add\n        /* \"#utility.yul\":11642:11663   */\n      dup2\n      swap1\n      mstore\n        /* \"#utility.yul\":11679:11697   */\n      0x24\n      dup3\n      add\n        /* \"#utility.yul\":11672:11702   */\n      mstore\n        /* \"#utility.yul\":11738:11772   */\n      0x4f776e61626c653a2063616c6c6572206973206e6f7420746865206f776e6572\n        /* \"#utility.yul\":11718:11736   */\n      0x44\n      dup3\n      add\n        /* \"#utility.yul\":11711:11773   */\n      mstore\n        /* \"#utility.yul\":11790:11808   */\n      0x64\n      add\n        /* \"contracts/contracts/Ownable.sol\":1463:1531  require(owner() == _msgSender(), \"Ownable: caller is not the owner\") */\n      tag_232\n        /* \"#utility.yul\":11458:11814   */\n      jump\n        /* \"contracts/contracts/Ownable.sol\":2509:2700  function _transferOwnership(address newOwner) internal virtual {... */\n    tag_222:\n        /* \"contracts/contracts/Ownable.sol\":2583:2599  address oldOwner */\n      0x00\n        /* \"contracts/contracts/Ownable.sol\":2602:2608  _owner */\n      dup1\n      sload\n      sub(shl(0xa0, 0x01), 0x01)\n        /* \"contracts/contracts/Ownable.sol\":2619:2636  _owner = newOwner */\n      dup4\n      dup2\n      and\n      not(sub(shl(0xa0, 0x01), 0x01))\n      dup4\n      and\n      dup2\n      or\n      dup5\n      sstore\n        /* \"contracts/contracts/Ownable.sol\":2652:2692  OwnershipTransferred(oldOwner, newOwner) */\n      mload(0x40)\n        /* \"contracts/contracts/Ownable.sol\":2602:2608  _owner */\n      swap2\n      swap1\n      swap3\n      and\n      swap3\n      dup4\n      swap2\n        /* \"contracts/contracts/Ownable.sol\":2652:2692  OwnershipTransferred(oldOwner, newOwner) */\n      0x8be0079c531659141344cd1fd0a4f28419497f9722a3daafe3b4186f6b6457e0\n      swap2\n        /* \"contracts/contracts/Ownable.sol\":2583:2599  address oldOwner */\n      swap1\n        /* \"contracts/contracts/Ownable.sol\":2652:2692  OwnershipTransferred(oldOwner, newOwner) */\n      log3\n        /* \"contracts/contracts/Ownable.sol\":2572:2700  {... */\n      pop\n        /* \"contracts/contracts/Ownable.sol\":2509:2700  function _transferOwnership(address newOwner) internal virtual {... */\n      pop\n      jump\t// out\n        /* \"contracts/contracts/ERC721A.sol\":34325:34437  function _safeMint(address to, uint256 quantity) internal virtual {... */\n    tag_256:\n        /* \"contracts/contracts/ERC721A.sol\":34402:34429  _safeMint(to, quantity, '') */\n      tag_206\n        /* \"contracts/contracts/ERC721A.sol\":34412:34414  to */\n      dup3\n        /* \"contracts/contracts/ERC721A.sol\":34416:34424  quantity */\n      dup3\n        /* \"contracts/contracts/ERC721A.sol\":34402:34429  _safeMint(to, quantity, '') */\n      mload(0x40)\n      dup1\n      0x20\n      add\n      0x40\n      mstore\n      dup1\n      0x00\n      dup2\n      mstore\n      pop\n        /* \"contracts/contracts/ERC721A.sol\":34402:34411  _safeMint */\n      tag_326\n        /* \"contracts/contracts/ERC721A.sol\":34402:34429  _safeMint(to, quantity, '') */\n      jump\t// in\n        /* \"contracts/contracts/ERC721A.sol\":26656:27372  function _checkContractOnERC721Received(... */\n    tag_265:\n        /* \"contracts/contracts/ERC721A.sol\":26840:26928  ERC721A__IERC721Receiver(to).onERC721Received(_msgSenderERC721A(), from, tokenId, _data) */\n      mload(0x40)\n      shl(0xe1, 0x0a85bd01)\n      dup2\n      mstore\n        /* \"contracts/contracts/ERC721A.sol\":26819:26823  bool */\n      0x00\n      swap1\n      sub(shl(0xa0, 0x01), 0x01)\n        /* \"contracts/contracts/ERC721A.sol\":26840:26885  ERC721A__IERC721Receiver(to).onERC721Received */\n      dup6\n      and\n      swap1\n      0x150b7a02\n      swap1\n        /* \"contracts/contracts/ERC721A.sol\":26840:26928  ERC721A__IERC721Receiver(to).onERC721Received(_msgSenderERC721A(), from, tokenId, _data) */\n      tag_329\n      swap1\n        /* \"contracts/contracts/ERC721A.sol\":40580:40590  msg.sender */\n      caller\n      swap1\n        /* \"contracts/contracts/ERC721A.sol\":26907:26911  from */\n      dup10\n      swap1\n        /* \"contracts/contracts/ERC721A.sol\":26913:26920  tokenId */\n      dup9\n      swap1\n        /* \"contracts/contracts/ERC721A.sol\":26922:26927  _data */\n      dup9\n      swap1\n        /* \"contracts/contracts/ERC721A.sol\":26840:26928  ERC721A__IERC721Receiver(to).onERC721Received(_msgSenderERC721A(), from, tokenId, _data) */\n      0x04\n      add\n      tag_330\n      jump\t// in\n    tag_329:\n      0x20\n      mload(0x40)\n      dup1\n      dup4\n      sub\n      dup2\n      0x00\n      dup8\n      gas\n      call\n      swap3\n      pop\n      pop\n      pop\n      dup1\n      iszero\n      tag_331\n      jumpi\n      pop\n      0x40\n      dup1\n      mload\n      0x1f\n      returndatasize\n      swap1\n      dup2\n      add\n      not(0x1f)\n      and\n      dup3\n      add\n      swap1\n      swap3\n      mstore\n      tag_332\n      swap2\n      dup2\n      add\n      swap1\n      tag_333\n      jump\t// in\n    tag_332:\n      0x01\n    tag_331:\n        /* \"contracts/contracts/ERC721A.sol\":26836:27365  try ERC721A__IERC721Receiver(to).onERC721Received(_msgSenderERC721A(), from, tokenId, _data) returns (... */\n      tag_334\n      jumpi\n      returndatasize\n      dup1\n      dup1\n      iszero\n      tag_339\n      jumpi\n      mload(0x40)\n      swap2\n      pop\n      and(add(returndatasize, 0x3f), not(0x1f))\n      dup3\n      add\n      0x40\n      mstore\n      returndatasize\n      dup3\n      mstore\n      returndatasize\n      0x00\n      0x20\n      dup5\n      add\n      returndatacopy\n      jump(tag_338)\n    tag_339:\n      0x60\n      swap2\n      pop\n    tag_338:\n      pop\n        /* \"contracts/contracts/ERC721A.sol\":27123:27129  reason */\n      dup1\n        /* \"contracts/contracts/ERC721A.sol\":27123:27136  reason.length */\n      mload\n        /* \"contracts/contracts/ERC721A.sol\":27140:27141  0 */\n      0x00\n        /* \"contracts/contracts/ERC721A.sol\":27123:27141  reason.length == 0 */\n      sub\n        /* \"contracts/contracts/ERC721A.sol\":27119:27354  if (reason.length == 0) {... */\n      tag_340\n      jumpi\n        /* \"contracts/contracts/ERC721A.sol\":27169:27209  TransferToNonERC721ReceiverImplementer() */\n      mload(0x40)\n      shl(0xe1, 0x68d2bf6b)\n      dup2\n      mstore\n      0x04\n      add\n      mload(0x40)\n      dup1\n      swap2\n      sub\n      swap1\n      revert\n        /* \"contracts/contracts/ERC721A.sol\":27119:27354  if (reason.length == 0) {... */\n    tag_340:\n        /* \"contracts/contracts/ERC721A.sol\":27312:27318  reason */\n      dup1\n        /* \"contracts/contracts/ERC721A.sol\":27306:27319  mload(reason) */\n      mload\n        /* \"contracts/contracts/ERC721A.sol\":27297:27303  reason */\n      dup2\n        /* \"contracts/contracts/ERC721A.sol\":27293:27295  32 */\n      0x20\n        /* \"contracts/contracts/ERC721A.sol\":27289:27304  add(32, reason) */\n      add\n        /* \"contracts/contracts/ERC721A.sol\":27282:27320  revert(add(32, reason), mload(reason)) */\n      revert\n        /* \"contracts/contracts/ERC721A.sol\":26836:27365  try ERC721A__IERC721Receiver(to).onERC721Received(_msgSenderERC721A(), from, tokenId, _data) returns (... */\n    tag_334:\n      not(sub(shl(0xe0, 0x01), 0x01))\n        /* \"contracts/contracts/ERC721A.sol\":26999:27063  retval == ERC721A__IERC721Receiver(to).onERC721Received.selector */\n      and\n      shl(0xe1, 0x0a85bd01)\n      eq\n      swap1\n      pop\n        /* \"contracts/contracts/ERC721A.sol\":26656:27372  function _checkContractOnERC721Received(... */\n      swap5\n      swap4\n      pop\n      pop\n      pop\n      pop\n      jump\t// out\n        /* \"contracts/contracts/BatchNFTs.sol\":1513:1676  function _baseURI() internal pure override returns (string memory) {... */\n    tag_271:\n        /* \"contracts/contracts/BatchNFTs.sol\":1565:1578  string memory */\n      0x60\n        /* \"contracts/contracts/BatchNFTs.sol\":1591:1668  return \"https://ipfs.io/ipfs/QmPq58FTVaZukiB6q8SXz1cMiMEEPaBswuykTNkfhWuDNz/\" */\n      mload(0x40)\n      dup1\n      0x80\n      add\n      0x40\n      mstore\n      dup1\n      0x44\n      dup2\n      mstore\n      0x20\n      add\n      data_a7eb0451a604c4dc108fec9b71a0e76d6307ea82c680c4246676e81f6657eff4\n      0x44\n      swap2\n      codecopy\n      swap1\n      pop\n        /* \"contracts/contracts/BatchNFTs.sol\":1513:1676  function _baseURI() internal pure override returns (string memory) {... */\n      swap1\n      jump\t// out\n        /* \"contracts/contracts/ERC721A.sol\":40700:42445  function _toString(uint256 value) internal pure virtual returns (string memory str) {... */\n    tag_275:\n        /* \"contracts/contracts/ERC721A.sol\":40765:40782  string memory str */\n      0x60\n        /* \"contracts/contracts/ERC721A.sol\":41199:41203  0xa0 */\n      0xa0\n        /* \"contracts/contracts/ERC721A.sol\":41192:41196  0x40 */\n      0x40\n        /* \"contracts/contracts/ERC721A.sol\":41186:41197  mload(0x40) */\n      mload\n        /* \"contracts/contracts/ERC721A.sol\":41182:41204  add(mload(0x40), 0xa0) */\n      add\n        /* \"contracts/contracts/ERC721A.sol\":41291:41292  m */\n      dup1\n        /* \"contracts/contracts/ERC721A.sol\":41285:41289  0x40 */\n      0x40\n        /* \"contracts/contracts/ERC721A.sol\":41278:41293  mstore(0x40, m) */\n      mstore\n        /* \"contracts/contracts/ERC721A.sol\":41366:41370  0x20 */\n      0x20\n        /* \"contracts/contracts/ERC721A.sol\":41363:41364  m */\n      dup2\n        /* \"contracts/contracts/ERC721A.sol\":41359:41371  sub(m, 0x20) */\n      sub\n        /* \"contracts/contracts/ERC721A.sol\":41352:41371  str := sub(m, 0x20) */\n      swap2\n      pop\n      pop\n        /* \"contracts/contracts/ERC721A.sol\":41448:41449  0 */\n      0x00\n        /* \"contracts/contracts/ERC721A.sol\":41443:41446  str */\n      dup2\n        /* \"contracts/contracts/ERC721A.sol\":41436:41450  mstore(str, 0) */\n      mstore\n        /* \"contracts/contracts/ERC721A.sol\":41552:41555  str */\n      dup1\n        /* \"contracts/contracts/ERC721A.sol\":41791:41796  value */\n      dup3\n        /* \"contracts/contracts/ERC721A.sol\":41773:42201  for { let temp := value } 1 {} {... */\n    tag_345:\n        /* \"contracts/contracts/ERC721A.sol\":41839:41840  1 */\n      0x01\n        /* \"contracts/contracts/ERC721A.sol\":41834:41837  str */\n      dup4\n        /* \"contracts/contracts/ERC721A.sol\":41830:41841  sub(str, 1) */\n      sub\n        /* \"contracts/contracts/ERC721A.sol\":41823:41841  str := sub(str, 1) */\n      swap3\n      pop\n        /* \"contracts/contracts/ERC721A.sol\":42010:42012  10 */\n      0x0a\n        /* \"contracts/contracts/ERC721A.sol\":42004:42008  temp */\n      dup2\n        /* \"contracts/contracts/ERC721A.sol\":42000:42013  mod(temp, 10) */\n      mod\n        /* \"contracts/contracts/ERC721A.sol\":41996:41998  48 */\n      0x30\n        /* \"contracts/contracts/ERC721A.sol\":41992:42014  add(48, mod(temp, 10)) */\n      add\n        /* \"contracts/contracts/ERC721A.sol\":41987:41990  str */\n      dup4\n        /* \"contracts/contracts/ERC721A.sol\":41979:42015  mstore8(str, add(48, mod(temp, 10))) */\n      mstore8\n        /* \"contracts/contracts/ERC721A.sol\":42104:42106  10 */\n      0x0a\n        /* \"contracts/contracts/ERC721A.sol\":42094:42107  div(temp, 10) */\n      swap1\n      div\n        /* \"contracts/contracts/ERC721A.sol\":42161:42186  if iszero(temp) { break } */\n      dup1\n        /* \"contracts/contracts/ERC721A.sol\":41773:42201  for { let temp := value } 1 {} {... */\n      tag_345\n        /* \"contracts/contracts/ERC721A.sol\":42161:42186  if iszero(temp) { break } */\n      jumpi\n      pop\n        /* \"contracts/contracts/ERC721A.sol\":42231:42244  sub(end, str) */\n      dup2\n      swap1\n      sub\n      not(0x1f)\n        /* \"contracts/contracts/ERC721A.sol\":42346:42360  sub(str, 0x20) */\n      swap1\n      swap2\n      add\n        /* \"contracts/contracts/ERC721A.sol\":42408:42427  mstore(str, length) */\n      swap1\n      dup2\n      mstore\n        /* \"contracts/contracts/ERC721A.sol\":42346:42360  sub(str, 0x20) */\n      swap2\n        /* \"contracts/contracts/ERC721A.sol\":40700:42445  function _toString(uint256 value) internal pure virtual returns (string memory str) {... */\n      swap1\n      pop\n      jump\t// out\n        /* \"contracts/contracts/ERC721A.sol\":33552:34241  function _safeMint(... */\n    tag_326:\n        /* \"contracts/contracts/ERC721A.sol\":33683:33702  _mint(to, quantity) */\n      tag_352\n        /* \"contracts/contracts/ERC721A.sol\":33689:33691  to */\n      dup4\n        /* \"contracts/contracts/ERC721A.sol\":33693:33701  quantity */\n      dup4\n        /* \"contracts/contracts/ERC721A.sol\":33683:33688  _mint */\n      tag_353\n        /* \"contracts/contracts/ERC721A.sol\":33683:33702  _mint(to, quantity) */\n      jump\t// in\n    tag_352:\n      sub(shl(0xa0, 0x01), 0x01)\n        /* \"contracts/contracts/ERC721A.sol\":33744:33758  to.code.length */\n      dup4\n      and\n      extcodesize\n        /* \"contracts/contracts/ERC721A.sol\":33744:33763  to.code.length != 0 */\n      iszero\n        /* \"contracts/contracts/ERC721A.sol\":33740:34223  if (to.code.length != 0) {... */\n      tag_208\n      jumpi\n        /* \"contracts/contracts/ERC721A.sol\":33798:33811  _currentIndex */\n      sload(0x01)\n        /* \"contracts/contracts/ERC721A.sol\":33846:33860  end - quantity */\n      dup3\n      dup2\n      sub\n        /* \"contracts/contracts/ERC721A.sol\":33879:34112  do {... */\n    tag_355:\n        /* \"contracts/contracts/ERC721A.sol\":33910:33972  _checkContractOnERC721Received(address(0), to, index++, _data) */\n      tag_358\n        /* \"contracts/contracts/ERC721A.sol\":33949:33950  0 */\n      0x00\n        /* \"contracts/contracts/ERC721A.sol\":33953:33955  to */\n      dup7\n        /* \"contracts/contracts/ERC721A.sol\":33957:33964  index++ */\n      dup4\n      dup1\n      0x01\n      add\n      swap5\n      pop\n        /* \"contracts/contracts/ERC721A.sol\":33966:33971  _data */\n      dup7\n        /* \"contracts/contracts/ERC721A.sol\":33910:33940  _checkContractOnERC721Received */\n      tag_265\n        /* \"contracts/contracts/ERC721A.sol\":33910:33972  _checkContractOnERC721Received(address(0), to, index++, _data) */\n      jump\t// in\n    tag_358:\n        /* \"contracts/contracts/ERC721A.sol\":33905:34072  if (!_checkContractOnERC721Received(address(0), to, index++, _data)) {... */\n      tag_359\n      jumpi\n        /* \"contracts/contracts/ERC721A.sol\":34008:34048  TransferToNonERC721ReceiverImplementer() */\n      mload(0x40)\n      shl(0xe1, 0x68d2bf6b)\n      dup2\n      mstore\n      0x04\n      add\n      mload(0x40)\n      dup1\n      swap2\n      sub\n      swap1\n      revert\n        /* \"contracts/contracts/ERC721A.sol\":33905:34072  if (!_checkContractOnERC721Received(address(0), to, index++, _data)) {... */\n    tag_359:\n        /* \"contracts/contracts/ERC721A.sol\":34107:34110  end */\n      dup2\n        /* \"contracts/contracts/ERC721A.sol\":34099:34104  index */\n      dup2\n        /* \"contracts/contracts/ERC721A.sol\":34099:34110  index < end */\n      lt\n        /* \"contracts/contracts/ERC721A.sol\":33879:34112  do {... */\n      tag_355\n      jumpi\n        /* \"contracts/contracts/ERC721A.sol\":34194:34197  end */\n      dup2\n        /* \"contracts/contracts/ERC721A.sol\":34177:34190  _currentIndex */\n      sload(0x01)\n        /* \"contracts/contracts/ERC721A.sol\":34177:34197  _currentIndex != end */\n      eq\n        /* \"contracts/contracts/ERC721A.sol\":34173:34207  if (_currentIndex != end) revert() */\n      tag_360\n      jumpi\n        /* \"contracts/contracts/ERC721A.sol\":34199:34207  revert() */\n      0x00\n      dup1\n      revert\n        /* \"contracts/contracts/ERC721A.sol\":34173:34207  if (_currentIndex != end) revert() */\n    tag_360:\n        /* \"contracts/contracts/ERC721A.sol\":33765:34223  {... */\n      pop\n      pop\n        /* \"contracts/contracts/ERC721A.sol\":33552:34241  function _safeMint(... */\n      pop\n      pop\n      pop\n      jump\t// out\n        /* \"contracts/contracts/ERC721A.sol\":27834:30800  function _mint(address to, uint256 quantity) internal virtual {... */\n    tag_353:\n        /* \"contracts/contracts/ERC721A.sol\":27930:27943  _currentIndex */\n      sload(0x01)\n        /* \"contracts/contracts/ERC721A.sol\":27907:27927  uint256 startTokenId */\n      0x00\n        /* \"contracts/contracts/ERC721A.sol\":27958:27971  quantity == 0 */\n      dup3\n      swap1\n      sub\n        /* \"contracts/contracts/ERC721A.sol\":27954:27998  if (quantity == 0) revert MintZeroQuantity() */\n      tag_362\n      jumpi\n        /* \"contracts/contracts/ERC721A.sol\":27980:27998  MintZeroQuantity() */\n      mload(0x40)\n      shl(0xe0, 0xb562e8dd)\n      dup2\n      mstore\n      0x04\n      add\n      mload(0x40)\n      dup1\n      swap2\n      sub\n      swap1\n      revert\n        /* \"contracts/contracts/ERC721A.sol\":27954:27998  if (quantity == 0) revert MintZeroQuantity() */\n    tag_362:\n      sub(shl(0xa0, 0x01), 0x01)\n        /* \"contracts/contracts/ERC721A.sol\":28486:28508  _packedAddressData[to] */\n      dup4\n      and\n      0x00\n      dup2\n      dup2\n      mstore\n        /* \"contracts/contracts/ERC721A.sol\":28486:28504  _packedAddressData */\n      0x06\n        /* \"contracts/contracts/ERC721A.sol\":28486:28508  _packedAddressData[to] */\n      0x20\n      swap1\n      dup2\n      mstore\n        /* \"contracts/contracts/ERC721A.sol\":1555:1557  64 */\n      0x40\n        /* \"contracts/contracts/ERC721A.sol\":28486:28508  _packedAddressData[to] */\n      dup1\n      dup4\n      keccak256\n        /* \"contracts/contracts/ERC721A.sol\":28486:28557  _packedAddressData[to] += quantity * ((1 << _BITPOS_NUMBER_MINTED) | 1) */\n      dup1\n      sload\n        /* \"contracts/contracts/ERC721A.sol\":28524:28556  (1 << _BITPOS_NUMBER_MINTED) | 1 */\n      0x010000000000000001\n        /* \"contracts/contracts/ERC721A.sol\":28512:28557  quantity * ((1 << _BITPOS_NUMBER_MINTED) | 1) */\n      dup9\n      mul\n        /* \"contracts/contracts/ERC721A.sol\":28486:28557  _packedAddressData[to] += quantity * ((1 << _BITPOS_NUMBER_MINTED) | 1) */\n      add\n      swap1\n      sstore\n        /* \"contracts/contracts/ERC721A.sol\":28800:28831  _packedOwnerships[startTokenId] */\n      dup5\n      dup4\n      mstore\n        /* \"contracts/contracts/ERC721A.sol\":28800:28817  _packedOwnerships */\n      0x05\n        /* \"contracts/contracts/ERC721A.sol\":28800:28831  _packedOwnerships[startTokenId] */\n      swap1\n      swap2\n      mstore\n      dup2\n      keccak256\n      0x01\n        /* \"contracts/contracts/ERC721A.sol\":15536:15551  eq(quantity, 1) */\n      dup6\n      eq\n        /* \"contracts/contracts/ERC721A.sol\":15510:15534  _BITPOS_NEXT_INITIALIZED */\n      0xe1\n        /* \"contracts/contracts/ERC721A.sol\":15506:15552  shl(_BITPOS_NEXT_INITIALIZED, eq(quantity, 1)) */\n      shl\n        /* \"contracts/contracts/ERC721A.sol\":15105:15116  timestamp() */\n      timestamp\n        /* \"contracts/contracts/ERC721A.sol\":15080:15103  _BITPOS_START_TIMESTAMP */\n      0xa0\n        /* \"contracts/contracts/ERC721A.sol\":15076:15117  shl(_BITPOS_START_TIMESTAMP, timestamp()) */\n      shl\n        /* \"contracts/contracts/ERC721A.sol\":15073:15125  or(shl(_BITPOS_START_TIMESTAMP, timestamp()), flags) */\n      or\n        /* \"contracts/contracts/ERC721A.sol\":15063:15126  or(owner, or(shl(_BITPOS_START_TIMESTAMP, timestamp()), flags)) */\n      dup4\n      or\n        /* \"contracts/contracts/ERC721A.sol\":28800:28973  _packedOwnerships[startTokenId] = _packOwnershipData(... */\n      swap1\n      sstore\n        /* \"contracts/contracts/ERC721A.sol\":29035:29058  startTokenId + quantity */\n      dup3\n      dup5\n      add\n      swap1\n        /* \"contracts/contracts/ERC721A.sol\":28800:28831  _packedOwnerships[startTokenId] */\n      dup4\n      swap1\n        /* \"contracts/contracts/ERC721A.sol\":28486:28508  _packedAddressData[to] */\n      dup4\n      swap1\n        /* \"contracts/contracts/ERC721A.sol\":29800:29825  _TRANSFER_EVENT_SIGNATURE */\n      0xddf252ad1be2c89b69c2b068fc378daa952ba7f163c4a11628f55a4df523b3ef\n        /* \"contracts/contracts/ERC721A.sol\":28486:28508  _packedAddressData[to] */\n      dup2\n      dup1\n        /* \"contracts/contracts/ERC721A.sol\":29653:29988  log4(... */\n      log4\n        /* \"contracts/contracts/ERC721A.sol\":30314:30315  1 */\n      0x01\n        /* \"contracts/contracts/ERC721A.sol\":30300:30312  startTokenId */\n      dup4\n        /* \"contracts/contracts/ERC721A.sol\":30296:30316  add(startTokenId, 1) */\n      add\n        /* \"contracts/contracts/ERC721A.sol\":30254:30600  for {... */\n    tag_368:\n        /* \"contracts/contracts/ERC721A.sol\":30355:30358  end */\n      dup2\n        /* \"contracts/contracts/ERC721A.sol\":30346:30353  tokenId */\n      dup2\n        /* \"contracts/contracts/ERC721A.sol\":30343:30359  eq(tokenId, end) */\n      eq\n        /* \"contracts/contracts/ERC721A.sol\":30254:30600  for {... */\n      tag_370\n      jumpi\n        /* \"contracts/contracts/ERC721A.sol\":30573:30580  tokenId */\n      dup1\n        /* \"contracts/contracts/ERC721A.sol\":30563:30571  toMasked */\n      dup4\n        /* \"contracts/contracts/ERC721A.sol\":30560:30561  0 */\n      0x00\n        /* \"contracts/contracts/ERC721A.sol\":30533:30558  _TRANSFER_EVENT_SIGNATURE */\n      0xddf252ad1be2c89b69c2b068fc378daa952ba7f163c4a11628f55a4df523b3ef\n        /* \"contracts/contracts/ERC721A.sol\":30530:30531  0 */\n      0x00\n        /* \"contracts/contracts/ERC721A.sol\":30527:30528  0 */\n      dup1\n        /* \"contracts/contracts/ERC721A.sol\":30522:30581  log4(0, 0, _TRANSFER_EVENT_SIGNATURE, 0, toMasked, tokenId) */\n      log4\n        /* \"contracts/contracts/ERC721A.sol\":30408:30409  1 */\n      0x01\n        /* \"contracts/contracts/ERC721A.sol\":30395:30410  add(tokenId, 1) */\n      add\n        /* \"contracts/contracts/ERC721A.sol\":30254:30600  for {... */\n      jump(tag_368)\n    tag_370:\n        /* \"contracts/contracts/ERC721A.sol\":30258:30335  {... */\n      pop\n        /* \"contracts/contracts/ERC721A.sol\":30633:30641  toMasked */\n      dup2\n        /* \"contracts/contracts/ERC721A.sol\":30645:30646  0 */\n      0x00\n        /* \"contracts/contracts/ERC721A.sol\":30633:30646  toMasked == 0 */\n      sub\n        /* \"contracts/contracts/ERC721A.sol\":30629:30674  if (toMasked == 0) revert MintToZeroAddress() */\n      tag_371\n      jumpi\n        /* \"contracts/contracts/ERC721A.sol\":30655:30674  MintToZeroAddress() */\n      mload(0x40)\n      shl(0xe8, 0x2e0763)\n      dup2\n      mstore\n      0x04\n      add\n      mload(0x40)\n      dup1\n      swap2\n      sub\n      swap1\n      revert\n        /* \"contracts/contracts/ERC721A.sol\":30629:30674  if (toMasked == 0) revert MintToZeroAddress() */\n    tag_371:\n        /* \"contracts/contracts/ERC721A.sol\":30691:30704  _currentIndex */\n      0x01\n        /* \"contracts/contracts/ERC721A.sol\":30691:30710  _currentIndex = end */\n      sstore\n      pop\n        /* \"contracts/contracts/ERC721A.sol\":23374:23567  function safeTransferFrom(... */\n      pop\n      pop\n      pop\n      jump\t// out\n        /* \"#utility.yul\":14:145   */\n    tag_374:\n      not(sub(shl(0xe0, 0x01), 0x01))\n        /* \"#utility.yul\":88:120   */\n      dup2\n      and\n        /* \"#utility.yul\":78:121   */\n      dup2\n      eq\n        /* \"#utility.yul\":68:139   */\n      tag_255\n      jumpi\n        /* \"#utility.yul\":135:136   */\n      0x00\n        /* \"#utility.yul\":132:133   */\n      dup1\n        /* \"#utility.yul\":125:137   */\n      revert\n        /* \"#utility.yul\":150:395   */\n    tag_36:\n        /* \"#utility.yul\":208:214   */\n      0x00\n        /* \"#utility.yul\":261:263   */\n      0x20\n        /* \"#utility.yul\":249:258   */\n      dup3\n        /* \"#utility.yul\":240:247   */\n      dup5\n        /* \"#utility.yul\":236:259   */\n      sub\n        /* \"#utility.yul\":232:264   */\n      slt\n        /* \"#utility.yul\":229:281   */\n      iszero\n      tag_388\n      jumpi\n        /* \"#utility.yul\":277:278   */\n      0x00\n        /* \"#utility.yul\":274:275   */\n      dup1\n        /* \"#utility.yul\":267:279   */\n      revert\n        /* \"#utility.yul\":229:281   */\n    tag_388:\n        /* \"#utility.yul\":316:325   */\n      dup2\n        /* \"#utility.yul\":303:326   */\n      calldataload\n        /* \"#utility.yul\":335:365   */\n      tag_273\n        /* \"#utility.yul\":359:364   */\n      dup2\n        /* \"#utility.yul\":335:365   */\n      tag_374\n      jump\t// in\n        /* \"#utility.yul\":592:842   */\n    tag_375:\n        /* \"#utility.yul\":677:678   */\n      0x00\n        /* \"#utility.yul\":687:800   */\n    tag_392:\n        /* \"#utility.yul\":701:707   */\n      dup4\n        /* \"#utility.yul\":698:699   */\n      dup2\n        /* \"#utility.yul\":695:708   */\n      lt\n        /* \"#utility.yul\":687:800   */\n      iszero\n      tag_394\n      jumpi\n        /* \"#utility.yul\":777:788   */\n      dup2\n      dup2\n      add\n        /* \"#utility.yul\":771:789   */\n      mload\n        /* \"#utility.yul\":758:769   */\n      dup4\n      dup3\n      add\n        /* \"#utility.yul\":751:790   */\n      mstore\n        /* \"#utility.yul\":723:725   */\n      0x20\n        /* \"#utility.yul\":716:726   */\n      add\n        /* \"#utility.yul\":687:800   */\n      jump(tag_392)\n    tag_394:\n      pop\n      pop\n        /* \"#utility.yul\":834:835   */\n      0x00\n        /* \"#utility.yul\":816:832   */\n      swap2\n      add\n        /* \"#utility.yul\":809:836   */\n      mstore\n        /* \"#utility.yul\":592:842   */\n      jump\t// out\n        /* \"#utility.yul\":847:1118   */\n    tag_376:\n        /* \"#utility.yul\":889:892   */\n      0x00\n        /* \"#utility.yul\":927:932   */\n      dup2\n        /* \"#utility.yul\":921:933   */\n      mload\n        /* \"#utility.yul\":954:960   */\n      dup1\n        /* \"#utility.yul\":949:952   */\n      dup5\n        /* \"#utility.yul\":942:961   */\n      mstore\n        /* \"#utility.yul\":970:1046   */\n      tag_396\n        /* \"#utility.yul\":1039:1045   */\n      dup2\n        /* \"#utility.yul\":1032:1036   */\n      0x20\n        /* \"#utility.yul\":1027:1030   */\n      dup7\n        /* \"#utility.yul\":1023:1037   */\n      add\n        /* \"#utility.yul\":1016:1020   */\n      0x20\n        /* \"#utility.yul\":1009:1014   */\n      dup7\n        /* \"#utility.yul\":1005:1021   */\n      add\n        /* \"#utility.yul\":970:1046   */\n      tag_375\n      jump\t// in\n    tag_396:\n        /* \"#utility.yul\":1100:1102   */\n      0x1f\n        /* \"#utility.yul\":1079:1094   */\n      add\n      not(0x1f)\n        /* \"#utility.yul\":1075:1104   */\n      and\n        /* \"#utility.yul\":1066:1105   */\n      swap3\n      swap1\n      swap3\n      add\n        /* \"#utility.yul\":1107:1111   */\n      0x20\n        /* \"#utility.yul\":1062:1112   */\n      add\n      swap3\n        /* \"#utility.yul\":847:1118   */\n      swap2\n      pop\n      pop\n      jump\t// out\n        /* \"#utility.yul\":1123:1343   */\n    tag_44:\n        /* \"#utility.yul\":1272:1274   */\n      0x20\n        /* \"#utility.yul\":1261:1270   */\n      dup2\n        /* \"#utility.yul\":1254:1275   */\n      mstore\n        /* \"#utility.yul\":1235:1239   */\n      0x00\n        /* \"#utility.yul\":1292:1337   */\n      tag_273\n        /* \"#utility.yul\":1333:1335   */\n      0x20\n        /* \"#utility.yul\":1322:1331   */\n      dup4\n        /* \"#utility.yul\":1318:1336   */\n      add\n        /* \"#utility.yul\":1310:1316   */\n      dup5\n        /* \"#utility.yul\":1292:1337   */\n      tag_376\n      jump\t// in\n        /* \"#utility.yul\":1348:1528   */\n    tag_48:\n        /* \"#utility.yul\":1407:1413   */\n      0x00\n        /* \"#utility.yul\":1460:1462   */\n      0x20\n        /* \"#utility.yul\":1448:1457   */\n      dup3\n        /* \"#utility.yul\":1439:1446   */\n      dup5\n        /* \"#utility.yul\":1435:1458   */\n      sub\n        /* \"#utility.yul\":1431:1463   */\n      slt\n        /* \"#utility.yul\":1428:1480   */\n      iszero\n      tag_400\n      jumpi\n        /* \"#utility.yul\":1476:1477   */\n      0x00\n        /* \"#utility.yul\":1473:1474   */\n      dup1\n        /* \"#utility.yul\":1466:1478   */\n      revert\n        /* \"#utility.yul\":1428:1480   */\n    tag_400:\n      pop\n        /* \"#utility.yul\":1499:1522   */\n      calldataload\n      swap2\n        /* \"#utility.yul\":1348:1528   */\n      swap1\n      pop\n      jump\t// out\n        /* \"#utility.yul\":1741:1914   */\n    tag_377:\n        /* \"#utility.yul\":1809:1829   */\n      dup1\n      calldataload\n      sub(shl(0xa0, 0x01), 0x01)\n        /* \"#utility.yul\":1858:1889   */\n      dup2\n      and\n        /* \"#utility.yul\":1848:1890   */\n      dup2\n      eq\n        /* \"#utility.yul\":1838:1908   */\n      tag_403\n      jumpi\n        /* \"#utility.yul\":1904:1905   */\n      0x00\n        /* \"#utility.yul\":1901:1902   */\n      dup1\n        /* \"#utility.yul\":1894:1906   */\n      revert\n        /* \"#utility.yul\":1838:1908   */\n    tag_403:\n        /* \"#utility.yul\":1741:1914   */\n      swap2\n      swap1\n      pop\n      jump\t// out\n        /* \"#utility.yul\":1919:2173   */\n    tag_54:\n        /* \"#utility.yul\":1987:1993   */\n      0x00\n        /* \"#utility.yul\":1995:2001   */\n      dup1\n        /* \"#utility.yul\":2048:2050   */\n      0x40\n        /* \"#utility.yul\":2036:2045   */\n      dup4\n        /* \"#utility.yul\":2027:2034   */\n      dup6\n        /* \"#utility.yul\":2023:2046   */\n      sub\n        /* \"#utility.yul\":2019:2051   */\n      slt\n        /* \"#utility.yul\":2016:2068   */\n      iszero\n      tag_405\n      jumpi\n        /* \"#utility.yul\":2064:2065   */\n      0x00\n        /* \"#utility.yul\":2061:2062   */\n      dup1\n        /* \"#utility.yul\":2054:2066   */\n      revert\n        /* \"#utility.yul\":2016:2068   */\n    tag_405:\n        /* \"#utility.yul\":2087:2116   */\n      tag_406\n        /* \"#utility.yul\":2106:2115   */\n      dup4\n        /* \"#utility.yul\":2087:2116   */\n      tag_377\n      jump\t// in\n    tag_406:\n        /* \"#utility.yul\":2077:2116   */\n      swap5\n        /* \"#utility.yul\":2163:2165   */\n      0x20\n        /* \"#utility.yul\":2148:2166   */\n      swap4\n      swap1\n      swap4\n      add\n        /* \"#utility.yul\":2135:2167   */\n      calldataload\n      swap4\n      pop\n      pop\n      pop\n        /* \"#utility.yul\":1919:2173   */\n      jump\t// out\n        /* \"#utility.yul\":2360:2688   */\n    tag_63:\n        /* \"#utility.yul\":2437:2443   */\n      0x00\n        /* \"#utility.yul\":2445:2451   */\n      dup1\n        /* \"#utility.yul\":2453:2459   */\n      0x00\n        /* \"#utility.yul\":2506:2508   */\n      0x60\n        /* \"#utility.yul\":2494:2503   */\n      dup5\n        /* \"#utility.yul\":2485:2492   */\n      dup7\n        /* \"#utility.yul\":2481:2504   */\n      sub\n        /* \"#utility.yul\":2477:2509   */\n      slt\n        /* \"#utility.yul\":2474:2526   */\n      iszero\n      tag_409\n      jumpi\n        /* \"#utility.yul\":2522:2523   */\n      0x00\n        /* \"#utility.yul\":2519:2520   */\n      dup1\n        /* \"#utility.yul\":2512:2524   */\n      revert\n        /* \"#utility.yul\":2474:2526   */\n    tag_409:\n        /* \"#utility.yul\":2545:2574   */\n      tag_410\n        /* \"#utility.yul\":2564:2573   */\n      dup5\n        /* \"#utility.yul\":2545:2574   */\n      tag_377\n      jump\t// in\n    tag_410:\n        /* \"#utility.yul\":2535:2574   */\n      swap3\n      pop\n        /* \"#utility.yul\":2593:2631   */\n      tag_411\n        /* \"#utility.yul\":2627:2629   */\n      0x20\n        /* \"#utility.yul\":2616:2625   */\n      dup6\n        /* \"#utility.yul\":2612:2630   */\n      add\n        /* \"#utility.yul\":2593:2631   */\n      tag_377\n      jump\t// in\n    tag_411:\n        /* \"#utility.yul\":2583:2631   */\n      swap2\n      pop\n        /* \"#utility.yul\":2678:2680   */\n      0x40\n        /* \"#utility.yul\":2667:2676   */\n      dup5\n        /* \"#utility.yul\":2663:2681   */\n      add\n        /* \"#utility.yul\":2650:2682   */\n      calldataload\n        /* \"#utility.yul\":2640:2682   */\n      swap1\n      pop\n        /* \"#utility.yul\":2360:2688   */\n      swap3\n      pop\n      swap3\n      pop\n      swap3\n      jump\t// out\n        /* \"#utility.yul\":2693:3285   */\n    tag_78:\n        /* \"#utility.yul\":2764:2770   */\n      0x00\n        /* \"#utility.yul\":2772:2778   */\n      dup1\n        /* \"#utility.yul\":2825:2827   */\n      0x20\n        /* \"#utility.yul\":2813:2822   */\n      dup4\n        /* \"#utility.yul\":2804:2811   */\n      dup6\n        /* \"#utility.yul\":2800:2823   */\n      sub\n        /* \"#utility.yul\":2796:2828   */\n      slt\n        /* \"#utility.yul\":2793:2845   */\n      iszero\n      tag_413\n      jumpi\n        /* \"#utility.yul\":2841:2842   */\n      0x00\n        /* \"#utility.yul\":2838:2839   */\n      dup1\n        /* \"#utility.yul\":2831:2843   */\n      revert\n        /* \"#utility.yul\":2793:2845   */\n    tag_413:\n        /* \"#utility.yul\":2881:2890   */\n      dup3\n        /* \"#utility.yul\":2868:2891   */\n      calldataload\n        /* \"#utility.yul\":2910:2928   */\n      0xffffffffffffffff\n        /* \"#utility.yul\":2951:2953   */\n      dup1\n        /* \"#utility.yul\":2943:2949   */\n      dup3\n        /* \"#utility.yul\":2940:2954   */\n      gt\n        /* \"#utility.yul\":2937:2971   */\n      iszero\n      tag_414\n      jumpi\n        /* \"#utility.yul\":2967:2968   */\n      0x00\n        /* \"#utility.yul\":2964:2965   */\n      dup1\n        /* \"#utility.yul\":2957:2969   */\n      revert\n        /* \"#utility.yul\":2937:2971   */\n    tag_414:\n        /* \"#utility.yul\":3005:3011   */\n      dup2\n        /* \"#utility.yul\":2994:3003   */\n      dup6\n        /* \"#utility.yul\":2990:3012   */\n      add\n        /* \"#utility.yul\":2980:3012   */\n      swap2\n      pop\n        /* \"#utility.yul\":3050:3057   */\n      dup6\n        /* \"#utility.yul\":3043:3047   */\n      0x1f\n        /* \"#utility.yul\":3039:3041   */\n      dup4\n        /* \"#utility.yul\":3035:3048   */\n      add\n        /* \"#utility.yul\":3031:3058   */\n      slt\n        /* \"#utility.yul\":3021:3076   */\n      tag_415\n      jumpi\n        /* \"#utility.yul\":3072:3073   */\n      0x00\n        /* \"#utility.yul\":3069:3070   */\n      dup1\n        /* \"#utility.yul\":3062:3074   */\n      revert\n        /* \"#utility.yul\":3021:3076   */\n    tag_415:\n        /* \"#utility.yul\":3112:3114   */\n      dup2\n        /* \"#utility.yul\":3099:3115   */\n      calldataload\n        /* \"#utility.yul\":3138:3140   */\n      dup2\n        /* \"#utility.yul\":3130:3136   */\n      dup2\n        /* \"#utility.yul\":3127:3141   */\n      gt\n        /* \"#utility.yul\":3124:3158   */\n      iszero\n      tag_416\n      jumpi\n        /* \"#utility.yul\":3154:3155   */\n      0x00\n        /* \"#utility.yul\":3151:3152   */\n      dup1\n        /* \"#utility.yul\":3144:3156   */\n      revert\n        /* \"#utility.yul\":3124:3158   */\n    tag_416:\n        /* \"#utility.yul\":3199:3206   */\n      dup7\n        /* \"#utility.yul\":3194:3196   */\n      0x20\n        /* \"#utility.yul\":3185:3191   */\n      dup3\n        /* \"#utility.yul\":3181:3183   */\n      dup6\n        /* \"#utility.yul\":3177:3192   */\n      add\n        /* \"#utility.yul\":3173:3197   */\n      add\n        /* \"#utility.yul\":3170:3207   */\n      gt\n        /* \"#utility.yul\":3167:3224   */\n      iszero\n      tag_417\n      jumpi\n        /* \"#utility.yul\":3220:3221   */\n      0x00\n        /* \"#utility.yul\":3217:3218   */\n      dup1\n        /* \"#utility.yul\":3210:3222   */\n      revert\n        /* \"#utility.yul\":3167:3224   */\n    tag_417:\n        /* \"#utility.yul\":3251:3253   */\n      0x20\n        /* \"#utility.yul\":3243:3254   */\n      swap3\n      swap1\n      swap3\n      add\n      swap7\n        /* \"#utility.yul\":3273:3279   */\n      swap2\n      swap6\n      pop\n        /* \"#utility.yul\":2693:3285   */\n      swap1\n      swap4\n      pop\n      pop\n      pop\n      pop\n      jump\t// out\n        /* \"#utility.yul\":3290:3476   */\n    tag_92:\n        /* \"#utility.yul\":3349:3355   */\n      0x00\n        /* \"#utility.yul\":3402:3404   */\n      0x20\n        /* \"#utility.yul\":3390:3399   */\n      dup3\n        /* \"#utility.yul\":3381:3388   */\n      dup5\n        /* \"#utility.yul\":3377:3400   */\n      sub\n        /* \"#utility.yul\":3373:3405   */\n      slt\n        /* \"#utility.yul\":3370:3422   */\n      iszero\n      tag_419\n      jumpi\n        /* \"#utility.yul\":3418:3419   */\n      0x00\n        /* \"#utility.yul\":3415:3416   */\n      dup1\n        /* \"#utility.yul\":3408:3420   */\n      revert\n        /* \"#utility.yul\":3370:3422   */\n    tag_419:\n        /* \"#utility.yul\":3441:3470   */\n      tag_273\n        /* \"#utility.yul\":3460:3469   */\n      dup3\n        /* \"#utility.yul\":3441:3470   */\n      tag_377\n      jump\t// in\n        /* \"#utility.yul\":3481:3641   */\n    tag_378:\n        /* \"#utility.yul\":3546:3566   */\n      dup1\n      calldataload\n        /* \"#utility.yul\":3602:3615   */\n      dup1\n      iszero\n        /* \"#utility.yul\":3595:3616   */\n      iszero\n        /* \"#utility.yul\":3585:3617   */\n      dup2\n      eq\n        /* \"#utility.yul\":3575:3635   */\n      tag_403\n      jumpi\n        /* \"#utility.yul\":3631:3632   */\n      0x00\n        /* \"#utility.yul\":3628:3629   */\n      dup1\n        /* \"#utility.yul\":3621:3633   */\n      revert\n        /* \"#utility.yul\":3646:3900   */\n    tag_120:\n        /* \"#utility.yul\":3711:3717   */\n      0x00\n        /* \"#utility.yul\":3719:3725   */\n      dup1\n        /* \"#utility.yul\":3772:3774   */\n      0x40\n        /* \"#utility.yul\":3760:3769   */\n      dup4\n        /* \"#utility.yul\":3751:3758   */\n      dup6\n        /* \"#utility.yul\":3747:3770   */\n      sub\n        /* \"#utility.yul\":3743:3775   */\n      slt\n        /* \"#utility.yul\":3740:3792   */\n      iszero\n      tag_424\n      jumpi\n        /* \"#utility.yul\":3788:3789   */\n      0x00\n        /* \"#utility.yul\":3785:3786   */\n      dup1\n        /* \"#utility.yul\":3778:3790   */\n      revert\n        /* \"#utility.yul\":3740:3792   */\n    tag_424:\n        /* \"#utility.yul\":3811:3840   */\n      tag_425\n        /* \"#utility.yul\":3830:3839   */\n      dup4\n        /* \"#utility.yul\":3811:3840   */\n      tag_377\n      jump\t// in\n    tag_425:\n        /* \"#utility.yul\":3801:3840   */\n      swap2\n      pop\n        /* \"#utility.yul\":3859:3894   */\n      tag_426\n        /* \"#utility.yul\":3890:3892   */\n      0x20\n        /* \"#utility.yul\":3879:3888   */\n      dup5\n        /* \"#utility.yul\":3875:3893   */\n      add\n        /* \"#utility.yul\":3859:3894   */\n      tag_378\n      jump\t// in\n    tag_426:\n        /* \"#utility.yul\":3849:3894   */\n      swap1\n      pop\n        /* \"#utility.yul\":3646:3900   */\n      swap3\n      pop\n      swap3\n      swap1\n      pop\n      jump\t// out\n        /* \"#utility.yul\":3905:4032   */\n    tag_379:\n        /* \"#utility.yul\":3966:3976   */\n      0x4e487b71\n        /* \"#utility.yul\":3961:3964   */\n      0xe0\n        /* \"#utility.yul\":3957:3977   */\n      shl\n        /* \"#utility.yul\":3954:3955   */\n      0x00\n        /* \"#utility.yul\":3947:3978   */\n      mstore\n        /* \"#utility.yul\":3997:4001   */\n      0x41\n        /* \"#utility.yul\":3994:3995   */\n      0x04\n        /* \"#utility.yul\":3987:4002   */\n      mstore\n        /* \"#utility.yul\":4021:4025   */\n      0x24\n        /* \"#utility.yul\":4018:4019   */\n      0x00\n        /* \"#utility.yul\":4011:4026   */\n      revert\n        /* \"#utility.yul\":4037:5175   */\n    tag_124:\n        /* \"#utility.yul\":4132:4138   */\n      0x00\n        /* \"#utility.yul\":4140:4146   */\n      dup1\n        /* \"#utility.yul\":4148:4154   */\n      0x00\n        /* \"#utility.yul\":4156:4162   */\n      dup1\n        /* \"#utility.yul\":4209:4212   */\n      0x80\n        /* \"#utility.yul\":4197:4206   */\n      dup6\n        /* \"#utility.yul\":4188:4195   */\n      dup8\n        /* \"#utility.yul\":4184:4207   */\n      sub\n        /* \"#utility.yul\":4180:4213   */\n      slt\n        /* \"#utility.yul\":4177:4230   */\n      iszero\n      tag_429\n      jumpi\n        /* \"#utility.yul\":4226:4227   */\n      0x00\n        /* \"#utility.yul\":4223:4224   */\n      dup1\n        /* \"#utility.yul\":4216:4228   */\n      revert\n        /* \"#utility.yul\":4177:4230   */\n    tag_429:\n        /* \"#utility.yul\":4249:4278   */\n      tag_430\n        /* \"#utility.yul\":4268:4277   */\n      dup6\n        /* \"#utility.yul\":4249:4278   */\n      tag_377\n      jump\t// in\n    tag_430:\n        /* \"#utility.yul\":4239:4278   */\n      swap4\n      pop\n        /* \"#utility.yul\":4297:4335   */\n      tag_431\n        /* \"#utility.yul\":4331:4333   */\n      0x20\n        /* \"#utility.yul\":4320:4329   */\n      dup7\n        /* \"#utility.yul\":4316:4334   */\n      add\n        /* \"#utility.yul\":4297:4335   */\n      tag_377\n      jump\t// in\n    tag_431:\n        /* \"#utility.yul\":4287:4335   */\n      swap3\n      pop\n        /* \"#utility.yul\":4382:4384   */\n      0x40\n        /* \"#utility.yul\":4371:4380   */\n      dup6\n        /* \"#utility.yul\":4367:4385   */\n      add\n        /* \"#utility.yul\":4354:4386   */\n      calldataload\n        /* \"#utility.yul\":4344:4386   */\n      swap2\n      pop\n        /* \"#utility.yul\":4437:4439   */\n      0x60\n        /* \"#utility.yul\":4426:4435   */\n      dup6\n        /* \"#utility.yul\":4422:4440   */\n      add\n        /* \"#utility.yul\":4409:4441   */\n      calldataload\n        /* \"#utility.yul\":4460:4478   */\n      0xffffffffffffffff\n        /* \"#utility.yul\":4501:4503   */\n      dup1\n        /* \"#utility.yul\":4493:4499   */\n      dup3\n        /* \"#utility.yul\":4490:4504   */\n      gt\n        /* \"#utility.yul\":4487:4521   */\n      iszero\n      tag_432\n      jumpi\n        /* \"#utility.yul\":4517:4518   */\n      0x00\n        /* \"#utility.yul\":4514:4515   */\n      dup1\n        /* \"#utility.yul\":4507:4519   */\n      revert\n        /* \"#utility.yul\":4487:4521   */\n    tag_432:\n        /* \"#utility.yul\":4555:4561   */\n      dup2\n        /* \"#utility.yul\":4544:4553   */\n      dup8\n        /* \"#utility.yul\":4540:4562   */\n      add\n        /* \"#utility.yul\":4530:4562   */\n      swap2\n      pop\n        /* \"#utility.yul\":4600:4607   */\n      dup8\n        /* \"#utility.yul\":4593:4597   */\n      0x1f\n        /* \"#utility.yul\":4589:4591   */\n      dup4\n        /* \"#utility.yul\":4585:4598   */\n      add\n        /* \"#utility.yul\":4581:4608   */\n      slt\n        /* \"#utility.yul\":4571:4626   */\n      tag_433\n      jumpi\n        /* \"#utility.yul\":4622:4623   */\n      0x00\n        /* \"#utility.yul\":4619:4620   */\n      dup1\n        /* \"#utility.yul\":4612:4624   */\n      revert\n        /* \"#utility.yul\":4571:4626   */\n    tag_433:\n        /* \"#utility.yul\":4658:4660   */\n      dup2\n        /* \"#utility.yul\":4645:4661   */\n      calldataload\n        /* \"#utility.yul\":4680:4682   */\n      dup2\n        /* \"#utility.yul\":4676:4678   */\n      dup2\n        /* \"#utility.yul\":4673:4683   */\n      gt\n        /* \"#utility.yul\":4670:4706   */\n      iszero\n      tag_435\n      jumpi\n        /* \"#utility.yul\":4686:4704   */\n      tag_435\n      tag_379\n      jump\t// in\n    tag_435:\n        /* \"#utility.yul\":4761:4763   */\n      0x40\n        /* \"#utility.yul\":4755:4764   */\n      mload\n        /* \"#utility.yul\":4729:4731   */\n      0x1f\n        /* \"#utility.yul\":4815:4828   */\n      dup3\n      add\n      not(0x1f)\n        /* \"#utility.yul\":4811:4833   */\n      swap1\n      dup2\n      and\n        /* \"#utility.yul\":4835:4837   */\n      0x3f\n        /* \"#utility.yul\":4807:4838   */\n      add\n        /* \"#utility.yul\":4803:4843   */\n      and\n        /* \"#utility.yul\":4791:4844   */\n      dup2\n      add\n      swap1\n        /* \"#utility.yul\":4859:4877   */\n      dup4\n      dup3\n      gt\n        /* \"#utility.yul\":4879:4901   */\n      dup2\n      dup4\n      lt\n        /* \"#utility.yul\":4856:4902   */\n      or\n        /* \"#utility.yul\":4853:4925   */\n      iszero\n      tag_437\n      jumpi\n        /* \"#utility.yul\":4905:4923   */\n      tag_437\n      tag_379\n      jump\t// in\n    tag_437:\n        /* \"#utility.yul\":4945:4955   */\n      dup2\n        /* \"#utility.yul\":4941:4943   */\n      0x40\n        /* \"#utility.yul\":4934:4956   */\n      mstore\n        /* \"#utility.yul\":4980:4982   */\n      dup3\n        /* \"#utility.yul\":4972:4978   */\n      dup2\n        /* \"#utility.yul\":4965:4983   */\n      mstore\n        /* \"#utility.yul\":5020:5027   */\n      dup11\n        /* \"#utility.yul\":5015:5017   */\n      0x20\n        /* \"#utility.yul\":5010:5012   */\n      dup5\n        /* \"#utility.yul\":5006:5008   */\n      dup8\n        /* \"#utility.yul\":5002:5013   */\n      add\n        /* \"#utility.yul\":4998:5018   */\n      add\n        /* \"#utility.yul\":4995:5028   */\n      gt\n        /* \"#utility.yul\":4992:5045   */\n      iszero\n      tag_438\n      jumpi\n        /* \"#utility.yul\":5041:5042   */\n      0x00\n        /* \"#utility.yul\":5038:5039   */\n      dup1\n        /* \"#utility.yul\":5031:5043   */\n      revert\n        /* \"#utility.yul\":4992:5045   */\n    tag_438:\n        /* \"#utility.yul\":5097:5099   */\n      dup3\n        /* \"#utility.yul\":5092:5094   */\n      0x20\n        /* \"#utility.yul\":5088:5090   */\n      dup7\n        /* \"#utility.yul\":5084:5095   */\n      add\n        /* \"#utility.yul\":5079:5081   */\n      0x20\n        /* \"#utility.yul\":5071:5077   */\n      dup4\n        /* \"#utility.yul\":5067:5082   */\n      add\n        /* \"#utility.yul\":5054:5100   */\n      calldatacopy\n        /* \"#utility.yul\":5142:5143   */\n      0x00\n        /* \"#utility.yul\":5137:5139   */\n      0x20\n        /* \"#utility.yul\":5132:5134   */\n      dup5\n        /* \"#utility.yul\":5124:5130   */\n      dup4\n        /* \"#utility.yul\":5120:5135   */\n      add\n        /* \"#utility.yul\":5116:5140   */\n      add\n        /* \"#utility.yul\":5109:5144   */\n      mstore\n        /* \"#utility.yul\":5163:5169   */\n      dup1\n        /* \"#utility.yul\":5153:5169   */\n      swap6\n      pop\n      pop\n      pop\n      pop\n      pop\n      pop\n        /* \"#utility.yul\":4037:5175   */\n      swap3\n      swap6\n      swap2\n      swap5\n      pop\n      swap3\n      pop\n      jump\t// out\n        /* \"#utility.yul\":5180:5440   */\n    tag_138:\n        /* \"#utility.yul\":5248:5254   */\n      0x00\n        /* \"#utility.yul\":5256:5262   */\n      dup1\n        /* \"#utility.yul\":5309:5311   */\n      0x40\n        /* \"#utility.yul\":5297:5306   */\n      dup4\n        /* \"#utility.yul\":5288:5295   */\n      dup6\n        /* \"#utility.yul\":5284:5307   */\n      sub\n        /* \"#utility.yul\":5280:5312   */\n      slt\n        /* \"#utility.yul\":5277:5329   */\n      iszero\n      tag_440\n      jumpi\n        /* \"#utility.yul\":5325:5326   */\n      0x00\n        /* \"#utility.yul\":5322:5323   */\n      dup1\n        /* \"#utility.yul\":5315:5327   */\n      revert\n        /* \"#utility.yul\":5277:5329   */\n    tag_440:\n        /* \"#utility.yul\":5348:5377   */\n      tag_441\n        /* \"#utility.yul\":5367:5376   */\n      dup4\n        /* \"#utility.yul\":5348:5377   */\n      tag_377\n      jump\t// in\n    tag_441:\n        /* \"#utility.yul\":5338:5377   */\n      swap2\n      pop\n        /* \"#utility.yul\":5396:5434   */\n      tag_426\n        /* \"#utility.yul\":5430:5432   */\n      0x20\n        /* \"#utility.yul\":5419:5428   */\n      dup5\n        /* \"#utility.yul\":5415:5433   */\n      add\n        /* \"#utility.yul\":5396:5434   */\n      tag_377\n      jump\t// in\n        /* \"#utility.yul\":5445:5625   */\n    tag_148:\n        /* \"#utility.yul\":5501:5507   */\n      0x00\n        /* \"#utility.yul\":5554:5556   */\n      0x20\n        /* \"#utility.yul\":5542:5551   */\n      dup3\n        /* \"#utility.yul\":5533:5540   */\n      dup5\n        /* \"#utility.yul\":5529:5552   */\n      sub\n        /* \"#utility.yul\":5525:5557   */\n      slt\n        /* \"#utility.yul\":5522:5574   */\n      iszero\n      tag_444\n      jumpi\n        /* \"#utility.yul\":5570:5571   */\n      0x00\n        /* \"#utility.yul\":5567:5568   */\n      dup1\n        /* \"#utility.yul\":5560:5572   */\n      revert\n        /* \"#utility.yul\":5522:5574   */\n    tag_444:\n        /* \"#utility.yul\":5593:5619   */\n      tag_273\n        /* \"#utility.yul\":5609:5618   */\n      dup3\n        /* \"#utility.yul\":5593:5619   */\n      tag_378\n      jump\t// in\n        /* \"#utility.yul\":5630:6010   */\n    tag_155:\n        /* \"#utility.yul\":5709:5710   */\n      0x01\n        /* \"#utility.yul\":5705:5717   */\n      dup2\n      dup2\n      shr\n      swap1\n        /* \"#utility.yul\":5752:5764   */\n      dup3\n      and\n      dup1\n        /* \"#utility.yul\":5773:5834   */\n      tag_447\n      jumpi\n        /* \"#utility.yul\":5827:5831   */\n      0x7f\n        /* \"#utility.yul\":5819:5825   */\n      dup3\n        /* \"#utility.yul\":5815:5832   */\n      and\n        /* \"#utility.yul\":5805:5832   */\n      swap2\n      pop\n        /* \"#utility.yul\":5773:5834   */\n    tag_447:\n        /* \"#utility.yul\":5880:5882   */\n      0x20\n        /* \"#utility.yul\":5872:5878   */\n      dup3\n        /* \"#utility.yul\":5869:5883   */\n      lt\n        /* \"#utility.yul\":5849:5867   */\n      dup2\n        /* \"#utility.yul\":5846:5884   */\n      sub\n        /* \"#utility.yul\":5843:6004   */\n      tag_448\n      jumpi\n        /* \"#utility.yul\":5926:5936   */\n      0x4e487b71\n        /* \"#utility.yul\":5921:5924   */\n      0xe0\n        /* \"#utility.yul\":5917:5937   */\n      shl\n        /* \"#utility.yul\":5914:5915   */\n      0x00\n        /* \"#utility.yul\":5907:5938   */\n      mstore\n        /* \"#utility.yul\":5961:5965   */\n      0x22\n        /* \"#utility.yul\":5958:5959   */\n      0x04\n        /* \"#utility.yul\":5951:5966   */\n      mstore\n        /* \"#utility.yul\":5989:5993   */\n      0x24\n        /* \"#utility.yul\":5986:5987   */\n      0x00\n        /* \"#utility.yul\":5979:5994   */\n      revert\n        /* \"#utility.yul\":5843:6004   */\n    tag_448:\n      pop\n        /* \"#utility.yul\":5630:6010   */\n      swap2\n      swap1\n      pop\n      jump\t// out\n        /* \"#utility.yul\":6141:6659   */\n    tag_381:\n        /* \"#utility.yul\":6243:6245   */\n      0x1f\n        /* \"#utility.yul\":6238:6241   */\n      dup3\n        /* \"#utility.yul\":6235:6246   */\n      gt\n        /* \"#utility.yul\":6232:6653   */\n      iszero\n      tag_208\n      jumpi\n        /* \"#utility.yul\":6279:6284   */\n      dup1\n        /* \"#utility.yul\":6276:6277   */\n      0x00\n        /* \"#utility.yul\":6269:6285   */\n      mstore\n        /* \"#utility.yul\":6323:6327   */\n      0x20\n        /* \"#utility.yul\":6320:6321   */\n      0x00\n        /* \"#utility.yul\":6310:6328   */\n      keccak256\n        /* \"#utility.yul\":6393:6395   */\n      0x1f\n        /* \"#utility.yul\":6381:6391   */\n      dup5\n        /* \"#utility.yul\":6377:6396   */\n      add\n        /* \"#utility.yul\":6374:6375   */\n      0x05\n        /* \"#utility.yul\":6370:6397   */\n      shr\n        /* \"#utility.yul\":6364:6368   */\n      dup2\n        /* \"#utility.yul\":6360:6398   */\n      add\n        /* \"#utility.yul\":6429:6433   */\n      0x20\n        /* \"#utility.yul\":6417:6427   */\n      dup6\n        /* \"#utility.yul\":6414:6434   */\n      lt\n        /* \"#utility.yul\":6411:6458   */\n      iszero\n      tag_452\n      jumpi\n      pop\n        /* \"#utility.yul\":6452:6456   */\n      dup1\n        /* \"#utility.yul\":6411:6458   */\n    tag_452:\n        /* \"#utility.yul\":6507:6509   */\n      0x1f\n        /* \"#utility.yul\":6502:6505   */\n      dup5\n        /* \"#utility.yul\":6498:6510   */\n      add\n        /* \"#utility.yul\":6495:6496   */\n      0x05\n        /* \"#utility.yul\":6491:6511   */\n      shr\n        /* \"#utility.yul\":6485:6489   */\n      dup3\n        /* \"#utility.yul\":6481:6512   */\n      add\n        /* \"#utility.yul\":6471:6512   */\n      swap2\n      pop\n        /* \"#utility.yul\":6562:6643   */\n    tag_453:\n        /* \"#utility.yul\":6580:6582   */\n      dup2\n        /* \"#utility.yul\":6573:6578   */\n      dup2\n        /* \"#utility.yul\":6570:6583   */\n      lt\n        /* \"#utility.yul\":6562:6643   */\n      iszero\n      tag_360\n      jumpi\n        /* \"#utility.yul\":6639:6640   */\n      0x00\n        /* \"#utility.yul\":6625:6641   */\n      dup2\n      sstore\n        /* \"#utility.yul\":6606:6607   */\n      0x01\n        /* \"#utility.yul\":6595:6608   */\n      add\n        /* \"#utility.yul\":6562:6643   */\n      jump(tag_453)\n        /* \"#utility.yul\":6835:8033   */\n    tag_213:\n        /* \"#utility.yul\":6959:6977   */\n      0xffffffffffffffff\n        /* \"#utility.yul\":6954:6957   */\n      dup4\n        /* \"#utility.yul\":6951:6978   */\n      gt\n        /* \"#utility.yul\":6948:7001   */\n      iszero\n      tag_459\n      jumpi\n        /* \"#utility.yul\":6981:6999   */\n      tag_459\n      tag_379\n      jump\t// in\n    tag_459:\n        /* \"#utility.yul\":7010:7104   */\n      tag_460\n        /* \"#utility.yul\":7100:7103   */\n      dup4\n        /* \"#utility.yul\":7060:7098   */\n      tag_461\n        /* \"#utility.yul\":7092:7096   */\n      dup4\n        /* \"#utility.yul\":7086:7097   */\n      sload\n        /* \"#utility.yul\":7060:7098   */\n      tag_155\n      jump\t// in\n    tag_461:\n        /* \"#utility.yul\":7054:7058   */\n      dup4\n        /* \"#utility.yul\":7010:7104   */\n      tag_381\n      jump\t// in\n    tag_460:\n        /* \"#utility.yul\":7130:7131   */\n      0x00\n        /* \"#utility.yul\":7155:7157   */\n      0x1f\n        /* \"#utility.yul\":7150:7153   */\n      dup5\n        /* \"#utility.yul\":7147:7158   */\n      gt\n        /* \"#utility.yul\":7172:7173   */\n      0x01\n        /* \"#utility.yul\":7167:7775   */\n      dup2\n      eq\n      tag_463\n      jumpi\n        /* \"#utility.yul\":7819:7820   */\n      0x00\n        /* \"#utility.yul\":7836:7839   */\n      dup6\n        /* \"#utility.yul\":7833:7926   */\n      iszero\n      tag_464\n      jumpi\n      pop\n        /* \"#utility.yul\":7892:7911   */\n      dup4\n      dup3\n      add\n        /* \"#utility.yul\":7879:7912   */\n      calldataload\n        /* \"#utility.yul\":7833:7926   */\n    tag_464:\n      not(0x00)\n        /* \"#utility.yul\":6792:6793   */\n      0x03\n        /* \"#utility.yul\":6788:6799   */\n      dup8\n      swap1\n      shl\n        /* \"#utility.yul\":6784:6808   */\n      shr\n        /* \"#utility.yul\":6780:6809   */\n      not\n        /* \"#utility.yul\":6770:6810   */\n      and\n        /* \"#utility.yul\":6816:6817   */\n      0x01\n        /* \"#utility.yul\":6812:6823   */\n      dup7\n      swap1\n      shl\n        /* \"#utility.yul\":6767:6824   */\n      or\n        /* \"#utility.yul\":7939:8017   */\n      dup4\n      sstore\n        /* \"#utility.yul\":7140:8027   */\n      jump(tag_360)\n        /* \"#utility.yul\":7167:7775   */\n    tag_463:\n        /* \"#utility.yul\":6088:6089   */\n      0x00\n        /* \"#utility.yul\":6081:6095   */\n      dup4\n      dup2\n      mstore\n        /* \"#utility.yul\":6125:6129   */\n      0x20\n        /* \"#utility.yul\":6112:6130   */\n      dup2\n      keccak256\n      not(0x1f)\n        /* \"#utility.yul\":7203:7220   */\n      dup8\n      and\n      swap2\n        /* \"#utility.yul\":7318:7547   */\n    tag_467:\n        /* \"#utility.yul\":7332:7339   */\n      dup3\n        /* \"#utility.yul\":7329:7330   */\n      dup2\n        /* \"#utility.yul\":7326:7340   */\n      lt\n        /* \"#utility.yul\":7318:7547   */\n      iszero\n      tag_469\n      jumpi\n        /* \"#utility.yul\":7421:7440   */\n      dup7\n      dup6\n      add\n        /* \"#utility.yul\":7408:7441   */\n      calldataload\n        /* \"#utility.yul\":7393:7442   */\n      dup3\n      sstore\n        /* \"#utility.yul\":7528:7532   */\n      0x20\n        /* \"#utility.yul\":7513:7533   */\n      swap5\n      dup6\n      add\n      swap5\n        /* \"#utility.yul\":7481:7482   */\n      0x01\n        /* \"#utility.yul\":7469:7483   */\n      swap1\n      swap3\n      add\n      swap2\n        /* \"#utility.yul\":7348:7360   */\n      add\n        /* \"#utility.yul\":7318:7547   */\n      jump(tag_467)\n    tag_469:\n        /* \"#utility.yul\":7322:7325   */\n      pop\n        /* \"#utility.yul\":7575:7578   */\n      dup7\n        /* \"#utility.yul\":7566:7573   */\n      dup3\n        /* \"#utility.yul\":7563:7579   */\n      lt\n        /* \"#utility.yul\":7560:7719   */\n      iszero\n      tag_470\n      jumpi\n        /* \"#utility.yul\":7699:7700   */\n      0x00\n        /* \"#utility.yul\":7695:7701   */\n      not\n        /* \"#utility.yul\":7689:7692   */\n      0xf8\n        /* \"#utility.yul\":7683:7686   */\n      dup9\n        /* \"#utility.yul\":7680:7681   */\n      0x03\n        /* \"#utility.yul\":7676:7687   */\n      shl\n        /* \"#utility.yul\":7672:7693   */\n      and\n        /* \"#utility.yul\":7668:7702   */\n      shr\n        /* \"#utility.yul\":7664:7703   */\n      not\n        /* \"#utility.yul\":7651:7660   */\n      dup5\n        /* \"#utility.yul\":7646:7649   */\n      dup8\n        /* \"#utility.yul\":7642:7661   */\n      add\n        /* \"#utility.yul\":7629:7662   */\n      calldataload\n        /* \"#utility.yul\":7625:7704   */\n      and\n        /* \"#utility.yul\":7617:7623   */\n      dup2\n        /* \"#utility.yul\":7610:7705   */\n      sstore\n        /* \"#utility.yul\":7560:7719   */\n    tag_470:\n      pop\n      pop\n        /* \"#utility.yul\":7762:7763   */\n      0x01\n        /* \"#utility.yul\":7756:7759   */\n      dup6\n        /* \"#utility.yul\":7753:7754   */\n      0x01\n        /* \"#utility.yul\":7749:7760   */\n      shl\n        /* \"#utility.yul\":7745:7764   */\n      add\n        /* \"#utility.yul\":7739:7743   */\n      dup4\n        /* \"#utility.yul\":7732:7765   */\n      sstore\n        /* \"#utility.yul\":7140:8027   */\n      pop\n      pop\n        /* \"#utility.yul\":6835:8033   */\n      pop\n      pop\n      pop\n      jump\t// out\n        /* \"#utility.yul\":8726:8853   */\n    tag_383:\n        /* \"#utility.yul\":8787:8797   */\n      0x4e487b71\n        /* \"#utility.yul\":8782:8785   */\n      0xe0\n        /* \"#utility.yul\":8778:8798   */\n      shl\n        /* \"#utility.yul\":8775:8776   */\n      0x00\n        /* \"#utility.yul\":8768:8799   */\n      mstore\n        /* \"#utility.yul\":8818:8822   */\n      0x11\n        /* \"#utility.yul\":8815:8816   */\n      0x04\n        /* \"#utility.yul\":8808:8823   */\n      mstore\n        /* \"#utility.yul\":8842:8846   */\n      0x24\n        /* \"#utility.yul\":8839:8840   */\n      0x00\n        /* \"#utility.yul\":8832:8847   */\n      revert\n        /* \"#utility.yul\":8858:8983   */\n    tag_240:\n        /* \"#utility.yul\":8923:8932   */\n      dup1\n      dup3\n      add\n        /* \"#utility.yul\":8944:8954   */\n      dup1\n      dup3\n      gt\n        /* \"#utility.yul\":8941:8977   */\n      iszero\n      tag_152\n      jumpi\n        /* \"#utility.yul\":8957:8975   */\n      tag_152\n      tag_383\n      jump\t// in\n        /* \"#utility.yul\":9685:9853   */\n    tag_251:\n        /* \"#utility.yul\":9758:9767   */\n      dup1\n      dup3\n      mul\n        /* \"#utility.yul\":9789:9798   */\n      dup2\n      iszero\n        /* \"#utility.yul\":9806:9821   */\n      dup3\n      dup3\n      div\n        /* \"#utility.yul\":9800:9822   */\n      dup5\n      eq\n        /* \"#utility.yul\":9786:9823   */\n      or\n        /* \"#utility.yul\":9776:9847   */\n      tag_152\n      jumpi\n        /* \"#utility.yul\":9827:9845   */\n      tag_152\n      tag_383\n      jump\t// in\n        /* \"#utility.yul\":10205:10701   */\n    tag_277:\n        /* \"#utility.yul\":10384:10387   */\n      0x00\n        /* \"#utility.yul\":10422:10428   */\n      dup4\n        /* \"#utility.yul\":10416:10429   */\n      mload\n        /* \"#utility.yul\":10438:10504   */\n      tag_484\n        /* \"#utility.yul\":10497:10503   */\n      dup2\n        /* \"#utility.yul\":10492:10495   */\n      dup5\n        /* \"#utility.yul\":10485:10489   */\n      0x20\n        /* \"#utility.yul\":10477:10483   */\n      dup9\n        /* \"#utility.yul\":10473:10490   */\n      add\n        /* \"#utility.yul\":10438:10504   */\n      tag_375\n      jump\t// in\n    tag_484:\n        /* \"#utility.yul\":10567:10580   */\n      dup4\n      mload\n        /* \"#utility.yul\":10526:10542   */\n      swap1\n      dup4\n      add\n      swap1\n        /* \"#utility.yul\":10589:10659   */\n      tag_485\n        /* \"#utility.yul\":10567:10580   */\n      dup2\n        /* \"#utility.yul\":10526:10542   */\n      dup4\n        /* \"#utility.yul\":10636:10640   */\n      0x20\n        /* \"#utility.yul\":10624:10641   */\n      dup9\n      add\n        /* \"#utility.yul\":10589:10659   */\n      tag_375\n      jump\t// in\n    tag_485:\n        /* \"#utility.yul\":10675:10695   */\n      add\n      swap5\n        /* \"#utility.yul\":10205:10701   */\n      swap4\n      pop\n      pop\n      pop\n      pop\n      jump\t// out\n        /* \"#utility.yul\":11819:12308   */\n    tag_330:\n      sub(shl(0xa0, 0x01), 0x01)\n        /* \"#utility.yul\":12088:12103   */\n      dup6\n      dup2\n      and\n        /* \"#utility.yul\":12070:12104   */\n      dup3\n      mstore\n        /* \"#utility.yul\":12140:12155   */\n      dup5\n      and\n        /* \"#utility.yul\":12135:12137   */\n      0x20\n        /* \"#utility.yul\":12120:12138   */\n      dup3\n      add\n        /* \"#utility.yul\":12113:12156   */\n      mstore\n        /* \"#utility.yul\":12187:12189   */\n      0x40\n        /* \"#utility.yul\":12172:12190   */\n      dup2\n      add\n        /* \"#utility.yul\":12165:12199   */\n      dup4\n      swap1\n      mstore\n        /* \"#utility.yul\":12235:12238   */\n      0x80\n        /* \"#utility.yul\":12230:12232   */\n      0x60\n        /* \"#utility.yul\":12215:12233   */\n      dup3\n      add\n        /* \"#utility.yul\":12208:12239   */\n      dup2\n      swap1\n      mstore\n        /* \"#utility.yul\":12013:12017   */\n      0x00\n      swap1\n        /* \"#utility.yul\":12256:12302   */\n      tag_490\n      swap1\n        /* \"#utility.yul\":12282:12301   */\n      dup4\n      add\n        /* \"#utility.yul\":12274:12280   */\n      dup5\n        /* \"#utility.yul\":12256:12302   */\n      tag_376\n      jump\t// in\n    tag_490:\n        /* \"#utility.yul\":12248:12302   */\n      swap7\n        /* \"#utility.yul\":11819:12308   */\n      swap6\n      pop\n      pop\n      pop\n      pop\n      pop\n      pop\n      jump\t// out\n        /* \"#utility.yul\":12313:12562   */\n    tag_333:\n        /* \"#utility.yul\":12382:12388   */\n      0x00\n        /* \"#utility.yul\":12435:12437   */\n      0x20\n        /* \"#utility.yul\":12423:12432   */\n      dup3\n        /* \"#utility.yul\":12414:12421   */\n      dup5\n        /* \"#utility.yul\":12410:12433   */\n      sub\n        /* \"#utility.yul\":12406:12438   */\n      slt\n        /* \"#utility.yul\":12403:12455   */\n      iszero\n      tag_492\n      jumpi\n        /* \"#utility.yul\":12451:12452   */\n      0x00\n        /* \"#utility.yul\":12448:12449   */\n      dup1\n        /* \"#utility.yul\":12441:12453   */\n      revert\n        /* \"#utility.yul\":12403:12455   */\n    tag_492:\n        /* \"#utility.yul\":12483:12492   */\n      dup2\n        /* \"#utility.yul\":12477:12493   */\n      mload\n        /* \"#utility.yul\":12502:12532   */\n      tag_273\n        /* \"#utility.yul\":12526:12531   */\n      dup2\n        /* \"#utility.yul\":12502:12532   */\n      tag_374\n      jump\t// in\n    stop\n    data_a7eb0451a604c4dc108fec9b71a0e76d6307ea82c680c4246676e81f6657eff4 68747470733a2f2f697066732e696f2f697066732f516d50713538465456615a756b694236713853587a31634d694d4545506142737775796b544e6b66685775444e7a2f\n\n    auxdata: 0xa2646970667358221220f5e95c567ef4d7336ea45d6b5b437789397541e687a132ef2e524447343d56e664736f6c63430008160033\n}\n",
				"bytecode": {
					"linkReferences": {},
					"object": "60a060405234801562000010575f80fd5b506040518060400160405280600d81526020016c22a9219b9918a0902a37b5b2b760991b815250604051806040016040528060058152602001640dcc8c505560da1b8152506200006f62000069620000a760201b60201c565b620000ab565b60036200007d838262000198565b5060046200008c828262000198565b505f6001555050426080526009805460ff1916905562000264565b3390565b5f80546001600160a01b038381166001600160a01b0319831681178455604051919092169283917f8be0079c531659141344cd1fd0a4f28419497f9722a3daafe3b4186f6b6457e09190a35050565b634e487b7160e01b5f52604160045260245ffd5b600181811c908216806200012357607f821691505b6020821081036200014257634e487b7160e01b5f52602260045260245ffd5b50919050565b601f8211156200019357805f5260205f20601f840160051c810160208510156200016f5750805b601f840160051c820191505b8181101562000190575f81556001016200017b565b50505b505050565b81516001600160401b03811115620001b457620001b4620000fa565b620001cc81620001c584546200010e565b8462000148565b602080601f83116001811462000202575f8415620001ea5750858301515b5f19600386901b1c1916600185901b1785556200025c565b5f85815260208120601f198616915b82811015620002325788860151825594840194600190910190840162000211565b50858210156200025057878501515f19600388901b60f8161c191681555b505060018460011b0185555b505050505050565b608051611634620002845f395f81816103ee01526108ee01526116345ff3fe60806040526004361061017b575f3560e01c8063715018a6116100cd578063a22cb46511610087578063ddaa26ad11610062578063ddaa26ad146103dd578063e985e9c514610410578063f2fde38b1461042f578063f30e6e771461044e575f80fd5b8063a22cb4651461038c578063b88d4fde146103ab578063c87b56dd146103be575f80fd5b8063715018a6146103015780637e4831d314610315578063833b94991461032e5780638da5cb5b1461034957806395d89b4114610365578063a0712d6814610379575f80fd5b806332cb6b0c1161013857806355f804b31161011357806355f804b31461029057806360f1f878146102af5780636352211e146102c357806370a08231146102e2575f80fd5b806332cb6b0c146102555780633ccfd60b1461026957806342842e0e1461027d575f80fd5b806301ffc9a71461017f57806306fdde03146101b3578063081812fc146101d4578063095ea7b31461020b57806318160ddd1461022057806323b872dd14610242575b5f80fd5b34801561018a575f80fd5b5061019e6101993660046110c5565b61046d565b60405190151581526020015b60405180910390f35b3480156101be575f80fd5b506101c76104be565b6040516101aa919061112d565b3480156101df575f80fd5b506101f36101ee36600461113f565b61054e565b6040516001600160a01b0390911681526020016101aa565b61021e610219366004611171565b610590565b005b34801561022b575f80fd5b50600254600154035b6040519081526020016101aa565b61021e610250366004611199565b61062e565b348015610260575f80fd5b50610234606481565b348015610274575f80fd5b5061021e6107be565b61021e61028b366004611199565b6107f6565b34801561029b575f80fd5b5061021e6102aa3660046111d2565b610815565b3480156102ba575f80fd5b50610234600581565b3480156102ce575f80fd5b506101f36102dd36600461113f565b61082a565b3480156102ed575f80fd5b506102346102fc36600461123e565b610834565b34801561030c575f80fd5b5061021e610881565b348015610320575f80fd5b5060095461019e9060ff1681565b348015610339575f80fd5b50610234670de0b6b3a764000081565b348015610354575f80fd5b505f546001600160a01b03166101f3565b348015610370575f80fd5b506101c7610894565b61021e61038736600461113f565b6108a3565b348015610397575f80fd5b5061021e6103a6366004611266565b610a7f565b61021e6103b93660046112ab565b610aea565b3480156103c9575f80fd5b506101c76103d836600461113f565b610b34565b3480156103e8575f80fd5b506102347f000000000000000000000000000000000000000000000000000000000000000081565b34801561041b575f80fd5b5061019e61042a366004611380565b610bb5565b34801561043a575f80fd5b5061021e61044936600461123e565b610be2565b348015610459575f80fd5b5061021e6104683660046113a8565b610c58565b5f6301ffc9a760e01b6001600160e01b03198316148061049d57506380ac58cd60e01b6001600160e01b03198316145b806104b85750635b5e139f60e01b6001600160e01b03198316145b92915050565b6060600380546104cd906113c1565b80601f01602080910402602001604051908101604052809291908181526020018280546104f9906113c1565b80156105445780601f1061051b57610100808354040283529160200191610544565b820191905f5260205f20905b81548152906001019060200180831161052757829003601f168201915b5050505050905090565b5f61055882610cb9565b610575576040516333d1c03960e21b815260040160405180910390fd5b505f908152600760205260409020546001600160a01b031690565b5f61059a8261082a565b9050336001600160a01b038216146105d3576105b68133610bb5565b6105d3576040516367d9dca160e11b815260040160405180910390fd5b5f8281526007602052604080822080546001600160a01b0319166001600160a01b0387811691821790925591518593918516917f8c5be1e5ebec7d5bd14f71427d1e84f3dd0314c0f7b2291e5b200ac8c7c3b92591a4505050565b5f61063882610cdf565b9050836001600160a01b0316816001600160a01b03161461066b5760405162a1148160e81b815260040160405180910390fd5b5f8281526007602052604090208054338082146001600160a01b038816909114176106b75761069a8633610bb5565b6106b757604051632ce44b5f60e11b815260040160405180910390fd5b6001600160a01b0385166106de57604051633a954ecd60e21b815260040160405180910390fd5b80156106e8575f82555b6001600160a01b038681165f9081526006602052604080822080545f19019055918716808252919020805460010190554260a01b17600160e11b175f85815260056020526040812091909155600160e11b8416900361077557600184015f818152600560205260408120549003610773576001548114610773575f8181526005602052604090208490555b505b83856001600160a01b0316876001600160a01b03167fddf252ad1be2c89b69c2b068fc378daa952ba7f163c4a11628f55a4df523b3ef60405160405180910390a4505050505050565b6107c6610d41565b6040514790339082156108fc029083905f818181858888f193505050501580156107f2573d5f803e3d5ffd5b5050565b61081083838360405180602001604052805f815250610aea565b505050565b61081d610d41565b600a61081082848361143d565b5f6104b882610cdf565b5f6001600160a01b03821661085c576040516323d3ad8160e21b815260040160405180910390fd5b506001600160a01b03165f9081526006602052604090205467ffffffffffffffff1690565b610889610d41565b6108925f610d9a565b565b6060600480546104cd906113c1565b60095460ff16156108ec5760405162461bcd60e51b815260206004820152600e60248201526d135a5b9d081a5cc81c185d5cd95960921b60448201526064015b60405180910390fd5b7f000000000000000000000000000000000000000000000000000000000000000042101561094f5760405162461bcd60e51b815260206004820152601060248201526f14d85b19481b9bdd081cdd185c9d195960821b60448201526064016108e3565b60648161095b60015490565b610965919061150b565b11156109a45760405162461bcd60e51b815260206004820152600e60248201526d13585e0814dd5c1c1b1e48121a5d60921b60448201526064016108e3565b335f9081526006602052604090819020546005916109ce9184911c67ffffffffffffffff1661150b565b1115610a1c5760405162461bcd60e51b815260206004820152601960248201527f4d6178204d696e7420706572207573657220526561636865640000000000000060448201526064016108e3565b610a2e670de0b6b3a76400008261151e565b341015610a725760405162461bcd60e51b8152602060048201526012602482015271496e73756666696369656e742046756e647360701b60448201526064016108e3565b610a7c3382610de9565b50565b335f8181526008602090815260408083206001600160a01b03871680855290835292819020805460ff191686151590811790915590519081529192917f17307eab39ab6107e8899845ad3d59bd9653f200f220920489ca2b5937696c31910160405180910390a35050565b610af584848461062e565b6001600160a01b0383163b15610b2e57610b1184848484610e02565b610b2e576040516368d2bf6b60e11b815260040160405180910390fd5b50505050565b6060610b3f82610cb9565b610b5c57604051630a14c4b560e41b815260040160405180910390fd5b5f610b65610ee9565b905080515f03610b835760405180602001604052805f815250610bae565b80610b8d84610f09565b604051602001610b9e929190611535565b6040516020818303038152906040525b9392505050565b6001600160a01b039182165f90815260086020908152604080832093909416825291909152205460ff1690565b610bea610d41565b6001600160a01b038116610c4f5760405162461bcd60e51b815260206004820152602660248201527f4f776e61626c653a206e6577206f776e657220697320746865207a65726f206160448201526564647265737360d01b60648201526084016108e3565b610a7c81610d9a565b610c60610d41565b60095460ff1615610ca65760405162461bcd60e51b815260206004820152601060248201526f21b7b73a3930b1ba103830bab9b2b21760811b60448201526064016108e3565b6009805460ff1916911515919091179055565b5f600154821080156104b85750505f90815260056020526040902054600160e01b161590565b5f81600154811015610d28575f8181526005602052604081205490600160e01b82169003610d26575b805f03610bae57505f19015f81815260056020526040902054610d08565b505b604051636f96cda160e11b815260040160405180910390fd5b5f546001600160a01b031633146108925760405162461bcd60e51b815260206004820181905260248201527f4f776e61626c653a2063616c6c6572206973206e6f7420746865206f776e657260448201526064016108e3565b5f80546001600160a01b038381166001600160a01b0319831681178455604051919092169283917f8be0079c531659141344cd1fd0a4f28419497f9722a3daafe3b4186f6b6457e09190a35050565b6107f2828260405180602001604052805f815250610f4c565b604051630a85bd0160e11b81525f906001600160a01b0385169063150b7a0290610e36903390899088908890600401611563565b6020604051808303815f875af1925050508015610e70575060408051601f3d908101601f19168201909252610e6d9181019061159f565b60015b610ecc573d808015610e9d576040519150601f19603f3d011682016040523d82523d5f602084013e610ea2565b606091505b5080515f03610ec4576040516368d2bf6b60e11b815260040160405180910390fd5b805181602001fd5b6001600160e01b031916630a85bd0160e11b149050949350505050565b60606040518060800160405280604481526020016115bb60449139905090565b606060a06040510180604052602081039150505f815280825b600183039250600a81066030018353600a900480610f225750819003601f19909101908152919050565b610f568383610fb7565b6001600160a01b0383163b15610810576001548281035b610f7f5f868380600101945086610e02565b610f9c576040516368d2bf6b60e11b815260040160405180910390fd5b818110610f6d578160015414610fb0575f80fd5b5050505050565b6001545f829003610fdb5760405163b562e8dd60e01b815260040160405180910390fd5b6001600160a01b0383165f8181526006602090815260408083208054680100000000000000018802019055848352600590915281206001851460e11b4260a01b178317905582840190839083907fddf252ad1be2c89b69c2b068fc378daa952ba7f163c4a11628f55a4df523b3ef8180a4600183015b8181146110875780835f7fddf252ad1be2c89b69c2b068fc378daa952ba7f163c4a11628f55a4df523b3ef5f80a4600101611051565b50815f036110a757604051622e076360e81b815260040160405180910390fd5b60015550505050565b6001600160e01b031981168114610a7c575f80fd5b5f602082840312156110d5575f80fd5b8135610bae816110b0565b5f5b838110156110fa5781810151838201526020016110e2565b50505f910152565b5f81518084526111198160208601602086016110e0565b601f01601f19169290920160200192915050565b602081525f610bae6020830184611102565b5f6020828403121561114f575f80fd5b5035919050565b80356001600160a01b038116811461116c575f80fd5b919050565b5f8060408385031215611182575f80fd5b61118b83611156565b946020939093013593505050565b5f805f606084860312156111ab575f80fd5b6111b484611156565b92506111c260208501611156565b9150604084013590509250925092565b5f80602083850312156111e3575f80fd5b823567ffffffffffffffff808211156111fa575f80fd5b818501915085601f83011261120d575f80fd5b81358181111561121b575f80fd5b86602082850101111561122c575f80fd5b60209290920196919550909350505050565b5f6020828403121561124e575f80fd5b610bae82611156565b8035801515811461116c575f80fd5b5f8060408385031215611277575f80fd5b61128083611156565b915061128e60208401611257565b90509250929050565b634e487b7160e01b5f52604160045260245ffd5b5f805f80608085870312156112be575f80fd5b6112c785611156565b93506112d560208601611156565b925060408501359150606085013567ffffffffffffffff808211156112f8575f80fd5b818701915087601f83011261130b575f80fd5b81358181111561131d5761131d611297565b604051601f8201601f19908116603f0116810190838211818310171561134557611345611297565b816040528281528a602084870101111561135d575f80fd5b826020860160208301375f60208483010152809550505050505092959194509250565b5f8060408385031215611391575f80fd5b61139a83611156565b915061128e60208401611156565b5f602082840312156113b8575f80fd5b610bae82611257565b600181811c908216806113d557607f821691505b6020821081036113f357634e487b7160e01b5f52602260045260245ffd5b50919050565b601f82111561081057805f5260205f20601f840160051c8101602085101561141e5750805b601f840160051c820191505b81811015610fb0575f815560010161142a565b67ffffffffffffffff83111561145557611455611297565b6114698361146383546113c1565b836113f9565b5f601f84116001811461149a575f85156114835750838201355b5f19600387901b1c1916600186901b178355610fb0565b5f83815260208120601f198716915b828110156114c957868501358255602094850194600190920191016114a9565b50868210156114e5575f1960f88860031b161c19848701351681555b505060018560011b0183555050505050565b634e487b7160e01b5f52601160045260245ffd5b808201808211156104b8576104b86114f7565b80820281158282048414176104b8576104b86114f7565b5f83516115468184602088016110e0565b83519083019061155a8183602088016110e0565b01949350505050565b6001600160a01b03858116825284166020820152604081018390526080606082018190525f9061159590830184611102565b9695505050505050565b5f602082840312156115af575f80fd5b8151610bae816110b056fe68747470733a2f2f697066732e696f2f697066732f516d50713538465456615a756b694236713853587a31634d694d4545506142737775796b544e6b66685775444e7a2fa2646970667358221220f5e95c567ef4d7336ea45d6b5b437789397541e687a132ef2e524447343d56e664736f6c63430008160033",
					"opcodes": "PUSH1 0xA0 PUSH1 0x40 MSTORE CALLVALUE DUP1 ISZERO PUSH3 0x10 JUMPI PUSH0 DUP1 REVERT JUMPDEST POP PUSH1 0x40 MLOAD DUP1 PUSH1 0x40 ADD PUSH1 0x40 MSTORE DUP1 PUSH1 0xD DUP2 MSTORE PUSH1 0x20 ADD PUSH13 0x22A9219B9918A0902A37B5B2B7 PUSH1 0x99 SHL DUP2 MSTORE POP PUSH1 0x40 MLOAD DUP1 PUSH1 0x40 ADD PUSH1 0x40 MSTORE DUP1 PUSH1 0x5 DUP2 MSTORE PUSH1 0x20 ADD PUSH5 0xDCC8C5055 PUSH1 0xDA SHL DUP2 MSTORE POP PUSH3 0x6F PUSH3 0x69 PUSH3 0xA7 PUSH1 0x20 SHL PUSH1 0x20 SHR JUMP JUMPDEST PUSH3 0xAB JUMP JUMPDEST PUSH1 0x3 PUSH3 0x7D DUP4 DUP3 PUSH3 0x198 JUMP JUMPDEST POP PUSH1 0x4 PUSH3 0x8C DUP3 DUP3 PUSH3 0x198 JUMP JUMPDEST POP PUSH0 PUSH1 0x1 SSTORE POP POP TIMESTAMP PUSH1 0x80 MSTORE PUSH1 0x9 DUP1 SLOAD PUSH1 0xFF NOT AND SWAP1 SSTORE PUSH3 0x264 JUMP JUMPDEST CALLER SWAP1 JUMP JUMPDEST PUSH0 DUP1 SLOAD PUSH1 0x1 PUSH1 0x1 PUSH1 0xA0 SHL SUB DUP4 DUP2 AND PUSH1 0x1 PUSH1 0x1 PUSH1 0xA0 SHL SUB NOT DUP4 AND DUP2 OR DUP5 SSTORE PUSH1 0x40 MLOAD SWAP2 SWAP1 SWAP3 AND SWAP3 DUP4 SWAP2 PUSH32 0x8BE0079C531659141344CD1FD0A4F28419497F9722A3DAAFE3B4186F6B6457E0 SWAP2 SWAP1 LOG3 POP POP JUMP JUMPDEST PUSH4 0x4E487B71 PUSH1 0xE0 SHL PUSH0 MSTORE PUSH1 0x41 PUSH1 0x4 MSTORE PUSH1 0x24 PUSH0 REVERT JUMPDEST PUSH1 0x1 DUP2 DUP2 SHR SWAP1 DUP3 AND DUP1 PUSH3 0x123 JUMPI PUSH1 0x7F DUP3 AND SWAP2 POP JUMPDEST PUSH1 0x20 DUP3 LT DUP2 SUB PUSH3 0x142 JUMPI PUSH4 0x4E487B71 PUSH1 0xE0 SHL PUSH0 MSTORE PUSH1 0x22 PUSH1 0x4 MSTORE PUSH1 0x24 PUSH0 REVERT JUMPDEST POP SWAP2 SWAP1 POP JUMP JUMPDEST PUSH1 0x1F DUP3 GT ISZERO PUSH3 0x193 JUMPI DUP1 PUSH0 MSTORE PUSH1 0x20 PUSH0 KECCAK256 PUSH1 0x1F DUP5 ADD PUSH1 0x5 SHR DUP2 ADD PUSH1 0x20 DUP6 LT ISZERO PUSH3 0x16F JUMPI POP DUP1 JUMPDEST PUSH1 0x1F DUP5 ADD PUSH1 0x5 SHR DUP3 ADD SWAP2 POP JUMPDEST DUP2 DUP2 LT ISZERO PUSH3 0x190 JUMPI PUSH0 DUP2 SSTORE PUSH1 0x1 ADD PUSH3 0x17B JUMP JUMPDEST POP POP JUMPDEST POP POP POP JUMP JUMPDEST DUP2 MLOAD PUSH1 0x1 PUSH1 0x1 PUSH1 0x40 SHL SUB DUP2 GT ISZERO PUSH3 0x1B4 JUMPI PUSH3 0x1B4 PUSH3 0xFA JUMP JUMPDEST PUSH3 0x1CC DUP2 PUSH3 0x1C5 DUP5 SLOAD PUSH3 0x10E JUMP JUMPDEST DUP5 PUSH3 0x148 JUMP JUMPDEST PUSH1 0x20 DUP1 PUSH1 0x1F DUP4 GT PUSH1 0x1 DUP2 EQ PUSH3 0x202 JUMPI PUSH0 DUP5 ISZERO PUSH3 0x1EA JUMPI POP DUP6 DUP4 ADD MLOAD JUMPDEST PUSH0 NOT PUSH1 0x3 DUP7 SWAP1 SHL SHR NOT AND PUSH1 0x1 DUP6 SWAP1 SHL OR DUP6 SSTORE PUSH3 0x25C JUMP JUMPDEST PUSH0 DUP6 DUP2 MSTORE PUSH1 0x20 DUP2 KECCAK256 PUSH1 0x1F NOT DUP7 AND SWAP2 JUMPDEST DUP3 DUP2 LT ISZERO PUSH3 0x232 JUMPI DUP9 DUP7 ADD MLOAD DUP3 SSTORE SWAP5 DUP5 ADD SWAP5 PUSH1 0x1 SWAP1 SWAP2 ADD SWAP1 DUP5 ADD PUSH3 0x211 JUMP JUMPDEST POP DUP6 DUP3 LT ISZERO PUSH3 0x250 JUMPI DUP8 DUP6 ADD MLOAD PUSH0 NOT PUSH1 0x3 DUP9 SWAP1 SHL PUSH1 0xF8 AND SHR NOT AND DUP2 SSTORE JUMPDEST POP POP PUSH1 0x1 DUP5 PUSH1 0x1 SHL ADD DUP6 SSTORE JUMPDEST POP POP POP POP POP POP JUMP JUMPDEST PUSH1 0x80 MLOAD PUSH2 0x1634 PUSH3 0x284 PUSH0 CODECOPY PUSH0 DUP2 DUP2 PUSH2 0x3EE ADD MSTORE PUSH2 0x8EE ADD MSTORE PUSH2 0x1634 PUSH0 RETURN INVALID PUSH1 0x80 PUSH1 0x40 MSTORE PUSH1 0x4 CALLDATASIZE LT PUSH2 0x17B JUMPI PUSH0 CALLDATALOAD PUSH1 0xE0 SHR DUP1 PUSH4 0x715018A6 GT PUSH2 0xCD JUMPI DUP1 PUSH4 0xA22CB465 GT PUSH2 0x87 JUMPI DUP1 PUSH4 0xDDAA26AD GT PUSH2 0x62 JUMPI DUP1 PUSH4 0xDDAA26AD EQ PUSH2 0x3DD JUMPI DUP1 PUSH4 0xE985E9C5 EQ PUSH2 0x410 JUMPI DUP1 PUSH4 0xF2FDE38B EQ PUSH2 0x42F JUMPI DUP1 PUSH4 0xF30E6E77 EQ PUSH2 0x44E JUMPI PUSH0 DUP1 REVERT JUMPDEST DUP1 PUSH4 0xA22CB465 EQ PUSH2 0x38C JUMPI DUP1 PUSH4 0xB88D4FDE EQ PUSH2 0x3AB JUMPI DUP1 PUSH4 0xC87B56DD EQ PUSH2 0x3BE JUMPI PUSH0 DUP1 REVERT JUMPDEST DUP1 PUSH4 0x715018A6 EQ PUSH2 0x301 JUMPI DUP1 PUSH4 0x7E4831D3 EQ PUSH2 0x315 JUMPI DUP1 PUSH4 0x833B9499 EQ PUSH2 0x32E JUMPI DUP1 PUSH4 0x8DA5CB5B EQ PUSH2 0x349 JUMPI DUP1 PUSH4 0x95D89B41 EQ PUSH2 0x365 JUMPI DUP1 PUSH4 0xA0712D68 EQ PUSH2 0x379 JUMPI PUSH0 DUP1 REVERT JUMPDEST DUP1 PUSH4 0x32CB6B0C GT PUSH2 0x138 JUMPI DUP1 PUSH4 0x55F804B3 GT PUSH2 0x113 JUMPI DUP1 PUSH4 0x55F804B3 EQ PUSH2 0x290 JUMPI DUP1 PUSH4 0x60F1F878 EQ PUSH2 0x2AF JUMPI DUP1 PUSH4 0x6352211E EQ PUSH2 0x2C3 JUMPI DUP1 PUSH4 0x70A08231 EQ PUSH2 0x2E2 JUMPI PUSH0 DUP1 REVERT JUMPDEST DUP1 PUSH4 0x32CB6B0C EQ PUSH2 0x255 JUMPI DUP1 PUSH4 0x3CCFD60B EQ PUSH2 0x269 JUMPI DUP1 PUSH4 0x42842E0E EQ PUSH2 0x27D JUMPI PUSH0 DUP1 REVERT JUMPDEST DUP1 PUSH4 0x1FFC9A7 EQ PUSH2 0x17F JUMPI DUP1 PUSH4 0x6FDDE03 EQ PUSH2 0x1B3 JUMPI DUP1 PUSH4 0x81812FC EQ PUSH2 0x1D4 JUMPI DUP1 PUSH4 0x95EA7B3 EQ PUSH2 0x20B JUMPI DUP1 PUSH4 0x18160DDD EQ PUSH2 0x220 JUMPI DUP1 PUSH4 0x23B872DD EQ PUSH2 0x242 JUMPI JUMPDEST PUSH0 DUP1 REVERT JUMPDEST CALLVALUE DUP1 ISZERO PUSH2 0x18A JUMPI PUSH0 DUP1 REVERT JUMPDEST POP PUSH2 0x19E PUSH2 0x199 CALLDATASIZE PUSH1 0x4 PUSH2 0x10C5 JUMP JUMPDEST PUSH2 0x46D JUMP JUMPDEST PUSH1 0x40 MLOAD SWAP1 ISZERO ISZERO DUP2 MSTORE PUSH1 0x20 ADD JUMPDEST PUSH1 0x40 MLOAD DUP1 SWAP2 SUB SWAP1 RETURN JUMPDEST CALLVALUE DUP1 ISZERO PUSH2 0x1BE JUMPI PUSH0 DUP1 REVERT JUMPDEST POP PUSH2 0x1C7 PUSH2 0x4BE JUMP JUMPDEST PUSH1 0x40 MLOAD PUSH2 0x1AA SWAP2 SWAP1 PUSH2 0x112D JUMP JUMPDEST CALLVALUE DUP1 ISZERO PUSH2 0x1DF JUMPI PUSH0 DUP1 REVERT JUMPDEST POP PUSH2 0x1F3 PUSH2 0x1EE CALLDATASIZE PUSH1 0x4 PUSH2 0x113F JUMP JUMPDEST PUSH2 0x54E JUMP JUMPDEST PUSH1 0x40 MLOAD PUSH1 0x1 PUSH1 0x1 PUSH1 0xA0 SHL SUB SWAP1 SWAP2 AND DUP2 MSTORE PUSH1 0x20 ADD PUSH2 0x1AA JUMP JUMPDEST PUSH2 0x21E PUSH2 0x219 CALLDATASIZE PUSH1 0x4 PUSH2 0x1171 JUMP JUMPDEST PUSH2 0x590 JUMP JUMPDEST STOP JUMPDEST CALLVALUE DUP1 ISZERO PUSH2 0x22B JUMPI PUSH0 DUP1 REVERT JUMPDEST POP PUSH1 0x2 SLOAD PUSH1 0x1 SLOAD SUB JUMPDEST PUSH1 0x40 MLOAD SWAP1 DUP2 MSTORE PUSH1 0x20 ADD PUSH2 0x1AA JUMP JUMPDEST PUSH2 0x21E PUSH2 0x250 CALLDATASIZE PUSH1 0x4 PUSH2 0x1199 JUMP JUMPDEST PUSH2 0x62E JUMP JUMPDEST CALLVALUE DUP1 ISZERO PUSH2 0x260 JUMPI PUSH0 DUP1 REVERT JUMPDEST POP PUSH2 0x234 PUSH1 0x64 DUP2 JUMP JUMPDEST CALLVALUE DUP1 ISZERO PUSH2 0x274 JUMPI PUSH0 DUP1 REVERT JUMPDEST POP PUSH2 0x21E PUSH2 0x7BE JUMP JUMPDEST PUSH2 0x21E PUSH2 0x28B CALLDATASIZE PUSH1 0x4 PUSH2 0x1199 JUMP JUMPDEST PUSH2 0x7F6 JUMP JUMPDEST CALLVALUE DUP1 ISZERO PUSH2 0x29B JUMPI PUSH0 DUP1 REVERT JUMPDEST POP PUSH2 0x21E PUSH2 0x2AA CALLDATASIZE PUSH1 0x4 PUSH2 0x11D2 JUMP JUMPDEST PUSH2 0x815 JUMP JUMPDEST CALLVALUE DUP1 ISZERO PUSH2 0x2BA JUMPI PUSH0 DUP1 REVERT JUMPDEST POP PUSH2 0x234 PUSH1 0x5 DUP2 JUMP JUMPDEST CALLVALUE DUP1 ISZERO PUSH2 0x2CE JUMPI PUSH0 DUP1 REVERT JUMPDEST POP PUSH2 0x1F3 PUSH2 0x2DD CALLDATASIZE PUSH1 0x4 PUSH2 0x113F JUMP JUMPDEST PUSH2 0x82A JUMP JUMPDEST CALLVALUE DUP1 ISZERO PUSH2 0x2ED JUMPI PUSH0 DUP1 REVERT JUMPDEST POP PUSH2 0x234 PUSH2 0x2FC CALLDATASIZE PUSH1 0x4 PUSH2 0x123E JUMP JUMPDEST PUSH2 0x834 JUMP JUMPDEST CALLVALUE DUP1 ISZERO PUSH2 0x30C JUMPI PUSH0 DUP1 REVERT JUMPDEST POP PUSH2 0x21E PUSH2 0x881 JUMP JUMPDEST CALLVALUE DUP1 ISZERO PUSH2 0x320 JUMPI PUSH0 DUP1 REVERT JUMPDEST POP PUSH1 0x9 SLOAD PUSH2 0x19E SWAP1 PUSH1 0xFF AND DUP2 JUMP JUMPDEST CALLVALUE DUP1 ISZERO PUSH2 0x339 JUMPI PUSH0 DUP1 REVERT JUMPDEST POP PUSH2 0x234 PUSH8 0xDE0B6B3A7640000 DUP2 JUMP JUMPDEST CALLVALUE DUP1 ISZERO PUSH2 0x354 JUMPI PUSH0 DUP1 REVERT JUMPDEST POP PUSH0 SLOAD PUSH1 0x1 PUSH1 0x1 PUSH1 0xA0 SHL SUB AND PUSH2 0x1F3 JUMP JUMPDEST CALLVALUE DUP1 ISZERO PUSH2 0x370 JUMPI PUSH0 DUP1 REVERT JUMPDEST POP PUSH2 0x1C7 PUSH2 0x894 JUMP JUMPDEST PUSH2 0x21E PUSH2 0x387 CALLDATASIZE PUSH1 0x4 PUSH2 0x113F JUMP JUMPDEST PUSH2 0x8A3 JUMP JUMPDEST CALLVALUE DUP1 ISZERO PUSH2 0x397 JUMPI PUSH0 DUP1 REVERT JUMPDEST POP PUSH2 0x21E PUSH2 0x3A6 CALLDATASIZE PUSH1 0x4 PUSH2 0x1266 JUMP JUMPDEST PUSH2 0xA7F JUMP JUMPDEST PUSH2 0x21E PUSH2 0x3B9 CALLDATASIZE PUSH1 0x4 PUSH2 0x12AB JUMP JUMPDEST PUSH2 0xAEA JUMP JUMPDEST CALLVALUE DUP1 ISZERO PUSH2 0x3C9 JUMPI PUSH0 DUP1 REVERT JUMPDEST POP PUSH2 0x1C7 PUSH2 0x3D8 CALLDATASIZE PUSH1 0x4 PUSH2 0x113F JUMP JUMPDEST PUSH2 0xB34 JUMP JUMPDEST CALLVALUE DUP1 ISZERO PUSH2 0x3E8 JUMPI PUSH0 DUP1 REVERT JUMPDEST POP PUSH2 0x234 PUSH32 0x0 DUP2 JUMP JUMPDEST CALLVALUE DUP1 ISZERO PUSH2 0x41B JUMPI PUSH0 DUP1 REVERT JUMPDEST POP PUSH2 0x19E PUSH2 0x42A CALLDATASIZE PUSH1 0x4 PUSH2 0x1380 JUMP JUMPDEST PUSH2 0xBB5 JUMP JUMPDEST CALLVALUE DUP1 ISZERO PUSH2 0x43A JUMPI PUSH0 DUP1 REVERT JUMPDEST POP PUSH2 0x21E PUSH2 0x449 CALLDATASIZE PUSH1 0x4 PUSH2 0x123E JUMP JUMPDEST PUSH2 0xBE2 JUMP JUMPDEST CALLVALUE DUP1 ISZERO PUSH2 0x459 JUMPI PUSH0 DUP1 REVERT JUMPDEST POP PUSH2 0x21E PUSH2 0x468 CALLDATASIZE PUSH1 0x4 PUSH2 0x13A8 JUMP JUMPDEST PUSH2 0xC58 JUMP JUMPDEST PUSH0 PUSH4 0x1FFC9A7 PUSH1 0xE0 SHL PUSH1 0x1 PUSH1 0x1 PUSH1 0xE0 SHL SUB NOT DUP4 AND EQ DUP1 PUSH2 0x49D JUMPI POP PUSH4 0x80AC58CD PUSH1 0xE0 SHL PUSH1 0x1 PUSH1 0x1 PUSH1 0xE0 SHL SUB NOT DUP4 AND EQ JUMPDEST DUP1 PUSH2 0x4B8 JUMPI POP PUSH4 0x5B5E139F PUSH1 0xE0 SHL PUSH1 0x1 PUSH1 0x1 PUSH1 0xE0 SHL SUB NOT DUP4 AND EQ JUMPDEST SWAP3 SWAP2 POP POP JUMP JUMPDEST PUSH1 0x60 PUSH1 0x3 DUP1 SLOAD PUSH2 0x4CD SWAP1 PUSH2 0x13C1 JUMP JUMPDEST DUP1 PUSH1 0x1F ADD PUSH1 0x20 DUP1 SWAP2 DIV MUL PUSH1 0x20 ADD PUSH1 0x40 MLOAD SWAP1 DUP2 ADD PUSH1 0x40 MSTORE DUP1 SWAP3 SWAP2 SWAP1 DUP2 DUP2 MSTORE PUSH1 0x20 ADD DUP3 DUP1 SLOAD PUSH2 0x4F9 SWAP1 PUSH2 0x13C1 JUMP JUMPDEST DUP1 ISZERO PUSH2 0x544 JUMPI DUP1 PUSH1 0x1F LT PUSH2 0x51B JUMPI PUSH2 0x100 DUP1 DUP4 SLOAD DIV MUL DUP4 MSTORE SWAP2 PUSH1 0x20 ADD SWAP2 PUSH2 0x544 JUMP JUMPDEST DUP3 ADD SWAP2 SWAP1 PUSH0 MSTORE PUSH1 0x20 PUSH0 KECCAK256 SWAP1 JUMPDEST DUP2 SLOAD DUP2 MSTORE SWAP1 PUSH1 0x1 ADD SWAP1 PUSH1 0x20 ADD DUP1 DUP4 GT PUSH2 0x527 JUMPI DUP3 SWAP1 SUB PUSH1 0x1F AND DUP3 ADD SWAP2 JUMPDEST POP POP POP POP POP SWAP1 POP SWAP1 JUMP JUMPDEST PUSH0 PUSH2 0x558 DUP3 PUSH2 0xCB9 JUMP JUMPDEST PUSH2 0x575 JUMPI PUSH1 0x40 MLOAD PUSH4 0x33D1C039 PUSH1 0xE2 SHL DUP2 MSTORE PUSH1 0x4 ADD PUSH1 0x40 MLOAD DUP1 SWAP2 SUB SWAP1 REVERT JUMPDEST POP PUSH0 SWAP1 DUP2 MSTORE PUSH1 0x7 PUSH1 0x20 MSTORE PUSH1 0x40 SWAP1 KECCAK256 SLOAD PUSH1 0x1 PUSH1 0x1 PUSH1 0xA0 SHL SUB AND SWAP1 JUMP JUMPDEST PUSH0 PUSH2 0x59A DUP3 PUSH2 0x82A JUMP JUMPDEST SWAP1 POP CALLER PUSH1 0x1 PUSH1 0x1 PUSH1 0xA0 SHL SUB DUP3 AND EQ PUSH2 0x5D3 JUMPI PUSH2 0x5B6 DUP2 CALLER PUSH2 0xBB5 JUMP JUMPDEST PUSH2 0x5D3 JUMPI PUSH1 0x40 MLOAD PUSH4 0x67D9DCA1 PUSH1 0xE1 SHL DUP2 MSTORE PUSH1 0x4 ADD PUSH1 0x40 MLOAD DUP1 SWAP2 SUB SWAP1 REVERT JUMPDEST PUSH0 DUP3 DUP2 MSTORE PUSH1 0x7 PUSH1 0x20 MSTORE PUSH1 0x40 DUP1 DUP3 KECCAK256 DUP1 SLOAD PUSH1 0x1 PUSH1 0x1 PUSH1 0xA0 SHL SUB NOT AND PUSH1 0x1 PUSH1 0x1 PUSH1 0xA0 SHL SUB DUP8 DUP2 AND SWAP2 DUP3 OR SWAP1 SWAP3 SSTORE SWAP2 MLOAD DUP6 SWAP4 SWAP2 DUP6 AND SWAP2 PUSH32 0x8C5BE1E5EBEC7D5BD14F71427D1E84F3DD0314C0F7B2291E5B200AC8C7C3B925 SWAP2 LOG4 POP POP POP JUMP JUMPDEST PUSH0 PUSH2 0x638 DUP3 PUSH2 0xCDF JUMP JUMPDEST SWAP1 POP DUP4 PUSH1 0x1 PUSH1 0x1 PUSH1 0xA0 SHL SUB AND DUP2 PUSH1 0x1 PUSH1 0x1 PUSH1 0xA0 SHL SUB AND EQ PUSH2 0x66B JUMPI PUSH1 0x40 MLOAD PUSH3 0xA11481 PUSH1 0xE8 SHL DUP2 MSTORE PUSH1 0x4 ADD PUSH1 0x40 MLOAD DUP1 SWAP2 SUB SWAP1 REVERT JUMPDEST PUSH0 DUP3 DUP2 MSTORE PUSH1 0x7 PUSH1 0x20 MSTORE PUSH1 0x40 SWAP1 KECCAK256 DUP1 SLOAD CALLER DUP1 DUP3 EQ PUSH1 0x1 PUSH1 0x1 PUSH1 0xA0 SHL SUB DUP9 AND SWAP1 SWAP2 EQ OR PUSH2 0x6B7 JUMPI PUSH2 0x69A DUP7 CALLER PUSH2 0xBB5 JUMP JUMPDEST PUSH2 0x6B7 JUMPI PUSH1 0x40 MLOAD PUSH4 0x2CE44B5F PUSH1 0xE1 SHL DUP2 MSTORE PUSH1 0x4 ADD PUSH1 0x40 MLOAD DUP1 SWAP2 SUB SWAP1 REVERT JUMPDEST PUSH1 0x1 PUSH1 0x1 PUSH1 0xA0 SHL SUB DUP6 AND PUSH2 0x6DE JUMPI PUSH1 0x40 MLOAD PUSH4 0x3A954ECD PUSH1 0xE2 SHL DUP2 MSTORE PUSH1 0x4 ADD PUSH1 0x40 MLOAD DUP1 SWAP2 SUB SWAP1 REVERT JUMPDEST DUP1 ISZERO PUSH2 0x6E8 JUMPI PUSH0 DUP3 SSTORE JUMPDEST PUSH1 0x1 PUSH1 0x1 PUSH1 0xA0 SHL SUB DUP7 DUP2 AND PUSH0 SWAP1 DUP2 MSTORE PUSH1 0x6 PUSH1 0x20 MSTORE PUSH1 0x40 DUP1 DUP3 KECCAK256 DUP1 SLOAD PUSH0 NOT ADD SWAP1 SSTORE SWAP2 DUP8 AND DUP1 DUP3 MSTORE SWAP2 SWAP1 KECCAK256 DUP1 SLOAD PUSH1 0x1 ADD SWAP1 SSTORE TIMESTAMP PUSH1 0xA0 SHL OR PUSH1 0x1 PUSH1 0xE1 SHL OR PUSH0 DUP6 DUP2 MSTORE PUSH1 0x5 PUSH1 0x20 MSTORE PUSH1 0x40 DUP2 KECCAK256 SWAP2 SWAP1 SWAP2 SSTORE PUSH1 0x1 PUSH1 0xE1 SHL DUP5 AND SWAP1 SUB PUSH2 0x775 JUMPI PUSH1 0x1 DUP5 ADD PUSH0 DUP2 DUP2 MSTORE PUSH1 0x5 PUSH1 0x20 MSTORE PUSH1 0x40 DUP2 KECCAK256 SLOAD SWAP1 SUB PUSH2 0x773 JUMPI PUSH1 0x1 SLOAD DUP2 EQ PUSH2 0x773 JUMPI PUSH0 DUP2 DUP2 MSTORE PUSH1 0x5 PUSH1 0x20 MSTORE PUSH1 0x40 SWAP1 KECCAK256 DUP5 SWAP1 SSTORE JUMPDEST POP JUMPDEST DUP4 DUP6 PUSH1 0x1 PUSH1 0x1 PUSH1 0xA0 SHL SUB AND DUP8 PUSH1 0x1 PUSH1 0x1 PUSH1 0xA0 SHL SUB AND PUSH32 0xDDF252AD1BE2C89B69C2B068FC378DAA952BA7F163C4A11628F55A4DF523B3EF PUSH1 0x40 MLOAD PUSH1 0x40 MLOAD DUP1 SWAP2 SUB SWAP1 LOG4 POP POP POP POP POP POP JUMP JUMPDEST PUSH2 0x7C6 PUSH2 0xD41 JUMP JUMPDEST PUSH1 0x40 MLOAD SELFBALANCE SWAP1 CALLER SWAP1 DUP3 ISZERO PUSH2 0x8FC MUL SWAP1 DUP4 SWAP1 PUSH0 DUP2 DUP2 DUP2 DUP6 DUP9 DUP9 CALL SWAP4 POP POP POP POP ISZERO DUP1 ISZERO PUSH2 0x7F2 JUMPI RETURNDATASIZE PUSH0 DUP1 RETURNDATACOPY RETURNDATASIZE PUSH0 REVERT JUMPDEST POP POP JUMP JUMPDEST PUSH2 0x810 DUP4 DUP4 DUP4 PUSH1 0x40 MLOAD DUP1 PUSH1 0x20 ADD PUSH1 0x40 MSTORE DUP1 PUSH0 DUP2 MSTORE POP PUSH2 0xAEA JUMP JUMPDEST POP POP POP JUMP JUMPDEST PUSH2 0x81D PUSH2 0xD41 JUMP JUMPDEST PUSH1 0xA PUSH2 0x810 DUP3 DUP5 DUP4 PUSH2 0x143D JUMP JUMPDEST PUSH0 PUSH2 0x4B8 DUP3 PUSH2 0xCDF JUMP JUMPDEST PUSH0 PUSH1 0x1 PUSH1 0x1 PUSH1 0xA0 SHL SUB DUP3 AND PUSH2 0x85C JUMPI PUSH1 0x40 MLOAD PUSH4 0x23D3AD81 PUSH1 0xE2 SHL DUP2 MSTORE PUSH1 0x4 ADD PUSH1 0x40 MLOAD DUP1 SWAP2 SUB SWAP1 REVERT JUMPDEST POP PUSH1 0x1 PUSH1 0x1 PUSH1 0xA0 SHL SUB AND PUSH0 SWAP1 DUP2 MSTORE PUSH1 0x6 PUSH1 0x20 MSTORE PUSH1 0x40 SWAP1 KECCAK256 SLOAD PUSH8 0xFFFFFFFFFFFFFFFF AND SWAP1 JUMP JUMPDEST PUSH2 0x889 PUSH2 0xD41 JUMP JUMPDEST PUSH2 0x892 PUSH0 PUSH2 0xD9A JUMP JUMPDEST JUMP JUMPDEST PUSH1 0x60 PUSH1 0x4 DUP1 SLOAD PUSH2 0x4CD SWAP1 PUSH2 0x13C1 JUMP JUMPDEST PUSH1 0x9 SLOAD PUSH1 0xFF AND ISZERO PUSH2 0x8EC JUMPI PUSH1 0x40 MLOAD PUSH3 0x461BCD PUSH1 0xE5 SHL DUP2 MSTORE PUSH1 0x20 PUSH1 0x4 DUP3 ADD MSTORE PUSH1 0xE PUSH1 0x24 DUP3 ADD MSTORE PUSH14 0x135A5B9D081A5CC81C185D5CD959 PUSH1 0x92 SHL PUSH1 0x44 DUP3 ADD MSTORE PUSH1 0x64 ADD JUMPDEST PUSH1 0x40 MLOAD DUP1 SWAP2 SUB SWAP1 REVERT JUMPDEST PUSH32 0x0 TIMESTAMP LT ISZERO PUSH2 0x94F JUMPI PUSH1 0x40 MLOAD PUSH3 0x461BCD PUSH1 0xE5 SHL DUP2 MSTORE PUSH1 0x20 PUSH1 0x4 DUP3 ADD MSTORE PUSH1 0x10 PUSH1 0x24 DUP3 ADD MSTORE PUSH16 0x14D85B19481B9BDD081CDD185C9D1959 PUSH1 0x82 SHL PUSH1 0x44 DUP3 ADD MSTORE PUSH1 0x64 ADD PUSH2 0x8E3 JUMP JUMPDEST PUSH1 0x64 DUP2 PUSH2 0x95B PUSH1 0x1 SLOAD SWAP1 JUMP JUMPDEST PUSH2 0x965 SWAP2 SWAP1 PUSH2 0x150B JUMP JUMPDEST GT ISZERO PUSH2 0x9A4 JUMPI PUSH1 0x40 MLOAD PUSH3 0x461BCD PUSH1 0xE5 SHL DUP2 MSTORE PUSH1 0x20 PUSH1 0x4 DUP3 ADD MSTORE PUSH1 0xE PUSH1 0x24 DUP3 ADD MSTORE PUSH14 0x13585E0814DD5C1C1B1E48121A5D PUSH1 0x92 SHL PUSH1 0x44 DUP3 ADD MSTORE PUSH1 0x64 ADD PUSH2 0x8E3 JUMP JUMPDEST CALLER PUSH0 SWAP1 DUP2 MSTORE PUSH1 0x6 PUSH1 0x20 MSTORE PUSH1 0x40 SWAP1 DUP2 SWAP1 KECCAK256 SLOAD PUSH1 0x5 SWAP2 PUSH2 0x9CE SWAP2 DUP5 SWAP2 SHR PUSH8 0xFFFFFFFFFFFFFFFF AND PUSH2 0x150B JUMP JUMPDEST GT ISZERO PUSH2 0xA1C JUMPI PUSH1 0x40 MLOAD PUSH3 0x461BCD PUSH1 0xE5 SHL DUP2 MSTORE PUSH1 0x20 PUSH1 0x4 DUP3 ADD MSTORE PUSH1 0x19 PUSH1 0x24 DUP3 ADD MSTORE PUSH32 0x4D6178204D696E74207065722075736572205265616368656400000000000000 PUSH1 0x44 DUP3 ADD MSTORE PUSH1 0x64 ADD PUSH2 0x8E3 JUMP JUMPDEST PUSH2 0xA2E PUSH8 0xDE0B6B3A7640000 DUP3 PUSH2 0x151E JUMP JUMPDEST CALLVALUE LT ISZERO PUSH2 0xA72 JUMPI PUSH1 0x40 MLOAD PUSH3 0x461BCD PUSH1 0xE5 SHL DUP2 MSTORE PUSH1 0x20 PUSH1 0x4 DUP3 ADD MSTORE PUSH1 0x12 PUSH1 0x24 DUP3 ADD MSTORE PUSH18 0x496E73756666696369656E742046756E6473 PUSH1 0x70 SHL PUSH1 0x44 DUP3 ADD MSTORE PUSH1 0x64 ADD PUSH2 0x8E3 JUMP JUMPDEST PUSH2 0xA7C CALLER DUP3 PUSH2 0xDE9 JUMP JUMPDEST POP JUMP JUMPDEST CALLER PUSH0 DUP2 DUP2 MSTORE PUSH1 0x8 PUSH1 0x20 SWAP1 DUP2 MSTORE PUSH1 0x40 DUP1 DUP4 KECCAK256 PUSH1 0x1 PUSH1 0x1 PUSH1 0xA0 SHL SUB DUP8 AND DUP1 DUP6 MSTORE SWAP1 DUP4 MSTORE SWAP3 DUP2 SWAP1 KECCAK256 DUP1 SLOAD PUSH1 0xFF NOT AND DUP7 ISZERO ISZERO SWAP1 DUP2 OR SWAP1 SWAP2 SSTORE SWAP1 MLOAD SWAP1 DUP2 MSTORE SWAP2 SWAP3 SWAP2 PUSH32 0x17307EAB39AB6107E8899845AD3D59BD9653F200F220920489CA2B5937696C31 SWAP2 ADD PUSH1 0x40 MLOAD DUP1 SWAP2 SUB SWAP1 LOG3 POP POP JUMP JUMPDEST PUSH2 0xAF5 DUP5 DUP5 DUP5 PUSH2 0x62E JUMP JUMPDEST PUSH1 0x1 PUSH1 0x1 PUSH1 0xA0 SHL SUB DUP4 AND EXTCODESIZE ISZERO PUSH2 0xB2E JUMPI PUSH2 0xB11 DUP5 DUP5 DUP5 DUP5 PUSH2 0xE02 JUMP JUMPDEST PUSH2 0xB2E JUMPI PUSH1 0x40 MLOAD PUSH4 0x68D2BF6B PUSH1 0xE1 SHL DUP2 MSTORE PUSH1 0x4 ADD PUSH1 0x40 MLOAD DUP1 SWAP2 SUB SWAP1 REVERT JUMPDEST POP POP POP POP JUMP JUMPDEST PUSH1 0x60 PUSH2 0xB3F DUP3 PUSH2 0xCB9 JUMP JUMPDEST PUSH2 0xB5C JUMPI PUSH1 0x40 MLOAD PUSH4 0xA14C4B5 PUSH1 0xE4 SHL DUP2 MSTORE PUSH1 0x4 ADD PUSH1 0x40 MLOAD DUP1 SWAP2 SUB SWAP1 REVERT JUMPDEST PUSH0 PUSH2 0xB65 PUSH2 0xEE9 JUMP JUMPDEST SWAP1 POP DUP1 MLOAD PUSH0 SUB PUSH2 0xB83 JUMPI PUSH1 0x40 MLOAD DUP1 PUSH1 0x20 ADD PUSH1 0x40 MSTORE DUP1 PUSH0 DUP2 MSTORE POP PUSH2 0xBAE JUMP JUMPDEST DUP1 PUSH2 0xB8D DUP5 PUSH2 0xF09 JUMP JUMPDEST PUSH1 0x40 MLOAD PUSH1 0x20 ADD PUSH2 0xB9E SWAP3 SWAP2 SWAP1 PUSH2 0x1535 JUMP JUMPDEST PUSH1 0x40 MLOAD PUSH1 0x20 DUP2 DUP4 SUB SUB DUP2 MSTORE SWAP1 PUSH1 0x40 MSTORE JUMPDEST SWAP4 SWAP3 POP POP POP JUMP JUMPDEST PUSH1 0x1 PUSH1 0x1 PUSH1 0xA0 SHL SUB SWAP2 DUP3 AND PUSH0 SWAP1 DUP2 MSTORE PUSH1 0x8 PUSH1 0x20 SWAP1 DUP2 MSTORE PUSH1 0x40 DUP1 DUP4 KECCAK256 SWAP4 SWAP1 SWAP5 AND DUP3 MSTORE SWAP2 SWAP1 SWAP2 MSTORE KECCAK256 SLOAD PUSH1 0xFF AND SWAP1 JUMP JUMPDEST PUSH2 0xBEA PUSH2 0xD41 JUMP JUMPDEST PUSH1 0x1 PUSH1 0x1 PUSH1 0xA0 SHL SUB DUP2 AND PUSH2 0xC4F JUMPI PUSH1 0x40 MLOAD PUSH3 0x461BCD PUSH1 0xE5 SHL DUP2 MSTORE PUSH1 0x20 PUSH1 0x4 DUP3 ADD MSTORE PUSH1 0x26 PUSH1 0x24 DUP3 ADD MSTORE PUSH32 0x4F776E61626C653A206E6577206F776E657220697320746865207A65726F2061 PUSH1 0x44 DUP3 ADD MSTORE PUSH6 0x646472657373 PUSH1 0xD0 SHL PUSH1 0x64 DUP3 ADD MSTORE PUSH1 0x84 ADD PUSH2 0x8E3 JUMP JUMPDEST PUSH2 0xA7C DUP2 PUSH2 0xD9A JUMP JUMPDEST PUSH2 0xC60 PUSH2 0xD41 JUMP JUMPDEST PUSH1 0x9 SLOAD PUSH1 0xFF AND ISZERO PUSH2 0xCA6 JUMPI PUSH1 0x40 MLOAD PUSH3 0x461BCD PUSH1 0xE5 SHL DUP2 MSTORE PUSH1 0x20 PUSH1 0x4 DUP3 ADD MSTORE PUSH1 0x10 PUSH1 0x24 DUP3 ADD MSTORE PUSH16 0x21B7B73A3930B1BA103830BAB9B2B217 PUSH1 0x81 SHL PUSH1 0x44 DUP3 ADD MSTORE PUSH1 0x64 ADD PUSH2 0x8E3 JUMP JUMPDEST PUSH1 0x9 DUP1 SLOAD PUSH1 0xFF NOT AND SWAP2 ISZERO ISZERO SWAP2 SWAP1 SWAP2 OR SWAP1 SSTORE JUMP JUMPDEST PUSH0 PUSH1 0x1 SLOAD DUP3 LT DUP1 ISZERO PUSH2 0x4B8 JUMPI POP POP PUSH0 SWAP1 DUP2 MSTORE PUSH1 0x5 PUSH1 0x20 MSTORE PUSH1 0x40 SWAP1 KECCAK256 SLOAD PUSH1 0x1 PUSH1 0xE0 SHL AND ISZERO SWAP1 JUMP JUMPDEST PUSH0 DUP2 PUSH1 0x1 SLOAD DUP2 LT ISZERO PUSH2 0xD28 JUMPI PUSH0 DUP2 DUP2 MSTORE PUSH1 0x5 PUSH1 0x20 MSTORE PUSH1 0x40 DUP2 KECCAK256 SLOAD SWAP1 PUSH1 0x1 PUSH1 0xE0 SHL DUP3 AND SWAP1 SUB PUSH2 0xD26 JUMPI JUMPDEST DUP1 PUSH0 SUB PUSH2 0xBAE JUMPI POP PUSH0 NOT ADD PUSH0 DUP2 DUP2 MSTORE PUSH1 0x5 PUSH1 0x20 MSTORE PUSH1 0x40 SWAP1 KECCAK256 SLOAD PUSH2 0xD08 JUMP JUMPDEST POP JUMPDEST PUSH1 0x40 MLOAD PUSH4 0x6F96CDA1 PUSH1 0xE1 SHL DUP2 MSTORE PUSH1 0x4 ADD PUSH1 0x40 MLOAD DUP1 SWAP2 SUB SWAP1 REVERT JUMPDEST PUSH0 SLOAD PUSH1 0x1 PUSH1 0x1 PUSH1 0xA0 SHL SUB AND CALLER EQ PUSH2 0x892 JUMPI PUSH1 0x40 MLOAD PUSH3 0x461BCD PUSH1 0xE5 SHL DUP2 MSTORE PUSH1 0x20 PUSH1 0x4 DUP3 ADD DUP2 SWAP1 MSTORE PUSH1 0x24 DUP3 ADD MSTORE PUSH32 0x4F776E61626C653A2063616C6C6572206973206E6F7420746865206F776E6572 PUSH1 0x44 DUP3 ADD MSTORE PUSH1 0x64 ADD PUSH2 0x8E3 JUMP JUMPDEST PUSH0 DUP1 SLOAD PUSH1 0x1 PUSH1 0x1 PUSH1 0xA0 SHL SUB DUP4 DUP2 AND PUSH1 0x1 PUSH1 0x1 PUSH1 0xA0 SHL SUB NOT DUP4 AND DUP2 OR DUP5 SSTORE PUSH1 0x40 MLOAD SWAP2 SWAP1 SWAP3 AND SWAP3 DUP4 SWAP2 PUSH32 0x8BE0079C531659141344CD1FD0A4F28419497F9722A3DAAFE3B4186F6B6457E0 SWAP2 SWAP1 LOG3 POP POP JUMP JUMPDEST PUSH2 0x7F2 DUP3 DUP3 PUSH1 0x40 MLOAD DUP1 PUSH1 0x20 ADD PUSH1 0x40 MSTORE DUP1 PUSH0 DUP2 MSTORE POP PUSH2 0xF4C JUMP JUMPDEST PUSH1 0x40 MLOAD PUSH4 0xA85BD01 PUSH1 0xE1 SHL DUP2 MSTORE PUSH0 SWAP1 PUSH1 0x1 PUSH1 0x1 PUSH1 0xA0 SHL SUB DUP6 AND SWAP1 PUSH4 0x150B7A02 SWAP1 PUSH2 0xE36 SWAP1 CALLER SWAP1 DUP10 SWAP1 DUP9 SWAP1 DUP9 SWAP1 PUSH1 0x4 ADD PUSH2 0x1563 JUMP JUMPDEST PUSH1 0x20 PUSH1 0x40 MLOAD DUP1 DUP4 SUB DUP2 PUSH0 DUP8 GAS CALL SWAP3 POP POP POP DUP1 ISZERO PUSH2 0xE70 JUMPI POP PUSH1 0x40 DUP1 MLOAD PUSH1 0x1F RETURNDATASIZE SWAP1 DUP2 ADD PUSH1 0x1F NOT AND DUP3 ADD SWAP1 SWAP3 MSTORE PUSH2 0xE6D SWAP2 DUP2 ADD SWAP1 PUSH2 0x159F JUMP JUMPDEST PUSH1 0x1 JUMPDEST PUSH2 0xECC JUMPI RETURNDATASIZE DUP1 DUP1 ISZERO PUSH2 0xE9D JUMPI PUSH1 0x40 MLOAD SWAP2 POP PUSH1 0x1F NOT PUSH1 0x3F RETURNDATASIZE ADD AND DUP3 ADD PUSH1 0x40 MSTORE RETURNDATASIZE DUP3 MSTORE RETURNDATASIZE PUSH0 PUSH1 0x20 DUP5 ADD RETURNDATACOPY PUSH2 0xEA2 JUMP JUMPDEST PUSH1 0x60 SWAP2 POP JUMPDEST POP DUP1 MLOAD PUSH0 SUB PUSH2 0xEC4 JUMPI PUSH1 0x40 MLOAD PUSH4 0x68D2BF6B PUSH1 0xE1 SHL DUP2 MSTORE PUSH1 0x4 ADD PUSH1 0x40 MLOAD DUP1 SWAP2 SUB SWAP1 REVERT JUMPDEST DUP1 MLOAD DUP2 PUSH1 0x20 ADD REVERT JUMPDEST PUSH1 0x1 PUSH1 0x1 PUSH1 0xE0 SHL SUB NOT AND PUSH4 0xA85BD01 PUSH1 0xE1 SHL EQ SWAP1 POP SWAP5 SWAP4 POP POP POP POP JUMP JUMPDEST PUSH1 0x60 PUSH1 0x40 MLOAD DUP1 PUSH1 0x80 ADD PUSH1 0x40 MSTORE DUP1 PUSH1 0x44 DUP2 MSTORE PUSH1 0x20 ADD PUSH2 0x15BB PUSH1 0x44 SWAP2 CODECOPY SWAP1 POP SWAP1 JUMP JUMPDEST PUSH1 0x60 PUSH1 0xA0 PUSH1 0x40 MLOAD ADD DUP1 PUSH1 0x40 MSTORE PUSH1 0x20 DUP2 SUB SWAP2 POP POP PUSH0 DUP2 MSTORE DUP1 DUP3 JUMPDEST PUSH1 0x1 DUP4 SUB SWAP3 POP PUSH1 0xA DUP2 MOD PUSH1 0x30 ADD DUP4 MSTORE8 PUSH1 0xA SWAP1 DIV DUP1 PUSH2 0xF22 JUMPI POP DUP2 SWAP1 SUB PUSH1 0x1F NOT SWAP1 SWAP2 ADD SWAP1 DUP2 MSTORE SWAP2 SWAP1 POP JUMP JUMPDEST PUSH2 0xF56 DUP4 DUP4 PUSH2 0xFB7 JUMP JUMPDEST PUSH1 0x1 PUSH1 0x1 PUSH1 0xA0 SHL SUB DUP4 AND EXTCODESIZE ISZERO PUSH2 0x810 JUMPI PUSH1 0x1 SLOAD DUP3 DUP2 SUB JUMPDEST PUSH2 0xF7F PUSH0 DUP7 DUP4 DUP1 PUSH1 0x1 ADD SWAP5 POP DUP7 PUSH2 0xE02 JUMP JUMPDEST PUSH2 0xF9C JUMPI PUSH1 0x40 MLOAD PUSH4 0x68D2BF6B PUSH1 0xE1 SHL DUP2 MSTORE PUSH1 0x4 ADD PUSH1 0x40 MLOAD DUP1 SWAP2 SUB SWAP1 REVERT JUMPDEST DUP2 DUP2 LT PUSH2 0xF6D JUMPI DUP2 PUSH1 0x1 SLOAD EQ PUSH2 0xFB0 JUMPI PUSH0 DUP1 REVERT JUMPDEST POP POP POP POP POP JUMP JUMPDEST PUSH1 0x1 SLOAD PUSH0 DUP3 SWAP1 SUB PUSH2 0xFDB JUMPI PUSH1 0x40 MLOAD PUSH4 0xB562E8DD PUSH1 0xE0 SHL DUP2 MSTORE PUSH1 0x4 ADD PUSH1 0x40 MLOAD DUP1 SWAP2 SUB SWAP1 REVERT JUMPDEST PUSH1 0x1 PUSH1 0x1 PUSH1 0xA0 SHL SUB DUP4 AND PUSH0 DUP2 DUP2 MSTORE PUSH1 0x6 PUSH1 0x20 SWAP1 DUP2 MSTORE PUSH1 0x40 DUP1 DUP4 KECCAK256 DUP1 SLOAD PUSH9 0x10000000000000001 DUP9 MUL ADD SWAP1 SSTORE DUP5 DUP4 MSTORE PUSH1 0x5 SWAP1 SWAP2 MSTORE DUP2 KECCAK256 PUSH1 0x1 DUP6 EQ PUSH1 0xE1 SHL TIMESTAMP PUSH1 0xA0 SHL OR DUP4 OR SWAP1 SSTORE DUP3 DUP5 ADD SWAP1 DUP4 SWAP1 DUP4 SWAP1 PUSH32 0xDDF252AD1BE2C89B69C2B068FC378DAA952BA7F163C4A11628F55A4DF523B3EF DUP2 DUP1 LOG4 PUSH1 0x1 DUP4 ADD JUMPDEST DUP2 DUP2 EQ PUSH2 0x1087 JUMPI DUP1 DUP4 PUSH0 PUSH32 0xDDF252AD1BE2C89B69C2B068FC378DAA952BA7F163C4A11628F55A4DF523B3EF PUSH0 DUP1 LOG4 PUSH1 0x1 ADD PUSH2 0x1051 JUMP JUMPDEST POP DUP2 PUSH0 SUB PUSH2 0x10A7 JUMPI PUSH1 0x40 MLOAD PUSH3 0x2E0763 PUSH1 0xE8 SHL DUP2 MSTORE PUSH1 0x4 ADD PUSH1 0x40 MLOAD DUP1 SWAP2 SUB SWAP1 REVERT JUMPDEST PUSH1 0x1 SSTORE POP POP POP POP JUMP JUMPDEST PUSH1 0x1 PUSH1 0x1 PUSH1 0xE0 SHL SUB NOT DUP2 AND DUP2 EQ PUSH2 0xA7C JUMPI PUSH0 DUP1 REVERT JUMPDEST PUSH0 PUSH1 0x20 DUP3 DUP5 SUB SLT ISZERO PUSH2 0x10D5 JUMPI PUSH0 DUP1 REVERT JUMPDEST DUP2 CALLDATALOAD PUSH2 0xBAE DUP2 PUSH2 0x10B0 JUMP JUMPDEST PUSH0 JUMPDEST DUP4 DUP2 LT ISZERO PUSH2 0x10FA JUMPI DUP2 DUP2 ADD MLOAD DUP4 DUP3 ADD MSTORE PUSH1 0x20 ADD PUSH2 0x10E2 JUMP JUMPDEST POP POP PUSH0 SWAP2 ADD MSTORE JUMP JUMPDEST PUSH0 DUP2 MLOAD DUP1 DUP5 MSTORE PUSH2 0x1119 DUP2 PUSH1 0x20 DUP7 ADD PUSH1 0x20 DUP7 ADD PUSH2 0x10E0 JUMP JUMPDEST PUSH1 0x1F ADD PUSH1 0x1F NOT AND SWAP3 SWAP1 SWAP3 ADD PUSH1 0x20 ADD SWAP3 SWAP2 POP POP JUMP JUMPDEST PUSH1 0x20 DUP2 MSTORE PUSH0 PUSH2 0xBAE PUSH1 0x20 DUP4 ADD DUP5 PUSH2 0x1102 JUMP JUMPDEST PUSH0 PUSH1 0x20 DUP3 DUP5 SUB SLT ISZERO PUSH2 0x114F JUMPI PUSH0 DUP1 REVERT JUMPDEST POP CALLDATALOAD SWAP2 SWAP1 POP JUMP JUMPDEST DUP1 CALLDATALOAD PUSH1 0x1 PUSH1 0x1 PUSH1 0xA0 SHL SUB DUP2 AND DUP2 EQ PUSH2 0x116C JUMPI PUSH0 DUP1 REVERT JUMPDEST SWAP2 SWAP1 POP JUMP JUMPDEST PUSH0 DUP1 PUSH1 0x40 DUP4 DUP6 SUB SLT ISZERO PUSH2 0x1182 JUMPI PUSH0 DUP1 REVERT JUMPDEST PUSH2 0x118B DUP4 PUSH2 0x1156 JUMP JUMPDEST SWAP5 PUSH1 0x20 SWAP4 SWAP1 SWAP4 ADD CALLDATALOAD SWAP4 POP POP POP JUMP JUMPDEST PUSH0 DUP1 PUSH0 PUSH1 0x60 DUP5 DUP7 SUB SLT ISZERO PUSH2 0x11AB JUMPI PUSH0 DUP1 REVERT JUMPDEST PUSH2 0x11B4 DUP5 PUSH2 0x1156 JUMP JUMPDEST SWAP3 POP PUSH2 0x11C2 PUSH1 0x20 DUP6 ADD PUSH2 0x1156 JUMP JUMPDEST SWAP2 POP PUSH1 0x40 DUP5 ADD CALLDATALOAD SWAP1 POP SWAP3 POP SWAP3 POP SWAP3 JUMP JUMPDEST PUSH0 DUP1 PUSH1 0x20 DUP4 DUP6 SUB SLT ISZERO PUSH2 0x11E3 JUMPI PUSH0 DUP1 REVERT JUMPDEST DUP3 CALLDATALOAD PUSH8 0xFFFFFFFFFFFFFFFF DUP1 DUP3 GT ISZERO PUSH2 0x11FA JUMPI PUSH0 DUP1 REVERT JUMPDEST DUP2 DUP6 ADD SWAP2 POP DUP6 PUSH1 0x1F DUP4 ADD SLT PUSH2 0x120D JUMPI PUSH0 DUP1 REVERT JUMPDEST DUP2 CALLDATALOAD DUP2 DUP2 GT ISZERO PUSH2 0x121B JUMPI PUSH0 DUP1 REVERT JUMPDEST DUP7 PUSH1 0x20 DUP3 DUP6 ADD ADD GT ISZERO PUSH2 0x122C JUMPI PUSH0 DUP1 REVERT JUMPDEST PUSH1 0x20 SWAP3 SWAP1 SWAP3 ADD SWAP7 SWAP2 SWAP6 POP SWAP1 SWAP4 POP POP POP POP JUMP JUMPDEST PUSH0 PUSH1 0x20 DUP3 DUP5 SUB SLT ISZERO PUSH2 0x124E JUMPI PUSH0 DUP1 REVERT JUMPDEST PUSH2 0xBAE DUP3 PUSH2 0x1156 JUMP JUMPDEST DUP1 CALLDATALOAD DUP1 ISZERO ISZERO DUP2 EQ PUSH2 0x116C JUMPI PUSH0 DUP1 REVERT JUMPDEST PUSH0 DUP1 PUSH1 0x40 DUP4 DUP6 SUB SLT ISZERO PUSH2 0x1277 JUMPI PUSH0 DUP1 REVERT JUMPDEST PUSH2 0x1280 DUP4 PUSH2 0x1156 JUMP JUMPDEST SWAP2 POP PUSH2 0x128E PUSH1 0x20 DUP5 ADD PUSH2 0x1257 JUMP JUMPDEST SWAP1 POP SWAP3 POP SWAP3 SWAP1 POP JUMP JUMPDEST PUSH4 0x4E487B71 PUSH1 0xE0 SHL PUSH0 MSTORE PUSH1 0x41 PUSH1 0x4 MSTORE PUSH1 0x24 PUSH0 REVERT JUMPDEST PUSH0 DUP1 PUSH0 DUP1 PUSH1 0x80 DUP6 DUP8 SUB SLT ISZERO PUSH2 0x12BE JUMPI PUSH0 DUP1 REVERT JUMPDEST PUSH2 0x12C7 DUP6 PUSH2 0x1156 JUMP JUMPDEST SWAP4 POP PUSH2 0x12D5 PUSH1 0x20 DUP7 ADD PUSH2 0x1156 JUMP JUMPDEST SWAP3 POP PUSH1 0x40 DUP6 ADD CALLDATALOAD SWAP2 POP PUSH1 0x60 DUP6 ADD CALLDATALOAD PUSH8 0xFFFFFFFFFFFFFFFF DUP1 DUP3 GT ISZERO PUSH2 0x12F8 JUMPI PUSH0 DUP1 REVERT JUMPDEST DUP2 DUP8 ADD SWAP2 POP DUP8 PUSH1 0x1F DUP4 ADD SLT PUSH2 0x130B JUMPI PUSH0 DUP1 REVERT JUMPDEST DUP2 CALLDATALOAD DUP2 DUP2 GT ISZERO PUSH2 0x131D JUMPI PUSH2 0x131D PUSH2 0x1297 JUMP JUMPDEST PUSH1 0x40 MLOAD PUSH1 0x1F DUP3 ADD PUSH1 0x1F NOT SWAP1 DUP2 AND PUSH1 0x3F ADD AND DUP2 ADD SWAP1 DUP4 DUP3 GT DUP2 DUP4 LT OR ISZERO PUSH2 0x1345 JUMPI PUSH2 0x1345 PUSH2 0x1297 JUMP JUMPDEST DUP2 PUSH1 0x40 MSTORE DUP3 DUP2 MSTORE DUP11 PUSH1 0x20 DUP5 DUP8 ADD ADD GT ISZERO PUSH2 0x135D JUMPI PUSH0 DUP1 REVERT JUMPDEST DUP3 PUSH1 0x20 DUP7 ADD PUSH1 0x20 DUP4 ADD CALLDATACOPY PUSH0 PUSH1 0x20 DUP5 DUP4 ADD ADD MSTORE DUP1 SWAP6 POP POP POP POP POP POP SWAP3 SWAP6 SWAP2 SWAP5 POP SWAP3 POP JUMP JUMPDEST PUSH0 DUP1 PUSH1 0x40 DUP4 DUP6 SUB SLT ISZERO PUSH2 0x1391 JUMPI PUSH0 DUP1 REVERT JUMPDEST PUSH2 0x139A DUP4 PUSH2 0x1156 JUMP JUMPDEST SWAP2 POP PUSH2 0x128E PUSH1 0x20 DUP5 ADD PUSH2 0x1156 JUMP JUMPDEST PUSH0 PUSH1 0x20 DUP3 DUP5 SUB SLT ISZERO PUSH2 0x13B8 JUMPI PUSH0 DUP1 REVERT JUMPDEST PUSH2 0xBAE DUP3 PUSH2 0x1257 JUMP JUMPDEST PUSH1 0x1 DUP2 DUP2 SHR SWAP1 DUP3 AND DUP1 PUSH2 0x13D5 JUMPI PUSH1 0x7F DUP3 AND SWAP2 POP JUMPDEST PUSH1 0x20 DUP3 LT DUP2 SUB PUSH2 0x13F3 JUMPI PUSH4 0x4E487B71 PUSH1 0xE0 SHL PUSH0 MSTORE PUSH1 0x22 PUSH1 0x4 MSTORE PUSH1 0x24 PUSH0 REVERT JUMPDEST POP SWAP2 SWAP1 POP JUMP JUMPDEST PUSH1 0x1F DUP3 GT ISZERO PUSH2 0x810 JUMPI DUP1 PUSH0 MSTORE PUSH1 0x20 PUSH0 KECCAK256 PUSH1 0x1F DUP5 ADD PUSH1 0x5 SHR DUP2 ADD PUSH1 0x20 DUP6 LT ISZERO PUSH2 0x141E JUMPI POP DUP1 JUMPDEST PUSH1 0x1F DUP5 ADD PUSH1 0x5 SHR DUP3 ADD SWAP2 POP JUMPDEST DUP2 DUP2 LT ISZERO PUSH2 0xFB0 JUMPI PUSH0 DUP2 SSTORE PUSH1 0x1 ADD PUSH2 0x142A JUMP JUMPDEST PUSH8 0xFFFFFFFFFFFFFFFF DUP4 GT ISZERO PUSH2 0x1455 JUMPI PUSH2 0x1455 PUSH2 0x1297 JUMP JUMPDEST PUSH2 0x1469 DUP4 PUSH2 0x1463 DUP4 SLOAD PUSH2 0x13C1 JUMP JUMPDEST DUP4 PUSH2 0x13F9 JUMP JUMPDEST PUSH0 PUSH1 0x1F DUP5 GT PUSH1 0x1 DUP2 EQ PUSH2 0x149A JUMPI PUSH0 DUP6 ISZERO PUSH2 0x1483 JUMPI POP DUP4 DUP3 ADD CALLDATALOAD JUMPDEST PUSH0 NOT PUSH1 0x3 DUP8 SWAP1 SHL SHR NOT AND PUSH1 0x1 DUP7 SWAP1 SHL OR DUP4 SSTORE PUSH2 0xFB0 JUMP JUMPDEST PUSH0 DUP4 DUP2 MSTORE PUSH1 0x20 DUP2 KECCAK256 PUSH1 0x1F NOT DUP8 AND SWAP2 JUMPDEST DUP3 DUP2 LT ISZERO PUSH2 0x14C9 JUMPI DUP7 DUP6 ADD CALLDATALOAD DUP3 SSTORE PUSH1 0x20 SWAP5 DUP6 ADD SWAP5 PUSH1 0x1 SWAP1 SWAP3 ADD SWAP2 ADD PUSH2 0x14A9 JUMP JUMPDEST POP DUP7 DUP3 LT ISZERO PUSH2 0x14E5 JUMPI PUSH0 NOT PUSH1 0xF8 DUP9 PUSH1 0x3 SHL AND SHR NOT DUP5 DUP8 ADD CALLDATALOAD AND DUP2 SSTORE JUMPDEST POP POP PUSH1 0x1 DUP6 PUSH1 0x1 SHL ADD DUP4 SSTORE POP POP POP POP POP JUMP JUMPDEST PUSH4 0x4E487B71 PUSH1 0xE0 SHL PUSH0 MSTORE PUSH1 0x11 PUSH1 0x4 MSTORE PUSH1 0x24 PUSH0 REVERT JUMPDEST DUP1 DUP3 ADD DUP1 DUP3 GT ISZERO PUSH2 0x4B8 JUMPI PUSH2 0x4B8 PUSH2 0x14F7 JUMP JUMPDEST DUP1 DUP3 MUL DUP2 ISZERO DUP3 DUP3 DIV DUP5 EQ OR PUSH2 0x4B8 JUMPI PUSH2 0x4B8 PUSH2 0x14F7 JUMP JUMPDEST PUSH0 DUP4 MLOAD PUSH2 0x1546 DUP2 DUP5 PUSH1 0x20 DUP9 ADD PUSH2 0x10E0 JUMP JUMPDEST DUP4 MLOAD SWAP1 DUP4 ADD SWAP1 PUSH2 0x155A DUP2 DUP4 PUSH1 0x20 DUP9 ADD PUSH2 0x10E0 JUMP JUMPDEST ADD SWAP5 SWAP4 POP POP POP POP JUMP JUMPDEST PUSH1 0x1 PUSH1 0x1 PUSH1 0xA0 SHL SUB DUP6 DUP2 AND DUP3 MSTORE DUP5 AND PUSH1 0x20 DUP3 ADD MSTORE PUSH1 0x40 DUP2 ADD DUP4 SWAP1 MSTORE PUSH1 0x80 PUSH1 0x60 DUP3 ADD DUP2 SWAP1 MSTORE PUSH0 SWAP1 PUSH2 0x1595 SWAP1 DUP4 ADD DUP5 PUSH2 0x1102 JUMP JUMPDEST SWAP7 SWAP6 POP POP POP POP POP POP JUMP JUMPDEST PUSH0 PUSH1 0x20 DUP3 DUP5 SUB SLT ISZERO PUSH2 0x15AF JUMPI PUSH0 DUP1 REVERT JUMPDEST DUP2 MLOAD PUSH2 0xBAE DUP2 PUSH2 0x10B0 JUMP INVALID PUSH9 0x747470733A2F2F6970 PUSH7 0x732E696F2F6970 PUSH7 0x732F516D507135 CODESIZE CHAINID SLOAD JUMP PUSH2 0x5A75 PUSH12 0x694236713853587A31634D69 0x4D GASLIMIT GASLIMIT POP PUSH2 0x4273 PUSH24 0x75796B544E6B66685775444E7A2FA2646970667358221220 CREATE2 0xE9 0x5C JUMP PUSH31 0xF4D7336EA45D6B5B437789397541E687A132EF2E524447343D56E664736F6C PUSH4 0x43000816 STOP CALLER "
				},
				"gasEstimates": {
					"creation": {
						"codeDepositCost": "1136800",
						"executionCost": "infinite",
						"totalCost": "infinite"
					},
					"external": {
						"MAX_SUPPLY()": "240",
						"MAX_SUPPLY_PER_USER()": "261",
						"PRICE_PER_TOKEN()": "261",
						"START_TIME()": "infinite",
						"approve(address,uint256)": "infinite",
						"balanceOf(address)": "2702",
						"getApproved(uint256)": "6919",
						"isApprovedForAll(address,address)": "infinite",
						"mint(uint256)": "infinite",
						"mintPaused()": "2343",
						"name()": "infinite",
						"owner()": "2418",
						"ownerOf(uint256)": "infinite",
						"pauseMint(bool)": "28926",
						"renounceOwnership()": "infinite",
						"safeTransferFrom(address,address,uint256)": "infinite",
						"safeTransferFrom(address,address,uint256,bytes)": "infinite",
						"setApprovalForAll(address,bool)": "infinite",
						"setBaseURI(string)": "infinite",
						"supportsInterface(bytes4)": "531",
						"symbol()": "infinite",
						"tokenURI(uint256)": "infinite",
						"totalSupply()": "4498",
						"transferFrom(address,address,uint256)": "infinite",
						"transferOwnership(address)": "28417",
						"withdraw()": "infinite"
					},
					"internal": {
						"_baseURI()": "infinite"
					}
				},
				"methodIdentifiers": {
					"MAX_SUPPLY()": "32cb6b0c",
					"MAX_SUPPLY_PER_USER()": "60f1f878",
					"PRICE_PER_TOKEN()": "833b9499",
					"START_TIME()": "ddaa26ad",
					"approve(address,uint256)": "095ea7b3",
					"balanceOf(address)": "70a08231",
					"getApproved(uint256)": "081812fc",
					"isApprovedForAll(address,address)": "e985e9c5",
					"mint(uint256)": "a0712d68",
					"mintPaused()": "7e4831d3",
					"name()": "06fdde03",
					"owner()": "8da5cb5b",
					"ownerOf(uint256)": "6352211e",
					"pauseMint(bool)": "f30e6e77",
					"renounceOwnership()": "715018a6",
					"safeTransferFrom(address,address,uint256)": "42842e0e",
					"safeTransferFrom(address,address,uint256,bytes)": "b88d4fde",
					"setApprovalForAll(address,bool)": "a22cb465",
					"setBaseURI(string)": "55f804b3",
					"supportsInterface(bytes4)": "01ffc9a7",
					"symbol()": "95d89b41",
					"tokenURI(uint256)": "c87b56dd",
					"totalSupply()": "18160ddd",
					"transferFrom(address,address,uint256)": "23b872dd",
					"transferOwnership(address)": "f2fde38b",
					"withdraw()": "3ccfd60b"
				}
			},
			"storageLayout": {
				"storage": [
					{
						"astId": 1791,
						"contract": "contracts/contracts/BatchNFTs.sol:BatchNFTs",
						"label": "_owner",
						"offset": 0,
						"slot": "0",
						"type": "t_address"
					},
					{
						"astId": 252,
						"contract": "contracts/contracts/BatchNFTs.sol:BatchNFTs",
						"label": "_currentIndex",
						"offset": 0,
						"slot": "1",
						"type": "t_uint256"
					},
					{
						"astId": 254,
						"contract": "contracts/contracts/BatchNFTs.sol:BatchNFTs",
						"label": "_burnCounter",
						"offset": 0,
						"slot": "2",
						"type": "t_uint256"
					},
					{
						"astId": 256,
						"contract": "contracts/contracts/BatchNFTs.sol:BatchNFTs",
						"label": "_name",
						"offset": 0,
						"slot": "3",
						"type": "t_string_storage"
					},
					{
						"astId": 258,
						"contract": "contracts/contracts/BatchNFTs.sol:BatchNFTs",
						"label": "_symbol",
						"offset": 0,
						"slot": "4",
						"type": "t_string_storage"
					},
					{
						"astId": 262,
						"contract": "contracts/contracts/BatchNFTs.sol:BatchNFTs",
						"label": "_packedOwnerships",
						"offset": 0,
						"slot": "5",
						"type": "t_mapping(t_uint256,t_uint256)"
					},
					{
						"astId": 266,
						"contract": "contracts/contracts/BatchNFTs.sol:BatchNFTs",
						"label": "_packedAddressData",
						"offset": 0,
						"slot": "6",
						"type": "t_mapping(t_address,t_uint256)"
					},
					{
						"astId": 271,
						"contract": "contracts/contracts/BatchNFTs.sol:BatchNFTs",
						"label": "_tokenApprovals",
						"offset": 0,
						"slot": "7",
						"type": "t_mapping(t_uint256,t_struct(TokenApprovalRef)184_storage)"
					},
					{
						"astId": 277,
						"contract": "contracts/contracts/BatchNFTs.sol:BatchNFTs",
						"label": "_operatorApprovals",
						"offset": 0,
						"slot": "8",
						"type": "t_mapping(t_address,t_mapping(t_address,t_bool))"
					},
					{
						"astId": 20,
						"contract": "contracts/contracts/BatchNFTs.sol:BatchNFTs",
						"label": "mintPaused",
						"offset": 0,
						"slot": "9",
						"type": "t_bool"
					},
					{
						"astId": 22,
						"contract": "contracts/contracts/BatchNFTs.sol:BatchNFTs",
						"label": "_baseTokenURI",
						"offset": 0,
						"slot": "10",
						"type": "t_string_storage"
					}
				],
				"types": {
					"t_address": {
						"encoding": "inplace",
						"label": "address",
						"numberOfBytes": "20"
					},
					"t_bool": {
						"encoding": "inplace",
						"label": "bool",
						"numberOfBytes": "1"
					},
					"t_mapping(t_address,t_bool)": {
						"encoding": "mapping",
						"key": "t_address",
						"label": "mapping(address => bool)",
						"numberOfBytes": "32",
						"value": "t_bool"
					},
					"t_mapping(t_address,t_mapping(t_address,t_bool))": {
						"encoding": "mapping",
						"key": "t_address",
						"label": "mapping(address => mapping(address => bool))",
						"numberOfBytes": "32",
						"value": "t_mapping(t_address,t_bool)"
					},
					"t_mapping(t_address,t_uint256)": {
						"encoding": "mapping",
						"key": "t_address",
						"label": "mapping(address => uint256)",
						"numberOfBytes": "32",
						"value": "t_uint256"
					},
					"t_mapping(t_uint256,t_struct(TokenApprovalRef)184_storage)": {
						"encoding": "mapping",
						"key": "t_uint256",
						"label": "mapping(uint256 => struct ERC721A.TokenApprovalRef)",
						"numberOfBytes": "32",
						"value": "t_struct(TokenApprovalRef)184_storage"
					},
					"t_mapping(t_uint256,t_uint256)": {
						"encoding": "mapping",
						"key": "t_uint256",
						"label": "mapping(uint256 => uint256)",
						"numberOfBytes": "32",
						"value": "t_uint256"
					},
					"t_string_storage": {
						"encoding": "bytes",
						"label": "string",
						"numberOfBytes": "32"
					},
					"t_struct(TokenApprovalRef)184_storage": {
						"encoding": "inplace",
						"label": "struct ERC721A.TokenApprovalRef",
						"members": [
							{
								"astId": 183,
								"contract": "contracts/contracts/BatchNFTs.sol:BatchNFTs",
								"label": "value",
								"offset": 0,
								"slot": "0",
								"type": "t_address"
							}
						],
						"numberOfBytes": "32"
					},
					"t_uint256": {
						"encoding": "inplace",
						"label": "uint256",
						"numberOfBytes": "32"
					}
				}
			},
			"userdoc": {
				"errors": {
					"ApprovalCallerNotOwnerNorApproved()": [
						{
							"notice": "The caller must own the token or be an approved operator."
						}
					],
					"ApprovalQueryForNonexistentToken()": [
						{
							"notice": "The token does not exist."
						}
					],
					"BalanceQueryForZeroAddress()": [
						{
							"notice": "Cannot query the balance for the zero address."
						}
					],
					"MintERC2309QuantityExceedsLimit()": [
						{
							"notice": "The `quantity` minted with ERC2309 exceeds the safety limit."
						}
					],
					"MintToZeroAddress()": [
						{
							"notice": "Cannot mint to the zero address."
						}
					],
					"MintZeroQuantity()": [
						{
							"notice": "The quantity of tokens minted must be more than zero."
						}
					],
					"OwnerQueryForNonexistentToken()": [
						{
							"notice": "The token does not exist."
						}
					],
					"OwnershipNotInitializedForExtraData()": [
						{
							"notice": "The `extraData` cannot be set on an unintialized ownership slot."
						}
					],
					"TransferCallerNotOwnerNorApproved()": [
						{
							"notice": "The caller must own the token or be an approved operator."
						}
					],
					"TransferFromIncorrectOwner()": [
						{
							"notice": "The token must be owned by `from`."
						}
					],
					"TransferToNonERC721ReceiverImplementer()": [
						{
							"notice": "Cannot safely transfer to a contract that does not implement the ERC721Receiver interface."
						}
					],
					"TransferToZeroAddress()": [
						{
							"notice": "Cannot transfer to the zero address."
						}
					],
					"URIQueryForNonexistentToken()": [
						{
							"notice": "The token does not exist."
						}
					]
				},
				"kind": "user",
				"methods": {},
				"version": 1
			}
		}
	}
}